{
	"Pratice2nd.sol": {
		"TwoFactor": {
			"abi": [
				{
					"anonymous": false,
					"inputs": [
						{
							"indexed": true,
							"internalType": "address",
							"name": "previousOwner",
							"type": "address"
						},
						{
							"indexed": true,
							"internalType": "address",
							"name": "newOwner",
							"type": "address"
						}
					],
					"name": "OwnershipTransferred",
					"type": "event"
				},
				{
					"inputs": [
						{
							"internalType": "address",
							"name": "",
							"type": "address"
						},
						{
							"internalType": "address",
							"name": "",
							"type": "address"
						},
						{
							"internalType": "uint256[]",
							"name": "",
							"type": "uint256[]"
						},
						{
							"internalType": "uint256[]",
							"name": "",
							"type": "uint256[]"
						},
						{
							"internalType": "bytes",
							"name": "",
							"type": "bytes"
						}
					],
					"name": "onERC1155BatchReceived",
					"outputs": [
						{
							"internalType": "bytes4",
							"name": "",
							"type": "bytes4"
						}
					],
					"stateMutability": "nonpayable",
					"type": "function"
				},
				{
					"inputs": [
						{
							"internalType": "address",
							"name": "",
							"type": "address"
						},
						{
							"internalType": "address",
							"name": "",
							"type": "address"
						},
						{
							"internalType": "uint256",
							"name": "",
							"type": "uint256"
						},
						{
							"internalType": "uint256",
							"name": "",
							"type": "uint256"
						},
						{
							"internalType": "bytes",
							"name": "",
							"type": "bytes"
						}
					],
					"name": "onERC1155Received",
					"outputs": [
						{
							"internalType": "bytes4",
							"name": "",
							"type": "bytes4"
						}
					],
					"stateMutability": "nonpayable",
					"type": "function"
				},
				{
					"inputs": [
						{
							"internalType": "address",
							"name": "",
							"type": "address"
						},
						{
							"internalType": "address",
							"name": "",
							"type": "address"
						},
						{
							"internalType": "uint256",
							"name": "",
							"type": "uint256"
						},
						{
							"internalType": "bytes",
							"name": "",
							"type": "bytes"
						}
					],
					"name": "onERC721Received",
					"outputs": [
						{
							"internalType": "bytes4",
							"name": "",
							"type": "bytes4"
						}
					],
					"stateMutability": "nonpayable",
					"type": "function"
				},
				{
					"inputs": [],
					"name": "owner",
					"outputs": [
						{
							"internalType": "address",
							"name": "",
							"type": "address"
						}
					],
					"stateMutability": "view",
					"type": "function"
				},
				{
					"inputs": [
						{
							"internalType": "bytes4",
							"name": "interfaceId",
							"type": "bytes4"
						}
					],
					"name": "supportsInterface",
					"outputs": [
						{
							"internalType": "bool",
							"name": "",
							"type": "bool"
						}
					],
					"stateMutability": "view",
					"type": "function"
				}
			],
			"devdoc": {
				"kind": "dev",
				"methods": {
					"onERC721Received(address,address,uint256,bytes)": {
						"details": "See {IERC721Receiver-onERC721Received}. Always returns `IERC721Receiver.onERC721Received.selector`."
					},
					"owner()": {
						"details": "Returns the address of the current owner."
					},
					"supportsInterface(bytes4)": {
						"details": "See {IERC165-supportsInterface}."
					}
				},
				"version": 1
			},
			"evm": {
				"assembly": "    /* \"Pratice2nd.sol\":345:642  contract TwoFactor is Ownable, ERC721Holder, ERC1155Holder {... */\n  mstore(0x40, 0x80)\n  callvalue\n  dup1\n  iszero\n  tag_1\n  jumpi\n  0x00\n  dup1\n  revert\ntag_1:\n  pop\n    /* \"Ownable.sol\":818:850  _transferOwnership(_msgSender()) */\n  tag_4\n    /* \"Ownable.sol\":837:849  _msgSender() */\n  tag_5\n    /* \"Ownable.sol\":837:847  _msgSender */\n  shl(0x20, tag_6)\n    /* \"Ownable.sol\":837:849  _msgSender() */\n  0x20\n  shr\n  jump\t// in\ntag_5:\n    /* \"Ownable.sol\":818:836  _transferOwnership */\n  shl(0x20, tag_7)\n    /* \"Ownable.sol\":818:850  _transferOwnership(_msgSender()) */\n  0x20\n  shr\n  jump\t// in\ntag_4:\n    /* \"Pratice2nd.sol\":345:642  contract TwoFactor is Ownable, ERC721Holder, ERC1155Holder {... */\n  jump(tag_8)\n    /* \"@openzeppelin/contracts/utils/Context.sol\":640:736  function _msgSender() internal view virtual returns (address) {... */\ntag_6:\n    /* \"@openzeppelin/contracts/utils/Context.sol\":693:700  address */\n  0x00\n    /* \"@openzeppelin/contracts/utils/Context.sol\":719:729  msg.sender */\n  caller\n    /* \"@openzeppelin/contracts/utils/Context.sol\":712:729  return msg.sender */\n  swap1\n  pop\n    /* \"@openzeppelin/contracts/utils/Context.sol\":640:736  function _msgSender() internal view virtual returns (address) {... */\n  swap1\n  jump\t// out\n    /* \"Ownable.sol\":1377:1564  function _transferOwnership(address newOwner) internal virtual {... */\ntag_7:\n    /* \"Ownable.sol\":1450:1466  address oldOwner */\n  0x00\n    /* \"Ownable.sol\":1469:1475  _owner */\n  dup1\n  0x00\n  swap1\n  sload\n  swap1\n  0x0100\n  exp\n  swap1\n  div\n  0xffffffffffffffffffffffffffffffffffffffff\n  and\n    /* \"Ownable.sol\":1450:1475  address oldOwner = _owner */\n  swap1\n  pop\n    /* \"Ownable.sol\":1494:1502  newOwner */\n  dup2\n    /* \"Ownable.sol\":1485:1491  _owner */\n  0x00\n  dup1\n    /* \"Ownable.sol\":1485:1502  _owner = newOwner */\n  0x0100\n  exp\n  dup2\n  sload\n  dup2\n  0xffffffffffffffffffffffffffffffffffffffff\n  mul\n  not\n  and\n  swap1\n  dup4\n  0xffffffffffffffffffffffffffffffffffffffff\n  and\n  mul\n  or\n  swap1\n  sstore\n  pop\n    /* \"Ownable.sol\":1548:1556  newOwner */\n  dup2\n    /* \"Ownable.sol\":1517:1557  OwnershipTransferred(oldOwner, newOwner) */\n  0xffffffffffffffffffffffffffffffffffffffff\n  and\n    /* \"Ownable.sol\":1538:1546  oldOwner */\n  dup2\n    /* \"Ownable.sol\":1517:1557  OwnershipTransferred(oldOwner, newOwner) */\n  0xffffffffffffffffffffffffffffffffffffffff\n  and\n  0x8be0079c531659141344cd1fd0a4f28419497f9722a3daafe3b4186f6b6457e0\n  mload(0x40)\n  mload(0x40)\n  dup1\n  swap2\n  sub\n  swap1\n  log3\n    /* \"Ownable.sol\":1440:1564  {... */\n  pop\n    /* \"Ownable.sol\":1377:1564  function _transferOwnership(address newOwner) internal virtual {... */\n  pop\n  jump\t// out\n    /* \"Pratice2nd.sol\":345:642  contract TwoFactor is Ownable, ERC721Holder, ERC1155Holder {... */\ntag_8:\n  dataSize(sub_0)\n  dup1\n  dataOffset(sub_0)\n  0x00\n  codecopy\n  0x00\n  return\nstop\n\nsub_0: assembly {\n        /* \"Pratice2nd.sol\":345:642  contract TwoFactor is Ownable, ERC721Holder, ERC1155Holder {... */\n      mstore(0x40, 0x80)\n      callvalue\n      dup1\n      iszero\n      tag_1\n      jumpi\n      0x00\n      dup1\n      revert\n    tag_1:\n      pop\n      jumpi(tag_2, lt(calldatasize, 0x04))\n      shr(0xe0, calldataload(0x00))\n      dup1\n      0x01ffc9a7\n      eq\n      tag_3\n      jumpi\n      dup1\n      0x150b7a02\n      eq\n      tag_4\n      jumpi\n      dup1\n      0x8da5cb5b\n      eq\n      tag_5\n      jumpi\n      dup1\n      0xbc197c81\n      eq\n      tag_6\n      jumpi\n      dup1\n      0xf23a6e61\n      eq\n      tag_7\n      jumpi\n    tag_2:\n      0x00\n      dup1\n      revert\n        /* \"@openzeppelin/contracts/token/ERC1155/utils/ERC1155Receiver.sol\":387:608  function supportsInterface(bytes4 interfaceId) public view virtual override(ERC165, IERC165) returns (bool) {... */\n    tag_3:\n      tag_8\n      0x04\n      dup1\n      calldatasize\n      sub\n      dup2\n      add\n      swap1\n      tag_9\n      swap2\n      swap1\n      tag_10\n      jump\t// in\n    tag_9:\n      tag_11\n      jump\t// in\n    tag_8:\n      mload(0x40)\n      tag_12\n      swap2\n      swap1\n      tag_13\n      jump\t// in\n    tag_12:\n      mload(0x40)\n      dup1\n      swap2\n      sub\n      swap1\n      return\n        /* \"@openzeppelin/contracts/token/ERC721/utils/ERC721Holder.sol\":588:788  function onERC721Received(... */\n    tag_4:\n      tag_14\n      0x04\n      dup1\n      calldatasize\n      sub\n      dup2\n      add\n      swap1\n      tag_15\n      swap2\n      swap1\n      tag_16\n      jump\t// in\n    tag_15:\n      tag_17\n      jump\t// in\n    tag_14:\n      mload(0x40)\n      tag_18\n      swap2\n      swap1\n      tag_19\n      jump\t// in\n    tag_18:\n      mload(0x40)\n      dup1\n      swap2\n      sub\n      swap1\n      return\n        /* \"Ownable.sol\":933:1018  function owner() public view virtual returns (address) {... */\n    tag_5:\n      tag_20\n      tag_21\n      jump\t// in\n    tag_20:\n      mload(0x40)\n      tag_22\n      swap2\n      swap1\n      tag_23\n      jump\t// in\n    tag_22:\n      mload(0x40)\n      dup1\n      swap2\n      sub\n      swap1\n      return\n        /* \"@openzeppelin/contracts/token/ERC1155/utils/ERC1155Holder.sol\":724:971  function onERC1155BatchReceived(... */\n    tag_6:\n      tag_24\n      0x04\n      dup1\n      calldatasize\n      sub\n      dup2\n      add\n      swap1\n      tag_25\n      swap2\n      swap1\n      tag_26\n      jump\t// in\n    tag_25:\n      tag_27\n      jump\t// in\n    tag_24:\n      mload(0x40)\n      tag_28\n      swap2\n      swap1\n      tag_19\n      jump\t// in\n    tag_28:\n      mload(0x40)\n      dup1\n      swap2\n      sub\n      swap1\n      return\n        /* \"@openzeppelin/contracts/token/ERC1155/utils/ERC1155Holder.sol\":499:718  function onERC1155Received(... */\n    tag_7:\n      tag_29\n      0x04\n      dup1\n      calldatasize\n      sub\n      dup2\n      add\n      swap1\n      tag_30\n      swap2\n      swap1\n      tag_31\n      jump\t// in\n    tag_30:\n      tag_32\n      jump\t// in\n    tag_29:\n      mload(0x40)\n      tag_33\n      swap2\n      swap1\n      tag_19\n      jump\t// in\n    tag_33:\n      mload(0x40)\n      dup1\n      swap2\n      sub\n      swap1\n      return\n        /* \"@openzeppelin/contracts/token/ERC1155/utils/ERC1155Receiver.sol\":387:608  function supportsInterface(bytes4 interfaceId) public view virtual override(ERC165, IERC165) returns (bool) {... */\n    tag_11:\n        /* \"@openzeppelin/contracts/token/ERC1155/utils/ERC1155Receiver.sol\":489:493  bool */\n      0x00\n        /* \"@openzeppelin/contracts/token/ERC1155/utils/ERC1155Receiver.sol\":527:561  type(IERC1155Receiver).interfaceId */\n      0x4e2312e000000000000000000000000000000000000000000000000000000000\n        /* \"@openzeppelin/contracts/token/ERC1155/utils/ERC1155Receiver.sol\":512:561  interfaceId == type(IERC1155Receiver).interfaceId */\n      not(0xffffffffffffffffffffffffffffffffffffffffffffffffffffffff)\n      and\n        /* \"@openzeppelin/contracts/token/ERC1155/utils/ERC1155Receiver.sol\":512:523  interfaceId */\n      dup3\n        /* \"@openzeppelin/contracts/token/ERC1155/utils/ERC1155Receiver.sol\":512:561  interfaceId == type(IERC1155Receiver).interfaceId */\n      not(0xffffffffffffffffffffffffffffffffffffffffffffffffffffffff)\n      and\n      eq\n        /* \"@openzeppelin/contracts/token/ERC1155/utils/ERC1155Receiver.sol\":512:601  interfaceId == type(IERC1155Receiver).interfaceId || super.supportsInterface(interfaceId) */\n      dup1\n      tag_35\n      jumpi\n      pop\n        /* \"@openzeppelin/contracts/token/ERC1155/utils/ERC1155Receiver.sol\":565:601  super.supportsInterface(interfaceId) */\n      tag_36\n        /* \"@openzeppelin/contracts/token/ERC1155/utils/ERC1155Receiver.sol\":589:600  interfaceId */\n      dup3\n        /* \"@openzeppelin/contracts/token/ERC1155/utils/ERC1155Receiver.sol\":565:588  super.supportsInterface */\n      tag_37\n        /* \"@openzeppelin/contracts/token/ERC1155/utils/ERC1155Receiver.sol\":565:601  super.supportsInterface(interfaceId) */\n      jump\t// in\n    tag_36:\n        /* \"@openzeppelin/contracts/token/ERC1155/utils/ERC1155Receiver.sol\":512:601  interfaceId == type(IERC1155Receiver).interfaceId || super.supportsInterface(interfaceId) */\n    tag_35:\n        /* \"@openzeppelin/contracts/token/ERC1155/utils/ERC1155Receiver.sol\":505:601  return interfaceId == type(IERC1155Receiver).interfaceId || super.supportsInterface(interfaceId) */\n      swap1\n      pop\n        /* \"@openzeppelin/contracts/token/ERC1155/utils/ERC1155Receiver.sol\":387:608  function supportsInterface(bytes4 interfaceId) public view virtual override(ERC165, IERC165) returns (bool) {... */\n      swap2\n      swap1\n      pop\n      jump\t// out\n        /* \"@openzeppelin/contracts/token/ERC721/utils/ERC721Holder.sol\":588:788  function onERC721Received(... */\n    tag_17:\n        /* \"@openzeppelin/contracts/token/ERC721/utils/ERC721Holder.sol\":726:732  bytes4 */\n      0x00\n        /* \"@openzeppelin/contracts/token/ERC721/utils/ERC721Holder.sol\":751:781  this.onERC721Received.selector */\n      shl(0xe0, 0x150b7a02)\n        /* \"@openzeppelin/contracts/token/ERC721/utils/ERC721Holder.sol\":744:781  return this.onERC721Received.selector */\n      swap1\n      pop\n        /* \"@openzeppelin/contracts/token/ERC721/utils/ERC721Holder.sol\":588:788  function onERC721Received(... */\n      swap5\n      swap4\n      pop\n      pop\n      pop\n      pop\n      jump\t// out\n        /* \"Ownable.sol\":933:1018  function owner() public view virtual returns (address) {... */\n    tag_21:\n        /* \"Ownable.sol\":979:986  address */\n      0x00\n        /* \"Ownable.sol\":1005:1011  _owner */\n      dup1\n      0x00\n      swap1\n      sload\n      swap1\n      0x0100\n      exp\n      swap1\n      div\n      0xffffffffffffffffffffffffffffffffffffffff\n      and\n        /* \"Ownable.sol\":998:1011  return _owner */\n      swap1\n      pop\n        /* \"Ownable.sol\":933:1018  function owner() public view virtual returns (address) {... */\n      swap1\n      jump\t// out\n        /* \"@openzeppelin/contracts/token/ERC1155/utils/ERC1155Holder.sol\":724:971  function onERC1155BatchReceived(... */\n    tag_27:\n        /* \"@openzeppelin/contracts/token/ERC1155/utils/ERC1155Holder.sol\":903:909  bytes4 */\n      0x00\n        /* \"@openzeppelin/contracts/token/ERC1155/utils/ERC1155Holder.sol\":928:964  this.onERC1155BatchReceived.selector */\n      shl(0xe0, 0xbc197c81)\n        /* \"@openzeppelin/contracts/token/ERC1155/utils/ERC1155Holder.sol\":921:964  return this.onERC1155BatchReceived.selector */\n      swap1\n      pop\n        /* \"@openzeppelin/contracts/token/ERC1155/utils/ERC1155Holder.sol\":724:971  function onERC1155BatchReceived(... */\n      swap6\n      swap5\n      pop\n      pop\n      pop\n      pop\n      pop\n      jump\t// out\n        /* \"@openzeppelin/contracts/token/ERC1155/utils/ERC1155Holder.sol\":499:718  function onERC1155Received(... */\n    tag_32:\n        /* \"@openzeppelin/contracts/token/ERC1155/utils/ERC1155Holder.sol\":655:661  bytes4 */\n      0x00\n        /* \"@openzeppelin/contracts/token/ERC1155/utils/ERC1155Holder.sol\":680:711  this.onERC1155Received.selector */\n      shl(0xe0, 0xf23a6e61)\n        /* \"@openzeppelin/contracts/token/ERC1155/utils/ERC1155Holder.sol\":673:711  return this.onERC1155Received.selector */\n      swap1\n      pop\n        /* \"@openzeppelin/contracts/token/ERC1155/utils/ERC1155Holder.sol\":499:718  function onERC1155Received(... */\n      swap6\n      swap5\n      pop\n      pop\n      pop\n      pop\n      pop\n      jump\t// out\n        /* \"@openzeppelin/contracts/utils/introspection/ERC165.sol\":829:984  function supportsInterface(bytes4 interfaceId) public view virtual override returns (bool) {... */\n    tag_37:\n        /* \"@openzeppelin/contracts/utils/introspection/ERC165.sol\":914:918  bool */\n      0x00\n        /* \"@openzeppelin/contracts/utils/introspection/ERC165.sol\":952:977  type(IERC165).interfaceId */\n      0x01ffc9a700000000000000000000000000000000000000000000000000000000\n        /* \"@openzeppelin/contracts/utils/introspection/ERC165.sol\":937:977  interfaceId == type(IERC165).interfaceId */\n      not(0xffffffffffffffffffffffffffffffffffffffffffffffffffffffff)\n      and\n        /* \"@openzeppelin/contracts/utils/introspection/ERC165.sol\":937:948  interfaceId */\n      dup3\n        /* \"@openzeppelin/contracts/utils/introspection/ERC165.sol\":937:977  interfaceId == type(IERC165).interfaceId */\n      not(0xffffffffffffffffffffffffffffffffffffffffffffffffffffffff)\n      and\n      eq\n        /* \"@openzeppelin/contracts/utils/introspection/ERC165.sol\":930:977  return interfaceId == type(IERC165).interfaceId */\n      swap1\n      pop\n        /* \"@openzeppelin/contracts/utils/introspection/ERC165.sol\":829:984  function supportsInterface(bytes4 interfaceId) public view virtual override returns (bool) {... */\n      swap2\n      swap1\n      pop\n      jump\t// out\n        /* \"#utility.yul\":24:746   */\n    tag_44:\n        /* \"#utility.yul\":120:125   */\n      0x00\n        /* \"#utility.yul\":145:226   */\n      tag_46\n        /* \"#utility.yul\":161:225   */\n      tag_47\n        /* \"#utility.yul\":218:224   */\n      dup5\n        /* \"#utility.yul\":161:225   */\n      tag_48\n      jump\t// in\n    tag_47:\n        /* \"#utility.yul\":145:226   */\n      tag_49\n      jump\t// in\n    tag_46:\n        /* \"#utility.yul\":136:226   */\n      swap1\n      pop\n        /* \"#utility.yul\":246:251   */\n      dup1\n        /* \"#utility.yul\":275:281   */\n      dup4\n        /* \"#utility.yul\":268:273   */\n      dup3\n        /* \"#utility.yul\":261:282   */\n      mstore\n        /* \"#utility.yul\":309:313   */\n      0x20\n        /* \"#utility.yul\":302:307   */\n      dup3\n        /* \"#utility.yul\":298:314   */\n      add\n        /* \"#utility.yul\":291:314   */\n      swap1\n      pop\n        /* \"#utility.yul\":335:341   */\n      dup3\n        /* \"#utility.yul\":385:388   */\n      dup6\n        /* \"#utility.yul\":377:381   */\n      0x20\n        /* \"#utility.yul\":369:375   */\n      dup7\n        /* \"#utility.yul\":365:382   */\n      mul\n        /* \"#utility.yul\":360:363   */\n      dup3\n        /* \"#utility.yul\":356:383   */\n      add\n        /* \"#utility.yul\":353:389   */\n      gt\n        /* \"#utility.yul\":350:493   */\n      iszero\n      tag_50\n      jumpi\n        /* \"#utility.yul\":404:483   */\n      tag_51\n      tag_52\n      jump\t// in\n    tag_51:\n        /* \"#utility.yul\":350:493   */\n    tag_50:\n        /* \"#utility.yul\":517:518   */\n      0x00\n        /* \"#utility.yul\":502:740   */\n    tag_53:\n        /* \"#utility.yul\":527:533   */\n      dup6\n        /* \"#utility.yul\":524:525   */\n      dup2\n        /* \"#utility.yul\":521:534   */\n      lt\n        /* \"#utility.yul\":502:740   */\n      iszero\n      tag_55\n      jumpi\n        /* \"#utility.yul\":595:598   */\n      dup2\n        /* \"#utility.yul\":624:661   */\n      tag_56\n        /* \"#utility.yul\":657:660   */\n      dup9\n        /* \"#utility.yul\":645:655   */\n      dup3\n        /* \"#utility.yul\":624:661   */\n      tag_57\n      jump\t// in\n    tag_56:\n        /* \"#utility.yul\":619:622   */\n      dup5\n        /* \"#utility.yul\":612:662   */\n      mstore\n        /* \"#utility.yul\":691:695   */\n      0x20\n        /* \"#utility.yul\":686:689   */\n      dup5\n        /* \"#utility.yul\":682:696   */\n      add\n        /* \"#utility.yul\":675:696   */\n      swap4\n      pop\n        /* \"#utility.yul\":725:729   */\n      0x20\n        /* \"#utility.yul\":720:723   */\n      dup4\n        /* \"#utility.yul\":716:730   */\n      add\n        /* \"#utility.yul\":709:730   */\n      swap3\n      pop\n        /* \"#utility.yul\":562:740   */\n      pop\n        /* \"#utility.yul\":549:550   */\n      0x01\n        /* \"#utility.yul\":546:547   */\n      dup2\n        /* \"#utility.yul\":542:551   */\n      add\n        /* \"#utility.yul\":537:551   */\n      swap1\n      pop\n        /* \"#utility.yul\":502:740   */\n      jump(tag_53)\n    tag_55:\n        /* \"#utility.yul\":506:520   */\n      pop\n        /* \"#utility.yul\":126:746   */\n      pop\n      pop\n        /* \"#utility.yul\":24:746   */\n      swap4\n      swap3\n      pop\n      pop\n      pop\n      jump\t// out\n        /* \"#utility.yul\":752:1162   */\n    tag_58:\n        /* \"#utility.yul\":829:834   */\n      0x00\n        /* \"#utility.yul\":854:919   */\n      tag_60\n        /* \"#utility.yul\":870:918   */\n      tag_61\n        /* \"#utility.yul\":911:917   */\n      dup5\n        /* \"#utility.yul\":870:918   */\n      tag_62\n      jump\t// in\n    tag_61:\n        /* \"#utility.yul\":854:919   */\n      tag_49\n      jump\t// in\n    tag_60:\n        /* \"#utility.yul\":845:919   */\n      swap1\n      pop\n        /* \"#utility.yul\":942:948   */\n      dup3\n        /* \"#utility.yul\":935:940   */\n      dup2\n        /* \"#utility.yul\":928:949   */\n      mstore\n        /* \"#utility.yul\":980:984   */\n      0x20\n        /* \"#utility.yul\":973:978   */\n      dup2\n        /* \"#utility.yul\":969:985   */\n      add\n        /* \"#utility.yul\":1018:1021   */\n      dup5\n        /* \"#utility.yul\":1009:1015   */\n      dup5\n        /* \"#utility.yul\":1004:1007   */\n      dup5\n        /* \"#utility.yul\":1000:1016   */\n      add\n        /* \"#utility.yul\":997:1022   */\n      gt\n        /* \"#utility.yul\":994:1106   */\n      iszero\n      tag_63\n      jumpi\n        /* \"#utility.yul\":1025:1104   */\n      tag_64\n      tag_65\n      jump\t// in\n    tag_64:\n        /* \"#utility.yul\":994:1106   */\n    tag_63:\n        /* \"#utility.yul\":1115:1156   */\n      tag_66\n        /* \"#utility.yul\":1149:1155   */\n      dup5\n        /* \"#utility.yul\":1144:1147   */\n      dup3\n        /* \"#utility.yul\":1139:1142   */\n      dup6\n        /* \"#utility.yul\":1115:1156   */\n      tag_67\n      jump\t// in\n    tag_66:\n        /* \"#utility.yul\":835:1162   */\n      pop\n        /* \"#utility.yul\":752:1162   */\n      swap4\n      swap3\n      pop\n      pop\n      pop\n      jump\t// out\n        /* \"#utility.yul\":1168:1307   */\n    tag_68:\n        /* \"#utility.yul\":1214:1219   */\n      0x00\n        /* \"#utility.yul\":1252:1258   */\n      dup2\n        /* \"#utility.yul\":1239:1259   */\n      calldataload\n        /* \"#utility.yul\":1230:1259   */\n      swap1\n      pop\n        /* \"#utility.yul\":1268:1301   */\n      tag_70\n        /* \"#utility.yul\":1295:1300   */\n      dup2\n        /* \"#utility.yul\":1268:1301   */\n      tag_71\n      jump\t// in\n    tag_70:\n        /* \"#utility.yul\":1168:1307   */\n      swap3\n      swap2\n      pop\n      pop\n      jump\t// out\n        /* \"#utility.yul\":1330:1700   */\n    tag_72:\n        /* \"#utility.yul\":1401:1406   */\n      0x00\n        /* \"#utility.yul\":1450:1453   */\n      dup3\n        /* \"#utility.yul\":1443:1447   */\n      0x1f\n        /* \"#utility.yul\":1435:1441   */\n      dup4\n        /* \"#utility.yul\":1431:1448   */\n      add\n        /* \"#utility.yul\":1427:1454   */\n      slt\n        /* \"#utility.yul\":1417:1539   */\n      tag_74\n      jumpi\n        /* \"#utility.yul\":1458:1537   */\n      tag_75\n      tag_76\n      jump\t// in\n    tag_75:\n        /* \"#utility.yul\":1417:1539   */\n    tag_74:\n        /* \"#utility.yul\":1575:1581   */\n      dup2\n        /* \"#utility.yul\":1562:1582   */\n      calldataload\n        /* \"#utility.yul\":1600:1694   */\n      tag_77\n        /* \"#utility.yul\":1690:1693   */\n      dup5\n        /* \"#utility.yul\":1682:1688   */\n      dup3\n        /* \"#utility.yul\":1675:1679   */\n      0x20\n        /* \"#utility.yul\":1667:1673   */\n      dup7\n        /* \"#utility.yul\":1663:1680   */\n      add\n        /* \"#utility.yul\":1600:1694   */\n      tag_44\n      jump\t// in\n    tag_77:\n        /* \"#utility.yul\":1591:1694   */\n      swap2\n      pop\n        /* \"#utility.yul\":1407:1700   */\n      pop\n        /* \"#utility.yul\":1330:1700   */\n      swap3\n      swap2\n      pop\n      pop\n      jump\t// out\n        /* \"#utility.yul\":1706:1843   */\n    tag_78:\n        /* \"#utility.yul\":1751:1756   */\n      0x00\n        /* \"#utility.yul\":1789:1795   */\n      dup2\n        /* \"#utility.yul\":1776:1796   */\n      calldataload\n        /* \"#utility.yul\":1767:1796   */\n      swap1\n      pop\n        /* \"#utility.yul\":1805:1837   */\n      tag_80\n        /* \"#utility.yul\":1831:1836   */\n      dup2\n        /* \"#utility.yul\":1805:1837   */\n      tag_81\n      jump\t// in\n    tag_80:\n        /* \"#utility.yul\":1706:1843   */\n      swap3\n      swap2\n      pop\n      pop\n      jump\t// out\n        /* \"#utility.yul\":1862:2200   */\n    tag_82:\n        /* \"#utility.yul\":1917:1922   */\n      0x00\n        /* \"#utility.yul\":1966:1969   */\n      dup3\n        /* \"#utility.yul\":1959:1963   */\n      0x1f\n        /* \"#utility.yul\":1951:1957   */\n      dup4\n        /* \"#utility.yul\":1947:1964   */\n      add\n        /* \"#utility.yul\":1943:1970   */\n      slt\n        /* \"#utility.yul\":1933:2055   */\n      tag_84\n      jumpi\n        /* \"#utility.yul\":1974:2053   */\n      tag_85\n      tag_76\n      jump\t// in\n    tag_85:\n        /* \"#utility.yul\":1933:2055   */\n    tag_84:\n        /* \"#utility.yul\":2091:2097   */\n      dup2\n        /* \"#utility.yul\":2078:2098   */\n      calldataload\n        /* \"#utility.yul\":2116:2194   */\n      tag_86\n        /* \"#utility.yul\":2190:2193   */\n      dup5\n        /* \"#utility.yul\":2182:2188   */\n      dup3\n        /* \"#utility.yul\":2175:2179   */\n      0x20\n        /* \"#utility.yul\":2167:2173   */\n      dup7\n        /* \"#utility.yul\":2163:2180   */\n      add\n        /* \"#utility.yul\":2116:2194   */\n      tag_58\n      jump\t// in\n    tag_86:\n        /* \"#utility.yul\":2107:2194   */\n      swap2\n      pop\n        /* \"#utility.yul\":1923:2200   */\n      pop\n        /* \"#utility.yul\":1862:2200   */\n      swap3\n      swap2\n      pop\n      pop\n      jump\t// out\n        /* \"#utility.yul\":2206:2345   */\n    tag_57:\n        /* \"#utility.yul\":2252:2257   */\n      0x00\n        /* \"#utility.yul\":2290:2296   */\n      dup2\n        /* \"#utility.yul\":2277:2297   */\n      calldataload\n        /* \"#utility.yul\":2268:2297   */\n      swap1\n      pop\n        /* \"#utility.yul\":2306:2339   */\n      tag_88\n        /* \"#utility.yul\":2333:2338   */\n      dup2\n        /* \"#utility.yul\":2306:2339   */\n      tag_89\n      jump\t// in\n    tag_88:\n        /* \"#utility.yul\":2206:2345   */\n      swap3\n      swap2\n      pop\n      pop\n      jump\t// out\n        /* \"#utility.yul\":2351:3860   */\n    tag_26:\n        /* \"#utility.yul\":2505:2511   */\n      0x00\n        /* \"#utility.yul\":2513:2519   */\n      dup1\n        /* \"#utility.yul\":2521:2527   */\n      0x00\n        /* \"#utility.yul\":2529:2535   */\n      dup1\n        /* \"#utility.yul\":2537:2543   */\n      0x00\n        /* \"#utility.yul\":2586:2589   */\n      0xa0\n        /* \"#utility.yul\":2574:2583   */\n      dup7\n        /* \"#utility.yul\":2565:2572   */\n      dup9\n        /* \"#utility.yul\":2561:2584   */\n      sub\n        /* \"#utility.yul\":2557:2590   */\n      slt\n        /* \"#utility.yul\":2554:2674   */\n      iszero\n      tag_91\n      jumpi\n        /* \"#utility.yul\":2593:2672   */\n      tag_92\n      tag_93\n      jump\t// in\n    tag_92:\n        /* \"#utility.yul\":2554:2674   */\n    tag_91:\n        /* \"#utility.yul\":2713:2714   */\n      0x00\n        /* \"#utility.yul\":2738:2791   */\n      tag_94\n        /* \"#utility.yul\":2783:2790   */\n      dup9\n        /* \"#utility.yul\":2774:2780   */\n      dup3\n        /* \"#utility.yul\":2763:2772   */\n      dup10\n        /* \"#utility.yul\":2759:2781   */\n      add\n        /* \"#utility.yul\":2738:2791   */\n      tag_68\n      jump\t// in\n    tag_94:\n        /* \"#utility.yul\":2728:2791   */\n      swap6\n      pop\n        /* \"#utility.yul\":2684:2801   */\n      pop\n        /* \"#utility.yul\":2840:2842   */\n      0x20\n        /* \"#utility.yul\":2866:2919   */\n      tag_95\n        /* \"#utility.yul\":2911:2918   */\n      dup9\n        /* \"#utility.yul\":2902:2908   */\n      dup3\n        /* \"#utility.yul\":2891:2900   */\n      dup10\n        /* \"#utility.yul\":2887:2909   */\n      add\n        /* \"#utility.yul\":2866:2919   */\n      tag_68\n      jump\t// in\n    tag_95:\n        /* \"#utility.yul\":2856:2919   */\n      swap5\n      pop\n        /* \"#utility.yul\":2811:2929   */\n      pop\n        /* \"#utility.yul\":2996:2998   */\n      0x40\n        /* \"#utility.yul\":2985:2994   */\n      dup7\n        /* \"#utility.yul\":2981:2999   */\n      add\n        /* \"#utility.yul\":2968:3000   */\n      calldataload\n        /* \"#utility.yul\":3027:3045   */\n      0xffffffffffffffff\n        /* \"#utility.yul\":3019:3025   */\n      dup2\n        /* \"#utility.yul\":3016:3046   */\n      gt\n        /* \"#utility.yul\":3013:3130   */\n      iszero\n      tag_96\n      jumpi\n        /* \"#utility.yul\":3049:3128   */\n      tag_97\n      tag_98\n      jump\t// in\n    tag_97:\n        /* \"#utility.yul\":3013:3130   */\n    tag_96:\n        /* \"#utility.yul\":3154:3232   */\n      tag_99\n        /* \"#utility.yul\":3224:3231   */\n      dup9\n        /* \"#utility.yul\":3215:3221   */\n      dup3\n        /* \"#utility.yul\":3204:3213   */\n      dup10\n        /* \"#utility.yul\":3200:3222   */\n      add\n        /* \"#utility.yul\":3154:3232   */\n      tag_72\n      jump\t// in\n    tag_99:\n        /* \"#utility.yul\":3144:3232   */\n      swap4\n      pop\n        /* \"#utility.yul\":2939:3242   */\n      pop\n        /* \"#utility.yul\":3309:3311   */\n      0x60\n        /* \"#utility.yul\":3298:3307   */\n      dup7\n        /* \"#utility.yul\":3294:3312   */\n      add\n        /* \"#utility.yul\":3281:3313   */\n      calldataload\n        /* \"#utility.yul\":3340:3358   */\n      0xffffffffffffffff\n        /* \"#utility.yul\":3332:3338   */\n      dup2\n        /* \"#utility.yul\":3329:3359   */\n      gt\n        /* \"#utility.yul\":3326:3443   */\n      iszero\n      tag_100\n      jumpi\n        /* \"#utility.yul\":3362:3441   */\n      tag_101\n      tag_98\n      jump\t// in\n    tag_101:\n        /* \"#utility.yul\":3326:3443   */\n    tag_100:\n        /* \"#utility.yul\":3467:3545   */\n      tag_102\n        /* \"#utility.yul\":3537:3544   */\n      dup9\n        /* \"#utility.yul\":3528:3534   */\n      dup3\n        /* \"#utility.yul\":3517:3526   */\n      dup10\n        /* \"#utility.yul\":3513:3535   */\n      add\n        /* \"#utility.yul\":3467:3545   */\n      tag_72\n      jump\t// in\n    tag_102:\n        /* \"#utility.yul\":3457:3545   */\n      swap3\n      pop\n        /* \"#utility.yul\":3252:3555   */\n      pop\n        /* \"#utility.yul\":3622:3625   */\n      0x80\n        /* \"#utility.yul\":3611:3620   */\n      dup7\n        /* \"#utility.yul\":3607:3626   */\n      add\n        /* \"#utility.yul\":3594:3627   */\n      calldataload\n        /* \"#utility.yul\":3654:3672   */\n      0xffffffffffffffff\n        /* \"#utility.yul\":3646:3652   */\n      dup2\n        /* \"#utility.yul\":3643:3673   */\n      gt\n        /* \"#utility.yul\":3640:3757   */\n      iszero\n      tag_103\n      jumpi\n        /* \"#utility.yul\":3676:3755   */\n      tag_104\n      tag_98\n      jump\t// in\n    tag_104:\n        /* \"#utility.yul\":3640:3757   */\n    tag_103:\n        /* \"#utility.yul\":3781:3843   */\n      tag_105\n        /* \"#utility.yul\":3835:3842   */\n      dup9\n        /* \"#utility.yul\":3826:3832   */\n      dup3\n        /* \"#utility.yul\":3815:3824   */\n      dup10\n        /* \"#utility.yul\":3811:3833   */\n      add\n        /* \"#utility.yul\":3781:3843   */\n      tag_82\n      jump\t// in\n    tag_105:\n        /* \"#utility.yul\":3771:3843   */\n      swap2\n      pop\n        /* \"#utility.yul\":3565:3853   */\n      pop\n        /* \"#utility.yul\":2351:3860   */\n      swap3\n      swap6\n      pop\n      swap3\n      swap6\n      swap1\n      swap4\n      pop\n      jump\t// out\n        /* \"#utility.yul\":3866:4809   */\n    tag_16:\n        /* \"#utility.yul\":3961:3967   */\n      0x00\n        /* \"#utility.yul\":3969:3975   */\n      dup1\n        /* \"#utility.yul\":3977:3983   */\n      0x00\n        /* \"#utility.yul\":3985:3991   */\n      dup1\n        /* \"#utility.yul\":4034:4037   */\n      0x80\n        /* \"#utility.yul\":4022:4031   */\n      dup6\n        /* \"#utility.yul\":4013:4020   */\n      dup8\n        /* \"#utility.yul\":4009:4032   */\n      sub\n        /* \"#utility.yul\":4005:4038   */\n      slt\n        /* \"#utility.yul\":4002:4122   */\n      iszero\n      tag_107\n      jumpi\n        /* \"#utility.yul\":4041:4120   */\n      tag_108\n      tag_93\n      jump\t// in\n    tag_108:\n        /* \"#utility.yul\":4002:4122   */\n    tag_107:\n        /* \"#utility.yul\":4161:4162   */\n      0x00\n        /* \"#utility.yul\":4186:4239   */\n      tag_109\n        /* \"#utility.yul\":4231:4238   */\n      dup8\n        /* \"#utility.yul\":4222:4228   */\n      dup3\n        /* \"#utility.yul\":4211:4220   */\n      dup9\n        /* \"#utility.yul\":4207:4229   */\n      add\n        /* \"#utility.yul\":4186:4239   */\n      tag_68\n      jump\t// in\n    tag_109:\n        /* \"#utility.yul\":4176:4239   */\n      swap5\n      pop\n        /* \"#utility.yul\":4132:4249   */\n      pop\n        /* \"#utility.yul\":4288:4290   */\n      0x20\n        /* \"#utility.yul\":4314:4367   */\n      tag_110\n        /* \"#utility.yul\":4359:4366   */\n      dup8\n        /* \"#utility.yul\":4350:4356   */\n      dup3\n        /* \"#utility.yul\":4339:4348   */\n      dup9\n        /* \"#utility.yul\":4335:4357   */\n      add\n        /* \"#utility.yul\":4314:4367   */\n      tag_68\n      jump\t// in\n    tag_110:\n        /* \"#utility.yul\":4304:4367   */\n      swap4\n      pop\n        /* \"#utility.yul\":4259:4377   */\n      pop\n        /* \"#utility.yul\":4416:4418   */\n      0x40\n        /* \"#utility.yul\":4442:4495   */\n      tag_111\n        /* \"#utility.yul\":4487:4494   */\n      dup8\n        /* \"#utility.yul\":4478:4484   */\n      dup3\n        /* \"#utility.yul\":4467:4476   */\n      dup9\n        /* \"#utility.yul\":4463:4485   */\n      add\n        /* \"#utility.yul\":4442:4495   */\n      tag_57\n      jump\t// in\n    tag_111:\n        /* \"#utility.yul\":4432:4495   */\n      swap3\n      pop\n        /* \"#utility.yul\":4387:4505   */\n      pop\n        /* \"#utility.yul\":4572:4574   */\n      0x60\n        /* \"#utility.yul\":4561:4570   */\n      dup6\n        /* \"#utility.yul\":4557:4575   */\n      add\n        /* \"#utility.yul\":4544:4576   */\n      calldataload\n        /* \"#utility.yul\":4603:4621   */\n      0xffffffffffffffff\n        /* \"#utility.yul\":4595:4601   */\n      dup2\n        /* \"#utility.yul\":4592:4622   */\n      gt\n        /* \"#utility.yul\":4589:4706   */\n      iszero\n      tag_112\n      jumpi\n        /* \"#utility.yul\":4625:4704   */\n      tag_113\n      tag_98\n      jump\t// in\n    tag_113:\n        /* \"#utility.yul\":4589:4706   */\n    tag_112:\n        /* \"#utility.yul\":4730:4792   */\n      tag_114\n        /* \"#utility.yul\":4784:4791   */\n      dup8\n        /* \"#utility.yul\":4775:4781   */\n      dup3\n        /* \"#utility.yul\":4764:4773   */\n      dup9\n        /* \"#utility.yul\":4760:4782   */\n      add\n        /* \"#utility.yul\":4730:4792   */\n      tag_82\n      jump\t// in\n    tag_114:\n        /* \"#utility.yul\":4720:4792   */\n      swap2\n      pop\n        /* \"#utility.yul\":4515:4802   */\n      pop\n        /* \"#utility.yul\":3866:4809   */\n      swap3\n      swap6\n      swap2\n      swap5\n      pop\n      swap3\n      pop\n      jump\t// out\n        /* \"#utility.yul\":4815:5904   */\n    tag_31:\n        /* \"#utility.yul\":4919:4925   */\n      0x00\n        /* \"#utility.yul\":4927:4933   */\n      dup1\n        /* \"#utility.yul\":4935:4941   */\n      0x00\n        /* \"#utility.yul\":4943:4949   */\n      dup1\n        /* \"#utility.yul\":4951:4957   */\n      0x00\n        /* \"#utility.yul\":5000:5003   */\n      0xa0\n        /* \"#utility.yul\":4988:4997   */\n      dup7\n        /* \"#utility.yul\":4979:4986   */\n      dup9\n        /* \"#utility.yul\":4975:4998   */\n      sub\n        /* \"#utility.yul\":4971:5004   */\n      slt\n        /* \"#utility.yul\":4968:5088   */\n      iszero\n      tag_116\n      jumpi\n        /* \"#utility.yul\":5007:5086   */\n      tag_117\n      tag_93\n      jump\t// in\n    tag_117:\n        /* \"#utility.yul\":4968:5088   */\n    tag_116:\n        /* \"#utility.yul\":5127:5128   */\n      0x00\n        /* \"#utility.yul\":5152:5205   */\n      tag_118\n        /* \"#utility.yul\":5197:5204   */\n      dup9\n        /* \"#utility.yul\":5188:5194   */\n      dup3\n        /* \"#utility.yul\":5177:5186   */\n      dup10\n        /* \"#utility.yul\":5173:5195   */\n      add\n        /* \"#utility.yul\":5152:5205   */\n      tag_68\n      jump\t// in\n    tag_118:\n        /* \"#utility.yul\":5142:5205   */\n      swap6\n      pop\n        /* \"#utility.yul\":5098:5215   */\n      pop\n        /* \"#utility.yul\":5254:5256   */\n      0x20\n        /* \"#utility.yul\":5280:5333   */\n      tag_119\n        /* \"#utility.yul\":5325:5332   */\n      dup9\n        /* \"#utility.yul\":5316:5322   */\n      dup3\n        /* \"#utility.yul\":5305:5314   */\n      dup10\n        /* \"#utility.yul\":5301:5323   */\n      add\n        /* \"#utility.yul\":5280:5333   */\n      tag_68\n      jump\t// in\n    tag_119:\n        /* \"#utility.yul\":5270:5333   */\n      swap5\n      pop\n        /* \"#utility.yul\":5225:5343   */\n      pop\n        /* \"#utility.yul\":5382:5384   */\n      0x40\n        /* \"#utility.yul\":5408:5461   */\n      tag_120\n        /* \"#utility.yul\":5453:5460   */\n      dup9\n        /* \"#utility.yul\":5444:5450   */\n      dup3\n        /* \"#utility.yul\":5433:5442   */\n      dup10\n        /* \"#utility.yul\":5429:5451   */\n      add\n        /* \"#utility.yul\":5408:5461   */\n      tag_57\n      jump\t// in\n    tag_120:\n        /* \"#utility.yul\":5398:5461   */\n      swap4\n      pop\n        /* \"#utility.yul\":5353:5471   */\n      pop\n        /* \"#utility.yul\":5510:5512   */\n      0x60\n        /* \"#utility.yul\":5536:5589   */\n      tag_121\n        /* \"#utility.yul\":5581:5588   */\n      dup9\n        /* \"#utility.yul\":5572:5578   */\n      dup3\n        /* \"#utility.yul\":5561:5570   */\n      dup10\n        /* \"#utility.yul\":5557:5579   */\n      add\n        /* \"#utility.yul\":5536:5589   */\n      tag_57\n      jump\t// in\n    tag_121:\n        /* \"#utility.yul\":5526:5589   */\n      swap3\n      pop\n        /* \"#utility.yul\":5481:5599   */\n      pop\n        /* \"#utility.yul\":5666:5669   */\n      0x80\n        /* \"#utility.yul\":5655:5664   */\n      dup7\n        /* \"#utility.yul\":5651:5670   */\n      add\n        /* \"#utility.yul\":5638:5671   */\n      calldataload\n        /* \"#utility.yul\":5698:5716   */\n      0xffffffffffffffff\n        /* \"#utility.yul\":5690:5696   */\n      dup2\n        /* \"#utility.yul\":5687:5717   */\n      gt\n        /* \"#utility.yul\":5684:5801   */\n      iszero\n      tag_122\n      jumpi\n        /* \"#utility.yul\":5720:5799   */\n      tag_123\n      tag_98\n      jump\t// in\n    tag_123:\n        /* \"#utility.yul\":5684:5801   */\n    tag_122:\n        /* \"#utility.yul\":5825:5887   */\n      tag_124\n        /* \"#utility.yul\":5879:5886   */\n      dup9\n        /* \"#utility.yul\":5870:5876   */\n      dup3\n        /* \"#utility.yul\":5859:5868   */\n      dup10\n        /* \"#utility.yul\":5855:5877   */\n      add\n        /* \"#utility.yul\":5825:5887   */\n      tag_82\n      jump\t// in\n    tag_124:\n        /* \"#utility.yul\":5815:5887   */\n      swap2\n      pop\n        /* \"#utility.yul\":5609:5897   */\n      pop\n        /* \"#utility.yul\":4815:5904   */\n      swap3\n      swap6\n      pop\n      swap3\n      swap6\n      swap1\n      swap4\n      pop\n      jump\t// out\n        /* \"#utility.yul\":5910:6237   */\n    tag_10:\n        /* \"#utility.yul\":5968:5974   */\n      0x00\n        /* \"#utility.yul\":6017:6019   */\n      0x20\n        /* \"#utility.yul\":6005:6014   */\n      dup3\n        /* \"#utility.yul\":5996:6003   */\n      dup5\n        /* \"#utility.yul\":5992:6015   */\n      sub\n        /* \"#utility.yul\":5988:6020   */\n      slt\n        /* \"#utility.yul\":5985:6104   */\n      iszero\n      tag_126\n      jumpi\n        /* \"#utility.yul\":6023:6102   */\n      tag_127\n      tag_93\n      jump\t// in\n    tag_127:\n        /* \"#utility.yul\":5985:6104   */\n    tag_126:\n        /* \"#utility.yul\":6143:6144   */\n      0x00\n        /* \"#utility.yul\":6168:6220   */\n      tag_128\n        /* \"#utility.yul\":6212:6219   */\n      dup5\n        /* \"#utility.yul\":6203:6209   */\n      dup3\n        /* \"#utility.yul\":6192:6201   */\n      dup6\n        /* \"#utility.yul\":6188:6210   */\n      add\n        /* \"#utility.yul\":6168:6220   */\n      tag_78\n      jump\t// in\n    tag_128:\n        /* \"#utility.yul\":6158:6220   */\n      swap2\n      pop\n        /* \"#utility.yul\":6114:6230   */\n      pop\n        /* \"#utility.yul\":5910:6237   */\n      swap3\n      swap2\n      pop\n      pop\n      jump\t// out\n        /* \"#utility.yul\":6243:6361   */\n    tag_129:\n        /* \"#utility.yul\":6330:6354   */\n      tag_131\n        /* \"#utility.yul\":6348:6353   */\n      dup2\n        /* \"#utility.yul\":6330:6354   */\n      tag_132\n      jump\t// in\n    tag_131:\n        /* \"#utility.yul\":6325:6328   */\n      dup3\n        /* \"#utility.yul\":6318:6355   */\n      mstore\n        /* \"#utility.yul\":6243:6361   */\n      pop\n      pop\n      jump\t// out\n        /* \"#utility.yul\":6367:6476   */\n    tag_133:\n        /* \"#utility.yul\":6448:6469   */\n      tag_135\n        /* \"#utility.yul\":6463:6468   */\n      dup2\n        /* \"#utility.yul\":6448:6469   */\n      tag_136\n      jump\t// in\n    tag_135:\n        /* \"#utility.yul\":6443:6446   */\n      dup3\n        /* \"#utility.yul\":6436:6470   */\n      mstore\n        /* \"#utility.yul\":6367:6476   */\n      pop\n      pop\n      jump\t// out\n        /* \"#utility.yul\":6482:6597   */\n    tag_137:\n        /* \"#utility.yul\":6567:6590   */\n      tag_139\n        /* \"#utility.yul\":6584:6589   */\n      dup2\n        /* \"#utility.yul\":6567:6590   */\n      tag_140\n      jump\t// in\n    tag_139:\n        /* \"#utility.yul\":6562:6565   */\n      dup3\n        /* \"#utility.yul\":6555:6591   */\n      mstore\n        /* \"#utility.yul\":6482:6597   */\n      pop\n      pop\n      jump\t// out\n        /* \"#utility.yul\":6603:6825   */\n    tag_23:\n        /* \"#utility.yul\":6696:6700   */\n      0x00\n        /* \"#utility.yul\":6734:6736   */\n      0x20\n        /* \"#utility.yul\":6723:6732   */\n      dup3\n        /* \"#utility.yul\":6719:6737   */\n      add\n        /* \"#utility.yul\":6711:6737   */\n      swap1\n      pop\n        /* \"#utility.yul\":6747:6818   */\n      tag_142\n        /* \"#utility.yul\":6815:6816   */\n      0x00\n        /* \"#utility.yul\":6804:6813   */\n      dup4\n        /* \"#utility.yul\":6800:6817   */\n      add\n        /* \"#utility.yul\":6791:6797   */\n      dup5\n        /* \"#utility.yul\":6747:6818   */\n      tag_129\n      jump\t// in\n    tag_142:\n        /* \"#utility.yul\":6603:6825   */\n      swap3\n      swap2\n      pop\n      pop\n      jump\t// out\n        /* \"#utility.yul\":6831:7041   */\n    tag_13:\n        /* \"#utility.yul\":6918:6922   */\n      0x00\n        /* \"#utility.yul\":6956:6958   */\n      0x20\n        /* \"#utility.yul\":6945:6954   */\n      dup3\n        /* \"#utility.yul\":6941:6959   */\n      add\n        /* \"#utility.yul\":6933:6959   */\n      swap1\n      pop\n        /* \"#utility.yul\":6969:7034   */\n      tag_144\n        /* \"#utility.yul\":7031:7032   */\n      0x00\n        /* \"#utility.yul\":7020:7029   */\n      dup4\n        /* \"#utility.yul\":7016:7033   */\n      add\n        /* \"#utility.yul\":7007:7013   */\n      dup5\n        /* \"#utility.yul\":6969:7034   */\n      tag_133\n      jump\t// in\n    tag_144:\n        /* \"#utility.yul\":6831:7041   */\n      swap3\n      swap2\n      pop\n      pop\n      jump\t// out\n        /* \"#utility.yul\":7047:7265   */\n    tag_19:\n        /* \"#utility.yul\":7138:7142   */\n      0x00\n        /* \"#utility.yul\":7176:7178   */\n      0x20\n        /* \"#utility.yul\":7165:7174   */\n      dup3\n        /* \"#utility.yul\":7161:7179   */\n      add\n        /* \"#utility.yul\":7153:7179   */\n      swap1\n      pop\n        /* \"#utility.yul\":7189:7258   */\n      tag_146\n        /* \"#utility.yul\":7255:7256   */\n      0x00\n        /* \"#utility.yul\":7244:7253   */\n      dup4\n        /* \"#utility.yul\":7240:7257   */\n      add\n        /* \"#utility.yul\":7231:7237   */\n      dup5\n        /* \"#utility.yul\":7189:7258   */\n      tag_137\n      jump\t// in\n    tag_146:\n        /* \"#utility.yul\":7047:7265   */\n      swap3\n      swap2\n      pop\n      pop\n      jump\t// out\n        /* \"#utility.yul\":7271:7400   */\n    tag_49:\n        /* \"#utility.yul\":7305:7311   */\n      0x00\n        /* \"#utility.yul\":7332:7352   */\n      tag_148\n      tag_149\n      jump\t// in\n    tag_148:\n        /* \"#utility.yul\":7322:7352   */\n      swap1\n      pop\n        /* \"#utility.yul\":7361:7394   */\n      tag_150\n        /* \"#utility.yul\":7389:7393   */\n      dup3\n        /* \"#utility.yul\":7381:7387   */\n      dup3\n        /* \"#utility.yul\":7361:7394   */\n      tag_151\n      jump\t// in\n    tag_150:\n        /* \"#utility.yul\":7271:7400   */\n      swap2\n      swap1\n      pop\n      jump\t// out\n        /* \"#utility.yul\":7406:7481   */\n    tag_149:\n        /* \"#utility.yul\":7439:7445   */\n      0x00\n        /* \"#utility.yul\":7472:7474   */\n      0x40\n        /* \"#utility.yul\":7466:7475   */\n      mload\n        /* \"#utility.yul\":7456:7475   */\n      swap1\n      pop\n        /* \"#utility.yul\":7406:7481   */\n      swap1\n      jump\t// out\n        /* \"#utility.yul\":7487:7798   */\n    tag_48:\n        /* \"#utility.yul\":7564:7568   */\n      0x00\n        /* \"#utility.yul\":7654:7672   */\n      0xffffffffffffffff\n        /* \"#utility.yul\":7646:7652   */\n      dup3\n        /* \"#utility.yul\":7643:7673   */\n      gt\n        /* \"#utility.yul\":7640:7696   */\n      iszero\n      tag_154\n      jumpi\n        /* \"#utility.yul\":7676:7694   */\n      tag_155\n      tag_156\n      jump\t// in\n    tag_155:\n        /* \"#utility.yul\":7640:7696   */\n    tag_154:\n        /* \"#utility.yul\":7726:7730   */\n      0x20\n        /* \"#utility.yul\":7718:7724   */\n      dup3\n        /* \"#utility.yul\":7714:7731   */\n      mul\n        /* \"#utility.yul\":7706:7731   */\n      swap1\n      pop\n        /* \"#utility.yul\":7786:7790   */\n      0x20\n        /* \"#utility.yul\":7780:7784   */\n      dup2\n        /* \"#utility.yul\":7776:7791   */\n      add\n        /* \"#utility.yul\":7768:7791   */\n      swap1\n      pop\n        /* \"#utility.yul\":7487:7798   */\n      swap2\n      swap1\n      pop\n      jump\t// out\n        /* \"#utility.yul\":7804:8111   */\n    tag_62:\n        /* \"#utility.yul\":7865:7869   */\n      0x00\n        /* \"#utility.yul\":7955:7973   */\n      0xffffffffffffffff\n        /* \"#utility.yul\":7947:7953   */\n      dup3\n        /* \"#utility.yul\":7944:7974   */\n      gt\n        /* \"#utility.yul\":7941:7997   */\n      iszero\n      tag_158\n      jumpi\n        /* \"#utility.yul\":7977:7995   */\n      tag_159\n      tag_156\n      jump\t// in\n    tag_159:\n        /* \"#utility.yul\":7941:7997   */\n    tag_158:\n        /* \"#utility.yul\":8015:8044   */\n      tag_160\n        /* \"#utility.yul\":8037:8043   */\n      dup3\n        /* \"#utility.yul\":8015:8044   */\n      tag_161\n      jump\t// in\n    tag_160:\n        /* \"#utility.yul\":8007:8044   */\n      swap1\n      pop\n        /* \"#utility.yul\":8099:8103   */\n      0x20\n        /* \"#utility.yul\":8093:8097   */\n      dup2\n        /* \"#utility.yul\":8089:8104   */\n      add\n        /* \"#utility.yul\":8081:8104   */\n      swap1\n      pop\n        /* \"#utility.yul\":7804:8111   */\n      swap2\n      swap1\n      pop\n      jump\t// out\n        /* \"#utility.yul\":8117:8213   */\n    tag_132:\n        /* \"#utility.yul\":8154:8161   */\n      0x00\n        /* \"#utility.yul\":8183:8207   */\n      tag_163\n        /* \"#utility.yul\":8201:8206   */\n      dup3\n        /* \"#utility.yul\":8183:8207   */\n      tag_164\n      jump\t// in\n    tag_163:\n        /* \"#utility.yul\":8172:8207   */\n      swap1\n      pop\n        /* \"#utility.yul\":8117:8213   */\n      swap2\n      swap1\n      pop\n      jump\t// out\n        /* \"#utility.yul\":8219:8309   */\n    tag_136:\n        /* \"#utility.yul\":8253:8260   */\n      0x00\n        /* \"#utility.yul\":8296:8301   */\n      dup2\n        /* \"#utility.yul\":8289:8302   */\n      iszero\n        /* \"#utility.yul\":8282:8303   */\n      iszero\n        /* \"#utility.yul\":8271:8303   */\n      swap1\n      pop\n        /* \"#utility.yul\":8219:8309   */\n      swap2\n      swap1\n      pop\n      jump\t// out\n        /* \"#utility.yul\":8315:8464   */\n    tag_140:\n        /* \"#utility.yul\":8351:8358   */\n      0x00\n        /* \"#utility.yul\":8391:8457   */\n      0xffffffff00000000000000000000000000000000000000000000000000000000\n        /* \"#utility.yul\":8384:8389   */\n      dup3\n        /* \"#utility.yul\":8380:8458   */\n      and\n        /* \"#utility.yul\":8369:8458   */\n      swap1\n      pop\n        /* \"#utility.yul\":8315:8464   */\n      swap2\n      swap1\n      pop\n      jump\t// out\n        /* \"#utility.yul\":8470:8596   */\n    tag_164:\n        /* \"#utility.yul\":8507:8514   */\n      0x00\n        /* \"#utility.yul\":8547:8589   */\n      0xffffffffffffffffffffffffffffffffffffffff\n        /* \"#utility.yul\":8540:8545   */\n      dup3\n        /* \"#utility.yul\":8536:8590   */\n      and\n        /* \"#utility.yul\":8525:8590   */\n      swap1\n      pop\n        /* \"#utility.yul\":8470:8596   */\n      swap2\n      swap1\n      pop\n      jump\t// out\n        /* \"#utility.yul\":8602:8679   */\n    tag_168:\n        /* \"#utility.yul\":8639:8646   */\n      0x00\n        /* \"#utility.yul\":8668:8673   */\n      dup2\n        /* \"#utility.yul\":8657:8673   */\n      swap1\n      pop\n        /* \"#utility.yul\":8602:8679   */\n      swap2\n      swap1\n      pop\n      jump\t// out\n        /* \"#utility.yul\":8685:8839   */\n    tag_67:\n        /* \"#utility.yul\":8769:8775   */\n      dup3\n        /* \"#utility.yul\":8764:8767   */\n      dup2\n        /* \"#utility.yul\":8759:8762   */\n      dup4\n        /* \"#utility.yul\":8746:8776   */\n      calldatacopy\n        /* \"#utility.yul\":8831:8832   */\n      0x00\n        /* \"#utility.yul\":8822:8828   */\n      dup4\n        /* \"#utility.yul\":8817:8820   */\n      dup4\n        /* \"#utility.yul\":8813:8829   */\n      add\n        /* \"#utility.yul\":8806:8833   */\n      mstore\n        /* \"#utility.yul\":8685:8839   */\n      pop\n      pop\n      pop\n      jump\t// out\n        /* \"#utility.yul\":8845:9126   */\n    tag_151:\n        /* \"#utility.yul\":8928:8955   */\n      tag_172\n        /* \"#utility.yul\":8950:8954   */\n      dup3\n        /* \"#utility.yul\":8928:8955   */\n      tag_161\n      jump\t// in\n    tag_172:\n        /* \"#utility.yul\":8920:8926   */\n      dup2\n        /* \"#utility.yul\":8916:8956   */\n      add\n        /* \"#utility.yul\":9058:9064   */\n      dup2\n        /* \"#utility.yul\":9046:9056   */\n      dup2\n        /* \"#utility.yul\":9043:9065   */\n      lt\n        /* \"#utility.yul\":9022:9040   */\n      0xffffffffffffffff\n        /* \"#utility.yul\":9010:9020   */\n      dup3\n        /* \"#utility.yul\":9007:9041   */\n      gt\n        /* \"#utility.yul\":9004:9066   */\n      or\n        /* \"#utility.yul\":9001:9089   */\n      iszero\n      tag_173\n      jumpi\n        /* \"#utility.yul\":9069:9087   */\n      tag_174\n      tag_156\n      jump\t// in\n    tag_174:\n        /* \"#utility.yul\":9001:9089   */\n    tag_173:\n        /* \"#utility.yul\":9109:9119   */\n      dup1\n        /* \"#utility.yul\":9105:9107   */\n      0x40\n        /* \"#utility.yul\":9098:9120   */\n      mstore\n        /* \"#utility.yul\":8888:9126   */\n      pop\n        /* \"#utility.yul\":8845:9126   */\n      pop\n      pop\n      jump\t// out\n        /* \"#utility.yul\":9132:9312   */\n    tag_156:\n        /* \"#utility.yul\":9180:9257   */\n      0x4e487b7100000000000000000000000000000000000000000000000000000000\n        /* \"#utility.yul\":9177:9178   */\n      0x00\n        /* \"#utility.yul\":9170:9258   */\n      mstore\n        /* \"#utility.yul\":9277:9281   */\n      0x41\n        /* \"#utility.yul\":9274:9275   */\n      0x04\n        /* \"#utility.yul\":9267:9282   */\n      mstore\n        /* \"#utility.yul\":9301:9305   */\n      0x24\n        /* \"#utility.yul\":9298:9299   */\n      0x00\n        /* \"#utility.yul\":9291:9306   */\n      revert\n        /* \"#utility.yul\":9318:9435   */\n    tag_76:\n        /* \"#utility.yul\":9427:9428   */\n      0x00\n        /* \"#utility.yul\":9424:9425   */\n      dup1\n        /* \"#utility.yul\":9417:9429   */\n      revert\n        /* \"#utility.yul\":9441:9558   */\n    tag_52:\n        /* \"#utility.yul\":9550:9551   */\n      0x00\n        /* \"#utility.yul\":9547:9548   */\n      dup1\n        /* \"#utility.yul\":9540:9552   */\n      revert\n        /* \"#utility.yul\":9564:9681   */\n    tag_65:\n        /* \"#utility.yul\":9673:9674   */\n      0x00\n        /* \"#utility.yul\":9670:9671   */\n      dup1\n        /* \"#utility.yul\":9663:9675   */\n      revert\n        /* \"#utility.yul\":9687:9804   */\n    tag_98:\n        /* \"#utility.yul\":9796:9797   */\n      0x00\n        /* \"#utility.yul\":9793:9794   */\n      dup1\n        /* \"#utility.yul\":9786:9798   */\n      revert\n        /* \"#utility.yul\":9810:9927   */\n    tag_93:\n        /* \"#utility.yul\":9919:9920   */\n      0x00\n        /* \"#utility.yul\":9916:9917   */\n      dup1\n        /* \"#utility.yul\":9909:9921   */\n      revert\n        /* \"#utility.yul\":9933:10035   */\n    tag_161:\n        /* \"#utility.yul\":9974:9980   */\n      0x00\n        /* \"#utility.yul\":10025:10027   */\n      0x1f\n        /* \"#utility.yul\":10021:10028   */\n      not\n        /* \"#utility.yul\":10016:10018   */\n      0x1f\n        /* \"#utility.yul\":10009:10014   */\n      dup4\n        /* \"#utility.yul\":10005:10019   */\n      add\n        /* \"#utility.yul\":10001:10029   */\n      and\n        /* \"#utility.yul\":9991:10029   */\n      swap1\n      pop\n        /* \"#utility.yul\":9933:10035   */\n      swap2\n      swap1\n      pop\n      jump\t// out\n        /* \"#utility.yul\":10041:10163   */\n    tag_71:\n        /* \"#utility.yul\":10114:10138   */\n      tag_183\n        /* \"#utility.yul\":10132:10137   */\n      dup2\n        /* \"#utility.yul\":10114:10138   */\n      tag_132\n      jump\t// in\n    tag_183:\n        /* \"#utility.yul\":10107:10112   */\n      dup2\n        /* \"#utility.yul\":10104:10139   */\n      eq\n        /* \"#utility.yul\":10094:10157   */\n      tag_184\n      jumpi\n        /* \"#utility.yul\":10153:10154   */\n      0x00\n        /* \"#utility.yul\":10150:10151   */\n      dup1\n        /* \"#utility.yul\":10143:10155   */\n      revert\n        /* \"#utility.yul\":10094:10157   */\n    tag_184:\n        /* \"#utility.yul\":10041:10163   */\n      pop\n      jump\t// out\n        /* \"#utility.yul\":10169:10289   */\n    tag_81:\n        /* \"#utility.yul\":10241:10264   */\n      tag_186\n        /* \"#utility.yul\":10258:10263   */\n      dup2\n        /* \"#utility.yul\":10241:10264   */\n      tag_140\n      jump\t// in\n    tag_186:\n        /* \"#utility.yul\":10234:10239   */\n      dup2\n        /* \"#utility.yul\":10231:10265   */\n      eq\n        /* \"#utility.yul\":10221:10283   */\n      tag_187\n      jumpi\n        /* \"#utility.yul\":10279:10280   */\n      0x00\n        /* \"#utility.yul\":10276:10277   */\n      dup1\n        /* \"#utility.yul\":10269:10281   */\n      revert\n        /* \"#utility.yul\":10221:10283   */\n    tag_187:\n        /* \"#utility.yul\":10169:10289   */\n      pop\n      jump\t// out\n        /* \"#utility.yul\":10295:10417   */\n    tag_89:\n        /* \"#utility.yul\":10368:10392   */\n      tag_189\n        /* \"#utility.yul\":10386:10391   */\n      dup2\n        /* \"#utility.yul\":10368:10392   */\n      tag_168\n      jump\t// in\n    tag_189:\n        /* \"#utility.yul\":10361:10366   */\n      dup2\n        /* \"#utility.yul\":10358:10393   */\n      eq\n        /* \"#utility.yul\":10348:10411   */\n      tag_190\n      jumpi\n        /* \"#utility.yul\":10407:10408   */\n      0x00\n        /* \"#utility.yul\":10404:10405   */\n      dup1\n        /* \"#utility.yul\":10397:10409   */\n      revert\n        /* \"#utility.yul\":10348:10411   */\n    tag_190:\n        /* \"#utility.yul\":10295:10417   */\n      pop\n      jump\t// out\n\n    auxdata: 0xa2646970667358221220c70a79cc3abcee8a0a75ea93890eb15af2513e7e66fa55a38b586cc0534da68e64736f6c63430008070033\n}\n",
				"bytecode": {
					"linkReferences": {},
					"object": "608060405234801561001057600080fd5b5061002d61002261003260201b60201c565b61003a60201b60201c565b6100fe565b600033905090565b60008060009054906101000a900473ffffffffffffffffffffffffffffffffffffffff169050816000806101000a81548173ffffffffffffffffffffffffffffffffffffffff021916908373ffffffffffffffffffffffffffffffffffffffff1602179055508173ffffffffffffffffffffffffffffffffffffffff168173ffffffffffffffffffffffffffffffffffffffff167f8be0079c531659141344cd1fd0a4f28419497f9722a3daafe3b4186f6b6457e060405160405180910390a35050565b6108708061010d6000396000f3fe608060405234801561001057600080fd5b50600436106100575760003560e01c806301ffc9a71461005c578063150b7a021461008c5780638da5cb5b146100bc578063bc197c81146100da578063f23a6e611461010a575b600080fd5b610076600480360381019061007191906105bb565b61013a565b6040516100839190610630565b60405180910390f35b6100a660048036038101906100a191906104a1565b6101b4565b6040516100b3919061064b565b60405180910390f35b6100c46101c8565b6040516100d19190610615565b60405180910390f35b6100f460048036038101906100ef91906103d2565b6101f1565b604051610101919061064b565b60405180910390f35b610124600480360381019061011f9190610524565b610206565b604051610131919061064b565b60405180910390f35b60007f4e2312e0000000000000000000000000000000000000000000000000000000007bffffffffffffffffffffffffffffffffffffffffffffffffffffffff1916827bffffffffffffffffffffffffffffffffffffffffffffffffffffffff191614806101ad57506101ac8261021b565b5b9050919050565b600063150b7a0260e01b9050949350505050565b60008060009054906101000a900473ffffffffffffffffffffffffffffffffffffffff16905090565b600063bc197c8160e01b905095945050505050565b600063f23a6e6160e01b905095945050505050565b60007f01ffc9a7000000000000000000000000000000000000000000000000000000007bffffffffffffffffffffffffffffffffffffffffffffffffffffffff1916827bffffffffffffffffffffffffffffffffffffffffffffffffffffffff1916149050919050565b60006102986102938461068b565b610666565b905080838252602082019050828560208602820111156102bb576102ba6107d0565b5b60005b858110156102eb57816102d188826103bd565b8452602084019350602083019250506001810190506102be565b5050509392505050565b6000610308610303846106b7565b610666565b905082815260208101848484011115610324576103236107d5565b5b61032f84828561075c565b509392505050565b600081359050610346816107f5565b92915050565b600082601f830112610361576103606107cb565b5b8135610371848260208601610285565b91505092915050565b6000813590506103898161080c565b92915050565b600082601f8301126103a4576103a36107cb565b5b81356103b48482602086016102f5565b91505092915050565b6000813590506103cc81610823565b92915050565b600080600080600060a086880312156103ee576103ed6107df565b5b60006103fc88828901610337565b955050602061040d88828901610337565b945050604086013567ffffffffffffffff81111561042e5761042d6107da565b5b61043a8882890161034c565b935050606086013567ffffffffffffffff81111561045b5761045a6107da565b5b6104678882890161034c565b925050608086013567ffffffffffffffff811115610488576104876107da565b5b6104948882890161038f565b9150509295509295909350565b600080600080608085870312156104bb576104ba6107df565b5b60006104c987828801610337565b94505060206104da87828801610337565b93505060406104eb878288016103bd565b925050606085013567ffffffffffffffff81111561050c5761050b6107da565b5b6105188782880161038f565b91505092959194509250565b600080600080600060a086880312156105405761053f6107df565b5b600061054e88828901610337565b955050602061055f88828901610337565b9450506040610570888289016103bd565b9350506060610581888289016103bd565b925050608086013567ffffffffffffffff8111156105a2576105a16107da565b5b6105ae8882890161038f565b9150509295509295909350565b6000602082840312156105d1576105d06107df565b5b60006105df8482850161037a565b91505092915050565b6105f1816106e8565b82525050565b610600816106fa565b82525050565b61060f81610706565b82525050565b600060208201905061062a60008301846105e8565b92915050565b600060208201905061064560008301846105f7565b92915050565b60006020820190506106606000830184610606565b92915050565b6000610670610681565b905061067c828261076b565b919050565b6000604051905090565b600067ffffffffffffffff8211156106a6576106a561079c565b5b602082029050602081019050919050565b600067ffffffffffffffff8211156106d2576106d161079c565b5b6106db826107e4565b9050602081019050919050565b60006106f382610732565b9050919050565b60008115159050919050565b60007fffffffff0000000000000000000000000000000000000000000000000000000082169050919050565b600073ffffffffffffffffffffffffffffffffffffffff82169050919050565b6000819050919050565b82818337600083830152505050565b610774826107e4565b810181811067ffffffffffffffff821117156107935761079261079c565b5b80604052505050565b7f4e487b7100000000000000000000000000000000000000000000000000000000600052604160045260246000fd5b600080fd5b600080fd5b600080fd5b600080fd5b600080fd5b6000601f19601f8301169050919050565b6107fe816106e8565b811461080957600080fd5b50565b61081581610706565b811461082057600080fd5b50565b61082c81610752565b811461083757600080fd5b5056fea2646970667358221220c70a79cc3abcee8a0a75ea93890eb15af2513e7e66fa55a38b586cc0534da68e64736f6c63430008070033",
					"opcodes": "PUSH1 0x80 PUSH1 0x40 MSTORE CALLVALUE DUP1 ISZERO PUSH2 0x10 JUMPI PUSH1 0x0 DUP1 REVERT JUMPDEST POP PUSH2 0x2D PUSH2 0x22 PUSH2 0x32 PUSH1 0x20 SHL PUSH1 0x20 SHR JUMP JUMPDEST PUSH2 0x3A PUSH1 0x20 SHL PUSH1 0x20 SHR JUMP JUMPDEST PUSH2 0xFE JUMP JUMPDEST PUSH1 0x0 CALLER SWAP1 POP SWAP1 JUMP JUMPDEST PUSH1 0x0 DUP1 PUSH1 0x0 SWAP1 SLOAD SWAP1 PUSH2 0x100 EXP SWAP1 DIV PUSH20 0xFFFFFFFFFFFFFFFFFFFFFFFFFFFFFFFFFFFFFFFF AND SWAP1 POP DUP2 PUSH1 0x0 DUP1 PUSH2 0x100 EXP DUP2 SLOAD DUP2 PUSH20 0xFFFFFFFFFFFFFFFFFFFFFFFFFFFFFFFFFFFFFFFF MUL NOT AND SWAP1 DUP4 PUSH20 0xFFFFFFFFFFFFFFFFFFFFFFFFFFFFFFFFFFFFFFFF AND MUL OR SWAP1 SSTORE POP DUP2 PUSH20 0xFFFFFFFFFFFFFFFFFFFFFFFFFFFFFFFFFFFFFFFF AND DUP2 PUSH20 0xFFFFFFFFFFFFFFFFFFFFFFFFFFFFFFFFFFFFFFFF AND PUSH32 0x8BE0079C531659141344CD1FD0A4F28419497F9722A3DAAFE3B4186F6B6457E0 PUSH1 0x40 MLOAD PUSH1 0x40 MLOAD DUP1 SWAP2 SUB SWAP1 LOG3 POP POP JUMP JUMPDEST PUSH2 0x870 DUP1 PUSH2 0x10D PUSH1 0x0 CODECOPY PUSH1 0x0 RETURN INVALID PUSH1 0x80 PUSH1 0x40 MSTORE CALLVALUE DUP1 ISZERO PUSH2 0x10 JUMPI PUSH1 0x0 DUP1 REVERT JUMPDEST POP PUSH1 0x4 CALLDATASIZE LT PUSH2 0x57 JUMPI PUSH1 0x0 CALLDATALOAD PUSH1 0xE0 SHR DUP1 PUSH4 0x1FFC9A7 EQ PUSH2 0x5C JUMPI DUP1 PUSH4 0x150B7A02 EQ PUSH2 0x8C JUMPI DUP1 PUSH4 0x8DA5CB5B EQ PUSH2 0xBC JUMPI DUP1 PUSH4 0xBC197C81 EQ PUSH2 0xDA JUMPI DUP1 PUSH4 0xF23A6E61 EQ PUSH2 0x10A JUMPI JUMPDEST PUSH1 0x0 DUP1 REVERT JUMPDEST PUSH2 0x76 PUSH1 0x4 DUP1 CALLDATASIZE SUB DUP2 ADD SWAP1 PUSH2 0x71 SWAP2 SWAP1 PUSH2 0x5BB JUMP JUMPDEST PUSH2 0x13A JUMP JUMPDEST PUSH1 0x40 MLOAD PUSH2 0x83 SWAP2 SWAP1 PUSH2 0x630 JUMP JUMPDEST PUSH1 0x40 MLOAD DUP1 SWAP2 SUB SWAP1 RETURN JUMPDEST PUSH2 0xA6 PUSH1 0x4 DUP1 CALLDATASIZE SUB DUP2 ADD SWAP1 PUSH2 0xA1 SWAP2 SWAP1 PUSH2 0x4A1 JUMP JUMPDEST PUSH2 0x1B4 JUMP JUMPDEST PUSH1 0x40 MLOAD PUSH2 0xB3 SWAP2 SWAP1 PUSH2 0x64B JUMP JUMPDEST PUSH1 0x40 MLOAD DUP1 SWAP2 SUB SWAP1 RETURN JUMPDEST PUSH2 0xC4 PUSH2 0x1C8 JUMP JUMPDEST PUSH1 0x40 MLOAD PUSH2 0xD1 SWAP2 SWAP1 PUSH2 0x615 JUMP JUMPDEST PUSH1 0x40 MLOAD DUP1 SWAP2 SUB SWAP1 RETURN JUMPDEST PUSH2 0xF4 PUSH1 0x4 DUP1 CALLDATASIZE SUB DUP2 ADD SWAP1 PUSH2 0xEF SWAP2 SWAP1 PUSH2 0x3D2 JUMP JUMPDEST PUSH2 0x1F1 JUMP JUMPDEST PUSH1 0x40 MLOAD PUSH2 0x101 SWAP2 SWAP1 PUSH2 0x64B JUMP JUMPDEST PUSH1 0x40 MLOAD DUP1 SWAP2 SUB SWAP1 RETURN JUMPDEST PUSH2 0x124 PUSH1 0x4 DUP1 CALLDATASIZE SUB DUP2 ADD SWAP1 PUSH2 0x11F SWAP2 SWAP1 PUSH2 0x524 JUMP JUMPDEST PUSH2 0x206 JUMP JUMPDEST PUSH1 0x40 MLOAD PUSH2 0x131 SWAP2 SWAP1 PUSH2 0x64B JUMP JUMPDEST PUSH1 0x40 MLOAD DUP1 SWAP2 SUB SWAP1 RETURN JUMPDEST PUSH1 0x0 PUSH32 0x4E2312E000000000000000000000000000000000000000000000000000000000 PUSH28 0xFFFFFFFFFFFFFFFFFFFFFFFFFFFFFFFFFFFFFFFFFFFFFFFFFFFFFFFF NOT AND DUP3 PUSH28 0xFFFFFFFFFFFFFFFFFFFFFFFFFFFFFFFFFFFFFFFFFFFFFFFFFFFFFFFF NOT AND EQ DUP1 PUSH2 0x1AD JUMPI POP PUSH2 0x1AC DUP3 PUSH2 0x21B JUMP JUMPDEST JUMPDEST SWAP1 POP SWAP2 SWAP1 POP JUMP JUMPDEST PUSH1 0x0 PUSH4 0x150B7A02 PUSH1 0xE0 SHL SWAP1 POP SWAP5 SWAP4 POP POP POP POP JUMP JUMPDEST PUSH1 0x0 DUP1 PUSH1 0x0 SWAP1 SLOAD SWAP1 PUSH2 0x100 EXP SWAP1 DIV PUSH20 0xFFFFFFFFFFFFFFFFFFFFFFFFFFFFFFFFFFFFFFFF AND SWAP1 POP SWAP1 JUMP JUMPDEST PUSH1 0x0 PUSH4 0xBC197C81 PUSH1 0xE0 SHL SWAP1 POP SWAP6 SWAP5 POP POP POP POP POP JUMP JUMPDEST PUSH1 0x0 PUSH4 0xF23A6E61 PUSH1 0xE0 SHL SWAP1 POP SWAP6 SWAP5 POP POP POP POP POP JUMP JUMPDEST PUSH1 0x0 PUSH32 0x1FFC9A700000000000000000000000000000000000000000000000000000000 PUSH28 0xFFFFFFFFFFFFFFFFFFFFFFFFFFFFFFFFFFFFFFFFFFFFFFFFFFFFFFFF NOT AND DUP3 PUSH28 0xFFFFFFFFFFFFFFFFFFFFFFFFFFFFFFFFFFFFFFFFFFFFFFFFFFFFFFFF NOT AND EQ SWAP1 POP SWAP2 SWAP1 POP JUMP JUMPDEST PUSH1 0x0 PUSH2 0x298 PUSH2 0x293 DUP5 PUSH2 0x68B JUMP JUMPDEST PUSH2 0x666 JUMP JUMPDEST SWAP1 POP DUP1 DUP4 DUP3 MSTORE PUSH1 0x20 DUP3 ADD SWAP1 POP DUP3 DUP6 PUSH1 0x20 DUP7 MUL DUP3 ADD GT ISZERO PUSH2 0x2BB JUMPI PUSH2 0x2BA PUSH2 0x7D0 JUMP JUMPDEST JUMPDEST PUSH1 0x0 JUMPDEST DUP6 DUP2 LT ISZERO PUSH2 0x2EB JUMPI DUP2 PUSH2 0x2D1 DUP9 DUP3 PUSH2 0x3BD JUMP JUMPDEST DUP5 MSTORE PUSH1 0x20 DUP5 ADD SWAP4 POP PUSH1 0x20 DUP4 ADD SWAP3 POP POP PUSH1 0x1 DUP2 ADD SWAP1 POP PUSH2 0x2BE JUMP JUMPDEST POP POP POP SWAP4 SWAP3 POP POP POP JUMP JUMPDEST PUSH1 0x0 PUSH2 0x308 PUSH2 0x303 DUP5 PUSH2 0x6B7 JUMP JUMPDEST PUSH2 0x666 JUMP JUMPDEST SWAP1 POP DUP3 DUP2 MSTORE PUSH1 0x20 DUP2 ADD DUP5 DUP5 DUP5 ADD GT ISZERO PUSH2 0x324 JUMPI PUSH2 0x323 PUSH2 0x7D5 JUMP JUMPDEST JUMPDEST PUSH2 0x32F DUP5 DUP3 DUP6 PUSH2 0x75C JUMP JUMPDEST POP SWAP4 SWAP3 POP POP POP JUMP JUMPDEST PUSH1 0x0 DUP2 CALLDATALOAD SWAP1 POP PUSH2 0x346 DUP2 PUSH2 0x7F5 JUMP JUMPDEST SWAP3 SWAP2 POP POP JUMP JUMPDEST PUSH1 0x0 DUP3 PUSH1 0x1F DUP4 ADD SLT PUSH2 0x361 JUMPI PUSH2 0x360 PUSH2 0x7CB JUMP JUMPDEST JUMPDEST DUP2 CALLDATALOAD PUSH2 0x371 DUP5 DUP3 PUSH1 0x20 DUP7 ADD PUSH2 0x285 JUMP JUMPDEST SWAP2 POP POP SWAP3 SWAP2 POP POP JUMP JUMPDEST PUSH1 0x0 DUP2 CALLDATALOAD SWAP1 POP PUSH2 0x389 DUP2 PUSH2 0x80C JUMP JUMPDEST SWAP3 SWAP2 POP POP JUMP JUMPDEST PUSH1 0x0 DUP3 PUSH1 0x1F DUP4 ADD SLT PUSH2 0x3A4 JUMPI PUSH2 0x3A3 PUSH2 0x7CB JUMP JUMPDEST JUMPDEST DUP2 CALLDATALOAD PUSH2 0x3B4 DUP5 DUP3 PUSH1 0x20 DUP7 ADD PUSH2 0x2F5 JUMP JUMPDEST SWAP2 POP POP SWAP3 SWAP2 POP POP JUMP JUMPDEST PUSH1 0x0 DUP2 CALLDATALOAD SWAP1 POP PUSH2 0x3CC DUP2 PUSH2 0x823 JUMP JUMPDEST SWAP3 SWAP2 POP POP JUMP JUMPDEST PUSH1 0x0 DUP1 PUSH1 0x0 DUP1 PUSH1 0x0 PUSH1 0xA0 DUP7 DUP9 SUB SLT ISZERO PUSH2 0x3EE JUMPI PUSH2 0x3ED PUSH2 0x7DF JUMP JUMPDEST JUMPDEST PUSH1 0x0 PUSH2 0x3FC DUP9 DUP3 DUP10 ADD PUSH2 0x337 JUMP JUMPDEST SWAP6 POP POP PUSH1 0x20 PUSH2 0x40D DUP9 DUP3 DUP10 ADD PUSH2 0x337 JUMP JUMPDEST SWAP5 POP POP PUSH1 0x40 DUP7 ADD CALLDATALOAD PUSH8 0xFFFFFFFFFFFFFFFF DUP2 GT ISZERO PUSH2 0x42E JUMPI PUSH2 0x42D PUSH2 0x7DA JUMP JUMPDEST JUMPDEST PUSH2 0x43A DUP9 DUP3 DUP10 ADD PUSH2 0x34C JUMP JUMPDEST SWAP4 POP POP PUSH1 0x60 DUP7 ADD CALLDATALOAD PUSH8 0xFFFFFFFFFFFFFFFF DUP2 GT ISZERO PUSH2 0x45B JUMPI PUSH2 0x45A PUSH2 0x7DA JUMP JUMPDEST JUMPDEST PUSH2 0x467 DUP9 DUP3 DUP10 ADD PUSH2 0x34C JUMP JUMPDEST SWAP3 POP POP PUSH1 0x80 DUP7 ADD CALLDATALOAD PUSH8 0xFFFFFFFFFFFFFFFF DUP2 GT ISZERO PUSH2 0x488 JUMPI PUSH2 0x487 PUSH2 0x7DA JUMP JUMPDEST JUMPDEST PUSH2 0x494 DUP9 DUP3 DUP10 ADD PUSH2 0x38F JUMP JUMPDEST SWAP2 POP POP SWAP3 SWAP6 POP SWAP3 SWAP6 SWAP1 SWAP4 POP JUMP JUMPDEST PUSH1 0x0 DUP1 PUSH1 0x0 DUP1 PUSH1 0x80 DUP6 DUP8 SUB SLT ISZERO PUSH2 0x4BB JUMPI PUSH2 0x4BA PUSH2 0x7DF JUMP JUMPDEST JUMPDEST PUSH1 0x0 PUSH2 0x4C9 DUP8 DUP3 DUP9 ADD PUSH2 0x337 JUMP JUMPDEST SWAP5 POP POP PUSH1 0x20 PUSH2 0x4DA DUP8 DUP3 DUP9 ADD PUSH2 0x337 JUMP JUMPDEST SWAP4 POP POP PUSH1 0x40 PUSH2 0x4EB DUP8 DUP3 DUP9 ADD PUSH2 0x3BD JUMP JUMPDEST SWAP3 POP POP PUSH1 0x60 DUP6 ADD CALLDATALOAD PUSH8 0xFFFFFFFFFFFFFFFF DUP2 GT ISZERO PUSH2 0x50C JUMPI PUSH2 0x50B PUSH2 0x7DA JUMP JUMPDEST JUMPDEST PUSH2 0x518 DUP8 DUP3 DUP9 ADD PUSH2 0x38F JUMP JUMPDEST SWAP2 POP POP SWAP3 SWAP6 SWAP2 SWAP5 POP SWAP3 POP JUMP JUMPDEST PUSH1 0x0 DUP1 PUSH1 0x0 DUP1 PUSH1 0x0 PUSH1 0xA0 DUP7 DUP9 SUB SLT ISZERO PUSH2 0x540 JUMPI PUSH2 0x53F PUSH2 0x7DF JUMP JUMPDEST JUMPDEST PUSH1 0x0 PUSH2 0x54E DUP9 DUP3 DUP10 ADD PUSH2 0x337 JUMP JUMPDEST SWAP6 POP POP PUSH1 0x20 PUSH2 0x55F DUP9 DUP3 DUP10 ADD PUSH2 0x337 JUMP JUMPDEST SWAP5 POP POP PUSH1 0x40 PUSH2 0x570 DUP9 DUP3 DUP10 ADD PUSH2 0x3BD JUMP JUMPDEST SWAP4 POP POP PUSH1 0x60 PUSH2 0x581 DUP9 DUP3 DUP10 ADD PUSH2 0x3BD JUMP JUMPDEST SWAP3 POP POP PUSH1 0x80 DUP7 ADD CALLDATALOAD PUSH8 0xFFFFFFFFFFFFFFFF DUP2 GT ISZERO PUSH2 0x5A2 JUMPI PUSH2 0x5A1 PUSH2 0x7DA JUMP JUMPDEST JUMPDEST PUSH2 0x5AE DUP9 DUP3 DUP10 ADD PUSH2 0x38F JUMP JUMPDEST SWAP2 POP POP SWAP3 SWAP6 POP SWAP3 SWAP6 SWAP1 SWAP4 POP JUMP JUMPDEST PUSH1 0x0 PUSH1 0x20 DUP3 DUP5 SUB SLT ISZERO PUSH2 0x5D1 JUMPI PUSH2 0x5D0 PUSH2 0x7DF JUMP JUMPDEST JUMPDEST PUSH1 0x0 PUSH2 0x5DF DUP5 DUP3 DUP6 ADD PUSH2 0x37A JUMP JUMPDEST SWAP2 POP POP SWAP3 SWAP2 POP POP JUMP JUMPDEST PUSH2 0x5F1 DUP2 PUSH2 0x6E8 JUMP JUMPDEST DUP3 MSTORE POP POP JUMP JUMPDEST PUSH2 0x600 DUP2 PUSH2 0x6FA JUMP JUMPDEST DUP3 MSTORE POP POP JUMP JUMPDEST PUSH2 0x60F DUP2 PUSH2 0x706 JUMP JUMPDEST DUP3 MSTORE POP POP JUMP JUMPDEST PUSH1 0x0 PUSH1 0x20 DUP3 ADD SWAP1 POP PUSH2 0x62A PUSH1 0x0 DUP4 ADD DUP5 PUSH2 0x5E8 JUMP JUMPDEST SWAP3 SWAP2 POP POP JUMP JUMPDEST PUSH1 0x0 PUSH1 0x20 DUP3 ADD SWAP1 POP PUSH2 0x645 PUSH1 0x0 DUP4 ADD DUP5 PUSH2 0x5F7 JUMP JUMPDEST SWAP3 SWAP2 POP POP JUMP JUMPDEST PUSH1 0x0 PUSH1 0x20 DUP3 ADD SWAP1 POP PUSH2 0x660 PUSH1 0x0 DUP4 ADD DUP5 PUSH2 0x606 JUMP JUMPDEST SWAP3 SWAP2 POP POP JUMP JUMPDEST PUSH1 0x0 PUSH2 0x670 PUSH2 0x681 JUMP JUMPDEST SWAP1 POP PUSH2 0x67C DUP3 DUP3 PUSH2 0x76B JUMP JUMPDEST SWAP2 SWAP1 POP JUMP JUMPDEST PUSH1 0x0 PUSH1 0x40 MLOAD SWAP1 POP SWAP1 JUMP JUMPDEST PUSH1 0x0 PUSH8 0xFFFFFFFFFFFFFFFF DUP3 GT ISZERO PUSH2 0x6A6 JUMPI PUSH2 0x6A5 PUSH2 0x79C JUMP JUMPDEST JUMPDEST PUSH1 0x20 DUP3 MUL SWAP1 POP PUSH1 0x20 DUP2 ADD SWAP1 POP SWAP2 SWAP1 POP JUMP JUMPDEST PUSH1 0x0 PUSH8 0xFFFFFFFFFFFFFFFF DUP3 GT ISZERO PUSH2 0x6D2 JUMPI PUSH2 0x6D1 PUSH2 0x79C JUMP JUMPDEST JUMPDEST PUSH2 0x6DB DUP3 PUSH2 0x7E4 JUMP JUMPDEST SWAP1 POP PUSH1 0x20 DUP2 ADD SWAP1 POP SWAP2 SWAP1 POP JUMP JUMPDEST PUSH1 0x0 PUSH2 0x6F3 DUP3 PUSH2 0x732 JUMP JUMPDEST SWAP1 POP SWAP2 SWAP1 POP JUMP JUMPDEST PUSH1 0x0 DUP2 ISZERO ISZERO SWAP1 POP SWAP2 SWAP1 POP JUMP JUMPDEST PUSH1 0x0 PUSH32 0xFFFFFFFF00000000000000000000000000000000000000000000000000000000 DUP3 AND SWAP1 POP SWAP2 SWAP1 POP JUMP JUMPDEST PUSH1 0x0 PUSH20 0xFFFFFFFFFFFFFFFFFFFFFFFFFFFFFFFFFFFFFFFF DUP3 AND SWAP1 POP SWAP2 SWAP1 POP JUMP JUMPDEST PUSH1 0x0 DUP2 SWAP1 POP SWAP2 SWAP1 POP JUMP JUMPDEST DUP3 DUP2 DUP4 CALLDATACOPY PUSH1 0x0 DUP4 DUP4 ADD MSTORE POP POP POP JUMP JUMPDEST PUSH2 0x774 DUP3 PUSH2 0x7E4 JUMP JUMPDEST DUP2 ADD DUP2 DUP2 LT PUSH8 0xFFFFFFFFFFFFFFFF DUP3 GT OR ISZERO PUSH2 0x793 JUMPI PUSH2 0x792 PUSH2 0x79C JUMP JUMPDEST JUMPDEST DUP1 PUSH1 0x40 MSTORE POP POP POP JUMP JUMPDEST PUSH32 0x4E487B7100000000000000000000000000000000000000000000000000000000 PUSH1 0x0 MSTORE PUSH1 0x41 PUSH1 0x4 MSTORE PUSH1 0x24 PUSH1 0x0 REVERT JUMPDEST PUSH1 0x0 DUP1 REVERT JUMPDEST PUSH1 0x0 DUP1 REVERT JUMPDEST PUSH1 0x0 DUP1 REVERT JUMPDEST PUSH1 0x0 DUP1 REVERT JUMPDEST PUSH1 0x0 DUP1 REVERT JUMPDEST PUSH1 0x0 PUSH1 0x1F NOT PUSH1 0x1F DUP4 ADD AND SWAP1 POP SWAP2 SWAP1 POP JUMP JUMPDEST PUSH2 0x7FE DUP2 PUSH2 0x6E8 JUMP JUMPDEST DUP2 EQ PUSH2 0x809 JUMPI PUSH1 0x0 DUP1 REVERT JUMPDEST POP JUMP JUMPDEST PUSH2 0x815 DUP2 PUSH2 0x706 JUMP JUMPDEST DUP2 EQ PUSH2 0x820 JUMPI PUSH1 0x0 DUP1 REVERT JUMPDEST POP JUMP JUMPDEST PUSH2 0x82C DUP2 PUSH2 0x752 JUMP JUMPDEST DUP2 EQ PUSH2 0x837 JUMPI PUSH1 0x0 DUP1 REVERT JUMPDEST POP JUMP INVALID LOG2 PUSH5 0x6970667358 0x22 SLT KECCAK256 0xC7 EXP PUSH26 0xCC3ABCEE8A0A75EA93890EB15AF2513E7E66FA55A38B586CC053 0x4D 0xA6 DUP15 PUSH5 0x736F6C6343 STOP ADDMOD SMOD STOP CALLER "
				},
				"gasEstimates": {
					"creation": {
						"codeDepositCost": "432000",
						"executionCost": "infinite",
						"totalCost": "infinite"
					},
					"external": {
						"onERC1155BatchReceived(address,address,uint256[],uint256[],bytes)": "infinite",
						"onERC1155Received(address,address,uint256,uint256,bytes)": "infinite",
						"onERC721Received(address,address,uint256,bytes)": "infinite",
						"owner()": "2544",
						"supportsInterface(bytes4)": "705"
					},
					"internal": {
						"_transferERC721FundsToAddress(address,address,uint256)": "infinite"
					}
				},
				"methodIdentifiers": {
					"onERC1155BatchReceived(address,address,uint256[],uint256[],bytes)": "bc197c81",
					"onERC1155Received(address,address,uint256,uint256,bytes)": "f23a6e61",
					"onERC721Received(address,address,uint256,bytes)": "150b7a02",
					"owner()": "8da5cb5b",
					"supportsInterface(bytes4)": "01ffc9a7"
				}
			},
			"storageLayout": {
				"storage": [
					{
						"astId": 474,
						"contract": "Pratice2nd.sol:TwoFactor",
						"label": "_owner",
						"offset": 0,
						"slot": "0",
						"type": "t_address"
					}
				],
				"types": {
					"t_address": {
						"encoding": "inplace",
						"label": "address",
						"numberOfBytes": "20"
					}
				}
			},
			"userdoc": {
				"kind": "user",
				"methods": {},
				"version": 1
			}
		}
	}
}