{
	"Storage.sol": {
		"Storage": {
			"abi": [
				{
					"inputs": [],
					"name": "data",
					"outputs": [
						{
							"internalType": "string",
							"name": "",
							"type": "string"
						}
					],
					"stateMutability": "view",
					"type": "function"
				},
				{
					"inputs": [
						{
							"internalType": "string",
							"name": "_data",
							"type": "string"
						}
					],
					"name": "setData",
					"outputs": [],
					"stateMutability": "nonpayable",
					"type": "function"
				}
			],
			"devdoc": {
				"kind": "dev",
				"methods": {},
				"version": 1
			},
			"evm": {
				"assembly": "    /* \"Storage.sol\":58:188  contract Storage{... */\n  mstore(0x40, 0x80)\n  callvalue\n  dup1\n  iszero\n  tag_1\n  jumpi\n  0x00\n  dup1\n  revert\ntag_1:\n  pop\n  dataSize(sub_0)\n  dup1\n  dataOffset(sub_0)\n  0x00\n  codecopy\n  0x00\n  return\nstop\n\nsub_0: assembly {\n        /* \"Storage.sol\":58:188  contract Storage{... */\n      mstore(0x40, 0x80)\n      callvalue\n      dup1\n      iszero\n      tag_1\n      jumpi\n      0x00\n      dup1\n      revert\n    tag_1:\n      pop\n      jumpi(tag_2, lt(calldatasize, 0x04))\n      shr(0xe0, calldataload(0x00))\n      dup1\n      0x47064d6a\n      eq\n      tag_3\n      jumpi\n      dup1\n      0x73d4a13a\n      eq\n      tag_4\n      jumpi\n    tag_2:\n      0x00\n      dup1\n      revert\n        /* \"Storage.sol\":109:186  function setData(string calldata _data) external{... */\n    tag_3:\n      tag_5\n      0x04\n      dup1\n      calldatasize\n      sub\n      dup2\n      add\n      swap1\n      tag_6\n      swap2\n      swap1\n      tag_7\n      jump\t// in\n    tag_6:\n      tag_8\n      jump\t// in\n    tag_5:\n      stop\n        /* \"Storage.sol\":80:98  string public data */\n    tag_4:\n      tag_9\n      tag_10\n      jump\t// in\n    tag_9:\n      mload(0x40)\n      tag_11\n      swap2\n      swap1\n      tag_12\n      jump\t// in\n    tag_11:\n      mload(0x40)\n      dup1\n      swap2\n      sub\n      swap1\n      return\n        /* \"Storage.sol\":109:186  function setData(string calldata _data) external{... */\n    tag_8:\n        /* \"Storage.sol\":174:179  _data */\n      dup2\n      dup2\n        /* \"Storage.sol\":167:171  data */\n      0x00\n        /* \"Storage.sol\":167:179  data = _data */\n      swap2\n      dup3\n      tag_14\n      swap3\n      swap2\n      swap1\n      tag_15\n      jump\t// in\n    tag_14:\n      pop\n        /* \"Storage.sol\":109:186  function setData(string calldata _data) external{... */\n      pop\n      pop\n      jump\t// out\n        /* \"Storage.sol\":80:98  string public data */\n    tag_10:\n      0x00\n      dup1\n      sload\n      tag_16\n      swap1\n      tag_17\n      jump\t// in\n    tag_16:\n      dup1\n      0x1f\n      add\n      0x20\n      dup1\n      swap2\n      div\n      mul\n      0x20\n      add\n      mload(0x40)\n      swap1\n      dup2\n      add\n      0x40\n      mstore\n      dup1\n      swap3\n      swap2\n      swap1\n      dup2\n      dup2\n      mstore\n      0x20\n      add\n      dup3\n      dup1\n      sload\n      tag_18\n      swap1\n      tag_17\n      jump\t// in\n    tag_18:\n      dup1\n      iszero\n      tag_19\n      jumpi\n      dup1\n      0x1f\n      lt\n      tag_20\n      jumpi\n      0x0100\n      dup1\n      dup4\n      sload\n      div\n      mul\n      dup4\n      mstore\n      swap2\n      0x20\n      add\n      swap2\n      jump(tag_19)\n    tag_20:\n      dup3\n      add\n      swap2\n      swap1\n      0x00\n      mstore\n      keccak256(0x00, 0x20)\n      swap1\n    tag_21:\n      dup2\n      sload\n      dup2\n      mstore\n      swap1\n      0x01\n      add\n      swap1\n      0x20\n      add\n      dup1\n      dup4\n      gt\n      tag_21\n      jumpi\n      dup3\n      swap1\n      sub\n      0x1f\n      and\n      dup3\n      add\n      swap2\n    tag_19:\n      pop\n      pop\n      pop\n      pop\n      pop\n      dup2\n      jump\t// out\n        /* \"#utility.yul\":88:205   */\n    tag_23:\n        /* \"#utility.yul\":197:198   */\n      0x00\n        /* \"#utility.yul\":194:195   */\n      dup1\n        /* \"#utility.yul\":187:199   */\n      revert\n        /* \"#utility.yul\":211:328   */\n    tag_24:\n        /* \"#utility.yul\":320:321   */\n      0x00\n        /* \"#utility.yul\":317:318   */\n      dup1\n        /* \"#utility.yul\":310:322   */\n      revert\n        /* \"#utility.yul\":334:451   */\n    tag_25:\n        /* \"#utility.yul\":443:444   */\n      0x00\n        /* \"#utility.yul\":440:441   */\n      dup1\n        /* \"#utility.yul\":433:445   */\n      revert\n        /* \"#utility.yul\":457:574   */\n    tag_26:\n        /* \"#utility.yul\":566:567   */\n      0x00\n        /* \"#utility.yul\":563:564   */\n      dup1\n        /* \"#utility.yul\":556:568   */\n      revert\n        /* \"#utility.yul\":580:697   */\n    tag_27:\n        /* \"#utility.yul\":689:690   */\n      0x00\n        /* \"#utility.yul\":686:687   */\n      dup1\n        /* \"#utility.yul\":679:691   */\n      revert\n        /* \"#utility.yul\":717:1270   */\n    tag_28:\n        /* \"#utility.yul\":775:783   */\n      0x00\n        /* \"#utility.yul\":785:791   */\n      dup1\n        /* \"#utility.yul\":835:838   */\n      dup4\n        /* \"#utility.yul\":828:832   */\n      0x1f\n        /* \"#utility.yul\":820:826   */\n      dup5\n        /* \"#utility.yul\":816:833   */\n      add\n        /* \"#utility.yul\":812:839   */\n      slt\n        /* \"#utility.yul\":802:924   */\n      tag_61\n      jumpi\n        /* \"#utility.yul\":843:922   */\n      tag_62\n      tag_25\n      jump\t// in\n    tag_62:\n        /* \"#utility.yul\":802:924   */\n    tag_61:\n        /* \"#utility.yul\":956:962   */\n      dup3\n        /* \"#utility.yul\":943:963   */\n      calldataload\n        /* \"#utility.yul\":933:963   */\n      swap1\n      pop\n        /* \"#utility.yul\":986:1004   */\n      0xffffffffffffffff\n        /* \"#utility.yul\":978:984   */\n      dup2\n        /* \"#utility.yul\":975:1005   */\n      gt\n        /* \"#utility.yul\":972:1089   */\n      iszero\n      tag_63\n      jumpi\n        /* \"#utility.yul\":1008:1087   */\n      tag_64\n      tag_26\n      jump\t// in\n    tag_64:\n        /* \"#utility.yul\":972:1089   */\n    tag_63:\n        /* \"#utility.yul\":1122:1126   */\n      0x20\n        /* \"#utility.yul\":1114:1120   */\n      dup4\n        /* \"#utility.yul\":1110:1127   */\n      add\n        /* \"#utility.yul\":1098:1127   */\n      swap2\n      pop\n        /* \"#utility.yul\":1176:1179   */\n      dup4\n        /* \"#utility.yul\":1168:1172   */\n      0x01\n        /* \"#utility.yul\":1160:1166   */\n      dup3\n        /* \"#utility.yul\":1156:1173   */\n      mul\n        /* \"#utility.yul\":1146:1154   */\n      dup4\n        /* \"#utility.yul\":1142:1174   */\n      add\n        /* \"#utility.yul\":1139:1180   */\n      gt\n        /* \"#utility.yul\":1136:1264   */\n      iszero\n      tag_65\n      jumpi\n        /* \"#utility.yul\":1183:1262   */\n      tag_66\n      tag_27\n      jump\t// in\n    tag_66:\n        /* \"#utility.yul\":1136:1264   */\n    tag_65:\n        /* \"#utility.yul\":717:1270   */\n      swap3\n      pop\n      swap3\n      swap1\n      pop\n      jump\t// out\n        /* \"#utility.yul\":1276:1805   */\n    tag_7:\n        /* \"#utility.yul\":1347:1353   */\n      0x00\n        /* \"#utility.yul\":1355:1361   */\n      dup1\n        /* \"#utility.yul\":1404:1406   */\n      0x20\n        /* \"#utility.yul\":1392:1401   */\n      dup4\n        /* \"#utility.yul\":1383:1390   */\n      dup6\n        /* \"#utility.yul\":1379:1402   */\n      sub\n        /* \"#utility.yul\":1375:1407   */\n      slt\n        /* \"#utility.yul\":1372:1491   */\n      iszero\n      tag_68\n      jumpi\n        /* \"#utility.yul\":1410:1489   */\n      tag_69\n      tag_23\n      jump\t// in\n    tag_69:\n        /* \"#utility.yul\":1372:1491   */\n    tag_68:\n        /* \"#utility.yul\":1558:1559   */\n      0x00\n        /* \"#utility.yul\":1547:1556   */\n      dup4\n        /* \"#utility.yul\":1543:1560   */\n      add\n        /* \"#utility.yul\":1530:1561   */\n      calldataload\n        /* \"#utility.yul\":1588:1606   */\n      0xffffffffffffffff\n        /* \"#utility.yul\":1580:1586   */\n      dup2\n        /* \"#utility.yul\":1577:1607   */\n      gt\n        /* \"#utility.yul\":1574:1691   */\n      iszero\n      tag_70\n      jumpi\n        /* \"#utility.yul\":1610:1689   */\n      tag_71\n      tag_24\n      jump\t// in\n    tag_71:\n        /* \"#utility.yul\":1574:1691   */\n    tag_70:\n        /* \"#utility.yul\":1723:1788   */\n      tag_72\n        /* \"#utility.yul\":1780:1787   */\n      dup6\n        /* \"#utility.yul\":1771:1777   */\n      dup3\n        /* \"#utility.yul\":1760:1769   */\n      dup7\n        /* \"#utility.yul\":1756:1778   */\n      add\n        /* \"#utility.yul\":1723:1788   */\n      tag_28\n      jump\t// in\n    tag_72:\n        /* \"#utility.yul\":1705:1788   */\n      swap3\n      pop\n      swap3\n      pop\n        /* \"#utility.yul\":1501:1798   */\n      pop\n        /* \"#utility.yul\":1276:1805   */\n      swap3\n      pop\n      swap3\n      swap1\n      pop\n      jump\t// out\n        /* \"#utility.yul\":1811:1910   */\n    tag_29:\n        /* \"#utility.yul\":1863:1869   */\n      0x00\n        /* \"#utility.yul\":1897:1902   */\n      dup2\n        /* \"#utility.yul\":1891:1903   */\n      mload\n        /* \"#utility.yul\":1881:1903   */\n      swap1\n      pop\n        /* \"#utility.yul\":1811:1910   */\n      swap2\n      swap1\n      pop\n      jump\t// out\n        /* \"#utility.yul\":1916:2085   */\n    tag_30:\n        /* \"#utility.yul\":2000:2011   */\n      0x00\n        /* \"#utility.yul\":2034:2040   */\n      dup3\n        /* \"#utility.yul\":2029:2032   */\n      dup3\n        /* \"#utility.yul\":2022:2041   */\n      mstore\n        /* \"#utility.yul\":2074:2078   */\n      0x20\n        /* \"#utility.yul\":2069:2072   */\n      dup3\n        /* \"#utility.yul\":2065:2079   */\n      add\n        /* \"#utility.yul\":2050:2079   */\n      swap1\n      pop\n        /* \"#utility.yul\":1916:2085   */\n      swap3\n      swap2\n      pop\n      pop\n      jump\t// out\n        /* \"#utility.yul\":2091:2398   */\n    tag_31:\n        /* \"#utility.yul\":2159:2160   */\n      0x00\n        /* \"#utility.yul\":2169:2282   */\n    tag_76:\n        /* \"#utility.yul\":2183:2189   */\n      dup4\n        /* \"#utility.yul\":2180:2181   */\n      dup2\n        /* \"#utility.yul\":2177:2190   */\n      lt\n        /* \"#utility.yul\":2169:2282   */\n      iszero\n      tag_78\n      jumpi\n        /* \"#utility.yul\":2268:2269   */\n      dup1\n        /* \"#utility.yul\":2263:2266   */\n      dup3\n        /* \"#utility.yul\":2259:2270   */\n      add\n        /* \"#utility.yul\":2253:2271   */\n      mload\n        /* \"#utility.yul\":2249:2250   */\n      dup2\n        /* \"#utility.yul\":2244:2247   */\n      dup5\n        /* \"#utility.yul\":2240:2251   */\n      add\n        /* \"#utility.yul\":2233:2272   */\n      mstore\n        /* \"#utility.yul\":2205:2207   */\n      0x20\n        /* \"#utility.yul\":2202:2203   */\n      dup2\n        /* \"#utility.yul\":2198:2208   */\n      add\n        /* \"#utility.yul\":2193:2208   */\n      swap1\n      pop\n        /* \"#utility.yul\":2169:2282   */\n      jump(tag_76)\n    tag_78:\n        /* \"#utility.yul\":2300:2306   */\n      dup4\n        /* \"#utility.yul\":2297:2298   */\n      dup2\n        /* \"#utility.yul\":2294:2307   */\n      gt\n        /* \"#utility.yul\":2291:2392   */\n      iszero\n      tag_79\n      jumpi\n        /* \"#utility.yul\":2380:2381   */\n      0x00\n        /* \"#utility.yul\":2371:2377   */\n      dup5\n        /* \"#utility.yul\":2366:2369   */\n      dup5\n        /* \"#utility.yul\":2362:2378   */\n      add\n        /* \"#utility.yul\":2355:2382   */\n      mstore\n        /* \"#utility.yul\":2291:2392   */\n    tag_79:\n        /* \"#utility.yul\":2140:2398   */\n      pop\n        /* \"#utility.yul\":2091:2398   */\n      pop\n      pop\n      pop\n      jump\t// out\n        /* \"#utility.yul\":2404:2506   */\n    tag_32:\n        /* \"#utility.yul\":2445:2451   */\n      0x00\n        /* \"#utility.yul\":2496:2498   */\n      0x1f\n        /* \"#utility.yul\":2492:2499   */\n      not\n        /* \"#utility.yul\":2487:2489   */\n      0x1f\n        /* \"#utility.yul\":2480:2485   */\n      dup4\n        /* \"#utility.yul\":2476:2490   */\n      add\n        /* \"#utility.yul\":2472:2500   */\n      and\n        /* \"#utility.yul\":2462:2500   */\n      swap1\n      pop\n        /* \"#utility.yul\":2404:2506   */\n      swap2\n      swap1\n      pop\n      jump\t// out\n        /* \"#utility.yul\":2512:2876   */\n    tag_33:\n        /* \"#utility.yul\":2600:2603   */\n      0x00\n        /* \"#utility.yul\":2628:2667   */\n      tag_82\n        /* \"#utility.yul\":2661:2666   */\n      dup3\n        /* \"#utility.yul\":2628:2667   */\n      tag_29\n      jump\t// in\n    tag_82:\n        /* \"#utility.yul\":2683:2754   */\n      tag_83\n        /* \"#utility.yul\":2747:2753   */\n      dup2\n        /* \"#utility.yul\":2742:2745   */\n      dup6\n        /* \"#utility.yul\":2683:2754   */\n      tag_30\n      jump\t// in\n    tag_83:\n        /* \"#utility.yul\":2676:2754   */\n      swap4\n      pop\n        /* \"#utility.yul\":2763:2815   */\n      tag_84\n        /* \"#utility.yul\":2808:2814   */\n      dup2\n        /* \"#utility.yul\":2803:2806   */\n      dup6\n        /* \"#utility.yul\":2796:2800   */\n      0x20\n        /* \"#utility.yul\":2789:2794   */\n      dup7\n        /* \"#utility.yul\":2785:2801   */\n      add\n        /* \"#utility.yul\":2763:2815   */\n      tag_31\n      jump\t// in\n    tag_84:\n        /* \"#utility.yul\":2840:2869   */\n      tag_85\n        /* \"#utility.yul\":2862:2868   */\n      dup2\n        /* \"#utility.yul\":2840:2869   */\n      tag_32\n      jump\t// in\n    tag_85:\n        /* \"#utility.yul\":2835:2838   */\n      dup5\n        /* \"#utility.yul\":2831:2870   */\n      add\n        /* \"#utility.yul\":2824:2870   */\n      swap2\n      pop\n        /* \"#utility.yul\":2604:2876   */\n      pop\n        /* \"#utility.yul\":2512:2876   */\n      swap3\n      swap2\n      pop\n      pop\n      jump\t// out\n        /* \"#utility.yul\":2882:3195   */\n    tag_12:\n        /* \"#utility.yul\":2995:2999   */\n      0x00\n        /* \"#utility.yul\":3033:3035   */\n      0x20\n        /* \"#utility.yul\":3022:3031   */\n      dup3\n        /* \"#utility.yul\":3018:3036   */\n      add\n        /* \"#utility.yul\":3010:3036   */\n      swap1\n      pop\n        /* \"#utility.yul\":3082:3091   */\n      dup2\n        /* \"#utility.yul\":3076:3080   */\n      dup2\n        /* \"#utility.yul\":3072:3092   */\n      sub\n        /* \"#utility.yul\":3068:3069   */\n      0x00\n        /* \"#utility.yul\":3057:3066   */\n      dup4\n        /* \"#utility.yul\":3053:3070   */\n      add\n        /* \"#utility.yul\":3046:3093   */\n      mstore\n        /* \"#utility.yul\":3110:3188   */\n      tag_87\n        /* \"#utility.yul\":3183:3187   */\n      dup2\n        /* \"#utility.yul\":3174:3180   */\n      dup5\n        /* \"#utility.yul\":3110:3188   */\n      tag_33\n      jump\t// in\n    tag_87:\n        /* \"#utility.yul\":3102:3188   */\n      swap1\n      pop\n        /* \"#utility.yul\":2882:3195   */\n      swap3\n      swap2\n      pop\n      pop\n      jump\t// out\n        /* \"#utility.yul\":3201:3298   */\n    tag_34:\n        /* \"#utility.yul\":3260:3266   */\n      0x00\n        /* \"#utility.yul\":3288:3291   */\n      dup3\n        /* \"#utility.yul\":3278:3291   */\n      swap1\n      pop\n        /* \"#utility.yul\":3201:3298   */\n      swap3\n      swap2\n      pop\n      pop\n      jump\t// out\n        /* \"#utility.yul\":3304:3484   */\n    tag_35:\n        /* \"#utility.yul\":3352:3429   */\n      0x4e487b7100000000000000000000000000000000000000000000000000000000\n        /* \"#utility.yul\":3349:3350   */\n      0x00\n        /* \"#utility.yul\":3342:3430   */\n      mstore\n        /* \"#utility.yul\":3449:3453   */\n      0x41\n        /* \"#utility.yul\":3446:3447   */\n      0x04\n        /* \"#utility.yul\":3439:3454   */\n      mstore\n        /* \"#utility.yul\":3473:3477   */\n      0x24\n        /* \"#utility.yul\":3470:3471   */\n      0x00\n        /* \"#utility.yul\":3463:3478   */\n      revert\n        /* \"#utility.yul\":3490:3670   */\n    tag_36:\n        /* \"#utility.yul\":3538:3615   */\n      0x4e487b7100000000000000000000000000000000000000000000000000000000\n        /* \"#utility.yul\":3535:3536   */\n      0x00\n        /* \"#utility.yul\":3528:3616   */\n      mstore\n        /* \"#utility.yul\":3635:3639   */\n      0x22\n        /* \"#utility.yul\":3632:3633   */\n      0x04\n        /* \"#utility.yul\":3625:3640   */\n      mstore\n        /* \"#utility.yul\":3659:3663   */\n      0x24\n        /* \"#utility.yul\":3656:3657   */\n      0x00\n        /* \"#utility.yul\":3649:3664   */\n      revert\n        /* \"#utility.yul\":3676:3996   */\n    tag_17:\n        /* \"#utility.yul\":3720:3726   */\n      0x00\n        /* \"#utility.yul\":3757:3758   */\n      0x02\n        /* \"#utility.yul\":3751:3755   */\n      dup3\n        /* \"#utility.yul\":3747:3759   */\n      div\n        /* \"#utility.yul\":3737:3759   */\n      swap1\n      pop\n        /* \"#utility.yul\":3804:3805   */\n      0x01\n        /* \"#utility.yul\":3798:3802   */\n      dup3\n        /* \"#utility.yul\":3794:3806   */\n      and\n        /* \"#utility.yul\":3825:3843   */\n      dup1\n        /* \"#utility.yul\":3815:3896   */\n      tag_92\n      jumpi\n        /* \"#utility.yul\":3881:3885   */\n      0x7f\n        /* \"#utility.yul\":3873:3879   */\n      dup3\n        /* \"#utility.yul\":3869:3886   */\n      and\n        /* \"#utility.yul\":3859:3886   */\n      swap2\n      pop\n        /* \"#utility.yul\":3815:3896   */\n    tag_92:\n        /* \"#utility.yul\":3943:3945   */\n      0x20\n        /* \"#utility.yul\":3935:3941   */\n      dup3\n        /* \"#utility.yul\":3932:3946   */\n      lt\n        /* \"#utility.yul\":3912:3930   */\n      dup2\n        /* \"#utility.yul\":3909:3947   */\n      sub\n        /* \"#utility.yul\":3906:3990   */\n      tag_93\n      jumpi\n        /* \"#utility.yul\":3962:3980   */\n      tag_94\n      tag_36\n      jump\t// in\n    tag_94:\n        /* \"#utility.yul\":3906:3990   */\n    tag_93:\n        /* \"#utility.yul\":3727:3996   */\n      pop\n        /* \"#utility.yul\":3676:3996   */\n      swap2\n      swap1\n      pop\n      jump\t// out\n        /* \"#utility.yul\":4002:4143   */\n    tag_37:\n        /* \"#utility.yul\":4051:4055   */\n      0x00\n        /* \"#utility.yul\":4074:4077   */\n      dup2\n        /* \"#utility.yul\":4066:4077   */\n      swap1\n      pop\n        /* \"#utility.yul\":4097:4100   */\n      dup2\n        /* \"#utility.yul\":4094:4095   */\n      0x00\n        /* \"#utility.yul\":4087:4101   */\n      mstore\n        /* \"#utility.yul\":4131:4135   */\n      0x20\n        /* \"#utility.yul\":4128:4129   */\n      0x00\n        /* \"#utility.yul\":4118:4136   */\n      keccak256\n        /* \"#utility.yul\":4110:4136   */\n      swap1\n      pop\n        /* \"#utility.yul\":4002:4143   */\n      swap2\n      swap1\n      pop\n      jump\t// out\n        /* \"#utility.yul\":4149:4242   */\n    tag_38:\n        /* \"#utility.yul\":4186:4192   */\n      0x00\n        /* \"#utility.yul\":4233:4235   */\n      0x20\n        /* \"#utility.yul\":4228:4230   */\n      0x1f\n        /* \"#utility.yul\":4221:4226   */\n      dup4\n        /* \"#utility.yul\":4217:4231   */\n      add\n        /* \"#utility.yul\":4213:4236   */\n      div\n        /* \"#utility.yul\":4203:4236   */\n      swap1\n      pop\n        /* \"#utility.yul\":4149:4242   */\n      swap2\n      swap1\n      pop\n      jump\t// out\n        /* \"#utility.yul\":4248:4355   */\n    tag_39:\n        /* \"#utility.yul\":4292:4300   */\n      0x00\n        /* \"#utility.yul\":4342:4347   */\n      dup3\n        /* \"#utility.yul\":4336:4340   */\n      dup3\n        /* \"#utility.yul\":4332:4348   */\n      shl\n        /* \"#utility.yul\":4311:4348   */\n      swap1\n      pop\n        /* \"#utility.yul\":4248:4355   */\n      swap3\n      swap2\n      pop\n      pop\n      jump\t// out\n        /* \"#utility.yul\":4361:4754   */\n    tag_40:\n        /* \"#utility.yul\":4430:4436   */\n      0x00\n        /* \"#utility.yul\":4480:4481   */\n      0x08\n        /* \"#utility.yul\":4468:4478   */\n      dup4\n        /* \"#utility.yul\":4464:4482   */\n      mul\n        /* \"#utility.yul\":4503:4600   */\n      tag_99\n        /* \"#utility.yul\":4533:4599   */\n      0xffffffffffffffffffffffffffffffffffffffffffffffffffffffffffffffff\n        /* \"#utility.yul\":4522:4531   */\n      dup3\n        /* \"#utility.yul\":4503:4600   */\n      tag_39\n      jump\t// in\n    tag_99:\n        /* \"#utility.yul\":4621:4660   */\n      tag_100\n        /* \"#utility.yul\":4651:4659   */\n      dup7\n        /* \"#utility.yul\":4640:4649   */\n      dup4\n        /* \"#utility.yul\":4621:4660   */\n      tag_39\n      jump\t// in\n    tag_100:\n        /* \"#utility.yul\":4609:4660   */\n      swap6\n      pop\n        /* \"#utility.yul\":4693:4697   */\n      dup1\n        /* \"#utility.yul\":4689:4698   */\n      not\n        /* \"#utility.yul\":4682:4687   */\n      dup5\n        /* \"#utility.yul\":4678:4699   */\n      and\n        /* \"#utility.yul\":4669:4699   */\n      swap4\n      pop\n        /* \"#utility.yul\":4742:4746   */\n      dup1\n        /* \"#utility.yul\":4732:4740   */\n      dup7\n        /* \"#utility.yul\":4728:4747   */\n      and\n        /* \"#utility.yul\":4721:4726   */\n      dup5\n        /* \"#utility.yul\":4718:4748   */\n      or\n        /* \"#utility.yul\":4708:4748   */\n      swap3\n      pop\n        /* \"#utility.yul\":4437:4754   */\n      pop\n      pop\n        /* \"#utility.yul\":4361:4754   */\n      swap4\n      swap3\n      pop\n      pop\n      pop\n      jump\t// out\n        /* \"#utility.yul\":4760:4837   */\n    tag_41:\n        /* \"#utility.yul\":4797:4804   */\n      0x00\n        /* \"#utility.yul\":4826:4831   */\n      dup2\n        /* \"#utility.yul\":4815:4831   */\n      swap1\n      pop\n        /* \"#utility.yul\":4760:4837   */\n      swap2\n      swap1\n      pop\n      jump\t// out\n        /* \"#utility.yul\":4843:4903   */\n    tag_42:\n        /* \"#utility.yul\":4871:4874   */\n      0x00\n        /* \"#utility.yul\":4892:4897   */\n      dup2\n        /* \"#utility.yul\":4885:4897   */\n      swap1\n      pop\n        /* \"#utility.yul\":4843:4903   */\n      swap2\n      swap1\n      pop\n      jump\t// out\n        /* \"#utility.yul\":4909:5051   */\n    tag_43:\n        /* \"#utility.yul\":4959:4968   */\n      0x00\n        /* \"#utility.yul\":4992:5045   */\n      tag_104\n        /* \"#utility.yul\":5010:5044   */\n      tag_105\n        /* \"#utility.yul\":5019:5043   */\n      tag_106\n        /* \"#utility.yul\":5037:5042   */\n      dup5\n        /* \"#utility.yul\":5019:5043   */\n      tag_41\n      jump\t// in\n    tag_106:\n        /* \"#utility.yul\":5010:5044   */\n      tag_42\n      jump\t// in\n    tag_105:\n        /* \"#utility.yul\":4992:5045   */\n      tag_41\n      jump\t// in\n    tag_104:\n        /* \"#utility.yul\":4979:5045   */\n      swap1\n      pop\n        /* \"#utility.yul\":4909:5051   */\n      swap2\n      swap1\n      pop\n      jump\t// out\n        /* \"#utility.yul\":5057:5132   */\n    tag_44:\n        /* \"#utility.yul\":5100:5103   */\n      0x00\n        /* \"#utility.yul\":5121:5126   */\n      dup2\n        /* \"#utility.yul\":5114:5126   */\n      swap1\n      pop\n        /* \"#utility.yul\":5057:5132   */\n      swap2\n      swap1\n      pop\n      jump\t// out\n        /* \"#utility.yul\":5138:5407   */\n    tag_45:\n        /* \"#utility.yul\":5248:5287   */\n      tag_109\n        /* \"#utility.yul\":5279:5286   */\n      dup4\n        /* \"#utility.yul\":5248:5287   */\n      tag_43\n      jump\t// in\n    tag_109:\n        /* \"#utility.yul\":5309:5400   */\n      tag_110\n        /* \"#utility.yul\":5358:5399   */\n      tag_111\n        /* \"#utility.yul\":5382:5398   */\n      dup3\n        /* \"#utility.yul\":5358:5399   */\n      tag_44\n      jump\t// in\n    tag_111:\n        /* \"#utility.yul\":5350:5356   */\n      dup5\n        /* \"#utility.yul\":5343:5347   */\n      dup5\n        /* \"#utility.yul\":5337:5348   */\n      sload\n        /* \"#utility.yul\":5309:5400   */\n      tag_40\n      jump\t// in\n    tag_110:\n        /* \"#utility.yul\":5303:5307   */\n      dup3\n        /* \"#utility.yul\":5296:5401   */\n      sstore\n        /* \"#utility.yul\":5214:5407   */\n      pop\n        /* \"#utility.yul\":5138:5407   */\n      pop\n      pop\n      pop\n      jump\t// out\n        /* \"#utility.yul\":5413:5486   */\n    tag_46:\n        /* \"#utility.yul\":5458:5461   */\n      0x00\n        /* \"#utility.yul\":5413:5486   */\n      swap1\n      jump\t// out\n        /* \"#utility.yul\":5492:5681   */\n    tag_47:\n        /* \"#utility.yul\":5569:5601   */\n      tag_114\n      tag_46\n      jump\t// in\n    tag_114:\n        /* \"#utility.yul\":5610:5675   */\n      tag_115\n        /* \"#utility.yul\":5668:5674   */\n      dup2\n        /* \"#utility.yul\":5660:5666   */\n      dup5\n        /* \"#utility.yul\":5654:5658   */\n      dup5\n        /* \"#utility.yul\":5610:5675   */\n      tag_45\n      jump\t// in\n    tag_115:\n        /* \"#utility.yul\":5545:5681   */\n      pop\n        /* \"#utility.yul\":5492:5681   */\n      pop\n      pop\n      jump\t// out\n        /* \"#utility.yul\":5687:5873   */\n    tag_48:\n        /* \"#utility.yul\":5747:5867   */\n    tag_117:\n        /* \"#utility.yul\":5764:5767   */\n      dup2\n        /* \"#utility.yul\":5757:5762   */\n      dup2\n        /* \"#utility.yul\":5754:5768   */\n      lt\n        /* \"#utility.yul\":5747:5867   */\n      iszero\n      tag_119\n      jumpi\n        /* \"#utility.yul\":5818:5857   */\n      tag_120\n        /* \"#utility.yul\":5855:5856   */\n      0x00\n        /* \"#utility.yul\":5848:5853   */\n      dup3\n        /* \"#utility.yul\":5818:5857   */\n      tag_47\n      jump\t// in\n    tag_120:\n        /* \"#utility.yul\":5791:5792   */\n      0x01\n        /* \"#utility.yul\":5784:5789   */\n      dup2\n        /* \"#utility.yul\":5780:5793   */\n      add\n        /* \"#utility.yul\":5771:5793   */\n      swap1\n      pop\n        /* \"#utility.yul\":5747:5867   */\n      jump(tag_117)\n    tag_119:\n        /* \"#utility.yul\":5687:5873   */\n      pop\n      pop\n      jump\t// out\n        /* \"#utility.yul\":5879:6422   */\n    tag_49:\n        /* \"#utility.yul\":5980:5982   */\n      0x1f\n        /* \"#utility.yul\":5975:5978   */\n      dup3\n        /* \"#utility.yul\":5972:5983   */\n      gt\n        /* \"#utility.yul\":5969:6415   */\n      iszero\n      tag_122\n      jumpi\n        /* \"#utility.yul\":6014:6052   */\n      tag_123\n        /* \"#utility.yul\":6046:6051   */\n      dup2\n        /* \"#utility.yul\":6014:6052   */\n      tag_37\n      jump\t// in\n    tag_123:\n        /* \"#utility.yul\":6098:6127   */\n      tag_124\n        /* \"#utility.yul\":6116:6126   */\n      dup5\n        /* \"#utility.yul\":6098:6127   */\n      tag_38\n      jump\t// in\n    tag_124:\n        /* \"#utility.yul\":6088:6096   */\n      dup2\n        /* \"#utility.yul\":6084:6128   */\n      add\n        /* \"#utility.yul\":6281:6283   */\n      0x20\n        /* \"#utility.yul\":6269:6279   */\n      dup6\n        /* \"#utility.yul\":6266:6284   */\n      lt\n        /* \"#utility.yul\":6263:6312   */\n      iszero\n      tag_125\n      jumpi\n        /* \"#utility.yul\":6302:6310   */\n      dup2\n        /* \"#utility.yul\":6287:6310   */\n      swap1\n      pop\n        /* \"#utility.yul\":6263:6312   */\n    tag_125:\n        /* \"#utility.yul\":6325:6405   */\n      tag_126\n        /* \"#utility.yul\":6381:6403   */\n      tag_127\n        /* \"#utility.yul\":6399:6402   */\n      dup6\n        /* \"#utility.yul\":6381:6403   */\n      tag_38\n      jump\t// in\n    tag_127:\n        /* \"#utility.yul\":6371:6379   */\n      dup4\n        /* \"#utility.yul\":6367:6404   */\n      add\n        /* \"#utility.yul\":6354:6365   */\n      dup3\n        /* \"#utility.yul\":6325:6405   */\n      tag_48\n      jump\t// in\n    tag_126:\n        /* \"#utility.yul\":5984:6415   */\n      pop\n      pop\n        /* \"#utility.yul\":5969:6415   */\n    tag_122:\n        /* \"#utility.yul\":5879:6422   */\n      pop\n      pop\n      pop\n      jump\t// out\n        /* \"#utility.yul\":6428:6545   */\n    tag_50:\n        /* \"#utility.yul\":6482:6490   */\n      0x00\n        /* \"#utility.yul\":6532:6537   */\n      dup3\n        /* \"#utility.yul\":6526:6530   */\n      dup3\n        /* \"#utility.yul\":6522:6538   */\n      shr\n        /* \"#utility.yul\":6501:6538   */\n      swap1\n      pop\n        /* \"#utility.yul\":6428:6545   */\n      swap3\n      swap2\n      pop\n      pop\n      jump\t// out\n        /* \"#utility.yul\":6551:6720   */\n    tag_51:\n        /* \"#utility.yul\":6595:6601   */\n      0x00\n        /* \"#utility.yul\":6628:6679   */\n      tag_130\n        /* \"#utility.yul\":6676:6677   */\n      0x00\n        /* \"#utility.yul\":6672:6678   */\n      not\n        /* \"#utility.yul\":6664:6669   */\n      dup5\n        /* \"#utility.yul\":6661:6662   */\n      0x08\n        /* \"#utility.yul\":6657:6670   */\n      mul\n        /* \"#utility.yul\":6628:6679   */\n      tag_50\n      jump\t// in\n    tag_130:\n        /* \"#utility.yul\":6624:6680   */\n      not\n        /* \"#utility.yul\":6709:6713   */\n      dup1\n        /* \"#utility.yul\":6703:6707   */\n      dup4\n        /* \"#utility.yul\":6699:6714   */\n      and\n        /* \"#utility.yul\":6689:6714   */\n      swap2\n      pop\n        /* \"#utility.yul\":6602:6720   */\n      pop\n        /* \"#utility.yul\":6551:6720   */\n      swap3\n      swap2\n      pop\n      pop\n      jump\t// out\n        /* \"#utility.yul\":6725:7020   */\n    tag_52:\n        /* \"#utility.yul\":6801:6805   */\n      0x00\n        /* \"#utility.yul\":6947:6976   */\n      tag_132\n        /* \"#utility.yul\":6972:6975   */\n      dup4\n        /* \"#utility.yul\":6966:6970   */\n      dup4\n        /* \"#utility.yul\":6947:6976   */\n      tag_51\n      jump\t// in\n    tag_132:\n        /* \"#utility.yul\":6939:6976   */\n      swap2\n      pop\n        /* \"#utility.yul\":7009:7012   */\n      dup3\n        /* \"#utility.yul\":7006:7007   */\n      0x02\n        /* \"#utility.yul\":7002:7013   */\n      mul\n        /* \"#utility.yul\":6996:7000   */\n      dup3\n        /* \"#utility.yul\":6993:7014   */\n      or\n        /* \"#utility.yul\":6985:7014   */\n      swap1\n      pop\n        /* \"#utility.yul\":6725:7020   */\n      swap3\n      swap2\n      pop\n      pop\n      jump\t// out\n        /* \"#utility.yul\":7025:8428   */\n    tag_15:\n        /* \"#utility.yul\":7149:7193   */\n      tag_134\n        /* \"#utility.yul\":7189:7192   */\n      dup4\n        /* \"#utility.yul\":7184:7187   */\n      dup4\n        /* \"#utility.yul\":7149:7193   */\n      tag_34\n      jump\t// in\n    tag_134:\n        /* \"#utility.yul\":7258:7276   */\n      0xffffffffffffffff\n        /* \"#utility.yul\":7250:7256   */\n      dup2\n        /* \"#utility.yul\":7247:7277   */\n      gt\n        /* \"#utility.yul\":7244:7300   */\n      iszero\n      tag_135\n      jumpi\n        /* \"#utility.yul\":7280:7298   */\n      tag_136\n      tag_35\n      jump\t// in\n    tag_136:\n        /* \"#utility.yul\":7244:7300   */\n    tag_135:\n        /* \"#utility.yul\":7324:7362   */\n      tag_137\n        /* \"#utility.yul\":7356:7360   */\n      dup3\n        /* \"#utility.yul\":7350:7361   */\n      sload\n        /* \"#utility.yul\":7324:7362   */\n      tag_17\n      jump\t// in\n    tag_137:\n        /* \"#utility.yul\":7409:7476   */\n      tag_138\n        /* \"#utility.yul\":7469:7475   */\n      dup3\n        /* \"#utility.yul\":7461:7467   */\n      dup3\n        /* \"#utility.yul\":7455:7459   */\n      dup6\n        /* \"#utility.yul\":7409:7476   */\n      tag_49\n      jump\t// in\n    tag_138:\n        /* \"#utility.yul\":7503:7504   */\n      0x00\n        /* \"#utility.yul\":7532:7534   */\n      0x1f\n        /* \"#utility.yul\":7524:7530   */\n      dup4\n        /* \"#utility.yul\":7521:7535   */\n      gt\n        /* \"#utility.yul\":7549:7550   */\n      0x01\n        /* \"#utility.yul\":7544:8176   */\n      dup2\n      eq\n      tag_140\n      jumpi\n        /* \"#utility.yul\":8220:8221   */\n      0x00\n        /* \"#utility.yul\":8237:8243   */\n      dup5\n        /* \"#utility.yul\":8234:8318   */\n      iszero\n      tag_141\n      jumpi\n        /* \"#utility.yul\":8293:8302   */\n      dup3\n        /* \"#utility.yul\":8288:8291   */\n      dup8\n        /* \"#utility.yul\":8284:8303   */\n      add\n        /* \"#utility.yul\":8271:8304   */\n      calldataload\n        /* \"#utility.yul\":8262:8304   */\n      swap1\n      pop\n        /* \"#utility.yul\":8234:8318   */\n    tag_141:\n        /* \"#utility.yul\":8344:8411   */\n      tag_142\n        /* \"#utility.yul\":8404:8410   */\n      dup6\n        /* \"#utility.yul\":8397:8402   */\n      dup3\n        /* \"#utility.yul\":8344:8411   */\n      tag_52\n      jump\t// in\n    tag_142:\n        /* \"#utility.yul\":8338:8342   */\n      dup7\n        /* \"#utility.yul\":8331:8412   */\n      sstore\n        /* \"#utility.yul\":8193:8422   */\n      pop\n        /* \"#utility.yul\":7514:8422   */\n      jump(tag_139)\n        /* \"#utility.yul\":7544:8176   */\n    tag_140:\n        /* \"#utility.yul\":7596:7600   */\n      0x1f\n        /* \"#utility.yul\":7592:7601   */\n      not\n        /* \"#utility.yul\":7584:7590   */\n      dup5\n        /* \"#utility.yul\":7580:7602   */\n      and\n        /* \"#utility.yul\":7630:7667   */\n      tag_143\n        /* \"#utility.yul\":7662:7666   */\n      dup7\n        /* \"#utility.yul\":7630:7667   */\n      tag_37\n      jump\t// in\n    tag_143:\n        /* \"#utility.yul\":7689:7690   */\n      0x00\n        /* \"#utility.yul\":7703:7918   */\n    tag_144:\n        /* \"#utility.yul\":7717:7724   */\n      dup3\n        /* \"#utility.yul\":7714:7715   */\n      dup2\n        /* \"#utility.yul\":7711:7725   */\n      lt\n        /* \"#utility.yul\":7703:7918   */\n      iszero\n      tag_146\n      jumpi\n        /* \"#utility.yul\":7803:7812   */\n      dup5\n        /* \"#utility.yul\":7798:7801   */\n      dup10\n        /* \"#utility.yul\":7794:7813   */\n      add\n        /* \"#utility.yul\":7781:7814   */\n      calldataload\n        /* \"#utility.yul\":7773:7779   */\n      dup3\n        /* \"#utility.yul\":7766:7815   */\n      sstore\n        /* \"#utility.yul\":7854:7855   */\n      0x01\n        /* \"#utility.yul\":7846:7852   */\n      dup3\n        /* \"#utility.yul\":7842:7856   */\n      add\n        /* \"#utility.yul\":7832:7856   */\n      swap2\n      pop\n        /* \"#utility.yul\":7901:7903   */\n      0x20\n        /* \"#utility.yul\":7890:7899   */\n      dup6\n        /* \"#utility.yul\":7886:7904   */\n      add\n        /* \"#utility.yul\":7873:7904   */\n      swap5\n      pop\n        /* \"#utility.yul\":7740:7744   */\n      0x20\n        /* \"#utility.yul\":7737:7738   */\n      dup2\n        /* \"#utility.yul\":7733:7745   */\n      add\n        /* \"#utility.yul\":7728:7745   */\n      swap1\n      pop\n        /* \"#utility.yul\":7703:7918   */\n      jump(tag_144)\n    tag_146:\n        /* \"#utility.yul\":7946:7952   */\n      dup7\n        /* \"#utility.yul\":7937:7944   */\n      dup4\n        /* \"#utility.yul\":7934:7953   */\n      lt\n        /* \"#utility.yul\":7931:8117   */\n      iszero\n      tag_147\n      jumpi\n        /* \"#utility.yul\":8011:8020   */\n      dup5\n        /* \"#utility.yul\":8006:8009   */\n      dup10\n        /* \"#utility.yul\":8002:8021   */\n      add\n        /* \"#utility.yul\":7989:8022   */\n      calldataload\n        /* \"#utility.yul\":8054:8102   */\n      tag_148\n        /* \"#utility.yul\":8096:8100   */\n      0x1f\n        /* \"#utility.yul\":8088:8094   */\n      dup10\n        /* \"#utility.yul\":8084:8101   */\n      and\n        /* \"#utility.yul\":8073:8082   */\n      dup3\n        /* \"#utility.yul\":8054:8102   */\n      tag_51\n      jump\t// in\n    tag_148:\n        /* \"#utility.yul\":8046:8052   */\n      dup4\n        /* \"#utility.yul\":8039:8103   */\n      sstore\n        /* \"#utility.yul\":7954:8117   */\n      pop\n        /* \"#utility.yul\":7931:8117   */\n    tag_147:\n        /* \"#utility.yul\":8163:8164   */\n      0x01\n        /* \"#utility.yul\":8159:8160   */\n      0x02\n        /* \"#utility.yul\":8151:8157   */\n      dup9\n        /* \"#utility.yul\":8147:8161   */\n      mul\n        /* \"#utility.yul\":8143:8165   */\n      add\n        /* \"#utility.yul\":8137:8141   */\n      dup9\n        /* \"#utility.yul\":8130:8166   */\n      sstore\n        /* \"#utility.yul\":7551:8176   */\n      pop\n      pop\n      pop\n        /* \"#utility.yul\":7514:8422   */\n    tag_139:\n      pop\n        /* \"#utility.yul\":7124:8428   */\n      pop\n      pop\n      pop\n        /* \"#utility.yul\":7025:8428   */\n      pop\n      pop\n      pop\n      jump\t// out\n\n    auxdata: 0xa264697066735822122033ad092ddc8eb30396cd87a37e3a78c83b6f775d660dad8a26cfb67b94ceb80564736f6c634300080f0033\n}\n",
				"bytecode": {
					"linkReferences": {},
					"object": "608060405234801561001057600080fd5b506105e6806100206000396000f3fe608060405234801561001057600080fd5b50600436106100365760003560e01c806347064d6a1461003b57806373d4a13a14610057575b600080fd5b61005560048036038101906100509190610188565b610075565b005b61005f61008b565b60405161006c919061026e565b60405180910390f35b8181600091826100869291906104e0565b505050565b60008054610098906102f9565b80601f01602080910402602001604051908101604052809291908181526020018280546100c4906102f9565b80156101115780601f106100e657610100808354040283529160200191610111565b820191906000526020600020905b8154815290600101906020018083116100f457829003601f168201915b505050505081565b600080fd5b600080fd5b600080fd5b600080fd5b600080fd5b60008083601f84011261014857610147610123565b5b8235905067ffffffffffffffff81111561016557610164610128565b5b6020830191508360018202830111156101815761018061012d565b5b9250929050565b6000806020838503121561019f5761019e610119565b5b600083013567ffffffffffffffff8111156101bd576101bc61011e565b5b6101c985828601610132565b92509250509250929050565b600081519050919050565b600082825260208201905092915050565b60005b8381101561020f5780820151818401526020810190506101f4565b8381111561021e576000848401525b50505050565b6000601f19601f8301169050919050565b6000610240826101d5565b61024a81856101e0565b935061025a8185602086016101f1565b61026381610224565b840191505092915050565b600060208201905081810360008301526102888184610235565b905092915050565b600082905092915050565b7f4e487b7100000000000000000000000000000000000000000000000000000000600052604160045260246000fd5b7f4e487b7100000000000000000000000000000000000000000000000000000000600052602260045260246000fd5b6000600282049050600182168061031157607f821691505b602082108103610324576103236102ca565b5b50919050565b60008190508160005260206000209050919050565b60006020601f8301049050919050565b600082821b905092915050565b60006008830261038c7fffffffffffffffffffffffffffffffffffffffffffffffffffffffffffffffff8261034f565b610396868361034f565b95508019841693508086168417925050509392505050565b6000819050919050565b6000819050919050565b60006103dd6103d86103d3846103ae565b6103b8565b6103ae565b9050919050565b6000819050919050565b6103f7836103c2565b61040b610403826103e4565b84845461035c565b825550505050565b600090565b610420610413565b61042b8184846103ee565b505050565b5b8181101561044f57610444600082610418565b600181019050610431565b5050565b601f821115610494576104658161032a565b61046e8461033f565b8101602085101561047d578190505b6104916104898561033f565b830182610430565b50505b505050565b600082821c905092915050565b60006104b760001984600802610499565b1980831691505092915050565b60006104d083836104a6565b9150826002028217905092915050565b6104ea8383610290565b67ffffffffffffffff8111156105035761050261029b565b5b61050d82546102f9565b610518828285610453565b6000601f8311600181146105475760008415610535578287013590505b61053f85826104c4565b8655506105a7565b601f1984166105558661032a565b60005b8281101561057d57848901358255600182019150602085019450602081019050610558565b8683101561059a5784890135610596601f8916826104a6565b8355505b6001600288020188555050505b5050505050505056fea264697066735822122033ad092ddc8eb30396cd87a37e3a78c83b6f775d660dad8a26cfb67b94ceb80564736f6c634300080f0033",
					"opcodes": "PUSH1 0x80 PUSH1 0x40 MSTORE CALLVALUE DUP1 ISZERO PUSH2 0x10 JUMPI PUSH1 0x0 DUP1 REVERT JUMPDEST POP PUSH2 0x5E6 DUP1 PUSH2 0x20 PUSH1 0x0 CODECOPY PUSH1 0x0 RETURN INVALID PUSH1 0x80 PUSH1 0x40 MSTORE CALLVALUE DUP1 ISZERO PUSH2 0x10 JUMPI PUSH1 0x0 DUP1 REVERT JUMPDEST POP PUSH1 0x4 CALLDATASIZE LT PUSH2 0x36 JUMPI PUSH1 0x0 CALLDATALOAD PUSH1 0xE0 SHR DUP1 PUSH4 0x47064D6A EQ PUSH2 0x3B JUMPI DUP1 PUSH4 0x73D4A13A EQ PUSH2 0x57 JUMPI JUMPDEST PUSH1 0x0 DUP1 REVERT JUMPDEST PUSH2 0x55 PUSH1 0x4 DUP1 CALLDATASIZE SUB DUP2 ADD SWAP1 PUSH2 0x50 SWAP2 SWAP1 PUSH2 0x188 JUMP JUMPDEST PUSH2 0x75 JUMP JUMPDEST STOP JUMPDEST PUSH2 0x5F PUSH2 0x8B JUMP JUMPDEST PUSH1 0x40 MLOAD PUSH2 0x6C SWAP2 SWAP1 PUSH2 0x26E JUMP JUMPDEST PUSH1 0x40 MLOAD DUP1 SWAP2 SUB SWAP1 RETURN JUMPDEST DUP2 DUP2 PUSH1 0x0 SWAP2 DUP3 PUSH2 0x86 SWAP3 SWAP2 SWAP1 PUSH2 0x4E0 JUMP JUMPDEST POP POP POP JUMP JUMPDEST PUSH1 0x0 DUP1 SLOAD PUSH2 0x98 SWAP1 PUSH2 0x2F9 JUMP JUMPDEST DUP1 PUSH1 0x1F ADD PUSH1 0x20 DUP1 SWAP2 DIV MUL PUSH1 0x20 ADD PUSH1 0x40 MLOAD SWAP1 DUP2 ADD PUSH1 0x40 MSTORE DUP1 SWAP3 SWAP2 SWAP1 DUP2 DUP2 MSTORE PUSH1 0x20 ADD DUP3 DUP1 SLOAD PUSH2 0xC4 SWAP1 PUSH2 0x2F9 JUMP JUMPDEST DUP1 ISZERO PUSH2 0x111 JUMPI DUP1 PUSH1 0x1F LT PUSH2 0xE6 JUMPI PUSH2 0x100 DUP1 DUP4 SLOAD DIV MUL DUP4 MSTORE SWAP2 PUSH1 0x20 ADD SWAP2 PUSH2 0x111 JUMP JUMPDEST DUP3 ADD SWAP2 SWAP1 PUSH1 0x0 MSTORE PUSH1 0x20 PUSH1 0x0 KECCAK256 SWAP1 JUMPDEST DUP2 SLOAD DUP2 MSTORE SWAP1 PUSH1 0x1 ADD SWAP1 PUSH1 0x20 ADD DUP1 DUP4 GT PUSH2 0xF4 JUMPI DUP3 SWAP1 SUB PUSH1 0x1F AND DUP3 ADD SWAP2 JUMPDEST POP POP POP POP POP DUP2 JUMP JUMPDEST PUSH1 0x0 DUP1 REVERT JUMPDEST PUSH1 0x0 DUP1 REVERT JUMPDEST PUSH1 0x0 DUP1 REVERT JUMPDEST PUSH1 0x0 DUP1 REVERT JUMPDEST PUSH1 0x0 DUP1 REVERT JUMPDEST PUSH1 0x0 DUP1 DUP4 PUSH1 0x1F DUP5 ADD SLT PUSH2 0x148 JUMPI PUSH2 0x147 PUSH2 0x123 JUMP JUMPDEST JUMPDEST DUP3 CALLDATALOAD SWAP1 POP PUSH8 0xFFFFFFFFFFFFFFFF DUP2 GT ISZERO PUSH2 0x165 JUMPI PUSH2 0x164 PUSH2 0x128 JUMP JUMPDEST JUMPDEST PUSH1 0x20 DUP4 ADD SWAP2 POP DUP4 PUSH1 0x1 DUP3 MUL DUP4 ADD GT ISZERO PUSH2 0x181 JUMPI PUSH2 0x180 PUSH2 0x12D JUMP JUMPDEST JUMPDEST SWAP3 POP SWAP3 SWAP1 POP JUMP JUMPDEST PUSH1 0x0 DUP1 PUSH1 0x20 DUP4 DUP6 SUB SLT ISZERO PUSH2 0x19F JUMPI PUSH2 0x19E PUSH2 0x119 JUMP JUMPDEST JUMPDEST PUSH1 0x0 DUP4 ADD CALLDATALOAD PUSH8 0xFFFFFFFFFFFFFFFF DUP2 GT ISZERO PUSH2 0x1BD JUMPI PUSH2 0x1BC PUSH2 0x11E JUMP JUMPDEST JUMPDEST PUSH2 0x1C9 DUP6 DUP3 DUP7 ADD PUSH2 0x132 JUMP JUMPDEST SWAP3 POP SWAP3 POP POP SWAP3 POP SWAP3 SWAP1 POP JUMP JUMPDEST PUSH1 0x0 DUP2 MLOAD SWAP1 POP SWAP2 SWAP1 POP JUMP JUMPDEST PUSH1 0x0 DUP3 DUP3 MSTORE PUSH1 0x20 DUP3 ADD SWAP1 POP SWAP3 SWAP2 POP POP JUMP JUMPDEST PUSH1 0x0 JUMPDEST DUP4 DUP2 LT ISZERO PUSH2 0x20F JUMPI DUP1 DUP3 ADD MLOAD DUP2 DUP5 ADD MSTORE PUSH1 0x20 DUP2 ADD SWAP1 POP PUSH2 0x1F4 JUMP JUMPDEST DUP4 DUP2 GT ISZERO PUSH2 0x21E JUMPI PUSH1 0x0 DUP5 DUP5 ADD MSTORE JUMPDEST POP POP POP POP JUMP JUMPDEST PUSH1 0x0 PUSH1 0x1F NOT PUSH1 0x1F DUP4 ADD AND SWAP1 POP SWAP2 SWAP1 POP JUMP JUMPDEST PUSH1 0x0 PUSH2 0x240 DUP3 PUSH2 0x1D5 JUMP JUMPDEST PUSH2 0x24A DUP2 DUP6 PUSH2 0x1E0 JUMP JUMPDEST SWAP4 POP PUSH2 0x25A DUP2 DUP6 PUSH1 0x20 DUP7 ADD PUSH2 0x1F1 JUMP JUMPDEST PUSH2 0x263 DUP2 PUSH2 0x224 JUMP JUMPDEST DUP5 ADD SWAP2 POP POP SWAP3 SWAP2 POP POP JUMP JUMPDEST PUSH1 0x0 PUSH1 0x20 DUP3 ADD SWAP1 POP DUP2 DUP2 SUB PUSH1 0x0 DUP4 ADD MSTORE PUSH2 0x288 DUP2 DUP5 PUSH2 0x235 JUMP JUMPDEST SWAP1 POP SWAP3 SWAP2 POP POP JUMP JUMPDEST PUSH1 0x0 DUP3 SWAP1 POP SWAP3 SWAP2 POP POP JUMP JUMPDEST PUSH32 0x4E487B7100000000000000000000000000000000000000000000000000000000 PUSH1 0x0 MSTORE PUSH1 0x41 PUSH1 0x4 MSTORE PUSH1 0x24 PUSH1 0x0 REVERT JUMPDEST PUSH32 0x4E487B7100000000000000000000000000000000000000000000000000000000 PUSH1 0x0 MSTORE PUSH1 0x22 PUSH1 0x4 MSTORE PUSH1 0x24 PUSH1 0x0 REVERT JUMPDEST PUSH1 0x0 PUSH1 0x2 DUP3 DIV SWAP1 POP PUSH1 0x1 DUP3 AND DUP1 PUSH2 0x311 JUMPI PUSH1 0x7F DUP3 AND SWAP2 POP JUMPDEST PUSH1 0x20 DUP3 LT DUP2 SUB PUSH2 0x324 JUMPI PUSH2 0x323 PUSH2 0x2CA JUMP JUMPDEST JUMPDEST POP SWAP2 SWAP1 POP JUMP JUMPDEST PUSH1 0x0 DUP2 SWAP1 POP DUP2 PUSH1 0x0 MSTORE PUSH1 0x20 PUSH1 0x0 KECCAK256 SWAP1 POP SWAP2 SWAP1 POP JUMP JUMPDEST PUSH1 0x0 PUSH1 0x20 PUSH1 0x1F DUP4 ADD DIV SWAP1 POP SWAP2 SWAP1 POP JUMP JUMPDEST PUSH1 0x0 DUP3 DUP3 SHL SWAP1 POP SWAP3 SWAP2 POP POP JUMP JUMPDEST PUSH1 0x0 PUSH1 0x8 DUP4 MUL PUSH2 0x38C PUSH32 0xFFFFFFFFFFFFFFFFFFFFFFFFFFFFFFFFFFFFFFFFFFFFFFFFFFFFFFFFFFFFFFFF DUP3 PUSH2 0x34F JUMP JUMPDEST PUSH2 0x396 DUP7 DUP4 PUSH2 0x34F JUMP JUMPDEST SWAP6 POP DUP1 NOT DUP5 AND SWAP4 POP DUP1 DUP7 AND DUP5 OR SWAP3 POP POP POP SWAP4 SWAP3 POP POP POP JUMP JUMPDEST PUSH1 0x0 DUP2 SWAP1 POP SWAP2 SWAP1 POP JUMP JUMPDEST PUSH1 0x0 DUP2 SWAP1 POP SWAP2 SWAP1 POP JUMP JUMPDEST PUSH1 0x0 PUSH2 0x3DD PUSH2 0x3D8 PUSH2 0x3D3 DUP5 PUSH2 0x3AE JUMP JUMPDEST PUSH2 0x3B8 JUMP JUMPDEST PUSH2 0x3AE JUMP JUMPDEST SWAP1 POP SWAP2 SWAP1 POP JUMP JUMPDEST PUSH1 0x0 DUP2 SWAP1 POP SWAP2 SWAP1 POP JUMP JUMPDEST PUSH2 0x3F7 DUP4 PUSH2 0x3C2 JUMP JUMPDEST PUSH2 0x40B PUSH2 0x403 DUP3 PUSH2 0x3E4 JUMP JUMPDEST DUP5 DUP5 SLOAD PUSH2 0x35C JUMP JUMPDEST DUP3 SSTORE POP POP POP POP JUMP JUMPDEST PUSH1 0x0 SWAP1 JUMP JUMPDEST PUSH2 0x420 PUSH2 0x413 JUMP JUMPDEST PUSH2 0x42B DUP2 DUP5 DUP5 PUSH2 0x3EE JUMP JUMPDEST POP POP POP JUMP JUMPDEST JUMPDEST DUP2 DUP2 LT ISZERO PUSH2 0x44F JUMPI PUSH2 0x444 PUSH1 0x0 DUP3 PUSH2 0x418 JUMP JUMPDEST PUSH1 0x1 DUP2 ADD SWAP1 POP PUSH2 0x431 JUMP JUMPDEST POP POP JUMP JUMPDEST PUSH1 0x1F DUP3 GT ISZERO PUSH2 0x494 JUMPI PUSH2 0x465 DUP2 PUSH2 0x32A JUMP JUMPDEST PUSH2 0x46E DUP5 PUSH2 0x33F JUMP JUMPDEST DUP2 ADD PUSH1 0x20 DUP6 LT ISZERO PUSH2 0x47D JUMPI DUP2 SWAP1 POP JUMPDEST PUSH2 0x491 PUSH2 0x489 DUP6 PUSH2 0x33F JUMP JUMPDEST DUP4 ADD DUP3 PUSH2 0x430 JUMP JUMPDEST POP POP JUMPDEST POP POP POP JUMP JUMPDEST PUSH1 0x0 DUP3 DUP3 SHR SWAP1 POP SWAP3 SWAP2 POP POP JUMP JUMPDEST PUSH1 0x0 PUSH2 0x4B7 PUSH1 0x0 NOT DUP5 PUSH1 0x8 MUL PUSH2 0x499 JUMP JUMPDEST NOT DUP1 DUP4 AND SWAP2 POP POP SWAP3 SWAP2 POP POP JUMP JUMPDEST PUSH1 0x0 PUSH2 0x4D0 DUP4 DUP4 PUSH2 0x4A6 JUMP JUMPDEST SWAP2 POP DUP3 PUSH1 0x2 MUL DUP3 OR SWAP1 POP SWAP3 SWAP2 POP POP JUMP JUMPDEST PUSH2 0x4EA DUP4 DUP4 PUSH2 0x290 JUMP JUMPDEST PUSH8 0xFFFFFFFFFFFFFFFF DUP2 GT ISZERO PUSH2 0x503 JUMPI PUSH2 0x502 PUSH2 0x29B JUMP JUMPDEST JUMPDEST PUSH2 0x50D DUP3 SLOAD PUSH2 0x2F9 JUMP JUMPDEST PUSH2 0x518 DUP3 DUP3 DUP6 PUSH2 0x453 JUMP JUMPDEST PUSH1 0x0 PUSH1 0x1F DUP4 GT PUSH1 0x1 DUP2 EQ PUSH2 0x547 JUMPI PUSH1 0x0 DUP5 ISZERO PUSH2 0x535 JUMPI DUP3 DUP8 ADD CALLDATALOAD SWAP1 POP JUMPDEST PUSH2 0x53F DUP6 DUP3 PUSH2 0x4C4 JUMP JUMPDEST DUP7 SSTORE POP PUSH2 0x5A7 JUMP JUMPDEST PUSH1 0x1F NOT DUP5 AND PUSH2 0x555 DUP7 PUSH2 0x32A JUMP JUMPDEST PUSH1 0x0 JUMPDEST DUP3 DUP2 LT ISZERO PUSH2 0x57D JUMPI DUP5 DUP10 ADD CALLDATALOAD DUP3 SSTORE PUSH1 0x1 DUP3 ADD SWAP2 POP PUSH1 0x20 DUP6 ADD SWAP5 POP PUSH1 0x20 DUP2 ADD SWAP1 POP PUSH2 0x558 JUMP JUMPDEST DUP7 DUP4 LT ISZERO PUSH2 0x59A JUMPI DUP5 DUP10 ADD CALLDATALOAD PUSH2 0x596 PUSH1 0x1F DUP10 AND DUP3 PUSH2 0x4A6 JUMP JUMPDEST DUP4 SSTORE POP JUMPDEST PUSH1 0x1 PUSH1 0x2 DUP9 MUL ADD DUP9 SSTORE POP POP POP JUMPDEST POP POP POP POP POP POP POP JUMP INVALID LOG2 PUSH5 0x6970667358 0x22 SLT KECCAK256 CALLER 0xAD MULMOD 0x2D 0xDC DUP15 0xB3 SUB SWAP7 0xCD DUP8 LOG3 PUSH31 0x3A78C83B6F775D660DAD8A26CFB67B94CEB80564736F6C634300080F003300 "
				},
				"gasEstimates": {
					"creation": {
						"codeDepositCost": "302000",
						"executionCost": "343",
						"totalCost": "302343"
					},
					"external": {
						"data()": "infinite",
						"setData(string)": "infinite"
					}
				},
				"methodIdentifiers": {
					"data()": "73d4a13a",
					"setData(string)": "47064d6a"
				}
			},
			"storageLayout": {
				"storage": [
					{
						"astId": 22,
						"contract": "Storage.sol:Storage",
						"label": "data",
						"offset": 0,
						"slot": "0",
						"type": "t_string_storage"
					}
				],
				"types": {
					"t_string_storage": {
						"encoding": "bytes",
						"label": "string",
						"numberOfBytes": "32"
					}
				}
			},
			"userdoc": {
				"kind": "user",
				"methods": {},
				"version": 1
			}
		}
	}
}