{
	"Pratice2nd.sol": {
		"ManiTransfer": {
			"abi": [
				{
					"inputs": [],
					"name": "_owner",
					"outputs": [
						{
							"internalType": "address",
							"name": "",
							"type": "address"
						}
					],
					"stateMutability": "view",
					"type": "function"
				},
				{
					"inputs": [
						{
							"internalType": "address",
							"name": "toAddress",
							"type": "address"
						},
						{
							"internalType": "address",
							"name": "tokenAddress",
							"type": "address"
						},
						{
							"internalType": "uint256",
							"name": "tokenId",
							"type": "uint256"
						}
					],
					"name": "_transferERC721FundsToAddress",
					"outputs": [],
					"stateMutability": "nonpayable",
					"type": "function"
				}
			],
			"devdoc": {
				"kind": "dev",
				"methods": {},
				"version": 1
			},
			"evm": {
				"assembly": "    /* \"Pratice2nd.sol\":121:1161  contract ManiTransfer {... */\n  mstore(0x40, 0x80)\n    /* \"Pratice2nd.sol\":174:184  msg.sender */\n  caller\n    /* \"Pratice2nd.sol\":150:184  address public _owner = msg.sender */\n  0x00\n  dup1\n  0x0100\n  exp\n  dup2\n  sload\n  dup2\n  0xffffffffffffffffffffffffffffffffffffffff\n  mul\n  not\n  and\n  swap1\n  dup4\n  0xffffffffffffffffffffffffffffffffffffffff\n  and\n  mul\n  or\n  swap1\n  sstore\n  pop\n    /* \"Pratice2nd.sol\":121:1161  contract ManiTransfer {... */\n  callvalue\n  dup1\n  iszero\n  tag_1\n  jumpi\n  0x00\n  dup1\n  revert\ntag_1:\n  pop\n  dataSize(sub_0)\n  dup1\n  dataOffset(sub_0)\n  0x00\n  codecopy\n  0x00\n  return\nstop\n\nsub_0: assembly {\n        /* \"Pratice2nd.sol\":121:1161  contract ManiTransfer {... */\n      mstore(0x40, 0x80)\n      callvalue\n      dup1\n      iszero\n      tag_1\n      jumpi\n      0x00\n      dup1\n      revert\n    tag_1:\n      pop\n      jumpi(tag_2, lt(calldatasize, 0x04))\n      shr(0xe0, calldataload(0x00))\n      dup1\n      0xb2bdfa7b\n      eq\n      tag_3\n      jumpi\n      dup1\n      0xcb9354cd\n      eq\n      tag_4\n      jumpi\n    tag_2:\n      0x00\n      dup1\n      revert\n        /* \"Pratice2nd.sol\":150:184  address public _owner = msg.sender */\n    tag_3:\n      tag_5\n      tag_6\n      jump\t// in\n    tag_5:\n      mload(0x40)\n      tag_7\n      swap2\n      swap1\n      tag_8\n      jump\t// in\n    tag_7:\n      mload(0x40)\n      dup1\n      swap2\n      sub\n      swap1\n      return\n        /* \"Pratice2nd.sol\":316:550  function _transferERC721FundsToAddress(... */\n    tag_4:\n      tag_9\n      0x04\n      dup1\n      calldatasize\n      sub\n      dup2\n      add\n      swap1\n      tag_10\n      swap2\n      swap1\n      tag_11\n      jump\t// in\n    tag_10:\n      tag_12\n      jump\t// in\n    tag_9:\n      stop\n        /* \"Pratice2nd.sol\":150:184  address public _owner = msg.sender */\n    tag_6:\n      0x00\n      dup1\n      sload\n      swap1\n      0x0100\n      exp\n      swap1\n      div\n      0xffffffffffffffffffffffffffffffffffffffff\n      and\n      dup2\n      jump\t// out\n        /* \"Pratice2nd.sol\":316:550  function _transferERC721FundsToAddress(... */\n    tag_12:\n        /* \"Pratice2nd.sol\":244:254  msg.sender */\n      caller\n        /* \"Pratice2nd.sol\":234:254  _owner == msg.sender */\n      0xffffffffffffffffffffffffffffffffffffffff\n      and\n        /* \"Pratice2nd.sol\":234:240  _owner */\n      0x00\n      dup1\n      sload\n      swap1\n      0x0100\n      exp\n      swap1\n      div\n      0xffffffffffffffffffffffffffffffffffffffff\n      and\n        /* \"Pratice2nd.sol\":234:254  _owner == msg.sender */\n      0xffffffffffffffffffffffffffffffffffffffff\n      and\n      eq\n        /* \"Pratice2nd.sol\":226:291  require(_owner == msg.sender, \"Ownable: caller is not the owner\") */\n      tag_14\n      jumpi\n      mload(0x40)\n      0x08c379a000000000000000000000000000000000000000000000000000000000\n      dup2\n      mstore\n      0x04\n      add\n      tag_15\n      swap1\n      tag_16\n      jump\t// in\n    tag_15:\n      mload(0x40)\n      dup1\n      swap2\n      sub\n      swap1\n      revert\n    tag_14:\n        /* \"Pratice2nd.sol\":478:490  tokenAddress */\n      dup2\n        /* \"Pratice2nd.sol\":470:508  IERC721(tokenAddress).safeTransferFrom */\n      0xffffffffffffffffffffffffffffffffffffffff\n      and\n      0x42842e0e\n        /* \"Pratice2nd.sol\":517:521  this */\n      address\n        /* \"Pratice2nd.sol\":524:533  toAddress */\n      dup6\n        /* \"Pratice2nd.sol\":535:542  tokenId */\n      dup5\n        /* \"Pratice2nd.sol\":470:543  IERC721(tokenAddress).safeTransferFrom(address(this), toAddress, tokenId) */\n      mload(0x40)\n      dup5\n      0xffffffff\n      and\n      0xe0\n      shl\n      dup2\n      mstore\n      0x04\n      add\n      tag_18\n      swap4\n      swap3\n      swap2\n      swap1\n      tag_19\n      jump\t// in\n    tag_18:\n      0x00\n      mload(0x40)\n      dup1\n      dup4\n      sub\n      dup2\n      0x00\n      dup8\n      dup1\n      extcodesize\n      iszero\n      dup1\n      iszero\n      tag_20\n      jumpi\n      0x00\n      dup1\n      revert\n    tag_20:\n      pop\n      gas\n      call\n      iszero\n      dup1\n      iszero\n      tag_22\n      jumpi\n      returndatasize\n      0x00\n      dup1\n      returndatacopy\n      revert(0x00, returndatasize)\n    tag_22:\n      pop\n      pop\n      pop\n      pop\n        /* \"Pratice2nd.sol\":316:550  function _transferERC721FundsToAddress(... */\n      pop\n      pop\n      pop\n      jump\t// out\n        /* \"#utility.yul\":7:146   */\n    tag_24:\n        /* \"#utility.yul\":53:58   */\n      0x00\n        /* \"#utility.yul\":91:97   */\n      dup2\n        /* \"#utility.yul\":78:98   */\n      calldataload\n        /* \"#utility.yul\":69:98   */\n      swap1\n      pop\n        /* \"#utility.yul\":107:140   */\n      tag_26\n        /* \"#utility.yul\":134:139   */\n      dup2\n        /* \"#utility.yul\":107:140   */\n      tag_27\n      jump\t// in\n    tag_26:\n        /* \"#utility.yul\":7:146   */\n      swap3\n      swap2\n      pop\n      pop\n      jump\t// out\n        /* \"#utility.yul\":152:291   */\n    tag_28:\n        /* \"#utility.yul\":198:203   */\n      0x00\n        /* \"#utility.yul\":236:242   */\n      dup2\n        /* \"#utility.yul\":223:243   */\n      calldataload\n        /* \"#utility.yul\":214:243   */\n      swap1\n      pop\n        /* \"#utility.yul\":252:285   */\n      tag_30\n        /* \"#utility.yul\":279:284   */\n      dup2\n        /* \"#utility.yul\":252:285   */\n      tag_31\n      jump\t// in\n    tag_30:\n        /* \"#utility.yul\":152:291   */\n      swap3\n      swap2\n      pop\n      pop\n      jump\t// out\n        /* \"#utility.yul\":297:916   */\n    tag_11:\n        /* \"#utility.yul\":374:380   */\n      0x00\n        /* \"#utility.yul\":382:388   */\n      dup1\n        /* \"#utility.yul\":390:396   */\n      0x00\n        /* \"#utility.yul\":439:441   */\n      0x60\n        /* \"#utility.yul\":427:436   */\n      dup5\n        /* \"#utility.yul\":418:425   */\n      dup7\n        /* \"#utility.yul\":414:437   */\n      sub\n        /* \"#utility.yul\":410:442   */\n      slt\n        /* \"#utility.yul\":407:526   */\n      iszero\n      tag_33\n      jumpi\n        /* \"#utility.yul\":445:524   */\n      tag_34\n      tag_35\n      jump\t// in\n    tag_34:\n        /* \"#utility.yul\":407:526   */\n    tag_33:\n        /* \"#utility.yul\":565:566   */\n      0x00\n        /* \"#utility.yul\":590:643   */\n      tag_36\n        /* \"#utility.yul\":635:642   */\n      dup7\n        /* \"#utility.yul\":626:632   */\n      dup3\n        /* \"#utility.yul\":615:624   */\n      dup8\n        /* \"#utility.yul\":611:633   */\n      add\n        /* \"#utility.yul\":590:643   */\n      tag_24\n      jump\t// in\n    tag_36:\n        /* \"#utility.yul\":580:643   */\n      swap4\n      pop\n        /* \"#utility.yul\":536:653   */\n      pop\n        /* \"#utility.yul\":692:694   */\n      0x20\n        /* \"#utility.yul\":718:771   */\n      tag_37\n        /* \"#utility.yul\":763:770   */\n      dup7\n        /* \"#utility.yul\":754:760   */\n      dup3\n        /* \"#utility.yul\":743:752   */\n      dup8\n        /* \"#utility.yul\":739:761   */\n      add\n        /* \"#utility.yul\":718:771   */\n      tag_24\n      jump\t// in\n    tag_37:\n        /* \"#utility.yul\":708:771   */\n      swap3\n      pop\n        /* \"#utility.yul\":663:781   */\n      pop\n        /* \"#utility.yul\":820:822   */\n      0x40\n        /* \"#utility.yul\":846:899   */\n      tag_38\n        /* \"#utility.yul\":891:898   */\n      dup7\n        /* \"#utility.yul\":882:888   */\n      dup3\n        /* \"#utility.yul\":871:880   */\n      dup8\n        /* \"#utility.yul\":867:889   */\n      add\n        /* \"#utility.yul\":846:899   */\n      tag_28\n      jump\t// in\n    tag_38:\n        /* \"#utility.yul\":836:899   */\n      swap2\n      pop\n        /* \"#utility.yul\":791:909   */\n      pop\n        /* \"#utility.yul\":297:916   */\n      swap3\n      pop\n      swap3\n      pop\n      swap3\n      jump\t// out\n        /* \"#utility.yul\":922:1040   */\n    tag_39:\n        /* \"#utility.yul\":1009:1033   */\n      tag_41\n        /* \"#utility.yul\":1027:1032   */\n      dup2\n        /* \"#utility.yul\":1009:1033   */\n      tag_42\n      jump\t// in\n    tag_41:\n        /* \"#utility.yul\":1004:1007   */\n      dup3\n        /* \"#utility.yul\":997:1034   */\n      mstore\n        /* \"#utility.yul\":922:1040   */\n      pop\n      pop\n      jump\t// out\n        /* \"#utility.yul\":1046:1412   */\n    tag_43:\n        /* \"#utility.yul\":1188:1191   */\n      0x00\n        /* \"#utility.yul\":1209:1276   */\n      tag_45\n        /* \"#utility.yul\":1273:1275   */\n      0x20\n        /* \"#utility.yul\":1268:1271   */\n      dup4\n        /* \"#utility.yul\":1209:1276   */\n      tag_46\n      jump\t// in\n    tag_45:\n        /* \"#utility.yul\":1202:1276   */\n      swap2\n      pop\n        /* \"#utility.yul\":1285:1378   */\n      tag_47\n        /* \"#utility.yul\":1374:1377   */\n      dup3\n        /* \"#utility.yul\":1285:1378   */\n      tag_48\n      jump\t// in\n    tag_47:\n        /* \"#utility.yul\":1403:1405   */\n      0x20\n        /* \"#utility.yul\":1398:1401   */\n      dup3\n        /* \"#utility.yul\":1394:1406   */\n      add\n        /* \"#utility.yul\":1387:1406   */\n      swap1\n      pop\n        /* \"#utility.yul\":1046:1412   */\n      swap2\n      swap1\n      pop\n      jump\t// out\n        /* \"#utility.yul\":1418:1536   */\n    tag_49:\n        /* \"#utility.yul\":1505:1529   */\n      tag_51\n        /* \"#utility.yul\":1523:1528   */\n      dup2\n        /* \"#utility.yul\":1505:1529   */\n      tag_52\n      jump\t// in\n    tag_51:\n        /* \"#utility.yul\":1500:1503   */\n      dup3\n        /* \"#utility.yul\":1493:1530   */\n      mstore\n        /* \"#utility.yul\":1418:1536   */\n      pop\n      pop\n      jump\t// out\n        /* \"#utility.yul\":1542:1764   */\n    tag_8:\n        /* \"#utility.yul\":1635:1639   */\n      0x00\n        /* \"#utility.yul\":1673:1675   */\n      0x20\n        /* \"#utility.yul\":1662:1671   */\n      dup3\n        /* \"#utility.yul\":1658:1676   */\n      add\n        /* \"#utility.yul\":1650:1676   */\n      swap1\n      pop\n        /* \"#utility.yul\":1686:1757   */\n      tag_54\n        /* \"#utility.yul\":1754:1755   */\n      0x00\n        /* \"#utility.yul\":1743:1752   */\n      dup4\n        /* \"#utility.yul\":1739:1756   */\n      add\n        /* \"#utility.yul\":1730:1736   */\n      dup5\n        /* \"#utility.yul\":1686:1757   */\n      tag_39\n      jump\t// in\n    tag_54:\n        /* \"#utility.yul\":1542:1764   */\n      swap3\n      swap2\n      pop\n      pop\n      jump\t// out\n        /* \"#utility.yul\":1770:2212   */\n    tag_19:\n        /* \"#utility.yul\":1919:1923   */\n      0x00\n        /* \"#utility.yul\":1957:1959   */\n      0x60\n        /* \"#utility.yul\":1946:1955   */\n      dup3\n        /* \"#utility.yul\":1942:1960   */\n      add\n        /* \"#utility.yul\":1934:1960   */\n      swap1\n      pop\n        /* \"#utility.yul\":1970:2041   */\n      tag_56\n        /* \"#utility.yul\":2038:2039   */\n      0x00\n        /* \"#utility.yul\":2027:2036   */\n      dup4\n        /* \"#utility.yul\":2023:2040   */\n      add\n        /* \"#utility.yul\":2014:2020   */\n      dup7\n        /* \"#utility.yul\":1970:2041   */\n      tag_39\n      jump\t// in\n    tag_56:\n        /* \"#utility.yul\":2051:2123   */\n      tag_57\n        /* \"#utility.yul\":2119:2121   */\n      0x20\n        /* \"#utility.yul\":2108:2117   */\n      dup4\n        /* \"#utility.yul\":2104:2122   */\n      add\n        /* \"#utility.yul\":2095:2101   */\n      dup6\n        /* \"#utility.yul\":2051:2123   */\n      tag_39\n      jump\t// in\n    tag_57:\n        /* \"#utility.yul\":2133:2205   */\n      tag_58\n        /* \"#utility.yul\":2201:2203   */\n      0x40\n        /* \"#utility.yul\":2190:2199   */\n      dup4\n        /* \"#utility.yul\":2186:2204   */\n      add\n        /* \"#utility.yul\":2177:2183   */\n      dup5\n        /* \"#utility.yul\":2133:2205   */\n      tag_49\n      jump\t// in\n    tag_58:\n        /* \"#utility.yul\":1770:2212   */\n      swap5\n      swap4\n      pop\n      pop\n      pop\n      pop\n      jump\t// out\n        /* \"#utility.yul\":2218:2637   */\n    tag_16:\n        /* \"#utility.yul\":2384:2388   */\n      0x00\n        /* \"#utility.yul\":2422:2424   */\n      0x20\n        /* \"#utility.yul\":2411:2420   */\n      dup3\n        /* \"#utility.yul\":2407:2425   */\n      add\n        /* \"#utility.yul\":2399:2425   */\n      swap1\n      pop\n        /* \"#utility.yul\":2471:2480   */\n      dup2\n        /* \"#utility.yul\":2465:2469   */\n      dup2\n        /* \"#utility.yul\":2461:2481   */\n      sub\n        /* \"#utility.yul\":2457:2458   */\n      0x00\n        /* \"#utility.yul\":2446:2455   */\n      dup4\n        /* \"#utility.yul\":2442:2459   */\n      add\n        /* \"#utility.yul\":2435:2482   */\n      mstore\n        /* \"#utility.yul\":2499:2630   */\n      tag_60\n        /* \"#utility.yul\":2625:2629   */\n      dup2\n        /* \"#utility.yul\":2499:2630   */\n      tag_43\n      jump\t// in\n    tag_60:\n        /* \"#utility.yul\":2491:2630   */\n      swap1\n      pop\n        /* \"#utility.yul\":2218:2637   */\n      swap2\n      swap1\n      pop\n      jump\t// out\n        /* \"#utility.yul\":2724:2893   */\n    tag_46:\n        /* \"#utility.yul\":2808:2819   */\n      0x00\n        /* \"#utility.yul\":2842:2848   */\n      dup3\n        /* \"#utility.yul\":2837:2840   */\n      dup3\n        /* \"#utility.yul\":2830:2849   */\n      mstore\n        /* \"#utility.yul\":2882:2886   */\n      0x20\n        /* \"#utility.yul\":2877:2880   */\n      dup3\n        /* \"#utility.yul\":2873:2887   */\n      add\n        /* \"#utility.yul\":2858:2887   */\n      swap1\n      pop\n        /* \"#utility.yul\":2724:2893   */\n      swap3\n      swap2\n      pop\n      pop\n      jump\t// out\n        /* \"#utility.yul\":2899:2995   */\n    tag_42:\n        /* \"#utility.yul\":2936:2943   */\n      0x00\n        /* \"#utility.yul\":2965:2989   */\n      tag_65\n        /* \"#utility.yul\":2983:2988   */\n      dup3\n        /* \"#utility.yul\":2965:2989   */\n      tag_66\n      jump\t// in\n    tag_65:\n        /* \"#utility.yul\":2954:2989   */\n      swap1\n      pop\n        /* \"#utility.yul\":2899:2995   */\n      swap2\n      swap1\n      pop\n      jump\t// out\n        /* \"#utility.yul\":3001:3127   */\n    tag_66:\n        /* \"#utility.yul\":3038:3045   */\n      0x00\n        /* \"#utility.yul\":3078:3120   */\n      0xffffffffffffffffffffffffffffffffffffffff\n        /* \"#utility.yul\":3071:3076   */\n      dup3\n        /* \"#utility.yul\":3067:3121   */\n      and\n        /* \"#utility.yul\":3056:3121   */\n      swap1\n      pop\n        /* \"#utility.yul\":3001:3127   */\n      swap2\n      swap1\n      pop\n      jump\t// out\n        /* \"#utility.yul\":3133:3210   */\n    tag_52:\n        /* \"#utility.yul\":3170:3177   */\n      0x00\n        /* \"#utility.yul\":3199:3204   */\n      dup2\n        /* \"#utility.yul\":3188:3204   */\n      swap1\n      pop\n        /* \"#utility.yul\":3133:3210   */\n      swap2\n      swap1\n      pop\n      jump\t// out\n        /* \"#utility.yul\":3339:3456   */\n    tag_35:\n        /* \"#utility.yul\":3448:3449   */\n      0x00\n        /* \"#utility.yul\":3445:3446   */\n      dup1\n        /* \"#utility.yul\":3438:3450   */\n      revert\n        /* \"#utility.yul\":3462:3644   */\n    tag_48:\n        /* \"#utility.yul\":3602:3636   */\n      0x4f776e61626c653a2063616c6c6572206973206e6f7420746865206f776e6572\n        /* \"#utility.yul\":3598:3599   */\n      0x00\n        /* \"#utility.yul\":3590:3596   */\n      dup3\n        /* \"#utility.yul\":3586:3600   */\n      add\n        /* \"#utility.yul\":3579:3637   */\n      mstore\n        /* \"#utility.yul\":3462:3644   */\n      pop\n      jump\t// out\n        /* \"#utility.yul\":3650:3772   */\n    tag_27:\n        /* \"#utility.yul\":3723:3747   */\n      tag_74\n        /* \"#utility.yul\":3741:3746   */\n      dup2\n        /* \"#utility.yul\":3723:3747   */\n      tag_42\n      jump\t// in\n    tag_74:\n        /* \"#utility.yul\":3716:3721   */\n      dup2\n        /* \"#utility.yul\":3713:3748   */\n      eq\n        /* \"#utility.yul\":3703:3766   */\n      tag_75\n      jumpi\n        /* \"#utility.yul\":3762:3763   */\n      0x00\n        /* \"#utility.yul\":3759:3760   */\n      dup1\n        /* \"#utility.yul\":3752:3764   */\n      revert\n        /* \"#utility.yul\":3703:3766   */\n    tag_75:\n        /* \"#utility.yul\":3650:3772   */\n      pop\n      jump\t// out\n        /* \"#utility.yul\":3778:3900   */\n    tag_31:\n        /* \"#utility.yul\":3851:3875   */\n      tag_77\n        /* \"#utility.yul\":3869:3874   */\n      dup2\n        /* \"#utility.yul\":3851:3875   */\n      tag_52\n      jump\t// in\n    tag_77:\n        /* \"#utility.yul\":3844:3849   */\n      dup2\n        /* \"#utility.yul\":3841:3876   */\n      eq\n        /* \"#utility.yul\":3831:3894   */\n      tag_78\n      jumpi\n        /* \"#utility.yul\":3890:3891   */\n      0x00\n        /* \"#utility.yul\":3887:3888   */\n      dup1\n        /* \"#utility.yul\":3880:3892   */\n      revert\n        /* \"#utility.yul\":3831:3894   */\n    tag_78:\n        /* \"#utility.yul\":3778:3900   */\n      pop\n      jump\t// out\n\n    auxdata: 0xa2646970667358221220b8ee53ebbee450d961327a1485bdadf54e509fff3c7cdf6b532103614d03059064736f6c63430008070033\n}\n",
				"bytecode": {
					"linkReferences": {},
					"object": "6080604052336000806101000a81548173ffffffffffffffffffffffffffffffffffffffff021916908373ffffffffffffffffffffffffffffffffffffffff16021790555034801561005057600080fd5b506103aa806100606000396000f3fe608060405234801561001057600080fd5b50600436106100365760003560e01c8063b2bdfa7b1461003b578063cb9354cd14610059575b600080fd5b610043610075565b6040516100509190610259565b60405180910390f35b610073600480360381019061006e91906101c5565b610099565b005b60008054906101000a900473ffffffffffffffffffffffffffffffffffffffff1681565b3373ffffffffffffffffffffffffffffffffffffffff1660008054906101000a900473ffffffffffffffffffffffffffffffffffffffff1673ffffffffffffffffffffffffffffffffffffffff1614610127576040517f08c379a000000000000000000000000000000000000000000000000000000000815260040161011e906102ab565b60405180910390fd5b8173ffffffffffffffffffffffffffffffffffffffff166342842e0e3085846040518463ffffffff1660e01b815260040161016493929190610274565b600060405180830381600087803b15801561017e57600080fd5b505af1158015610192573d6000803e3d6000fd5b50505050505050565b6000813590506101aa81610346565b92915050565b6000813590506101bf8161035d565b92915050565b6000806000606084860312156101de576101dd610318565b5b60006101ec8682870161019b565b93505060206101fd8682870161019b565b925050604061020e868287016101b0565b9150509250925092565b610221816102dc565b82525050565b60006102346020836102cb565b915061023f8261031d565b602082019050919050565b6102538161030e565b82525050565b600060208201905061026e6000830184610218565b92915050565b60006060820190506102896000830186610218565b6102966020830185610218565b6102a3604083018461024a565b949350505050565b600060208201905081810360008301526102c481610227565b9050919050565b600082825260208201905092915050565b60006102e7826102ee565b9050919050565b600073ffffffffffffffffffffffffffffffffffffffff82169050919050565b6000819050919050565b600080fd5b7f4f776e61626c653a2063616c6c6572206973206e6f7420746865206f776e6572600082015250565b61034f816102dc565b811461035a57600080fd5b50565b6103668161030e565b811461037157600080fd5b5056fea2646970667358221220b8ee53ebbee450d961327a1485bdadf54e509fff3c7cdf6b532103614d03059064736f6c63430008070033",
					"opcodes": "PUSH1 0x80 PUSH1 0x40 MSTORE CALLER PUSH1 0x0 DUP1 PUSH2 0x100 EXP DUP2 SLOAD DUP2 PUSH20 0xFFFFFFFFFFFFFFFFFFFFFFFFFFFFFFFFFFFFFFFF MUL NOT AND SWAP1 DUP4 PUSH20 0xFFFFFFFFFFFFFFFFFFFFFFFFFFFFFFFFFFFFFFFF AND MUL OR SWAP1 SSTORE POP CALLVALUE DUP1 ISZERO PUSH2 0x50 JUMPI PUSH1 0x0 DUP1 REVERT JUMPDEST POP PUSH2 0x3AA DUP1 PUSH2 0x60 PUSH1 0x0 CODECOPY PUSH1 0x0 RETURN INVALID PUSH1 0x80 PUSH1 0x40 MSTORE CALLVALUE DUP1 ISZERO PUSH2 0x10 JUMPI PUSH1 0x0 DUP1 REVERT JUMPDEST POP PUSH1 0x4 CALLDATASIZE LT PUSH2 0x36 JUMPI PUSH1 0x0 CALLDATALOAD PUSH1 0xE0 SHR DUP1 PUSH4 0xB2BDFA7B EQ PUSH2 0x3B JUMPI DUP1 PUSH4 0xCB9354CD EQ PUSH2 0x59 JUMPI JUMPDEST PUSH1 0x0 DUP1 REVERT JUMPDEST PUSH2 0x43 PUSH2 0x75 JUMP JUMPDEST PUSH1 0x40 MLOAD PUSH2 0x50 SWAP2 SWAP1 PUSH2 0x259 JUMP JUMPDEST PUSH1 0x40 MLOAD DUP1 SWAP2 SUB SWAP1 RETURN JUMPDEST PUSH2 0x73 PUSH1 0x4 DUP1 CALLDATASIZE SUB DUP2 ADD SWAP1 PUSH2 0x6E SWAP2 SWAP1 PUSH2 0x1C5 JUMP JUMPDEST PUSH2 0x99 JUMP JUMPDEST STOP JUMPDEST PUSH1 0x0 DUP1 SLOAD SWAP1 PUSH2 0x100 EXP SWAP1 DIV PUSH20 0xFFFFFFFFFFFFFFFFFFFFFFFFFFFFFFFFFFFFFFFF AND DUP2 JUMP JUMPDEST CALLER PUSH20 0xFFFFFFFFFFFFFFFFFFFFFFFFFFFFFFFFFFFFFFFF AND PUSH1 0x0 DUP1 SLOAD SWAP1 PUSH2 0x100 EXP SWAP1 DIV PUSH20 0xFFFFFFFFFFFFFFFFFFFFFFFFFFFFFFFFFFFFFFFF AND PUSH20 0xFFFFFFFFFFFFFFFFFFFFFFFFFFFFFFFFFFFFFFFF AND EQ PUSH2 0x127 JUMPI PUSH1 0x40 MLOAD PUSH32 0x8C379A000000000000000000000000000000000000000000000000000000000 DUP2 MSTORE PUSH1 0x4 ADD PUSH2 0x11E SWAP1 PUSH2 0x2AB JUMP JUMPDEST PUSH1 0x40 MLOAD DUP1 SWAP2 SUB SWAP1 REVERT JUMPDEST DUP2 PUSH20 0xFFFFFFFFFFFFFFFFFFFFFFFFFFFFFFFFFFFFFFFF AND PUSH4 0x42842E0E ADDRESS DUP6 DUP5 PUSH1 0x40 MLOAD DUP5 PUSH4 0xFFFFFFFF AND PUSH1 0xE0 SHL DUP2 MSTORE PUSH1 0x4 ADD PUSH2 0x164 SWAP4 SWAP3 SWAP2 SWAP1 PUSH2 0x274 JUMP JUMPDEST PUSH1 0x0 PUSH1 0x40 MLOAD DUP1 DUP4 SUB DUP2 PUSH1 0x0 DUP8 DUP1 EXTCODESIZE ISZERO DUP1 ISZERO PUSH2 0x17E JUMPI PUSH1 0x0 DUP1 REVERT JUMPDEST POP GAS CALL ISZERO DUP1 ISZERO PUSH2 0x192 JUMPI RETURNDATASIZE PUSH1 0x0 DUP1 RETURNDATACOPY RETURNDATASIZE PUSH1 0x0 REVERT JUMPDEST POP POP POP POP POP POP POP JUMP JUMPDEST PUSH1 0x0 DUP2 CALLDATALOAD SWAP1 POP PUSH2 0x1AA DUP2 PUSH2 0x346 JUMP JUMPDEST SWAP3 SWAP2 POP POP JUMP JUMPDEST PUSH1 0x0 DUP2 CALLDATALOAD SWAP1 POP PUSH2 0x1BF DUP2 PUSH2 0x35D JUMP JUMPDEST SWAP3 SWAP2 POP POP JUMP JUMPDEST PUSH1 0x0 DUP1 PUSH1 0x0 PUSH1 0x60 DUP5 DUP7 SUB SLT ISZERO PUSH2 0x1DE JUMPI PUSH2 0x1DD PUSH2 0x318 JUMP JUMPDEST JUMPDEST PUSH1 0x0 PUSH2 0x1EC DUP7 DUP3 DUP8 ADD PUSH2 0x19B JUMP JUMPDEST SWAP4 POP POP PUSH1 0x20 PUSH2 0x1FD DUP7 DUP3 DUP8 ADD PUSH2 0x19B JUMP JUMPDEST SWAP3 POP POP PUSH1 0x40 PUSH2 0x20E DUP7 DUP3 DUP8 ADD PUSH2 0x1B0 JUMP JUMPDEST SWAP2 POP POP SWAP3 POP SWAP3 POP SWAP3 JUMP JUMPDEST PUSH2 0x221 DUP2 PUSH2 0x2DC JUMP JUMPDEST DUP3 MSTORE POP POP JUMP JUMPDEST PUSH1 0x0 PUSH2 0x234 PUSH1 0x20 DUP4 PUSH2 0x2CB JUMP JUMPDEST SWAP2 POP PUSH2 0x23F DUP3 PUSH2 0x31D JUMP JUMPDEST PUSH1 0x20 DUP3 ADD SWAP1 POP SWAP2 SWAP1 POP JUMP JUMPDEST PUSH2 0x253 DUP2 PUSH2 0x30E JUMP JUMPDEST DUP3 MSTORE POP POP JUMP JUMPDEST PUSH1 0x0 PUSH1 0x20 DUP3 ADD SWAP1 POP PUSH2 0x26E PUSH1 0x0 DUP4 ADD DUP5 PUSH2 0x218 JUMP JUMPDEST SWAP3 SWAP2 POP POP JUMP JUMPDEST PUSH1 0x0 PUSH1 0x60 DUP3 ADD SWAP1 POP PUSH2 0x289 PUSH1 0x0 DUP4 ADD DUP7 PUSH2 0x218 JUMP JUMPDEST PUSH2 0x296 PUSH1 0x20 DUP4 ADD DUP6 PUSH2 0x218 JUMP JUMPDEST PUSH2 0x2A3 PUSH1 0x40 DUP4 ADD DUP5 PUSH2 0x24A JUMP JUMPDEST SWAP5 SWAP4 POP POP POP POP JUMP JUMPDEST PUSH1 0x0 PUSH1 0x20 DUP3 ADD SWAP1 POP DUP2 DUP2 SUB PUSH1 0x0 DUP4 ADD MSTORE PUSH2 0x2C4 DUP2 PUSH2 0x227 JUMP JUMPDEST SWAP1 POP SWAP2 SWAP1 POP JUMP JUMPDEST PUSH1 0x0 DUP3 DUP3 MSTORE PUSH1 0x20 DUP3 ADD SWAP1 POP SWAP3 SWAP2 POP POP JUMP JUMPDEST PUSH1 0x0 PUSH2 0x2E7 DUP3 PUSH2 0x2EE JUMP JUMPDEST SWAP1 POP SWAP2 SWAP1 POP JUMP JUMPDEST PUSH1 0x0 PUSH20 0xFFFFFFFFFFFFFFFFFFFFFFFFFFFFFFFFFFFFFFFF DUP3 AND SWAP1 POP SWAP2 SWAP1 POP JUMP JUMPDEST PUSH1 0x0 DUP2 SWAP1 POP SWAP2 SWAP1 POP JUMP JUMPDEST PUSH1 0x0 DUP1 REVERT JUMPDEST PUSH32 0x4F776E61626C653A2063616C6C6572206973206E6F7420746865206F776E6572 PUSH1 0x0 DUP3 ADD MSTORE POP JUMP JUMPDEST PUSH2 0x34F DUP2 PUSH2 0x2DC JUMP JUMPDEST DUP2 EQ PUSH2 0x35A JUMPI PUSH1 0x0 DUP1 REVERT JUMPDEST POP JUMP JUMPDEST PUSH2 0x366 DUP2 PUSH2 0x30E JUMP JUMPDEST DUP2 EQ PUSH2 0x371 JUMPI PUSH1 0x0 DUP1 REVERT JUMPDEST POP JUMP INVALID LOG2 PUSH5 0x6970667358 0x22 SLT KECCAK256 0xB8 0xEE MSTORE8 0xEB 0xBE 0xE4 POP 0xD9 PUSH2 0x327A EQ DUP6 0xBD 0xAD CREATE2 0x4E POP SWAP16 SELFDESTRUCT EXTCODECOPY PUSH29 0xDF6B532103614D03059064736F6C634300080700330000000000000000 "
				},
				"gasEstimates": {
					"creation": {
						"codeDepositCost": "187600",
						"executionCost": "24498",
						"totalCost": "212098"
					},
					"external": {
						"_owner()": "2489",
						"_transferERC721FundsToAddress(address,address,uint256)": "infinite"
					}
				},
				"methodIdentifiers": {
					"_owner()": "b2bdfa7b",
					"_transferERC721FundsToAddress(address,address,uint256)": "cb9354cd"
				}
			},
			"storageLayout": {
				"storage": [
					{
						"astId": 134,
						"contract": "Pratice2nd.sol:ManiTransfer",
						"label": "_owner",
						"offset": 0,
						"slot": "0",
						"type": "t_address"
					}
				],
				"types": {
					"t_address": {
						"encoding": "inplace",
						"label": "address",
						"numberOfBytes": "20"
					}
				}
			},
			"userdoc": {
				"kind": "user",
				"methods": {},
				"version": 1
			}
		}
	}
}