{
	"Practice NFT.sol": {
		"TwoFactor": {
			"abi": [
				{
					"anonymous": false,
					"inputs": [
						{
							"indexed": true,
							"internalType": "address",
							"name": "previousOwner",
							"type": "address"
						},
						{
							"indexed": true,
							"internalType": "address",
							"name": "newOwner",
							"type": "address"
						}
					],
					"name": "OwnershipTransferred",
					"type": "event"
				},
				{
					"inputs": [
						{
							"internalType": "address",
							"name": "_sender",
							"type": "address"
						},
						{
							"internalType": "address",
							"name": "_backupWallet",
							"type": "address"
						}
					],
					"name": "init",
					"outputs": [],
					"stateMutability": "nonpayable",
					"type": "function"
				},
				{
					"inputs": [
						{
							"internalType": "address",
							"name": "",
							"type": "address"
						},
						{
							"internalType": "address",
							"name": "",
							"type": "address"
						},
						{
							"internalType": "uint256[]",
							"name": "",
							"type": "uint256[]"
						},
						{
							"internalType": "uint256[]",
							"name": "",
							"type": "uint256[]"
						},
						{
							"internalType": "bytes",
							"name": "",
							"type": "bytes"
						}
					],
					"name": "onERC1155BatchReceived",
					"outputs": [
						{
							"internalType": "bytes4",
							"name": "",
							"type": "bytes4"
						}
					],
					"stateMutability": "nonpayable",
					"type": "function"
				},
				{
					"inputs": [
						{
							"internalType": "address",
							"name": "",
							"type": "address"
						},
						{
							"internalType": "address",
							"name": "",
							"type": "address"
						},
						{
							"internalType": "uint256",
							"name": "",
							"type": "uint256"
						},
						{
							"internalType": "uint256",
							"name": "",
							"type": "uint256"
						},
						{
							"internalType": "bytes",
							"name": "",
							"type": "bytes"
						}
					],
					"name": "onERC1155Received",
					"outputs": [
						{
							"internalType": "bytes4",
							"name": "",
							"type": "bytes4"
						}
					],
					"stateMutability": "nonpayable",
					"type": "function"
				},
				{
					"inputs": [
						{
							"internalType": "address",
							"name": "",
							"type": "address"
						},
						{
							"internalType": "address",
							"name": "",
							"type": "address"
						},
						{
							"internalType": "uint256",
							"name": "",
							"type": "uint256"
						},
						{
							"internalType": "bytes",
							"name": "",
							"type": "bytes"
						}
					],
					"name": "onERC721Received",
					"outputs": [
						{
							"internalType": "bytes4",
							"name": "",
							"type": "bytes4"
						}
					],
					"stateMutability": "nonpayable",
					"type": "function"
				},
				{
					"inputs": [],
					"name": "owner",
					"outputs": [
						{
							"internalType": "address",
							"name": "",
							"type": "address"
						}
					],
					"stateMutability": "view",
					"type": "function"
				},
				{
					"inputs": [
						{
							"internalType": "address",
							"name": "tokenAddress",
							"type": "address"
						},
						{
							"internalType": "uint256",
							"name": "tokenId",
							"type": "uint256"
						}
					],
					"name": "sendERC1155FundsToBackupWallet",
					"outputs": [],
					"stateMutability": "nonpayable",
					"type": "function"
				},
				{
					"inputs": [
						{
							"internalType": "address",
							"name": "tokenAddress",
							"type": "address"
						},
						{
							"internalType": "uint256",
							"name": "tokenId",
							"type": "uint256"
						}
					],
					"name": "sendERC721FundsToBackupWallet",
					"outputs": [],
					"stateMutability": "nonpayable",
					"type": "function"
				},
				{
					"inputs": [],
					"name": "sendNativeFundsToBackupWallet",
					"outputs": [],
					"stateMutability": "nonpayable",
					"type": "function"
				},
				{
					"inputs": [
						{
							"internalType": "bytes4",
							"name": "interfaceId",
							"type": "bytes4"
						}
					],
					"name": "supportsInterface",
					"outputs": [
						{
							"internalType": "bool",
							"name": "",
							"type": "bool"
						}
					],
					"stateMutability": "view",
					"type": "function"
				},
				{
					"inputs": [
						{
							"internalType": "address",
							"name": "tokenAddress",
							"type": "address"
						},
						{
							"internalType": "uint256",
							"name": "tokenId",
							"type": "uint256"
						}
					],
					"name": "transferERC721AssetsToWallet",
					"outputs": [],
					"stateMutability": "nonpayable",
					"type": "function"
				},
				{
					"inputs": [],
					"name": "transferNativeAssetToWallet",
					"outputs": [],
					"stateMutability": "nonpayable",
					"type": "function"
				},
				{
					"stateMutability": "payable",
					"type": "receive"
				}
			],
			"devdoc": {
				"kind": "dev",
				"methods": {
					"onERC721Received(address,address,uint256,bytes)": {
						"details": "See {IERC721Receiver-onERC721Received}. Always returns `IERC721Receiver.onERC721Received.selector`."
					},
					"owner()": {
						"details": "Returns the address of the current owner."
					},
					"supportsInterface(bytes4)": {
						"details": "See {IERC165-supportsInterface}."
					}
				},
				"version": 1
			},
			"evm": {
				"assembly": "    /* \"Practice NFT.sol\":467:5841  contract TwoFactor is Ownable, ERC721Holder, ERC1155Holder {... */\n  mstore(0x40, 0x80)\n  callvalue\n  dup1\n  iszero\n  tag_1\n  jumpi\n  0x00\n  dup1\n  revert\ntag_1:\n  pop\n    /* \"Ownable.sol\":818:850  _transferOwnership(_msgSender()) */\n  tag_4\n    /* \"Ownable.sol\":837:849  _msgSender() */\n  tag_5\n    /* \"Ownable.sol\":837:847  _msgSender */\n  shl(0x20, tag_6)\n    /* \"Ownable.sol\":837:849  _msgSender() */\n  0x20\n  shr\n  jump\t// in\ntag_5:\n    /* \"Ownable.sol\":818:836  _transferOwnership */\n  shl(0x20, tag_7)\n    /* \"Ownable.sol\":818:850  _transferOwnership(_msgSender()) */\n  0x20\n  shr\n  jump\t// in\ntag_4:\n    /* \"Practice NFT.sol\":467:5841  contract TwoFactor is Ownable, ERC721Holder, ERC1155Holder {... */\n  jump(tag_8)\n    /* \"@openzeppelin/contracts/utils/Context.sol\":640:736  function _msgSender() internal view virtual returns (address) {... */\ntag_6:\n    /* \"@openzeppelin/contracts/utils/Context.sol\":693:700  address */\n  0x00\n    /* \"@openzeppelin/contracts/utils/Context.sol\":719:729  msg.sender */\n  caller\n    /* \"@openzeppelin/contracts/utils/Context.sol\":712:729  return msg.sender */\n  swap1\n  pop\n    /* \"@openzeppelin/contracts/utils/Context.sol\":640:736  function _msgSender() internal view virtual returns (address) {... */\n  swap1\n  jump\t// out\n    /* \"Ownable.sol\":1377:1564  function _transferOwnership(address newOwner) internal virtual {... */\ntag_7:\n    /* \"Ownable.sol\":1450:1466  address oldOwner */\n  0x00\n    /* \"Ownable.sol\":1469:1475  _owner */\n  dup1\n  0x00\n  swap1\n  sload\n  swap1\n  0x0100\n  exp\n  swap1\n  div\n  0xffffffffffffffffffffffffffffffffffffffff\n  and\n    /* \"Ownable.sol\":1450:1475  address oldOwner = _owner */\n  swap1\n  pop\n    /* \"Ownable.sol\":1494:1502  newOwner */\n  dup2\n    /* \"Ownable.sol\":1485:1491  _owner */\n  0x00\n  dup1\n    /* \"Ownable.sol\":1485:1502  _owner = newOwner */\n  0x0100\n  exp\n  dup2\n  sload\n  dup2\n  0xffffffffffffffffffffffffffffffffffffffff\n  mul\n  not\n  and\n  swap1\n  dup4\n  0xffffffffffffffffffffffffffffffffffffffff\n  and\n  mul\n  or\n  swap1\n  sstore\n  pop\n    /* \"Ownable.sol\":1548:1556  newOwner */\n  dup2\n    /* \"Ownable.sol\":1517:1557  OwnershipTransferred(oldOwner, newOwner) */\n  0xffffffffffffffffffffffffffffffffffffffff\n  and\n    /* \"Ownable.sol\":1538:1546  oldOwner */\n  dup2\n    /* \"Ownable.sol\":1517:1557  OwnershipTransferred(oldOwner, newOwner) */\n  0xffffffffffffffffffffffffffffffffffffffff\n  and\n  0x8be0079c531659141344cd1fd0a4f28419497f9722a3daafe3b4186f6b6457e0\n  mload(0x40)\n  mload(0x40)\n  dup1\n  swap2\n  sub\n  swap1\n  log3\n    /* \"Ownable.sol\":1440:1564  {... */\n  pop\n    /* \"Ownable.sol\":1377:1564  function _transferOwnership(address newOwner) internal virtual {... */\n  pop\n  jump\t// out\n    /* \"Practice NFT.sol\":467:5841  contract TwoFactor is Ownable, ERC721Holder, ERC1155Holder {... */\ntag_8:\n  dataSize(sub_0)\n  dup1\n  dataOffset(sub_0)\n  0x00\n  codecopy\n  0x00\n  return\nstop\n\nsub_0: assembly {\n        /* \"Practice NFT.sol\":467:5841  contract TwoFactor is Ownable, ERC721Holder, ERC1155Holder {... */\n      mstore(0x40, 0x80)\n      jumpi(tag_1, lt(calldatasize, 0x04))\n      shr(0xe0, calldataload(0x00))\n      dup1\n      0x71b4bc99\n      gt\n      tag_14\n      jumpi\n      dup1\n      0x71b4bc99\n      eq\n      tag_8\n      jumpi\n      dup1\n      0x8c7f807b\n      eq\n      tag_9\n      jumpi\n      dup1\n      0x8da5cb5b\n      eq\n      tag_10\n      jumpi\n      dup1\n      0xbc197c81\n      eq\n      tag_11\n      jumpi\n      dup1\n      0xf09a4016\n      eq\n      tag_12\n      jumpi\n      dup1\n      0xf23a6e61\n      eq\n      tag_13\n      jumpi\n      jump(tag_2)\n    tag_14:\n      dup1\n      0x01ffc9a7\n      eq\n      tag_3\n      jumpi\n      dup1\n      0x027f81ed\n      eq\n      tag_4\n      jumpi\n      dup1\n      0x150b7a02\n      eq\n      tag_5\n      jumpi\n      dup1\n      0x450b2ad7\n      eq\n      tag_6\n      jumpi\n      dup1\n      0x6354a2f7\n      eq\n      tag_7\n      jumpi\n      jump(tag_2)\n    tag_1:\n      jumpi(tag_2, calldatasize)\n      stop\n    tag_2:\n      0x00\n      dup1\n      revert\n        /* \"@openzeppelin/contracts/token/ERC1155/utils/ERC1155Receiver.sol\":387:608  function supportsInterface(bytes4 interfaceId) public view virtual override(ERC165, IERC165) returns (bool) {... */\n    tag_3:\n      callvalue\n      dup1\n      iszero\n      tag_17\n      jumpi\n      0x00\n      dup1\n      revert\n    tag_17:\n      pop\n      tag_18\n      0x04\n      dup1\n      calldatasize\n      sub\n      dup2\n      add\n      swap1\n      tag_19\n      swap2\n      swap1\n      tag_20\n      jump\t// in\n    tag_19:\n      tag_21\n      jump\t// in\n    tag_18:\n      mload(0x40)\n      tag_22\n      swap2\n      swap1\n      tag_23\n      jump\t// in\n    tag_22:\n      mload(0x40)\n      dup1\n      swap2\n      sub\n      swap1\n      return\n        /* \"Practice NFT.sol\":1672:1873  function transferERC721AssetsToWallet(... */\n    tag_4:\n      callvalue\n      dup1\n      iszero\n      tag_24\n      jumpi\n      0x00\n      dup1\n      revert\n    tag_24:\n      pop\n      tag_25\n      0x04\n      dup1\n      calldatasize\n      sub\n      dup2\n      add\n      swap1\n      tag_26\n      swap2\n      swap1\n      tag_27\n      jump\t// in\n    tag_26:\n      tag_28\n      jump\t// in\n    tag_25:\n      stop\n        /* \"@openzeppelin/contracts/token/ERC721/utils/ERC721Holder.sol\":588:788  function onERC721Received(... */\n    tag_5:\n      callvalue\n      dup1\n      iszero\n      tag_29\n      jumpi\n      0x00\n      dup1\n      revert\n    tag_29:\n      pop\n      tag_30\n      0x04\n      dup1\n      calldatasize\n      sub\n      dup2\n      add\n      swap1\n      tag_31\n      swap2\n      swap1\n      tag_32\n      jump\t// in\n    tag_31:\n      tag_33\n      jump\t// in\n    tag_30:\n      mload(0x40)\n      tag_34\n      swap2\n      swap1\n      tag_35\n      jump\t// in\n    tag_34:\n      mload(0x40)\n      dup1\n      swap2\n      sub\n      swap1\n      return\n        /* \"Practice NFT.sol\":4242:4371  function sendNativeFundsToBackupWallet() external onlyOwner {... */\n    tag_6:\n      callvalue\n      dup1\n      iszero\n      tag_36\n      jumpi\n      0x00\n      dup1\n      revert\n    tag_36:\n      pop\n      tag_37\n      tag_38\n      jump\t// in\n    tag_37:\n      stop\n        /* \"Practice NFT.sol\":4032:4236  function sendERC1155FundsToBackupWallet(... */\n    tag_7:\n      callvalue\n      dup1\n      iszero\n      tag_39\n      jumpi\n      0x00\n      dup1\n      revert\n    tag_39:\n      pop\n      tag_40\n      0x04\n      dup1\n      calldatasize\n      sub\n      dup2\n      add\n      swap1\n      tag_41\n      swap2\n      swap1\n      tag_27\n      jump\t// in\n    tag_41:\n      tag_42\n      jump\t// in\n    tag_40:\n      stop\n        /* \"Practice NFT.sol\":3824:4026  function sendERC721FundsToBackupWallet(... */\n    tag_8:\n      callvalue\n      dup1\n      iszero\n      tag_43\n      jumpi\n      0x00\n      dup1\n      revert\n    tag_43:\n      pop\n      tag_44\n      0x04\n      dup1\n      calldatasize\n      sub\n      dup2\n      add\n      swap1\n      tag_45\n      swap2\n      swap1\n      tag_27\n      jump\t// in\n    tag_45:\n      tag_46\n      jump\t// in\n    tag_44:\n      stop\n        /* \"Practice NFT.sol\":2360:2482  function transferNativeAssetToWallet() external onlyOwner {... */\n    tag_9:\n      callvalue\n      dup1\n      iszero\n      tag_47\n      jumpi\n      0x00\n      dup1\n      revert\n    tag_47:\n      pop\n      tag_48\n      tag_49\n      jump\t// in\n    tag_48:\n      stop\n        /* \"Ownable.sol\":933:1018  function owner() public view virtual returns (address) {... */\n    tag_10:\n      callvalue\n      dup1\n      iszero\n      tag_50\n      jumpi\n      0x00\n      dup1\n      revert\n    tag_50:\n      pop\n      tag_51\n      tag_52\n      jump\t// in\n    tag_51:\n      mload(0x40)\n      tag_53\n      swap2\n      swap1\n      tag_54\n      jump\t// in\n    tag_53:\n      mload(0x40)\n      dup1\n      swap2\n      sub\n      swap1\n      return\n        /* \"@openzeppelin/contracts/token/ERC1155/utils/ERC1155Holder.sol\":724:971  function onERC1155BatchReceived(... */\n    tag_11:\n      callvalue\n      dup1\n      iszero\n      tag_55\n      jumpi\n      0x00\n      dup1\n      revert\n    tag_55:\n      pop\n      tag_56\n      0x04\n      dup1\n      calldatasize\n      sub\n      dup2\n      add\n      swap1\n      tag_57\n      swap2\n      swap1\n      tag_58\n      jump\t// in\n    tag_57:\n      tag_59\n      jump\t// in\n    tag_56:\n      mload(0x40)\n      tag_60\n      swap2\n      swap1\n      tag_35\n      jump\t// in\n    tag_60:\n      mload(0x40)\n      dup1\n      swap2\n      sub\n      swap1\n      return\n        /* \"Practice NFT.sol\":644:1144  function init(address _sender, address _backupWallet) external {        ... */\n    tag_12:\n      callvalue\n      dup1\n      iszero\n      tag_61\n      jumpi\n      0x00\n      dup1\n      revert\n    tag_61:\n      pop\n      tag_62\n      0x04\n      dup1\n      calldatasize\n      sub\n      dup2\n      add\n      swap1\n      tag_63\n      swap2\n      swap1\n      tag_64\n      jump\t// in\n    tag_63:\n      tag_65\n      jump\t// in\n    tag_62:\n      stop\n        /* \"@openzeppelin/contracts/token/ERC1155/utils/ERC1155Holder.sol\":499:718  function onERC1155Received(... */\n    tag_13:\n      callvalue\n      dup1\n      iszero\n      tag_66\n      jumpi\n      0x00\n      dup1\n      revert\n    tag_66:\n      pop\n      tag_67\n      0x04\n      dup1\n      calldatasize\n      sub\n      dup2\n      add\n      swap1\n      tag_68\n      swap2\n      swap1\n      tag_69\n      jump\t// in\n    tag_68:\n      tag_70\n      jump\t// in\n    tag_67:\n      mload(0x40)\n      tag_71\n      swap2\n      swap1\n      tag_35\n      jump\t// in\n    tag_71:\n      mload(0x40)\n      dup1\n      swap2\n      sub\n      swap1\n      return\n        /* \"@openzeppelin/contracts/token/ERC1155/utils/ERC1155Receiver.sol\":387:608  function supportsInterface(bytes4 interfaceId) public view virtual override(ERC165, IERC165) returns (bool) {... */\n    tag_21:\n        /* \"@openzeppelin/contracts/token/ERC1155/utils/ERC1155Receiver.sol\":489:493  bool */\n      0x00\n        /* \"@openzeppelin/contracts/token/ERC1155/utils/ERC1155Receiver.sol\":527:561  type(IERC1155Receiver).interfaceId */\n      0x4e2312e000000000000000000000000000000000000000000000000000000000\n        /* \"@openzeppelin/contracts/token/ERC1155/utils/ERC1155Receiver.sol\":512:561  interfaceId == type(IERC1155Receiver).interfaceId */\n      not(0xffffffffffffffffffffffffffffffffffffffffffffffffffffffff)\n      and\n        /* \"@openzeppelin/contracts/token/ERC1155/utils/ERC1155Receiver.sol\":512:523  interfaceId */\n      dup3\n        /* \"@openzeppelin/contracts/token/ERC1155/utils/ERC1155Receiver.sol\":512:561  interfaceId == type(IERC1155Receiver).interfaceId */\n      not(0xffffffffffffffffffffffffffffffffffffffffffffffffffffffff)\n      and\n      eq\n        /* \"@openzeppelin/contracts/token/ERC1155/utils/ERC1155Receiver.sol\":512:601  interfaceId == type(IERC1155Receiver).interfaceId || super.supportsInterface(interfaceId) */\n      dup1\n      tag_73\n      jumpi\n      pop\n        /* \"@openzeppelin/contracts/token/ERC1155/utils/ERC1155Receiver.sol\":565:601  super.supportsInterface(interfaceId) */\n      tag_74\n        /* \"@openzeppelin/contracts/token/ERC1155/utils/ERC1155Receiver.sol\":589:600  interfaceId */\n      dup3\n        /* \"@openzeppelin/contracts/token/ERC1155/utils/ERC1155Receiver.sol\":565:588  super.supportsInterface */\n      tag_75\n        /* \"@openzeppelin/contracts/token/ERC1155/utils/ERC1155Receiver.sol\":565:601  super.supportsInterface(interfaceId) */\n      jump\t// in\n    tag_74:\n        /* \"@openzeppelin/contracts/token/ERC1155/utils/ERC1155Receiver.sol\":512:601  interfaceId == type(IERC1155Receiver).interfaceId || super.supportsInterface(interfaceId) */\n    tag_73:\n        /* \"@openzeppelin/contracts/token/ERC1155/utils/ERC1155Receiver.sol\":505:601  return interfaceId == type(IERC1155Receiver).interfaceId || super.supportsInterface(interfaceId) */\n      swap1\n      pop\n        /* \"@openzeppelin/contracts/token/ERC1155/utils/ERC1155Receiver.sol\":387:608  function supportsInterface(bytes4 interfaceId) public view virtual override(ERC165, IERC165) returns (bool) {... */\n      swap2\n      swap1\n      pop\n      jump\t// out\n        /* \"Practice NFT.sol\":1672:1873  function transferERC721AssetsToWallet(... */\n    tag_28:\n        /* \"Ownable.sol\":1156:1168  _msgSender() */\n      tag_77\n        /* \"Ownable.sol\":1156:1166  _msgSender */\n      tag_78\n        /* \"Ownable.sol\":1156:1168  _msgSender() */\n      jump\t// in\n    tag_77:\n        /* \"Ownable.sol\":1145:1168  owner() == _msgSender() */\n      0xffffffffffffffffffffffffffffffffffffffff\n      and\n        /* \"Ownable.sol\":1145:1152  owner() */\n      tag_79\n        /* \"Ownable.sol\":1145:1150  owner */\n      tag_52\n        /* \"Ownable.sol\":1145:1152  owner() */\n      jump\t// in\n    tag_79:\n        /* \"Ownable.sol\":1145:1168  owner() == _msgSender() */\n      0xffffffffffffffffffffffffffffffffffffffff\n      and\n      eq\n        /* \"Ownable.sol\":1137:1205  require(owner() == _msgSender(), \"Ownable: caller is not the owner\") */\n      tag_80\n      jumpi\n      mload(0x40)\n      0x08c379a000000000000000000000000000000000000000000000000000000000\n      dup2\n      mstore\n      0x04\n      add\n      tag_81\n      swap1\n      tag_82\n      jump\t// in\n    tag_81:\n      mload(0x40)\n      dup1\n      swap2\n      sub\n      swap1\n      revert\n    tag_80:\n        /* \"Practice NFT.sol\":1805:1866  _transferERC721FundsToAddress(owner(), tokenAddress, tokenId) */\n      tag_84\n        /* \"Practice NFT.sol\":1835:1842  owner() */\n      tag_85\n        /* \"Practice NFT.sol\":1835:1840  owner */\n      tag_52\n        /* \"Practice NFT.sol\":1835:1842  owner() */\n      jump\t// in\n    tag_85:\n        /* \"Practice NFT.sol\":1844:1856  tokenAddress */\n      dup4\n        /* \"Practice NFT.sol\":1858:1865  tokenId */\n      dup4\n        /* \"Practice NFT.sol\":1805:1834  _transferERC721FundsToAddress */\n      tag_86\n        /* \"Practice NFT.sol\":1805:1866  _transferERC721FundsToAddress(owner(), tokenAddress, tokenId) */\n      jump\t// in\n    tag_84:\n        /* \"Practice NFT.sol\":1672:1873  function transferERC721AssetsToWallet(... */\n      pop\n      pop\n      jump\t// out\n        /* \"@openzeppelin/contracts/token/ERC721/utils/ERC721Holder.sol\":588:788  function onERC721Received(... */\n    tag_33:\n        /* \"@openzeppelin/contracts/token/ERC721/utils/ERC721Holder.sol\":726:732  bytes4 */\n      0x00\n        /* \"@openzeppelin/contracts/token/ERC721/utils/ERC721Holder.sol\":751:781  this.onERC721Received.selector */\n      shl(0xe0, 0x150b7a02)\n        /* \"@openzeppelin/contracts/token/ERC721/utils/ERC721Holder.sol\":744:781  return this.onERC721Received.selector */\n      swap1\n      pop\n        /* \"@openzeppelin/contracts/token/ERC721/utils/ERC721Holder.sol\":588:788  function onERC721Received(... */\n      swap5\n      swap4\n      pop\n      pop\n      pop\n      pop\n      jump\t// out\n        /* \"Practice NFT.sol\":4242:4371  function sendNativeFundsToBackupWallet() external onlyOwner {... */\n    tag_38:\n        /* \"Ownable.sol\":1156:1168  _msgSender() */\n      tag_89\n        /* \"Ownable.sol\":1156:1166  _msgSender */\n      tag_78\n        /* \"Ownable.sol\":1156:1168  _msgSender() */\n      jump\t// in\n    tag_89:\n        /* \"Ownable.sol\":1145:1168  owner() == _msgSender() */\n      0xffffffffffffffffffffffffffffffffffffffff\n      and\n        /* \"Ownable.sol\":1145:1152  owner() */\n      tag_90\n        /* \"Ownable.sol\":1145:1150  owner */\n      tag_52\n        /* \"Ownable.sol\":1145:1152  owner() */\n      jump\t// in\n    tag_90:\n        /* \"Ownable.sol\":1145:1168  owner() == _msgSender() */\n      0xffffffffffffffffffffffffffffffffffffffff\n      and\n      eq\n        /* \"Ownable.sol\":1137:1205  require(owner() == _msgSender(), \"Ownable: caller is not the owner\") */\n      tag_91\n      jumpi\n      mload(0x40)\n      0x08c379a000000000000000000000000000000000000000000000000000000000\n      dup2\n      mstore\n      0x04\n      add\n      tag_92\n      swap1\n      tag_82\n      jump\t// in\n    tag_92:\n      mload(0x40)\n      dup1\n      swap2\n      sub\n      swap1\n      revert\n    tag_91:\n        /* \"Practice NFT.sol\":4312:4364  _transferNativeFundsToAddress(payable(backupWallet)) */\n      tag_94\n        /* \"Practice NFT.sol\":4350:4362  backupWallet */\n      0x01\n      0x00\n      swap1\n      sload\n      swap1\n      0x0100\n      exp\n      swap1\n      div\n      0xffffffffffffffffffffffffffffffffffffffff\n      and\n        /* \"Practice NFT.sol\":4312:4341  _transferNativeFundsToAddress */\n      tag_95\n        /* \"Practice NFT.sol\":4312:4364  _transferNativeFundsToAddress(payable(backupWallet)) */\n      jump\t// in\n    tag_94:\n        /* \"Practice NFT.sol\":4242:4371  function sendNativeFundsToBackupWallet() external onlyOwner {... */\n      jump\t// out\n        /* \"Practice NFT.sol\":4032:4236  function sendERC1155FundsToBackupWallet(... */\n    tag_42:\n        /* \"Ownable.sol\":1156:1168  _msgSender() */\n      tag_97\n        /* \"Ownable.sol\":1156:1166  _msgSender */\n      tag_78\n        /* \"Ownable.sol\":1156:1168  _msgSender() */\n      jump\t// in\n    tag_97:\n        /* \"Ownable.sol\":1145:1168  owner() == _msgSender() */\n      0xffffffffffffffffffffffffffffffffffffffff\n      and\n        /* \"Ownable.sol\":1145:1152  owner() */\n      tag_98\n        /* \"Ownable.sol\":1145:1150  owner */\n      tag_52\n        /* \"Ownable.sol\":1145:1152  owner() */\n      jump\t// in\n    tag_98:\n        /* \"Ownable.sol\":1145:1168  owner() == _msgSender() */\n      0xffffffffffffffffffffffffffffffffffffffff\n      and\n      eq\n        /* \"Ownable.sol\":1137:1205  require(owner() == _msgSender(), \"Ownable: caller is not the owner\") */\n      tag_99\n      jumpi\n      mload(0x40)\n      0x08c379a000000000000000000000000000000000000000000000000000000000\n      dup2\n      mstore\n      0x04\n      add\n      tag_100\n      swap1\n      tag_82\n      jump\t// in\n    tag_100:\n      mload(0x40)\n      dup1\n      swap2\n      sub\n      swap1\n      revert\n    tag_99:\n        /* \"Practice NFT.sol\":4162:4229  _transferERC1155FundsToAddress(backupWallet, tokenAddress, tokenId) */\n      tag_102\n        /* \"Practice NFT.sol\":4193:4205  backupWallet */\n      0x01\n      0x00\n      swap1\n      sload\n      swap1\n      0x0100\n      exp\n      swap1\n      div\n      0xffffffffffffffffffffffffffffffffffffffff\n      and\n        /* \"Practice NFT.sol\":4207:4219  tokenAddress */\n      dup4\n        /* \"Practice NFT.sol\":4221:4228  tokenId */\n      dup4\n        /* \"Practice NFT.sol\":4162:4192  _transferERC1155FundsToAddress */\n      tag_103\n        /* \"Practice NFT.sol\":4162:4229  _transferERC1155FundsToAddress(backupWallet, tokenAddress, tokenId) */\n      jump\t// in\n    tag_102:\n        /* \"Practice NFT.sol\":4032:4236  function sendERC1155FundsToBackupWallet(... */\n      pop\n      pop\n      jump\t// out\n        /* \"Practice NFT.sol\":3824:4026  function sendERC721FundsToBackupWallet(... */\n    tag_46:\n        /* \"Ownable.sol\":1156:1168  _msgSender() */\n      tag_105\n        /* \"Ownable.sol\":1156:1166  _msgSender */\n      tag_78\n        /* \"Ownable.sol\":1156:1168  _msgSender() */\n      jump\t// in\n    tag_105:\n        /* \"Ownable.sol\":1145:1168  owner() == _msgSender() */\n      0xffffffffffffffffffffffffffffffffffffffff\n      and\n        /* \"Ownable.sol\":1145:1152  owner() */\n      tag_106\n        /* \"Ownable.sol\":1145:1150  owner */\n      tag_52\n        /* \"Ownable.sol\":1145:1152  owner() */\n      jump\t// in\n    tag_106:\n        /* \"Ownable.sol\":1145:1168  owner() == _msgSender() */\n      0xffffffffffffffffffffffffffffffffffffffff\n      and\n      eq\n        /* \"Ownable.sol\":1137:1205  require(owner() == _msgSender(), \"Ownable: caller is not the owner\") */\n      tag_107\n      jumpi\n      mload(0x40)\n      0x08c379a000000000000000000000000000000000000000000000000000000000\n      dup2\n      mstore\n      0x04\n      add\n      tag_108\n      swap1\n      tag_82\n      jump\t// in\n    tag_108:\n      mload(0x40)\n      dup1\n      swap2\n      sub\n      swap1\n      revert\n    tag_107:\n        /* \"Practice NFT.sol\":3953:4019  _transferERC721FundsToAddress(backupWallet, tokenAddress, tokenId) */\n      tag_110\n        /* \"Practice NFT.sol\":3983:3995  backupWallet */\n      0x01\n      0x00\n      swap1\n      sload\n      swap1\n      0x0100\n      exp\n      swap1\n      div\n      0xffffffffffffffffffffffffffffffffffffffff\n      and\n        /* \"Practice NFT.sol\":3997:4009  tokenAddress */\n      dup4\n        /* \"Practice NFT.sol\":4011:4018  tokenId */\n      dup4\n        /* \"Practice NFT.sol\":3953:3982  _transferERC721FundsToAddress */\n      tag_86\n        /* \"Practice NFT.sol\":3953:4019  _transferERC721FundsToAddress(backupWallet, tokenAddress, tokenId) */\n      jump\t// in\n    tag_110:\n        /* \"Practice NFT.sol\":3824:4026  function sendERC721FundsToBackupWallet(... */\n      pop\n      pop\n      jump\t// out\n        /* \"Practice NFT.sol\":2360:2482  function transferNativeAssetToWallet() external onlyOwner {... */\n    tag_49:\n        /* \"Ownable.sol\":1156:1168  _msgSender() */\n      tag_112\n        /* \"Ownable.sol\":1156:1166  _msgSender */\n      tag_78\n        /* \"Ownable.sol\":1156:1168  _msgSender() */\n      jump\t// in\n    tag_112:\n        /* \"Ownable.sol\":1145:1168  owner() == _msgSender() */\n      0xffffffffffffffffffffffffffffffffffffffff\n      and\n        /* \"Ownable.sol\":1145:1152  owner() */\n      tag_113\n        /* \"Ownable.sol\":1145:1150  owner */\n      tag_52\n        /* \"Ownable.sol\":1145:1152  owner() */\n      jump\t// in\n    tag_113:\n        /* \"Ownable.sol\":1145:1168  owner() == _msgSender() */\n      0xffffffffffffffffffffffffffffffffffffffff\n      and\n      eq\n        /* \"Ownable.sol\":1137:1205  require(owner() == _msgSender(), \"Ownable: caller is not the owner\") */\n      tag_114\n      jumpi\n      mload(0x40)\n      0x08c379a000000000000000000000000000000000000000000000000000000000\n      dup2\n      mstore\n      0x04\n      add\n      tag_115\n      swap1\n      tag_82\n      jump\t// in\n    tag_115:\n      mload(0x40)\n      dup1\n      swap2\n      sub\n      swap1\n      revert\n    tag_114:\n        /* \"Practice NFT.sol\":2428:2475  _transferNativeFundsToAddress(payable(owner())) */\n      tag_117\n        /* \"Practice NFT.sol\":2466:2473  owner() */\n      tag_118\n        /* \"Practice NFT.sol\":2466:2471  owner */\n      tag_52\n        /* \"Practice NFT.sol\":2466:2473  owner() */\n      jump\t// in\n    tag_118:\n        /* \"Practice NFT.sol\":2428:2457  _transferNativeFundsToAddress */\n      tag_95\n        /* \"Practice NFT.sol\":2428:2475  _transferNativeFundsToAddress(payable(owner())) */\n      jump\t// in\n    tag_117:\n        /* \"Practice NFT.sol\":2360:2482  function transferNativeAssetToWallet() external onlyOwner {... */\n      jump\t// out\n        /* \"Ownable.sol\":933:1018  function owner() public view virtual returns (address) {... */\n    tag_52:\n        /* \"Ownable.sol\":979:986  address */\n      0x00\n        /* \"Ownable.sol\":1005:1011  _owner */\n      dup1\n      0x00\n      swap1\n      sload\n      swap1\n      0x0100\n      exp\n      swap1\n      div\n      0xffffffffffffffffffffffffffffffffffffffff\n      and\n        /* \"Ownable.sol\":998:1011  return _owner */\n      swap1\n      pop\n        /* \"Ownable.sol\":933:1018  function owner() public view virtual returns (address) {... */\n      swap1\n      jump\t// out\n        /* \"@openzeppelin/contracts/token/ERC1155/utils/ERC1155Holder.sol\":724:971  function onERC1155BatchReceived(... */\n    tag_59:\n        /* \"@openzeppelin/contracts/token/ERC1155/utils/ERC1155Holder.sol\":903:909  bytes4 */\n      0x00\n        /* \"@openzeppelin/contracts/token/ERC1155/utils/ERC1155Holder.sol\":928:964  this.onERC1155BatchReceived.selector */\n      shl(0xe0, 0xbc197c81)\n        /* \"@openzeppelin/contracts/token/ERC1155/utils/ERC1155Holder.sol\":921:964  return this.onERC1155BatchReceived.selector */\n      swap1\n      pop\n        /* \"@openzeppelin/contracts/token/ERC1155/utils/ERC1155Holder.sol\":724:971  function onERC1155BatchReceived(... */\n      swap6\n      swap5\n      pop\n      pop\n      pop\n      pop\n      pop\n      jump\t// out\n        /* \"Practice NFT.sol\":644:1144  function init(address _sender, address _backupWallet) external {        ... */\n    tag_65:\n        /* \"Practice NFT.sol\":751:752  0 */\n      0x00\n        /* \"Practice NFT.sol\":733:753  _sender!= address(0) */\n      0xffffffffffffffffffffffffffffffffffffffff\n      and\n        /* \"Practice NFT.sol\":733:740  _sender */\n      dup3\n        /* \"Practice NFT.sol\":733:753  _sender!= address(0) */\n      0xffffffffffffffffffffffffffffffffffffffff\n      and\n      eq\n      iszero\n        /* \"Practice NFT.sol\":725:788  require(_sender!= address(0), \"Sender address can not be zero\") */\n      tag_122\n      jumpi\n      mload(0x40)\n      0x08c379a000000000000000000000000000000000000000000000000000000000\n      dup2\n      mstore\n      0x04\n      add\n      tag_123\n      swap1\n      tag_124\n      jump\t// in\n    tag_123:\n      mload(0x40)\n      dup1\n      swap2\n      sub\n      swap1\n      revert\n    tag_122:\n        /* \"Practice NFT.sol\":830:831  0 */\n      0x00\n        /* \"Practice NFT.sol\":806:832  _backupWallet!= address(0) */\n      0xffffffffffffffffffffffffffffffffffffffff\n      and\n        /* \"Practice NFT.sol\":806:819  _backupWallet */\n      dup2\n        /* \"Practice NFT.sol\":806:832  _backupWallet!= address(0) */\n      0xffffffffffffffffffffffffffffffffffffffff\n      and\n      eq\n      iszero\n        /* \"Practice NFT.sol\":798:867  require(_backupWallet!= address(0), \"Backup address can not be zero\") */\n      tag_125\n      jumpi\n      mload(0x40)\n      0x08c379a000000000000000000000000000000000000000000000000000000000\n      dup2\n      mstore\n      0x04\n      add\n      tag_126\n      swap1\n      tag_127\n      jump\t// in\n    tag_126:\n      mload(0x40)\n      dup1\n      swap2\n      sub\n      swap1\n      revert\n    tag_125:\n        /* \"Practice NFT.sol\":901:908  _sender */\n      dup2\n        /* \"Practice NFT.sol\":885:908  _backupWallet!= _sender */\n      0xffffffffffffffffffffffffffffffffffffffff\n      and\n        /* \"Practice NFT.sol\":885:898  _backupWallet */\n      dup2\n        /* \"Practice NFT.sol\":885:908  _backupWallet!= _sender */\n      0xffffffffffffffffffffffffffffffffffffffff\n      and\n      eq\n      iszero\n        /* \"Practice NFT.sol\":877:959  require(_backupWallet!= _sender, \"Backup wallet can not be same as sender wallet\") */\n      tag_128\n      jumpi\n      mload(0x40)\n      0x08c379a000000000000000000000000000000000000000000000000000000000\n      dup2\n      mstore\n      0x04\n      add\n      tag_129\n      swap1\n      tag_130\n      jump\t// in\n    tag_129:\n      mload(0x40)\n      dup1\n      swap2\n      sub\n      swap1\n      revert\n    tag_128:\n        /* \"Practice NFT.sol\":994:999  false */\n      0x00\n        /* \"Practice NFT.sol\":977:999  isInitialized == false */\n      iszero\n      iszero\n        /* \"Practice NFT.sol\":977:990  isInitialized */\n      0x00\n      0x14\n      swap1\n      sload\n      swap1\n      0x0100\n      exp\n      swap1\n      div\n      0xff\n      and\n        /* \"Practice NFT.sol\":977:999  isInitialized == false */\n      iszero\n      iszero\n      eq\n        /* \"Practice NFT.sol\":969:1032  require(isInitialized == false, \"Contract already initialized\") */\n      tag_131\n      jumpi\n      mload(0x40)\n      0x08c379a000000000000000000000000000000000000000000000000000000000\n      dup2\n      mstore\n      0x04\n      add\n      tag_132\n      swap1\n      tag_133\n      jump\t// in\n    tag_132:\n      mload(0x40)\n      dup1\n      swap2\n      sub\n      swap1\n      revert\n    tag_131:\n        /* \"Practice NFT.sol\":1042:1069  _transferOwnership(_sender) */\n      tag_134\n        /* \"Practice NFT.sol\":1061:1068  _sender */\n      dup3\n        /* \"Practice NFT.sol\":1042:1060  _transferOwnership */\n      tag_135\n        /* \"Practice NFT.sol\":1042:1069  _transferOwnership(_sender) */\n      jump\t// in\n    tag_134:\n        /* \"Practice NFT.sol\":1094:1107  _backupWallet */\n      dup1\n        /* \"Practice NFT.sol\":1079:1091  backupWallet */\n      0x01\n      0x00\n        /* \"Practice NFT.sol\":1079:1107  backupWallet = _backupWallet */\n      0x0100\n      exp\n      dup2\n      sload\n      dup2\n      0xffffffffffffffffffffffffffffffffffffffff\n      mul\n      not\n      and\n      swap1\n      dup4\n      0xffffffffffffffffffffffffffffffffffffffff\n      and\n      mul\n      or\n      swap1\n      sstore\n      pop\n        /* \"Practice NFT.sol\":1133:1137  true */\n      0x01\n        /* \"Practice NFT.sol\":1117:1130  isInitialized */\n      0x00\n      0x14\n        /* \"Practice NFT.sol\":1117:1137  isInitialized = true */\n      0x0100\n      exp\n      dup2\n      sload\n      dup2\n      0xff\n      mul\n      not\n      and\n      swap1\n      dup4\n      iszero\n      iszero\n      mul\n      or\n      swap1\n      sstore\n      pop\n        /* \"Practice NFT.sol\":644:1144  function init(address _sender, address _backupWallet) external {        ... */\n      pop\n      pop\n      jump\t// out\n        /* \"@openzeppelin/contracts/token/ERC1155/utils/ERC1155Holder.sol\":499:718  function onERC1155Received(... */\n    tag_70:\n        /* \"@openzeppelin/contracts/token/ERC1155/utils/ERC1155Holder.sol\":655:661  bytes4 */\n      0x00\n        /* \"@openzeppelin/contracts/token/ERC1155/utils/ERC1155Holder.sol\":680:711  this.onERC1155Received.selector */\n      shl(0xe0, 0xf23a6e61)\n        /* \"@openzeppelin/contracts/token/ERC1155/utils/ERC1155Holder.sol\":673:711  return this.onERC1155Received.selector */\n      swap1\n      pop\n        /* \"@openzeppelin/contracts/token/ERC1155/utils/ERC1155Holder.sol\":499:718  function onERC1155Received(... */\n      swap6\n      swap5\n      pop\n      pop\n      pop\n      pop\n      pop\n      jump\t// out\n        /* \"@openzeppelin/contracts/utils/introspection/ERC165.sol\":829:984  function supportsInterface(bytes4 interfaceId) public view virtual override returns (bool) {... */\n    tag_75:\n        /* \"@openzeppelin/contracts/utils/introspection/ERC165.sol\":914:918  bool */\n      0x00\n        /* \"@openzeppelin/contracts/utils/introspection/ERC165.sol\":952:977  type(IERC165).interfaceId */\n      0x01ffc9a700000000000000000000000000000000000000000000000000000000\n        /* \"@openzeppelin/contracts/utils/introspection/ERC165.sol\":937:977  interfaceId == type(IERC165).interfaceId */\n      not(0xffffffffffffffffffffffffffffffffffffffffffffffffffffffff)\n      and\n        /* \"@openzeppelin/contracts/utils/introspection/ERC165.sol\":937:948  interfaceId */\n      dup3\n        /* \"@openzeppelin/contracts/utils/introspection/ERC165.sol\":937:977  interfaceId == type(IERC165).interfaceId */\n      not(0xffffffffffffffffffffffffffffffffffffffffffffffffffffffff)\n      and\n      eq\n        /* \"@openzeppelin/contracts/utils/introspection/ERC165.sol\":930:977  return interfaceId == type(IERC165).interfaceId */\n      swap1\n      pop\n        /* \"@openzeppelin/contracts/utils/introspection/ERC165.sol\":829:984  function supportsInterface(bytes4 interfaceId) public view virtual override returns (bool) {... */\n      swap2\n      swap1\n      pop\n      jump\t// out\n        /* \"@openzeppelin/contracts/utils/Context.sol\":640:736  function _msgSender() internal view virtual returns (address) {... */\n    tag_78:\n        /* \"@openzeppelin/contracts/utils/Context.sol\":693:700  address */\n      0x00\n        /* \"@openzeppelin/contracts/utils/Context.sol\":719:729  msg.sender */\n      caller\n        /* \"@openzeppelin/contracts/utils/Context.sol\":712:729  return msg.sender */\n      swap1\n      pop\n        /* \"@openzeppelin/contracts/utils/Context.sol\":640:736  function _msgSender() internal view virtual returns (address) {... */\n      swap1\n      jump\t// out\n        /* \"Practice NFT.sol\":4377:4602  function _transferERC721FundsToAddress(... */\n    tag_86:\n        /* \"Practice NFT.sol\":4530:4542  tokenAddress */\n      dup2\n        /* \"Practice NFT.sol\":4522:4560  IERC721(tokenAddress).safeTransferFrom */\n      0xffffffffffffffffffffffffffffffffffffffff\n      and\n      0x42842e0e\n        /* \"Practice NFT.sol\":4569:4573  this */\n      address\n        /* \"Practice NFT.sol\":4576:4585  toAddress */\n      dup6\n        /* \"Practice NFT.sol\":4587:4594  tokenId */\n      dup5\n        /* \"Practice NFT.sol\":4522:4595  IERC721(tokenAddress).safeTransferFrom(address(this), toAddress, tokenId) */\n      mload(0x40)\n      dup5\n      0xffffffff\n      and\n      0xe0\n      shl\n      dup2\n      mstore\n      0x04\n      add\n      tag_140\n      swap4\n      swap3\n      swap2\n      swap1\n      tag_141\n      jump\t// in\n    tag_140:\n      0x00\n      mload(0x40)\n      dup1\n      dup4\n      sub\n      dup2\n      0x00\n      dup8\n      dup1\n      extcodesize\n      iszero\n      dup1\n      iszero\n      tag_142\n      jumpi\n      0x00\n      dup1\n      revert\n    tag_142:\n      pop\n      gas\n      call\n      iszero\n      dup1\n      iszero\n      tag_144\n      jumpi\n      returndatasize\n      0x00\n      dup1\n      returndatacopy\n      revert(0x00, returndatasize)\n    tag_144:\n      pop\n      pop\n      pop\n      pop\n        /* \"Practice NFT.sol\":4377:4602  function _transferERC721FundsToAddress(... */\n      pop\n      pop\n      pop\n      jump\t// out\n        /* \"Practice NFT.sol\":5631:5839  function _transferNativeFundsToAddress(address payable toAddress) private {... */\n    tag_95:\n        /* \"Practice NFT.sol\":5715:5730  uint256 balance */\n      0x00\n        /* \"Practice NFT.sol\":5733:5754  address(this).balance */\n      selfbalance\n        /* \"Practice NFT.sol\":5715:5754  uint256 balance = address(this).balance */\n      swap1\n      pop\n        /* \"Practice NFT.sol\":5778:5779  0 */\n      0x00\n        /* \"Practice NFT.sol\":5768:5775  balance */\n      dup2\n        /* \"Practice NFT.sol\":5768:5779  balance > 0 */\n      gt\n        /* \"Practice NFT.sol\":5764:5833  if (balance > 0) {... */\n      iszero\n      tag_146\n      jumpi\n        /* \"Practice NFT.sol\":5795:5804  toAddress */\n      dup2\n        /* \"Practice NFT.sol\":5795:5813  toAddress.transfer */\n      0xffffffffffffffffffffffffffffffffffffffff\n      and\n        /* \"Practice NFT.sol\":5795:5822  toAddress.transfer(balance) */\n      0x08fc\n        /* \"Practice NFT.sol\":5814:5821  balance */\n      dup3\n        /* \"Practice NFT.sol\":5795:5822  toAddress.transfer(balance) */\n      swap1\n      dup2\n      iszero\n      mul\n      swap1\n      mload(0x40)\n      0x00\n      mload(0x40)\n      dup1\n      dup4\n      sub\n      dup2\n      dup6\n      dup9\n      dup9\n      call\n      swap4\n      pop\n      pop\n      pop\n      pop\n      iszero\n      dup1\n      iszero\n      tag_148\n      jumpi\n      returndatasize\n      0x00\n      dup1\n      returndatacopy\n      revert(0x00, returndatasize)\n    tag_148:\n      pop\n        /* \"Practice NFT.sol\":5764:5833  if (balance > 0) {... */\n    tag_146:\n        /* \"Practice NFT.sol\":5705:5839  {... */\n      pop\n        /* \"Practice NFT.sol\":5631:5839  function _transferNativeFundsToAddress(address payable toAddress) private {... */\n      pop\n      jump\t// out\n        /* \"Practice NFT.sol\":4608:5101  function _transferERC1155FundsToAddress(... */\n    tag_103:\n        /* \"Practice NFT.sol\":4754:4769  uint256 balance */\n      0x00\n        /* \"Practice NFT.sol\":4781:4793  tokenAddress */\n      dup3\n        /* \"Practice NFT.sol\":4772:4804  IERC1155(tokenAddress).balanceOf */\n      0xffffffffffffffffffffffffffffffffffffffff\n      and\n      0xfdd58e\n        /* \"Practice NFT.sol\":4826:4830  this */\n      address\n        /* \"Practice NFT.sol\":4845:4852  tokenId */\n      dup5\n        /* \"Practice NFT.sol\":4772:4862  IERC1155(tokenAddress).balanceOf(... */\n      mload(0x40)\n      dup4\n      0xffffffff\n      and\n      0xe0\n      shl\n      dup2\n      mstore\n      0x04\n      add\n      tag_150\n      swap3\n      swap2\n      swap1\n      tag_151\n      jump\t// in\n    tag_150:\n      0x20\n      mload(0x40)\n      dup1\n      dup4\n      sub\n      dup2\n      dup7\n      dup1\n      extcodesize\n      iszero\n      dup1\n      iszero\n      tag_152\n      jumpi\n      0x00\n      dup1\n      revert\n    tag_152:\n      pop\n      gas\n      staticcall\n      iszero\n      dup1\n      iszero\n      tag_154\n      jumpi\n      returndatasize\n      0x00\n      dup1\n      returndatacopy\n      revert(0x00, returndatasize)\n    tag_154:\n      pop\n      pop\n      pop\n      pop\n      mload(0x40)\n      returndatasize\n      not(0x1f)\n      0x1f\n      dup3\n      add\n      and\n      dup3\n      add\n      dup1\n      0x40\n      mstore\n      pop\n      dup2\n      add\n      swap1\n      tag_155\n      swap2\n      swap1\n      tag_156\n      jump\t// in\n    tag_155:\n        /* \"Practice NFT.sol\":4754:4862  uint256 balance = IERC1155(tokenAddress).balanceOf(... */\n      swap1\n      pop\n        /* \"Practice NFT.sol\":4886:4887  0 */\n      0x00\n        /* \"Practice NFT.sol\":4876:4883  balance */\n      dup2\n        /* \"Practice NFT.sol\":4876:4887  balance > 0 */\n      gt\n        /* \"Practice NFT.sol\":4872:5095  if (balance > 0) {... */\n      iszero\n      tag_157\n      jumpi\n        /* \"Practice NFT.sol\":4912:4924  tokenAddress */\n      dup3\n        /* \"Practice NFT.sol\":4903:4942  IERC1155(tokenAddress).safeTransferFrom */\n      0xffffffffffffffffffffffffffffffffffffffff\n      and\n      0xf242432a\n        /* \"Practice NFT.sol\":4968:4972  this */\n      address\n        /* \"Practice NFT.sol\":4991:5000  toAddress */\n      dup7\n        /* \"Practice NFT.sol\":5018:5025  tokenId */\n      dup6\n        /* \"Practice NFT.sol\":5043:5050  balance */\n      dup6\n        /* \"Practice NFT.sol\":4903:5084  IERC1155(tokenAddress).safeTransferFrom(... */\n      mload(0x40)\n      dup6\n      0xffffffff\n      and\n      0xe0\n      shl\n      dup2\n      mstore\n      0x04\n      add\n      tag_158\n      swap5\n      swap4\n      swap3\n      swap2\n      swap1\n      tag_159\n      jump\t// in\n    tag_158:\n      0x00\n      mload(0x40)\n      dup1\n      dup4\n      sub\n      dup2\n      0x00\n      dup8\n      dup1\n      extcodesize\n      iszero\n      dup1\n      iszero\n      tag_160\n      jumpi\n      0x00\n      dup1\n      revert\n    tag_160:\n      pop\n      gas\n      call\n      iszero\n      dup1\n      iszero\n      tag_162\n      jumpi\n      returndatasize\n      0x00\n      dup1\n      returndatacopy\n      revert(0x00, returndatasize)\n    tag_162:\n      pop\n      pop\n      pop\n      pop\n        /* \"Practice NFT.sol\":4872:5095  if (balance > 0) {... */\n    tag_157:\n        /* \"Practice NFT.sol\":4744:5101  {... */\n      pop\n        /* \"Practice NFT.sol\":4608:5101  function _transferERC1155FundsToAddress(... */\n      pop\n      pop\n      pop\n      jump\t// out\n        /* \"Ownable.sol\":1377:1564  function _transferOwnership(address newOwner) internal virtual {... */\n    tag_135:\n        /* \"Ownable.sol\":1450:1466  address oldOwner */\n      0x00\n        /* \"Ownable.sol\":1469:1475  _owner */\n      dup1\n      0x00\n      swap1\n      sload\n      swap1\n      0x0100\n      exp\n      swap1\n      div\n      0xffffffffffffffffffffffffffffffffffffffff\n      and\n        /* \"Ownable.sol\":1450:1475  address oldOwner = _owner */\n      swap1\n      pop\n        /* \"Ownable.sol\":1494:1502  newOwner */\n      dup2\n        /* \"Ownable.sol\":1485:1491  _owner */\n      0x00\n      dup1\n        /* \"Ownable.sol\":1485:1502  _owner = newOwner */\n      0x0100\n      exp\n      dup2\n      sload\n      dup2\n      0xffffffffffffffffffffffffffffffffffffffff\n      mul\n      not\n      and\n      swap1\n      dup4\n      0xffffffffffffffffffffffffffffffffffffffff\n      and\n      mul\n      or\n      swap1\n      sstore\n      pop\n        /* \"Ownable.sol\":1548:1556  newOwner */\n      dup2\n        /* \"Ownable.sol\":1517:1557  OwnershipTransferred(oldOwner, newOwner) */\n      0xffffffffffffffffffffffffffffffffffffffff\n      and\n        /* \"Ownable.sol\":1538:1546  oldOwner */\n      dup2\n        /* \"Ownable.sol\":1517:1557  OwnershipTransferred(oldOwner, newOwner) */\n      0xffffffffffffffffffffffffffffffffffffffff\n      and\n      0x8be0079c531659141344cd1fd0a4f28419497f9722a3daafe3b4186f6b6457e0\n      mload(0x40)\n      mload(0x40)\n      dup1\n      swap2\n      sub\n      swap1\n      log3\n        /* \"Ownable.sol\":1440:1564  {... */\n      pop\n        /* \"Ownable.sol\":1377:1564  function _transferOwnership(address newOwner) internal virtual {... */\n      pop\n      jump\t// out\n        /* \"#utility.yul\":24:746   */\n    tag_165:\n        /* \"#utility.yul\":120:125   */\n      0x00\n        /* \"#utility.yul\":145:226   */\n      tag_167\n        /* \"#utility.yul\":161:225   */\n      tag_168\n        /* \"#utility.yul\":218:224   */\n      dup5\n        /* \"#utility.yul\":161:225   */\n      tag_169\n      jump\t// in\n    tag_168:\n        /* \"#utility.yul\":145:226   */\n      tag_170\n      jump\t// in\n    tag_167:\n        /* \"#utility.yul\":136:226   */\n      swap1\n      pop\n        /* \"#utility.yul\":246:251   */\n      dup1\n        /* \"#utility.yul\":275:281   */\n      dup4\n        /* \"#utility.yul\":268:273   */\n      dup3\n        /* \"#utility.yul\":261:282   */\n      mstore\n        /* \"#utility.yul\":309:313   */\n      0x20\n        /* \"#utility.yul\":302:307   */\n      dup3\n        /* \"#utility.yul\":298:314   */\n      add\n        /* \"#utility.yul\":291:314   */\n      swap1\n      pop\n        /* \"#utility.yul\":335:341   */\n      dup3\n        /* \"#utility.yul\":385:388   */\n      dup6\n        /* \"#utility.yul\":377:381   */\n      0x20\n        /* \"#utility.yul\":369:375   */\n      dup7\n        /* \"#utility.yul\":365:382   */\n      mul\n        /* \"#utility.yul\":360:363   */\n      dup3\n        /* \"#utility.yul\":356:383   */\n      add\n        /* \"#utility.yul\":353:389   */\n      gt\n        /* \"#utility.yul\":350:493   */\n      iszero\n      tag_171\n      jumpi\n        /* \"#utility.yul\":404:483   */\n      tag_172\n      tag_173\n      jump\t// in\n    tag_172:\n        /* \"#utility.yul\":350:493   */\n    tag_171:\n        /* \"#utility.yul\":517:518   */\n      0x00\n        /* \"#utility.yul\":502:740   */\n    tag_174:\n        /* \"#utility.yul\":527:533   */\n      dup6\n        /* \"#utility.yul\":524:525   */\n      dup2\n        /* \"#utility.yul\":521:534   */\n      lt\n        /* \"#utility.yul\":502:740   */\n      iszero\n      tag_176\n      jumpi\n        /* \"#utility.yul\":595:598   */\n      dup2\n        /* \"#utility.yul\":624:661   */\n      tag_177\n        /* \"#utility.yul\":657:660   */\n      dup9\n        /* \"#utility.yul\":645:655   */\n      dup3\n        /* \"#utility.yul\":624:661   */\n      tag_178\n      jump\t// in\n    tag_177:\n        /* \"#utility.yul\":619:622   */\n      dup5\n        /* \"#utility.yul\":612:662   */\n      mstore\n        /* \"#utility.yul\":691:695   */\n      0x20\n        /* \"#utility.yul\":686:689   */\n      dup5\n        /* \"#utility.yul\":682:696   */\n      add\n        /* \"#utility.yul\":675:696   */\n      swap4\n      pop\n        /* \"#utility.yul\":725:729   */\n      0x20\n        /* \"#utility.yul\":720:723   */\n      dup4\n        /* \"#utility.yul\":716:730   */\n      add\n        /* \"#utility.yul\":709:730   */\n      swap3\n      pop\n        /* \"#utility.yul\":562:740   */\n      pop\n        /* \"#utility.yul\":549:550   */\n      0x01\n        /* \"#utility.yul\":546:547   */\n      dup2\n        /* \"#utility.yul\":542:551   */\n      add\n        /* \"#utility.yul\":537:551   */\n      swap1\n      pop\n        /* \"#utility.yul\":502:740   */\n      jump(tag_174)\n    tag_176:\n        /* \"#utility.yul\":506:520   */\n      pop\n        /* \"#utility.yul\":126:746   */\n      pop\n      pop\n        /* \"#utility.yul\":24:746   */\n      swap4\n      swap3\n      pop\n      pop\n      pop\n      jump\t// out\n        /* \"#utility.yul\":752:1162   */\n    tag_179:\n        /* \"#utility.yul\":829:834   */\n      0x00\n        /* \"#utility.yul\":854:919   */\n      tag_181\n        /* \"#utility.yul\":870:918   */\n      tag_182\n        /* \"#utility.yul\":911:917   */\n      dup5\n        /* \"#utility.yul\":870:918   */\n      tag_183\n      jump\t// in\n    tag_182:\n        /* \"#utility.yul\":854:919   */\n      tag_170\n      jump\t// in\n    tag_181:\n        /* \"#utility.yul\":845:919   */\n      swap1\n      pop\n        /* \"#utility.yul\":942:948   */\n      dup3\n        /* \"#utility.yul\":935:940   */\n      dup2\n        /* \"#utility.yul\":928:949   */\n      mstore\n        /* \"#utility.yul\":980:984   */\n      0x20\n        /* \"#utility.yul\":973:978   */\n      dup2\n        /* \"#utility.yul\":969:985   */\n      add\n        /* \"#utility.yul\":1018:1021   */\n      dup5\n        /* \"#utility.yul\":1009:1015   */\n      dup5\n        /* \"#utility.yul\":1004:1007   */\n      dup5\n        /* \"#utility.yul\":1000:1016   */\n      add\n        /* \"#utility.yul\":997:1022   */\n      gt\n        /* \"#utility.yul\":994:1106   */\n      iszero\n      tag_184\n      jumpi\n        /* \"#utility.yul\":1025:1104   */\n      tag_185\n      tag_186\n      jump\t// in\n    tag_185:\n        /* \"#utility.yul\":994:1106   */\n    tag_184:\n        /* \"#utility.yul\":1115:1156   */\n      tag_187\n        /* \"#utility.yul\":1149:1155   */\n      dup5\n        /* \"#utility.yul\":1144:1147   */\n      dup3\n        /* \"#utility.yul\":1139:1142   */\n      dup6\n        /* \"#utility.yul\":1115:1156   */\n      tag_188\n      jump\t// in\n    tag_187:\n        /* \"#utility.yul\":835:1162   */\n      pop\n        /* \"#utility.yul\":752:1162   */\n      swap4\n      swap3\n      pop\n      pop\n      pop\n      jump\t// out\n        /* \"#utility.yul\":1168:1307   */\n    tag_189:\n        /* \"#utility.yul\":1214:1219   */\n      0x00\n        /* \"#utility.yul\":1252:1258   */\n      dup2\n        /* \"#utility.yul\":1239:1259   */\n      calldataload\n        /* \"#utility.yul\":1230:1259   */\n      swap1\n      pop\n        /* \"#utility.yul\":1268:1301   */\n      tag_191\n        /* \"#utility.yul\":1295:1300   */\n      dup2\n        /* \"#utility.yul\":1268:1301   */\n      tag_192\n      jump\t// in\n    tag_191:\n        /* \"#utility.yul\":1168:1307   */\n      swap3\n      swap2\n      pop\n      pop\n      jump\t// out\n        /* \"#utility.yul\":1330:1700   */\n    tag_193:\n        /* \"#utility.yul\":1401:1406   */\n      0x00\n        /* \"#utility.yul\":1450:1453   */\n      dup3\n        /* \"#utility.yul\":1443:1447   */\n      0x1f\n        /* \"#utility.yul\":1435:1441   */\n      dup4\n        /* \"#utility.yul\":1431:1448   */\n      add\n        /* \"#utility.yul\":1427:1454   */\n      slt\n        /* \"#utility.yul\":1417:1539   */\n      tag_195\n      jumpi\n        /* \"#utility.yul\":1458:1537   */\n      tag_196\n      tag_197\n      jump\t// in\n    tag_196:\n        /* \"#utility.yul\":1417:1539   */\n    tag_195:\n        /* \"#utility.yul\":1575:1581   */\n      dup2\n        /* \"#utility.yul\":1562:1582   */\n      calldataload\n        /* \"#utility.yul\":1600:1694   */\n      tag_198\n        /* \"#utility.yul\":1690:1693   */\n      dup5\n        /* \"#utility.yul\":1682:1688   */\n      dup3\n        /* \"#utility.yul\":1675:1679   */\n      0x20\n        /* \"#utility.yul\":1667:1673   */\n      dup7\n        /* \"#utility.yul\":1663:1680   */\n      add\n        /* \"#utility.yul\":1600:1694   */\n      tag_165\n      jump\t// in\n    tag_198:\n        /* \"#utility.yul\":1591:1694   */\n      swap2\n      pop\n        /* \"#utility.yul\":1407:1700   */\n      pop\n        /* \"#utility.yul\":1330:1700   */\n      swap3\n      swap2\n      pop\n      pop\n      jump\t// out\n        /* \"#utility.yul\":1706:1843   */\n    tag_199:\n        /* \"#utility.yul\":1751:1756   */\n      0x00\n        /* \"#utility.yul\":1789:1795   */\n      dup2\n        /* \"#utility.yul\":1776:1796   */\n      calldataload\n        /* \"#utility.yul\":1767:1796   */\n      swap1\n      pop\n        /* \"#utility.yul\":1805:1837   */\n      tag_201\n        /* \"#utility.yul\":1831:1836   */\n      dup2\n        /* \"#utility.yul\":1805:1837   */\n      tag_202\n      jump\t// in\n    tag_201:\n        /* \"#utility.yul\":1706:1843   */\n      swap3\n      swap2\n      pop\n      pop\n      jump\t// out\n        /* \"#utility.yul\":1862:2200   */\n    tag_203:\n        /* \"#utility.yul\":1917:1922   */\n      0x00\n        /* \"#utility.yul\":1966:1969   */\n      dup3\n        /* \"#utility.yul\":1959:1963   */\n      0x1f\n        /* \"#utility.yul\":1951:1957   */\n      dup4\n        /* \"#utility.yul\":1947:1964   */\n      add\n        /* \"#utility.yul\":1943:1970   */\n      slt\n        /* \"#utility.yul\":1933:2055   */\n      tag_205\n      jumpi\n        /* \"#utility.yul\":1974:2053   */\n      tag_206\n      tag_197\n      jump\t// in\n    tag_206:\n        /* \"#utility.yul\":1933:2055   */\n    tag_205:\n        /* \"#utility.yul\":2091:2097   */\n      dup2\n        /* \"#utility.yul\":2078:2098   */\n      calldataload\n        /* \"#utility.yul\":2116:2194   */\n      tag_207\n        /* \"#utility.yul\":2190:2193   */\n      dup5\n        /* \"#utility.yul\":2182:2188   */\n      dup3\n        /* \"#utility.yul\":2175:2179   */\n      0x20\n        /* \"#utility.yul\":2167:2173   */\n      dup7\n        /* \"#utility.yul\":2163:2180   */\n      add\n        /* \"#utility.yul\":2116:2194   */\n      tag_179\n      jump\t// in\n    tag_207:\n        /* \"#utility.yul\":2107:2194   */\n      swap2\n      pop\n        /* \"#utility.yul\":1923:2200   */\n      pop\n        /* \"#utility.yul\":1862:2200   */\n      swap3\n      swap2\n      pop\n      pop\n      jump\t// out\n        /* \"#utility.yul\":2206:2345   */\n    tag_178:\n        /* \"#utility.yul\":2252:2257   */\n      0x00\n        /* \"#utility.yul\":2290:2296   */\n      dup2\n        /* \"#utility.yul\":2277:2297   */\n      calldataload\n        /* \"#utility.yul\":2268:2297   */\n      swap1\n      pop\n        /* \"#utility.yul\":2306:2339   */\n      tag_209\n        /* \"#utility.yul\":2333:2338   */\n      dup2\n        /* \"#utility.yul\":2306:2339   */\n      tag_210\n      jump\t// in\n    tag_209:\n        /* \"#utility.yul\":2206:2345   */\n      swap3\n      swap2\n      pop\n      pop\n      jump\t// out\n        /* \"#utility.yul\":2351:2494   */\n    tag_211:\n        /* \"#utility.yul\":2408:2413   */\n      0x00\n        /* \"#utility.yul\":2439:2445   */\n      dup2\n        /* \"#utility.yul\":2433:2446   */\n      mload\n        /* \"#utility.yul\":2424:2446   */\n      swap1\n      pop\n        /* \"#utility.yul\":2455:2488   */\n      tag_213\n        /* \"#utility.yul\":2482:2487   */\n      dup2\n        /* \"#utility.yul\":2455:2488   */\n      tag_210\n      jump\t// in\n    tag_213:\n        /* \"#utility.yul\":2351:2494   */\n      swap3\n      swap2\n      pop\n      pop\n      jump\t// out\n        /* \"#utility.yul\":2500:2974   */\n    tag_64:\n        /* \"#utility.yul\":2568:2574   */\n      0x00\n        /* \"#utility.yul\":2576:2582   */\n      dup1\n        /* \"#utility.yul\":2625:2627   */\n      0x40\n        /* \"#utility.yul\":2613:2622   */\n      dup4\n        /* \"#utility.yul\":2604:2611   */\n      dup6\n        /* \"#utility.yul\":2600:2623   */\n      sub\n        /* \"#utility.yul\":2596:2628   */\n      slt\n        /* \"#utility.yul\":2593:2712   */\n      iszero\n      tag_215\n      jumpi\n        /* \"#utility.yul\":2631:2710   */\n      tag_216\n      tag_217\n      jump\t// in\n    tag_216:\n        /* \"#utility.yul\":2593:2712   */\n    tag_215:\n        /* \"#utility.yul\":2751:2752   */\n      0x00\n        /* \"#utility.yul\":2776:2829   */\n      tag_218\n        /* \"#utility.yul\":2821:2828   */\n      dup6\n        /* \"#utility.yul\":2812:2818   */\n      dup3\n        /* \"#utility.yul\":2801:2810   */\n      dup7\n        /* \"#utility.yul\":2797:2819   */\n      add\n        /* \"#utility.yul\":2776:2829   */\n      tag_189\n      jump\t// in\n    tag_218:\n        /* \"#utility.yul\":2766:2829   */\n      swap3\n      pop\n        /* \"#utility.yul\":2722:2839   */\n      pop\n        /* \"#utility.yul\":2878:2880   */\n      0x20\n        /* \"#utility.yul\":2904:2957   */\n      tag_219\n        /* \"#utility.yul\":2949:2956   */\n      dup6\n        /* \"#utility.yul\":2940:2946   */\n      dup3\n        /* \"#utility.yul\":2929:2938   */\n      dup7\n        /* \"#utility.yul\":2925:2947   */\n      add\n        /* \"#utility.yul\":2904:2957   */\n      tag_189\n      jump\t// in\n    tag_219:\n        /* \"#utility.yul\":2894:2957   */\n      swap2\n      pop\n        /* \"#utility.yul\":2849:2967   */\n      pop\n        /* \"#utility.yul\":2500:2974   */\n      swap3\n      pop\n      swap3\n      swap1\n      pop\n      jump\t// out\n        /* \"#utility.yul\":2980:4489   */\n    tag_58:\n        /* \"#utility.yul\":3134:3140   */\n      0x00\n        /* \"#utility.yul\":3142:3148   */\n      dup1\n        /* \"#utility.yul\":3150:3156   */\n      0x00\n        /* \"#utility.yul\":3158:3164   */\n      dup1\n        /* \"#utility.yul\":3166:3172   */\n      0x00\n        /* \"#utility.yul\":3215:3218   */\n      0xa0\n        /* \"#utility.yul\":3203:3212   */\n      dup7\n        /* \"#utility.yul\":3194:3201   */\n      dup9\n        /* \"#utility.yul\":3190:3213   */\n      sub\n        /* \"#utility.yul\":3186:3219   */\n      slt\n        /* \"#utility.yul\":3183:3303   */\n      iszero\n      tag_221\n      jumpi\n        /* \"#utility.yul\":3222:3301   */\n      tag_222\n      tag_217\n      jump\t// in\n    tag_222:\n        /* \"#utility.yul\":3183:3303   */\n    tag_221:\n        /* \"#utility.yul\":3342:3343   */\n      0x00\n        /* \"#utility.yul\":3367:3420   */\n      tag_223\n        /* \"#utility.yul\":3412:3419   */\n      dup9\n        /* \"#utility.yul\":3403:3409   */\n      dup3\n        /* \"#utility.yul\":3392:3401   */\n      dup10\n        /* \"#utility.yul\":3388:3410   */\n      add\n        /* \"#utility.yul\":3367:3420   */\n      tag_189\n      jump\t// in\n    tag_223:\n        /* \"#utility.yul\":3357:3420   */\n      swap6\n      pop\n        /* \"#utility.yul\":3313:3430   */\n      pop\n        /* \"#utility.yul\":3469:3471   */\n      0x20\n        /* \"#utility.yul\":3495:3548   */\n      tag_224\n        /* \"#utility.yul\":3540:3547   */\n      dup9\n        /* \"#utility.yul\":3531:3537   */\n      dup3\n        /* \"#utility.yul\":3520:3529   */\n      dup10\n        /* \"#utility.yul\":3516:3538   */\n      add\n        /* \"#utility.yul\":3495:3548   */\n      tag_189\n      jump\t// in\n    tag_224:\n        /* \"#utility.yul\":3485:3548   */\n      swap5\n      pop\n        /* \"#utility.yul\":3440:3558   */\n      pop\n        /* \"#utility.yul\":3625:3627   */\n      0x40\n        /* \"#utility.yul\":3614:3623   */\n      dup7\n        /* \"#utility.yul\":3610:3628   */\n      add\n        /* \"#utility.yul\":3597:3629   */\n      calldataload\n        /* \"#utility.yul\":3656:3674   */\n      0xffffffffffffffff\n        /* \"#utility.yul\":3648:3654   */\n      dup2\n        /* \"#utility.yul\":3645:3675   */\n      gt\n        /* \"#utility.yul\":3642:3759   */\n      iszero\n      tag_225\n      jumpi\n        /* \"#utility.yul\":3678:3757   */\n      tag_226\n      tag_227\n      jump\t// in\n    tag_226:\n        /* \"#utility.yul\":3642:3759   */\n    tag_225:\n        /* \"#utility.yul\":3783:3861   */\n      tag_228\n        /* \"#utility.yul\":3853:3860   */\n      dup9\n        /* \"#utility.yul\":3844:3850   */\n      dup3\n        /* \"#utility.yul\":3833:3842   */\n      dup10\n        /* \"#utility.yul\":3829:3851   */\n      add\n        /* \"#utility.yul\":3783:3861   */\n      tag_193\n      jump\t// in\n    tag_228:\n        /* \"#utility.yul\":3773:3861   */\n      swap4\n      pop\n        /* \"#utility.yul\":3568:3871   */\n      pop\n        /* \"#utility.yul\":3938:3940   */\n      0x60\n        /* \"#utility.yul\":3927:3936   */\n      dup7\n        /* \"#utility.yul\":3923:3941   */\n      add\n        /* \"#utility.yul\":3910:3942   */\n      calldataload\n        /* \"#utility.yul\":3969:3987   */\n      0xffffffffffffffff\n        /* \"#utility.yul\":3961:3967   */\n      dup2\n        /* \"#utility.yul\":3958:3988   */\n      gt\n        /* \"#utility.yul\":3955:4072   */\n      iszero\n      tag_229\n      jumpi\n        /* \"#utility.yul\":3991:4070   */\n      tag_230\n      tag_227\n      jump\t// in\n    tag_230:\n        /* \"#utility.yul\":3955:4072   */\n    tag_229:\n        /* \"#utility.yul\":4096:4174   */\n      tag_231\n        /* \"#utility.yul\":4166:4173   */\n      dup9\n        /* \"#utility.yul\":4157:4163   */\n      dup3\n        /* \"#utility.yul\":4146:4155   */\n      dup10\n        /* \"#utility.yul\":4142:4164   */\n      add\n        /* \"#utility.yul\":4096:4174   */\n      tag_193\n      jump\t// in\n    tag_231:\n        /* \"#utility.yul\":4086:4174   */\n      swap3\n      pop\n        /* \"#utility.yul\":3881:4184   */\n      pop\n        /* \"#utility.yul\":4251:4254   */\n      0x80\n        /* \"#utility.yul\":4240:4249   */\n      dup7\n        /* \"#utility.yul\":4236:4255   */\n      add\n        /* \"#utility.yul\":4223:4256   */\n      calldataload\n        /* \"#utility.yul\":4283:4301   */\n      0xffffffffffffffff\n        /* \"#utility.yul\":4275:4281   */\n      dup2\n        /* \"#utility.yul\":4272:4302   */\n      gt\n        /* \"#utility.yul\":4269:4386   */\n      iszero\n      tag_232\n      jumpi\n        /* \"#utility.yul\":4305:4384   */\n      tag_233\n      tag_227\n      jump\t// in\n    tag_233:\n        /* \"#utility.yul\":4269:4386   */\n    tag_232:\n        /* \"#utility.yul\":4410:4472   */\n      tag_234\n        /* \"#utility.yul\":4464:4471   */\n      dup9\n        /* \"#utility.yul\":4455:4461   */\n      dup3\n        /* \"#utility.yul\":4444:4453   */\n      dup10\n        /* \"#utility.yul\":4440:4462   */\n      add\n        /* \"#utility.yul\":4410:4472   */\n      tag_203\n      jump\t// in\n    tag_234:\n        /* \"#utility.yul\":4400:4472   */\n      swap2\n      pop\n        /* \"#utility.yul\":4194:4482   */\n      pop\n        /* \"#utility.yul\":2980:4489   */\n      swap3\n      swap6\n      pop\n      swap3\n      swap6\n      swap1\n      swap4\n      pop\n      jump\t// out\n        /* \"#utility.yul\":4495:5438   */\n    tag_32:\n        /* \"#utility.yul\":4590:4596   */\n      0x00\n        /* \"#utility.yul\":4598:4604   */\n      dup1\n        /* \"#utility.yul\":4606:4612   */\n      0x00\n        /* \"#utility.yul\":4614:4620   */\n      dup1\n        /* \"#utility.yul\":4663:4666   */\n      0x80\n        /* \"#utility.yul\":4651:4660   */\n      dup6\n        /* \"#utility.yul\":4642:4649   */\n      dup8\n        /* \"#utility.yul\":4638:4661   */\n      sub\n        /* \"#utility.yul\":4634:4667   */\n      slt\n        /* \"#utility.yul\":4631:4751   */\n      iszero\n      tag_236\n      jumpi\n        /* \"#utility.yul\":4670:4749   */\n      tag_237\n      tag_217\n      jump\t// in\n    tag_237:\n        /* \"#utility.yul\":4631:4751   */\n    tag_236:\n        /* \"#utility.yul\":4790:4791   */\n      0x00\n        /* \"#utility.yul\":4815:4868   */\n      tag_238\n        /* \"#utility.yul\":4860:4867   */\n      dup8\n        /* \"#utility.yul\":4851:4857   */\n      dup3\n        /* \"#utility.yul\":4840:4849   */\n      dup9\n        /* \"#utility.yul\":4836:4858   */\n      add\n        /* \"#utility.yul\":4815:4868   */\n      tag_189\n      jump\t// in\n    tag_238:\n        /* \"#utility.yul\":4805:4868   */\n      swap5\n      pop\n        /* \"#utility.yul\":4761:4878   */\n      pop\n        /* \"#utility.yul\":4917:4919   */\n      0x20\n        /* \"#utility.yul\":4943:4996   */\n      tag_239\n        /* \"#utility.yul\":4988:4995   */\n      dup8\n        /* \"#utility.yul\":4979:4985   */\n      dup3\n        /* \"#utility.yul\":4968:4977   */\n      dup9\n        /* \"#utility.yul\":4964:4986   */\n      add\n        /* \"#utility.yul\":4943:4996   */\n      tag_189\n      jump\t// in\n    tag_239:\n        /* \"#utility.yul\":4933:4996   */\n      swap4\n      pop\n        /* \"#utility.yul\":4888:5006   */\n      pop\n        /* \"#utility.yul\":5045:5047   */\n      0x40\n        /* \"#utility.yul\":5071:5124   */\n      tag_240\n        /* \"#utility.yul\":5116:5123   */\n      dup8\n        /* \"#utility.yul\":5107:5113   */\n      dup3\n        /* \"#utility.yul\":5096:5105   */\n      dup9\n        /* \"#utility.yul\":5092:5114   */\n      add\n        /* \"#utility.yul\":5071:5124   */\n      tag_178\n      jump\t// in\n    tag_240:\n        /* \"#utility.yul\":5061:5124   */\n      swap3\n      pop\n        /* \"#utility.yul\":5016:5134   */\n      pop\n        /* \"#utility.yul\":5201:5203   */\n      0x60\n        /* \"#utility.yul\":5190:5199   */\n      dup6\n        /* \"#utility.yul\":5186:5204   */\n      add\n        /* \"#utility.yul\":5173:5205   */\n      calldataload\n        /* \"#utility.yul\":5232:5250   */\n      0xffffffffffffffff\n        /* \"#utility.yul\":5224:5230   */\n      dup2\n        /* \"#utility.yul\":5221:5251   */\n      gt\n        /* \"#utility.yul\":5218:5335   */\n      iszero\n      tag_241\n      jumpi\n        /* \"#utility.yul\":5254:5333   */\n      tag_242\n      tag_227\n      jump\t// in\n    tag_242:\n        /* \"#utility.yul\":5218:5335   */\n    tag_241:\n        /* \"#utility.yul\":5359:5421   */\n      tag_243\n        /* \"#utility.yul\":5413:5420   */\n      dup8\n        /* \"#utility.yul\":5404:5410   */\n      dup3\n        /* \"#utility.yul\":5393:5402   */\n      dup9\n        /* \"#utility.yul\":5389:5411   */\n      add\n        /* \"#utility.yul\":5359:5421   */\n      tag_203\n      jump\t// in\n    tag_243:\n        /* \"#utility.yul\":5349:5421   */\n      swap2\n      pop\n        /* \"#utility.yul\":5144:5431   */\n      pop\n        /* \"#utility.yul\":4495:5438   */\n      swap3\n      swap6\n      swap2\n      swap5\n      pop\n      swap3\n      pop\n      jump\t// out\n        /* \"#utility.yul\":5444:6533   */\n    tag_69:\n        /* \"#utility.yul\":5548:5554   */\n      0x00\n        /* \"#utility.yul\":5556:5562   */\n      dup1\n        /* \"#utility.yul\":5564:5570   */\n      0x00\n        /* \"#utility.yul\":5572:5578   */\n      dup1\n        /* \"#utility.yul\":5580:5586   */\n      0x00\n        /* \"#utility.yul\":5629:5632   */\n      0xa0\n        /* \"#utility.yul\":5617:5626   */\n      dup7\n        /* \"#utility.yul\":5608:5615   */\n      dup9\n        /* \"#utility.yul\":5604:5627   */\n      sub\n        /* \"#utility.yul\":5600:5633   */\n      slt\n        /* \"#utility.yul\":5597:5717   */\n      iszero\n      tag_245\n      jumpi\n        /* \"#utility.yul\":5636:5715   */\n      tag_246\n      tag_217\n      jump\t// in\n    tag_246:\n        /* \"#utility.yul\":5597:5717   */\n    tag_245:\n        /* \"#utility.yul\":5756:5757   */\n      0x00\n        /* \"#utility.yul\":5781:5834   */\n      tag_247\n        /* \"#utility.yul\":5826:5833   */\n      dup9\n        /* \"#utility.yul\":5817:5823   */\n      dup3\n        /* \"#utility.yul\":5806:5815   */\n      dup10\n        /* \"#utility.yul\":5802:5824   */\n      add\n        /* \"#utility.yul\":5781:5834   */\n      tag_189\n      jump\t// in\n    tag_247:\n        /* \"#utility.yul\":5771:5834   */\n      swap6\n      pop\n        /* \"#utility.yul\":5727:5844   */\n      pop\n        /* \"#utility.yul\":5883:5885   */\n      0x20\n        /* \"#utility.yul\":5909:5962   */\n      tag_248\n        /* \"#utility.yul\":5954:5961   */\n      dup9\n        /* \"#utility.yul\":5945:5951   */\n      dup3\n        /* \"#utility.yul\":5934:5943   */\n      dup10\n        /* \"#utility.yul\":5930:5952   */\n      add\n        /* \"#utility.yul\":5909:5962   */\n      tag_189\n      jump\t// in\n    tag_248:\n        /* \"#utility.yul\":5899:5962   */\n      swap5\n      pop\n        /* \"#utility.yul\":5854:5972   */\n      pop\n        /* \"#utility.yul\":6011:6013   */\n      0x40\n        /* \"#utility.yul\":6037:6090   */\n      tag_249\n        /* \"#utility.yul\":6082:6089   */\n      dup9\n        /* \"#utility.yul\":6073:6079   */\n      dup3\n        /* \"#utility.yul\":6062:6071   */\n      dup10\n        /* \"#utility.yul\":6058:6080   */\n      add\n        /* \"#utility.yul\":6037:6090   */\n      tag_178\n      jump\t// in\n    tag_249:\n        /* \"#utility.yul\":6027:6090   */\n      swap4\n      pop\n        /* \"#utility.yul\":5982:6100   */\n      pop\n        /* \"#utility.yul\":6139:6141   */\n      0x60\n        /* \"#utility.yul\":6165:6218   */\n      tag_250\n        /* \"#utility.yul\":6210:6217   */\n      dup9\n        /* \"#utility.yul\":6201:6207   */\n      dup3\n        /* \"#utility.yul\":6190:6199   */\n      dup10\n        /* \"#utility.yul\":6186:6208   */\n      add\n        /* \"#utility.yul\":6165:6218   */\n      tag_178\n      jump\t// in\n    tag_250:\n        /* \"#utility.yul\":6155:6218   */\n      swap3\n      pop\n        /* \"#utility.yul\":6110:6228   */\n      pop\n        /* \"#utility.yul\":6295:6298   */\n      0x80\n        /* \"#utility.yul\":6284:6293   */\n      dup7\n        /* \"#utility.yul\":6280:6299   */\n      add\n        /* \"#utility.yul\":6267:6300   */\n      calldataload\n        /* \"#utility.yul\":6327:6345   */\n      0xffffffffffffffff\n        /* \"#utility.yul\":6319:6325   */\n      dup2\n        /* \"#utility.yul\":6316:6346   */\n      gt\n        /* \"#utility.yul\":6313:6430   */\n      iszero\n      tag_251\n      jumpi\n        /* \"#utility.yul\":6349:6428   */\n      tag_252\n      tag_227\n      jump\t// in\n    tag_252:\n        /* \"#utility.yul\":6313:6430   */\n    tag_251:\n        /* \"#utility.yul\":6454:6516   */\n      tag_253\n        /* \"#utility.yul\":6508:6515   */\n      dup9\n        /* \"#utility.yul\":6499:6505   */\n      dup3\n        /* \"#utility.yul\":6488:6497   */\n      dup10\n        /* \"#utility.yul\":6484:6506   */\n      add\n        /* \"#utility.yul\":6454:6516   */\n      tag_203\n      jump\t// in\n    tag_253:\n        /* \"#utility.yul\":6444:6516   */\n      swap2\n      pop\n        /* \"#utility.yul\":6238:6526   */\n      pop\n        /* \"#utility.yul\":5444:6533   */\n      swap3\n      swap6\n      pop\n      swap3\n      swap6\n      swap1\n      swap4\n      pop\n      jump\t// out\n        /* \"#utility.yul\":6539:7013   */\n    tag_27:\n        /* \"#utility.yul\":6607:6613   */\n      0x00\n        /* \"#utility.yul\":6615:6621   */\n      dup1\n        /* \"#utility.yul\":6664:6666   */\n      0x40\n        /* \"#utility.yul\":6652:6661   */\n      dup4\n        /* \"#utility.yul\":6643:6650   */\n      dup6\n        /* \"#utility.yul\":6639:6662   */\n      sub\n        /* \"#utility.yul\":6635:6667   */\n      slt\n        /* \"#utility.yul\":6632:6751   */\n      iszero\n      tag_255\n      jumpi\n        /* \"#utility.yul\":6670:6749   */\n      tag_256\n      tag_217\n      jump\t// in\n    tag_256:\n        /* \"#utility.yul\":6632:6751   */\n    tag_255:\n        /* \"#utility.yul\":6790:6791   */\n      0x00\n        /* \"#utility.yul\":6815:6868   */\n      tag_257\n        /* \"#utility.yul\":6860:6867   */\n      dup6\n        /* \"#utility.yul\":6851:6857   */\n      dup3\n        /* \"#utility.yul\":6840:6849   */\n      dup7\n        /* \"#utility.yul\":6836:6858   */\n      add\n        /* \"#utility.yul\":6815:6868   */\n      tag_189\n      jump\t// in\n    tag_257:\n        /* \"#utility.yul\":6805:6868   */\n      swap3\n      pop\n        /* \"#utility.yul\":6761:6878   */\n      pop\n        /* \"#utility.yul\":6917:6919   */\n      0x20\n        /* \"#utility.yul\":6943:6996   */\n      tag_258\n        /* \"#utility.yul\":6988:6995   */\n      dup6\n        /* \"#utility.yul\":6979:6985   */\n      dup3\n        /* \"#utility.yul\":6968:6977   */\n      dup7\n        /* \"#utility.yul\":6964:6986   */\n      add\n        /* \"#utility.yul\":6943:6996   */\n      tag_178\n      jump\t// in\n    tag_258:\n        /* \"#utility.yul\":6933:6996   */\n      swap2\n      pop\n        /* \"#utility.yul\":6888:7006   */\n      pop\n        /* \"#utility.yul\":6539:7013   */\n      swap3\n      pop\n      swap3\n      swap1\n      pop\n      jump\t// out\n        /* \"#utility.yul\":7019:7346   */\n    tag_20:\n        /* \"#utility.yul\":7077:7083   */\n      0x00\n        /* \"#utility.yul\":7126:7128   */\n      0x20\n        /* \"#utility.yul\":7114:7123   */\n      dup3\n        /* \"#utility.yul\":7105:7112   */\n      dup5\n        /* \"#utility.yul\":7101:7124   */\n      sub\n        /* \"#utility.yul\":7097:7129   */\n      slt\n        /* \"#utility.yul\":7094:7213   */\n      iszero\n      tag_260\n      jumpi\n        /* \"#utility.yul\":7132:7211   */\n      tag_261\n      tag_217\n      jump\t// in\n    tag_261:\n        /* \"#utility.yul\":7094:7213   */\n    tag_260:\n        /* \"#utility.yul\":7252:7253   */\n      0x00\n        /* \"#utility.yul\":7277:7329   */\n      tag_262\n        /* \"#utility.yul\":7321:7328   */\n      dup5\n        /* \"#utility.yul\":7312:7318   */\n      dup3\n        /* \"#utility.yul\":7301:7310   */\n      dup6\n        /* \"#utility.yul\":7297:7319   */\n      add\n        /* \"#utility.yul\":7277:7329   */\n      tag_199\n      jump\t// in\n    tag_262:\n        /* \"#utility.yul\":7267:7329   */\n      swap2\n      pop\n        /* \"#utility.yul\":7223:7339   */\n      pop\n        /* \"#utility.yul\":7019:7346   */\n      swap3\n      swap2\n      pop\n      pop\n      jump\t// out\n        /* \"#utility.yul\":7352:7703   */\n    tag_156:\n        /* \"#utility.yul\":7422:7428   */\n      0x00\n        /* \"#utility.yul\":7471:7473   */\n      0x20\n        /* \"#utility.yul\":7459:7468   */\n      dup3\n        /* \"#utility.yul\":7450:7457   */\n      dup5\n        /* \"#utility.yul\":7446:7469   */\n      sub\n        /* \"#utility.yul\":7442:7474   */\n      slt\n        /* \"#utility.yul\":7439:7558   */\n      iszero\n      tag_264\n      jumpi\n        /* \"#utility.yul\":7477:7556   */\n      tag_265\n      tag_217\n      jump\t// in\n    tag_265:\n        /* \"#utility.yul\":7439:7558   */\n    tag_264:\n        /* \"#utility.yul\":7597:7598   */\n      0x00\n        /* \"#utility.yul\":7622:7686   */\n      tag_266\n        /* \"#utility.yul\":7678:7685   */\n      dup5\n        /* \"#utility.yul\":7669:7675   */\n      dup3\n        /* \"#utility.yul\":7658:7667   */\n      dup6\n        /* \"#utility.yul\":7654:7676   */\n      add\n        /* \"#utility.yul\":7622:7686   */\n      tag_211\n      jump\t// in\n    tag_266:\n        /* \"#utility.yul\":7612:7686   */\n      swap2\n      pop\n        /* \"#utility.yul\":7568:7696   */\n      pop\n        /* \"#utility.yul\":7352:7703   */\n      swap3\n      swap2\n      pop\n      pop\n      jump\t// out\n        /* \"#utility.yul\":7709:7827   */\n    tag_267:\n        /* \"#utility.yul\":7796:7820   */\n      tag_269\n        /* \"#utility.yul\":7814:7819   */\n      dup2\n        /* \"#utility.yul\":7796:7820   */\n      tag_270\n      jump\t// in\n    tag_269:\n        /* \"#utility.yul\":7791:7794   */\n      dup3\n        /* \"#utility.yul\":7784:7821   */\n      mstore\n        /* \"#utility.yul\":7709:7827   */\n      pop\n      pop\n      jump\t// out\n        /* \"#utility.yul\":7833:7942   */\n    tag_271:\n        /* \"#utility.yul\":7914:7935   */\n      tag_273\n        /* \"#utility.yul\":7929:7934   */\n      dup2\n        /* \"#utility.yul\":7914:7935   */\n      tag_274\n      jump\t// in\n    tag_273:\n        /* \"#utility.yul\":7909:7912   */\n      dup3\n        /* \"#utility.yul\":7902:7936   */\n      mstore\n        /* \"#utility.yul\":7833:7942   */\n      pop\n      pop\n      jump\t// out\n        /* \"#utility.yul\":7948:8063   */\n    tag_275:\n        /* \"#utility.yul\":8033:8056   */\n      tag_277\n        /* \"#utility.yul\":8050:8055   */\n      dup2\n        /* \"#utility.yul\":8033:8056   */\n      tag_278\n      jump\t// in\n    tag_277:\n        /* \"#utility.yul\":8028:8031   */\n      dup3\n        /* \"#utility.yul\":8021:8057   */\n      mstore\n        /* \"#utility.yul\":7948:8063   */\n      pop\n      pop\n      jump\t// out\n        /* \"#utility.yul\":8069:8435   */\n    tag_279:\n        /* \"#utility.yul\":8211:8214   */\n      0x00\n        /* \"#utility.yul\":8232:8299   */\n      tag_281\n        /* \"#utility.yul\":8296:8298   */\n      0x1e\n        /* \"#utility.yul\":8291:8294   */\n      dup4\n        /* \"#utility.yul\":8232:8299   */\n      tag_282\n      jump\t// in\n    tag_281:\n        /* \"#utility.yul\":8225:8299   */\n      swap2\n      pop\n        /* \"#utility.yul\":8308:8401   */\n      tag_283\n        /* \"#utility.yul\":8397:8400   */\n      dup3\n        /* \"#utility.yul\":8308:8401   */\n      tag_284\n      jump\t// in\n    tag_283:\n        /* \"#utility.yul\":8426:8428   */\n      0x20\n        /* \"#utility.yul\":8421:8424   */\n      dup3\n        /* \"#utility.yul\":8417:8429   */\n      add\n        /* \"#utility.yul\":8410:8429   */\n      swap1\n      pop\n        /* \"#utility.yul\":8069:8435   */\n      swap2\n      swap1\n      pop\n      jump\t// out\n        /* \"#utility.yul\":8441:8807   */\n    tag_285:\n        /* \"#utility.yul\":8583:8586   */\n      0x00\n        /* \"#utility.yul\":8604:8671   */\n      tag_287\n        /* \"#utility.yul\":8668:8670   */\n      0x1e\n        /* \"#utility.yul\":8663:8666   */\n      dup4\n        /* \"#utility.yul\":8604:8671   */\n      tag_282\n      jump\t// in\n    tag_287:\n        /* \"#utility.yul\":8597:8671   */\n      swap2\n      pop\n        /* \"#utility.yul\":8680:8773   */\n      tag_288\n        /* \"#utility.yul\":8769:8772   */\n      dup3\n        /* \"#utility.yul\":8680:8773   */\n      tag_289\n      jump\t// in\n    tag_288:\n        /* \"#utility.yul\":8798:8800   */\n      0x20\n        /* \"#utility.yul\":8793:8796   */\n      dup3\n        /* \"#utility.yul\":8789:8801   */\n      add\n        /* \"#utility.yul\":8782:8801   */\n      swap1\n      pop\n        /* \"#utility.yul\":8441:8807   */\n      swap2\n      swap1\n      pop\n      jump\t// out\n        /* \"#utility.yul\":8813:9179   */\n    tag_290:\n        /* \"#utility.yul\":8955:8958   */\n      0x00\n        /* \"#utility.yul\":8976:9043   */\n      tag_292\n        /* \"#utility.yul\":9040:9042   */\n      0x20\n        /* \"#utility.yul\":9035:9038   */\n      dup4\n        /* \"#utility.yul\":8976:9043   */\n      tag_282\n      jump\t// in\n    tag_292:\n        /* \"#utility.yul\":8969:9043   */\n      swap2\n      pop\n        /* \"#utility.yul\":9052:9145   */\n      tag_293\n        /* \"#utility.yul\":9141:9144   */\n      dup3\n        /* \"#utility.yul\":9052:9145   */\n      tag_294\n      jump\t// in\n    tag_293:\n        /* \"#utility.yul\":9170:9172   */\n      0x20\n        /* \"#utility.yul\":9165:9168   */\n      dup3\n        /* \"#utility.yul\":9161:9173   */\n      add\n        /* \"#utility.yul\":9154:9173   */\n      swap1\n      pop\n        /* \"#utility.yul\":8813:9179   */\n      swap2\n      swap1\n      pop\n      jump\t// out\n        /* \"#utility.yul\":9185:9551   */\n    tag_295:\n        /* \"#utility.yul\":9327:9330   */\n      0x00\n        /* \"#utility.yul\":9348:9415   */\n      tag_297\n        /* \"#utility.yul\":9412:9414   */\n      0x1c\n        /* \"#utility.yul\":9407:9410   */\n      dup4\n        /* \"#utility.yul\":9348:9415   */\n      tag_282\n      jump\t// in\n    tag_297:\n        /* \"#utility.yul\":9341:9415   */\n      swap2\n      pop\n        /* \"#utility.yul\":9424:9517   */\n      tag_298\n        /* \"#utility.yul\":9513:9516   */\n      dup3\n        /* \"#utility.yul\":9424:9517   */\n      tag_299\n      jump\t// in\n    tag_298:\n        /* \"#utility.yul\":9542:9544   */\n      0x20\n        /* \"#utility.yul\":9537:9540   */\n      dup3\n        /* \"#utility.yul\":9533:9545   */\n      add\n        /* \"#utility.yul\":9526:9545   */\n      swap1\n      pop\n        /* \"#utility.yul\":9185:9551   */\n      swap2\n      swap1\n      pop\n      jump\t// out\n        /* \"#utility.yul\":9557:9923   */\n    tag_300:\n        /* \"#utility.yul\":9699:9702   */\n      0x00\n        /* \"#utility.yul\":9720:9787   */\n      tag_302\n        /* \"#utility.yul\":9784:9786   */\n      0x2e\n        /* \"#utility.yul\":9779:9782   */\n      dup4\n        /* \"#utility.yul\":9720:9787   */\n      tag_282\n      jump\t// in\n    tag_302:\n        /* \"#utility.yul\":9713:9787   */\n      swap2\n      pop\n        /* \"#utility.yul\":9796:9889   */\n      tag_303\n        /* \"#utility.yul\":9885:9888   */\n      dup3\n        /* \"#utility.yul\":9796:9889   */\n      tag_304\n      jump\t// in\n    tag_303:\n        /* \"#utility.yul\":9914:9916   */\n      0x40\n        /* \"#utility.yul\":9909:9912   */\n      dup3\n        /* \"#utility.yul\":9905:9917   */\n      add\n        /* \"#utility.yul\":9898:9917   */\n      swap1\n      pop\n        /* \"#utility.yul\":9557:9923   */\n      swap2\n      swap1\n      pop\n      jump\t// out\n        /* \"#utility.yul\":9929:10291   */\n    tag_305:\n        /* \"#utility.yul\":10070:10073   */\n      0x00\n        /* \"#utility.yul\":10091:10156   */\n      tag_307\n        /* \"#utility.yul\":10154:10155   */\n      0x00\n        /* \"#utility.yul\":10149:10152   */\n      dup4\n        /* \"#utility.yul\":10091:10156   */\n      tag_308\n      jump\t// in\n    tag_307:\n        /* \"#utility.yul\":10084:10156   */\n      swap2\n      pop\n        /* \"#utility.yul\":10165:10258   */\n      tag_309\n        /* \"#utility.yul\":10254:10257   */\n      dup3\n        /* \"#utility.yul\":10165:10258   */\n      tag_310\n      jump\t// in\n    tag_309:\n        /* \"#utility.yul\":10283:10284   */\n      0x00\n        /* \"#utility.yul\":10278:10281   */\n      dup3\n        /* \"#utility.yul\":10274:10285   */\n      add\n        /* \"#utility.yul\":10267:10285   */\n      swap1\n      pop\n        /* \"#utility.yul\":9929:10291   */\n      swap2\n      swap1\n      pop\n      jump\t// out\n        /* \"#utility.yul\":10297:10415   */\n    tag_311:\n        /* \"#utility.yul\":10384:10408   */\n      tag_313\n        /* \"#utility.yul\":10402:10407   */\n      dup2\n        /* \"#utility.yul\":10384:10408   */\n      tag_314\n      jump\t// in\n    tag_313:\n        /* \"#utility.yul\":10379:10382   */\n      dup3\n        /* \"#utility.yul\":10372:10409   */\n      mstore\n        /* \"#utility.yul\":10297:10415   */\n      pop\n      pop\n      jump\t// out\n        /* \"#utility.yul\":10421:10643   */\n    tag_54:\n        /* \"#utility.yul\":10514:10518   */\n      0x00\n        /* \"#utility.yul\":10552:10554   */\n      0x20\n        /* \"#utility.yul\":10541:10550   */\n      dup3\n        /* \"#utility.yul\":10537:10555   */\n      add\n        /* \"#utility.yul\":10529:10555   */\n      swap1\n      pop\n        /* \"#utility.yul\":10565:10636   */\n      tag_316\n        /* \"#utility.yul\":10633:10634   */\n      0x00\n        /* \"#utility.yul\":10622:10631   */\n      dup4\n        /* \"#utility.yul\":10618:10635   */\n      add\n        /* \"#utility.yul\":10609:10615   */\n      dup5\n        /* \"#utility.yul\":10565:10636   */\n      tag_267\n      jump\t// in\n    tag_316:\n        /* \"#utility.yul\":10421:10643   */\n      swap3\n      swap2\n      pop\n      pop\n      jump\t// out\n        /* \"#utility.yul\":10649:11091   */\n    tag_141:\n        /* \"#utility.yul\":10798:10802   */\n      0x00\n        /* \"#utility.yul\":10836:10838   */\n      0x60\n        /* \"#utility.yul\":10825:10834   */\n      dup3\n        /* \"#utility.yul\":10821:10839   */\n      add\n        /* \"#utility.yul\":10813:10839   */\n      swap1\n      pop\n        /* \"#utility.yul\":10849:10920   */\n      tag_318\n        /* \"#utility.yul\":10917:10918   */\n      0x00\n        /* \"#utility.yul\":10906:10915   */\n      dup4\n        /* \"#utility.yul\":10902:10919   */\n      add\n        /* \"#utility.yul\":10893:10899   */\n      dup7\n        /* \"#utility.yul\":10849:10920   */\n      tag_267\n      jump\t// in\n    tag_318:\n        /* \"#utility.yul\":10930:11002   */\n      tag_319\n        /* \"#utility.yul\":10998:11000   */\n      0x20\n        /* \"#utility.yul\":10987:10996   */\n      dup4\n        /* \"#utility.yul\":10983:11001   */\n      add\n        /* \"#utility.yul\":10974:10980   */\n      dup6\n        /* \"#utility.yul\":10930:11002   */\n      tag_267\n      jump\t// in\n    tag_319:\n        /* \"#utility.yul\":11012:11084   */\n      tag_320\n        /* \"#utility.yul\":11080:11082   */\n      0x40\n        /* \"#utility.yul\":11069:11078   */\n      dup4\n        /* \"#utility.yul\":11065:11083   */\n      add\n        /* \"#utility.yul\":11056:11062   */\n      dup5\n        /* \"#utility.yul\":11012:11084   */\n      tag_311\n      jump\t// in\n    tag_320:\n        /* \"#utility.yul\":10649:11091   */\n      swap5\n      swap4\n      pop\n      pop\n      pop\n      pop\n      jump\t// out\n        /* \"#utility.yul\":11097:11956   */\n    tag_159:\n        /* \"#utility.yul\":11374:11378   */\n      0x00\n        /* \"#utility.yul\":11412:11415   */\n      0xa0\n        /* \"#utility.yul\":11401:11410   */\n      dup3\n        /* \"#utility.yul\":11397:11416   */\n      add\n        /* \"#utility.yul\":11389:11416   */\n      swap1\n      pop\n        /* \"#utility.yul\":11426:11497   */\n      tag_322\n        /* \"#utility.yul\":11494:11495   */\n      0x00\n        /* \"#utility.yul\":11483:11492   */\n      dup4\n        /* \"#utility.yul\":11479:11496   */\n      add\n        /* \"#utility.yul\":11470:11476   */\n      dup8\n        /* \"#utility.yul\":11426:11497   */\n      tag_267\n      jump\t// in\n    tag_322:\n        /* \"#utility.yul\":11507:11579   */\n      tag_323\n        /* \"#utility.yul\":11575:11577   */\n      0x20\n        /* \"#utility.yul\":11564:11573   */\n      dup4\n        /* \"#utility.yul\":11560:11578   */\n      add\n        /* \"#utility.yul\":11551:11557   */\n      dup7\n        /* \"#utility.yul\":11507:11579   */\n      tag_267\n      jump\t// in\n    tag_323:\n        /* \"#utility.yul\":11589:11661   */\n      tag_324\n        /* \"#utility.yul\":11657:11659   */\n      0x40\n        /* \"#utility.yul\":11646:11655   */\n      dup4\n        /* \"#utility.yul\":11642:11660   */\n      add\n        /* \"#utility.yul\":11633:11639   */\n      dup6\n        /* \"#utility.yul\":11589:11661   */\n      tag_311\n      jump\t// in\n    tag_324:\n        /* \"#utility.yul\":11671:11743   */\n      tag_325\n        /* \"#utility.yul\":11739:11741   */\n      0x60\n        /* \"#utility.yul\":11728:11737   */\n      dup4\n        /* \"#utility.yul\":11724:11742   */\n      add\n        /* \"#utility.yul\":11715:11721   */\n      dup5\n        /* \"#utility.yul\":11671:11743   */\n      tag_311\n      jump\t// in\n    tag_325:\n        /* \"#utility.yul\":11791:11800   */\n      dup2\n        /* \"#utility.yul\":11785:11789   */\n      dup2\n        /* \"#utility.yul\":11781:11801   */\n      sub\n        /* \"#utility.yul\":11775:11778   */\n      0x80\n        /* \"#utility.yul\":11764:11773   */\n      dup4\n        /* \"#utility.yul\":11760:11779   */\n      add\n        /* \"#utility.yul\":11753:11802   */\n      mstore\n        /* \"#utility.yul\":11819:11949   */\n      tag_326\n        /* \"#utility.yul\":11944:11948   */\n      dup2\n        /* \"#utility.yul\":11819:11949   */\n      tag_305\n      jump\t// in\n    tag_326:\n        /* \"#utility.yul\":11811:11949   */\n      swap1\n      pop\n        /* \"#utility.yul\":11097:11956   */\n      swap6\n      swap5\n      pop\n      pop\n      pop\n      pop\n      pop\n      jump\t// out\n        /* \"#utility.yul\":11962:12294   */\n    tag_151:\n        /* \"#utility.yul\":12083:12087   */\n      0x00\n        /* \"#utility.yul\":12121:12123   */\n      0x40\n        /* \"#utility.yul\":12110:12119   */\n      dup3\n        /* \"#utility.yul\":12106:12124   */\n      add\n        /* \"#utility.yul\":12098:12124   */\n      swap1\n      pop\n        /* \"#utility.yul\":12134:12205   */\n      tag_328\n        /* \"#utility.yul\":12202:12203   */\n      0x00\n        /* \"#utility.yul\":12191:12200   */\n      dup4\n        /* \"#utility.yul\":12187:12204   */\n      add\n        /* \"#utility.yul\":12178:12184   */\n      dup6\n        /* \"#utility.yul\":12134:12205   */\n      tag_267\n      jump\t// in\n    tag_328:\n        /* \"#utility.yul\":12215:12287   */\n      tag_329\n        /* \"#utility.yul\":12283:12285   */\n      0x20\n        /* \"#utility.yul\":12272:12281   */\n      dup4\n        /* \"#utility.yul\":12268:12286   */\n      add\n        /* \"#utility.yul\":12259:12265   */\n      dup5\n        /* \"#utility.yul\":12215:12287   */\n      tag_311\n      jump\t// in\n    tag_329:\n        /* \"#utility.yul\":11962:12294   */\n      swap4\n      swap3\n      pop\n      pop\n      pop\n      jump\t// out\n        /* \"#utility.yul\":12300:12510   */\n    tag_23:\n        /* \"#utility.yul\":12387:12391   */\n      0x00\n        /* \"#utility.yul\":12425:12427   */\n      0x20\n        /* \"#utility.yul\":12414:12423   */\n      dup3\n        /* \"#utility.yul\":12410:12428   */\n      add\n        /* \"#utility.yul\":12402:12428   */\n      swap1\n      pop\n        /* \"#utility.yul\":12438:12503   */\n      tag_331\n        /* \"#utility.yul\":12500:12501   */\n      0x00\n        /* \"#utility.yul\":12489:12498   */\n      dup4\n        /* \"#utility.yul\":12485:12502   */\n      add\n        /* \"#utility.yul\":12476:12482   */\n      dup5\n        /* \"#utility.yul\":12438:12503   */\n      tag_271\n      jump\t// in\n    tag_331:\n        /* \"#utility.yul\":12300:12510   */\n      swap3\n      swap2\n      pop\n      pop\n      jump\t// out\n        /* \"#utility.yul\":12516:12734   */\n    tag_35:\n        /* \"#utility.yul\":12607:12611   */\n      0x00\n        /* \"#utility.yul\":12645:12647   */\n      0x20\n        /* \"#utility.yul\":12634:12643   */\n      dup3\n        /* \"#utility.yul\":12630:12648   */\n      add\n        /* \"#utility.yul\":12622:12648   */\n      swap1\n      pop\n        /* \"#utility.yul\":12658:12727   */\n      tag_333\n        /* \"#utility.yul\":12724:12725   */\n      0x00\n        /* \"#utility.yul\":12713:12722   */\n      dup4\n        /* \"#utility.yul\":12709:12726   */\n      add\n        /* \"#utility.yul\":12700:12706   */\n      dup5\n        /* \"#utility.yul\":12658:12727   */\n      tag_275\n      jump\t// in\n    tag_333:\n        /* \"#utility.yul\":12516:12734   */\n      swap3\n      swap2\n      pop\n      pop\n      jump\t// out\n        /* \"#utility.yul\":12740:13159   */\n    tag_127:\n        /* \"#utility.yul\":12906:12910   */\n      0x00\n        /* \"#utility.yul\":12944:12946   */\n      0x20\n        /* \"#utility.yul\":12933:12942   */\n      dup3\n        /* \"#utility.yul\":12929:12947   */\n      add\n        /* \"#utility.yul\":12921:12947   */\n      swap1\n      pop\n        /* \"#utility.yul\":12993:13002   */\n      dup2\n        /* \"#utility.yul\":12987:12991   */\n      dup2\n        /* \"#utility.yul\":12983:13003   */\n      sub\n        /* \"#utility.yul\":12979:12980   */\n      0x00\n        /* \"#utility.yul\":12968:12977   */\n      dup4\n        /* \"#utility.yul\":12964:12981   */\n      add\n        /* \"#utility.yul\":12957:13004   */\n      mstore\n        /* \"#utility.yul\":13021:13152   */\n      tag_335\n        /* \"#utility.yul\":13147:13151   */\n      dup2\n        /* \"#utility.yul\":13021:13152   */\n      tag_279\n      jump\t// in\n    tag_335:\n        /* \"#utility.yul\":13013:13152   */\n      swap1\n      pop\n        /* \"#utility.yul\":12740:13159   */\n      swap2\n      swap1\n      pop\n      jump\t// out\n        /* \"#utility.yul\":13165:13584   */\n    tag_124:\n        /* \"#utility.yul\":13331:13335   */\n      0x00\n        /* \"#utility.yul\":13369:13371   */\n      0x20\n        /* \"#utility.yul\":13358:13367   */\n      dup3\n        /* \"#utility.yul\":13354:13372   */\n      add\n        /* \"#utility.yul\":13346:13372   */\n      swap1\n      pop\n        /* \"#utility.yul\":13418:13427   */\n      dup2\n        /* \"#utility.yul\":13412:13416   */\n      dup2\n        /* \"#utility.yul\":13408:13428   */\n      sub\n        /* \"#utility.yul\":13404:13405   */\n      0x00\n        /* \"#utility.yul\":13393:13402   */\n      dup4\n        /* \"#utility.yul\":13389:13406   */\n      add\n        /* \"#utility.yul\":13382:13429   */\n      mstore\n        /* \"#utility.yul\":13446:13577   */\n      tag_337\n        /* \"#utility.yul\":13572:13576   */\n      dup2\n        /* \"#utility.yul\":13446:13577   */\n      tag_285\n      jump\t// in\n    tag_337:\n        /* \"#utility.yul\":13438:13577   */\n      swap1\n      pop\n        /* \"#utility.yul\":13165:13584   */\n      swap2\n      swap1\n      pop\n      jump\t// out\n        /* \"#utility.yul\":13590:14009   */\n    tag_82:\n        /* \"#utility.yul\":13756:13760   */\n      0x00\n        /* \"#utility.yul\":13794:13796   */\n      0x20\n        /* \"#utility.yul\":13783:13792   */\n      dup3\n        /* \"#utility.yul\":13779:13797   */\n      add\n        /* \"#utility.yul\":13771:13797   */\n      swap1\n      pop\n        /* \"#utility.yul\":13843:13852   */\n      dup2\n        /* \"#utility.yul\":13837:13841   */\n      dup2\n        /* \"#utility.yul\":13833:13853   */\n      sub\n        /* \"#utility.yul\":13829:13830   */\n      0x00\n        /* \"#utility.yul\":13818:13827   */\n      dup4\n        /* \"#utility.yul\":13814:13831   */\n      add\n        /* \"#utility.yul\":13807:13854   */\n      mstore\n        /* \"#utility.yul\":13871:14002   */\n      tag_339\n        /* \"#utility.yul\":13997:14001   */\n      dup2\n        /* \"#utility.yul\":13871:14002   */\n      tag_290\n      jump\t// in\n    tag_339:\n        /* \"#utility.yul\":13863:14002   */\n      swap1\n      pop\n        /* \"#utility.yul\":13590:14009   */\n      swap2\n      swap1\n      pop\n      jump\t// out\n        /* \"#utility.yul\":14015:14434   */\n    tag_133:\n        /* \"#utility.yul\":14181:14185   */\n      0x00\n        /* \"#utility.yul\":14219:14221   */\n      0x20\n        /* \"#utility.yul\":14208:14217   */\n      dup3\n        /* \"#utility.yul\":14204:14222   */\n      add\n        /* \"#utility.yul\":14196:14222   */\n      swap1\n      pop\n        /* \"#utility.yul\":14268:14277   */\n      dup2\n        /* \"#utility.yul\":14262:14266   */\n      dup2\n        /* \"#utility.yul\":14258:14278   */\n      sub\n        /* \"#utility.yul\":14254:14255   */\n      0x00\n        /* \"#utility.yul\":14243:14252   */\n      dup4\n        /* \"#utility.yul\":14239:14256   */\n      add\n        /* \"#utility.yul\":14232:14279   */\n      mstore\n        /* \"#utility.yul\":14296:14427   */\n      tag_341\n        /* \"#utility.yul\":14422:14426   */\n      dup2\n        /* \"#utility.yul\":14296:14427   */\n      tag_295\n      jump\t// in\n    tag_341:\n        /* \"#utility.yul\":14288:14427   */\n      swap1\n      pop\n        /* \"#utility.yul\":14015:14434   */\n      swap2\n      swap1\n      pop\n      jump\t// out\n        /* \"#utility.yul\":14440:14859   */\n    tag_130:\n        /* \"#utility.yul\":14606:14610   */\n      0x00\n        /* \"#utility.yul\":14644:14646   */\n      0x20\n        /* \"#utility.yul\":14633:14642   */\n      dup3\n        /* \"#utility.yul\":14629:14647   */\n      add\n        /* \"#utility.yul\":14621:14647   */\n      swap1\n      pop\n        /* \"#utility.yul\":14693:14702   */\n      dup2\n        /* \"#utility.yul\":14687:14691   */\n      dup2\n        /* \"#utility.yul\":14683:14703   */\n      sub\n        /* \"#utility.yul\":14679:14680   */\n      0x00\n        /* \"#utility.yul\":14668:14677   */\n      dup4\n        /* \"#utility.yul\":14664:14681   */\n      add\n        /* \"#utility.yul\":14657:14704   */\n      mstore\n        /* \"#utility.yul\":14721:14852   */\n      tag_343\n        /* \"#utility.yul\":14847:14851   */\n      dup2\n        /* \"#utility.yul\":14721:14852   */\n      tag_300\n      jump\t// in\n    tag_343:\n        /* \"#utility.yul\":14713:14852   */\n      swap1\n      pop\n        /* \"#utility.yul\":14440:14859   */\n      swap2\n      swap1\n      pop\n      jump\t// out\n        /* \"#utility.yul\":14865:14994   */\n    tag_170:\n        /* \"#utility.yul\":14899:14905   */\n      0x00\n        /* \"#utility.yul\":14926:14946   */\n      tag_345\n      tag_346\n      jump\t// in\n    tag_345:\n        /* \"#utility.yul\":14916:14946   */\n      swap1\n      pop\n        /* \"#utility.yul\":14955:14988   */\n      tag_347\n        /* \"#utility.yul\":14983:14987   */\n      dup3\n        /* \"#utility.yul\":14975:14981   */\n      dup3\n        /* \"#utility.yul\":14955:14988   */\n      tag_348\n      jump\t// in\n    tag_347:\n        /* \"#utility.yul\":14865:14994   */\n      swap2\n      swap1\n      pop\n      jump\t// out\n        /* \"#utility.yul\":15000:15075   */\n    tag_346:\n        /* \"#utility.yul\":15033:15039   */\n      0x00\n        /* \"#utility.yul\":15066:15068   */\n      0x40\n        /* \"#utility.yul\":15060:15069   */\n      mload\n        /* \"#utility.yul\":15050:15069   */\n      swap1\n      pop\n        /* \"#utility.yul\":15000:15075   */\n      swap1\n      jump\t// out\n        /* \"#utility.yul\":15081:15392   */\n    tag_169:\n        /* \"#utility.yul\":15158:15162   */\n      0x00\n        /* \"#utility.yul\":15248:15266   */\n      0xffffffffffffffff\n        /* \"#utility.yul\":15240:15246   */\n      dup3\n        /* \"#utility.yul\":15237:15267   */\n      gt\n        /* \"#utility.yul\":15234:15290   */\n      iszero\n      tag_351\n      jumpi\n        /* \"#utility.yul\":15270:15288   */\n      tag_352\n      tag_353\n      jump\t// in\n    tag_352:\n        /* \"#utility.yul\":15234:15290   */\n    tag_351:\n        /* \"#utility.yul\":15320:15324   */\n      0x20\n        /* \"#utility.yul\":15312:15318   */\n      dup3\n        /* \"#utility.yul\":15308:15325   */\n      mul\n        /* \"#utility.yul\":15300:15325   */\n      swap1\n      pop\n        /* \"#utility.yul\":15380:15384   */\n      0x20\n        /* \"#utility.yul\":15374:15378   */\n      dup2\n        /* \"#utility.yul\":15370:15385   */\n      add\n        /* \"#utility.yul\":15362:15385   */\n      swap1\n      pop\n        /* \"#utility.yul\":15081:15392   */\n      swap2\n      swap1\n      pop\n      jump\t// out\n        /* \"#utility.yul\":15398:15705   */\n    tag_183:\n        /* \"#utility.yul\":15459:15463   */\n      0x00\n        /* \"#utility.yul\":15549:15567   */\n      0xffffffffffffffff\n        /* \"#utility.yul\":15541:15547   */\n      dup3\n        /* \"#utility.yul\":15538:15568   */\n      gt\n        /* \"#utility.yul\":15535:15591   */\n      iszero\n      tag_355\n      jumpi\n        /* \"#utility.yul\":15571:15589   */\n      tag_356\n      tag_353\n      jump\t// in\n    tag_356:\n        /* \"#utility.yul\":15535:15591   */\n    tag_355:\n        /* \"#utility.yul\":15609:15638   */\n      tag_357\n        /* \"#utility.yul\":15631:15637   */\n      dup3\n        /* \"#utility.yul\":15609:15638   */\n      tag_358\n      jump\t// in\n    tag_357:\n        /* \"#utility.yul\":15601:15638   */\n      swap1\n      pop\n        /* \"#utility.yul\":15693:15697   */\n      0x20\n        /* \"#utility.yul\":15687:15691   */\n      dup2\n        /* \"#utility.yul\":15683:15698   */\n      add\n        /* \"#utility.yul\":15675:15698   */\n      swap1\n      pop\n        /* \"#utility.yul\":15398:15705   */\n      swap2\n      swap1\n      pop\n      jump\t// out\n        /* \"#utility.yul\":15711:15879   */\n    tag_308:\n        /* \"#utility.yul\":15794:15805   */\n      0x00\n        /* \"#utility.yul\":15828:15834   */\n      dup3\n        /* \"#utility.yul\":15823:15826   */\n      dup3\n        /* \"#utility.yul\":15816:15835   */\n      mstore\n        /* \"#utility.yul\":15868:15872   */\n      0x20\n        /* \"#utility.yul\":15863:15866   */\n      dup3\n        /* \"#utility.yul\":15859:15873   */\n      add\n        /* \"#utility.yul\":15844:15873   */\n      swap1\n      pop\n        /* \"#utility.yul\":15711:15879   */\n      swap3\n      swap2\n      pop\n      pop\n      jump\t// out\n        /* \"#utility.yul\":15885:16054   */\n    tag_282:\n        /* \"#utility.yul\":15969:15980   */\n      0x00\n        /* \"#utility.yul\":16003:16009   */\n      dup3\n        /* \"#utility.yul\":15998:16001   */\n      dup3\n        /* \"#utility.yul\":15991:16010   */\n      mstore\n        /* \"#utility.yul\":16043:16047   */\n      0x20\n        /* \"#utility.yul\":16038:16041   */\n      dup3\n        /* \"#utility.yul\":16034:16048   */\n      add\n        /* \"#utility.yul\":16019:16048   */\n      swap1\n      pop\n        /* \"#utility.yul\":15885:16054   */\n      swap3\n      swap2\n      pop\n      pop\n      jump\t// out\n        /* \"#utility.yul\":16060:16156   */\n    tag_270:\n        /* \"#utility.yul\":16097:16104   */\n      0x00\n        /* \"#utility.yul\":16126:16150   */\n      tag_362\n        /* \"#utility.yul\":16144:16149   */\n      dup3\n        /* \"#utility.yul\":16126:16150   */\n      tag_363\n      jump\t// in\n    tag_362:\n        /* \"#utility.yul\":16115:16150   */\n      swap1\n      pop\n        /* \"#utility.yul\":16060:16156   */\n      swap2\n      swap1\n      pop\n      jump\t// out\n        /* \"#utility.yul\":16162:16252   */\n    tag_274:\n        /* \"#utility.yul\":16196:16203   */\n      0x00\n        /* \"#utility.yul\":16239:16244   */\n      dup2\n        /* \"#utility.yul\":16232:16245   */\n      iszero\n        /* \"#utility.yul\":16225:16246   */\n      iszero\n        /* \"#utility.yul\":16214:16246   */\n      swap1\n      pop\n        /* \"#utility.yul\":16162:16252   */\n      swap2\n      swap1\n      pop\n      jump\t// out\n        /* \"#utility.yul\":16258:16407   */\n    tag_278:\n        /* \"#utility.yul\":16294:16301   */\n      0x00\n        /* \"#utility.yul\":16334:16400   */\n      0xffffffff00000000000000000000000000000000000000000000000000000000\n        /* \"#utility.yul\":16327:16332   */\n      dup3\n        /* \"#utility.yul\":16323:16401   */\n      and\n        /* \"#utility.yul\":16312:16401   */\n      swap1\n      pop\n        /* \"#utility.yul\":16258:16407   */\n      swap2\n      swap1\n      pop\n      jump\t// out\n        /* \"#utility.yul\":16413:16539   */\n    tag_363:\n        /* \"#utility.yul\":16450:16457   */\n      0x00\n        /* \"#utility.yul\":16490:16532   */\n      0xffffffffffffffffffffffffffffffffffffffff\n        /* \"#utility.yul\":16483:16488   */\n      dup3\n        /* \"#utility.yul\":16479:16533   */\n      and\n        /* \"#utility.yul\":16468:16533   */\n      swap1\n      pop\n        /* \"#utility.yul\":16413:16539   */\n      swap2\n      swap1\n      pop\n      jump\t// out\n        /* \"#utility.yul\":16545:16622   */\n    tag_314:\n        /* \"#utility.yul\":16582:16589   */\n      0x00\n        /* \"#utility.yul\":16611:16616   */\n      dup2\n        /* \"#utility.yul\":16600:16616   */\n      swap1\n      pop\n        /* \"#utility.yul\":16545:16622   */\n      swap2\n      swap1\n      pop\n      jump\t// out\n        /* \"#utility.yul\":16628:16782   */\n    tag_188:\n        /* \"#utility.yul\":16712:16718   */\n      dup3\n        /* \"#utility.yul\":16707:16710   */\n      dup2\n        /* \"#utility.yul\":16702:16705   */\n      dup4\n        /* \"#utility.yul\":16689:16719   */\n      calldatacopy\n        /* \"#utility.yul\":16774:16775   */\n      0x00\n        /* \"#utility.yul\":16765:16771   */\n      dup4\n        /* \"#utility.yul\":16760:16763   */\n      dup4\n        /* \"#utility.yul\":16756:16772   */\n      add\n        /* \"#utility.yul\":16749:16776   */\n      mstore\n        /* \"#utility.yul\":16628:16782   */\n      pop\n      pop\n      pop\n      jump\t// out\n        /* \"#utility.yul\":16788:17069   */\n    tag_348:\n        /* \"#utility.yul\":16871:16898   */\n      tag_370\n        /* \"#utility.yul\":16893:16897   */\n      dup3\n        /* \"#utility.yul\":16871:16898   */\n      tag_358\n      jump\t// in\n    tag_370:\n        /* \"#utility.yul\":16863:16869   */\n      dup2\n        /* \"#utility.yul\":16859:16899   */\n      add\n        /* \"#utility.yul\":17001:17007   */\n      dup2\n        /* \"#utility.yul\":16989:16999   */\n      dup2\n        /* \"#utility.yul\":16986:17008   */\n      lt\n        /* \"#utility.yul\":16965:16983   */\n      0xffffffffffffffff\n        /* \"#utility.yul\":16953:16963   */\n      dup3\n        /* \"#utility.yul\":16950:16984   */\n      gt\n        /* \"#utility.yul\":16947:17009   */\n      or\n        /* \"#utility.yul\":16944:17032   */\n      iszero\n      tag_371\n      jumpi\n        /* \"#utility.yul\":17012:17030   */\n      tag_372\n      tag_353\n      jump\t// in\n    tag_372:\n        /* \"#utility.yul\":16944:17032   */\n    tag_371:\n        /* \"#utility.yul\":17052:17062   */\n      dup1\n        /* \"#utility.yul\":17048:17050   */\n      0x40\n        /* \"#utility.yul\":17041:17063   */\n      mstore\n        /* \"#utility.yul\":16831:17069   */\n      pop\n        /* \"#utility.yul\":16788:17069   */\n      pop\n      pop\n      jump\t// out\n        /* \"#utility.yul\":17075:17255   */\n    tag_353:\n        /* \"#utility.yul\":17123:17200   */\n      0x4e487b7100000000000000000000000000000000000000000000000000000000\n        /* \"#utility.yul\":17120:17121   */\n      0x00\n        /* \"#utility.yul\":17113:17201   */\n      mstore\n        /* \"#utility.yul\":17220:17224   */\n      0x41\n        /* \"#utility.yul\":17217:17218   */\n      0x04\n        /* \"#utility.yul\":17210:17225   */\n      mstore\n        /* \"#utility.yul\":17244:17248   */\n      0x24\n        /* \"#utility.yul\":17241:17242   */\n      0x00\n        /* \"#utility.yul\":17234:17249   */\n      revert\n        /* \"#utility.yul\":17261:17378   */\n    tag_197:\n        /* \"#utility.yul\":17370:17371   */\n      0x00\n        /* \"#utility.yul\":17367:17368   */\n      dup1\n        /* \"#utility.yul\":17360:17372   */\n      revert\n        /* \"#utility.yul\":17384:17501   */\n    tag_173:\n        /* \"#utility.yul\":17493:17494   */\n      0x00\n        /* \"#utility.yul\":17490:17491   */\n      dup1\n        /* \"#utility.yul\":17483:17495   */\n      revert\n        /* \"#utility.yul\":17507:17624   */\n    tag_186:\n        /* \"#utility.yul\":17616:17617   */\n      0x00\n        /* \"#utility.yul\":17613:17614   */\n      dup1\n        /* \"#utility.yul\":17606:17618   */\n      revert\n        /* \"#utility.yul\":17630:17747   */\n    tag_227:\n        /* \"#utility.yul\":17739:17740   */\n      0x00\n        /* \"#utility.yul\":17736:17737   */\n      dup1\n        /* \"#utility.yul\":17729:17741   */\n      revert\n        /* \"#utility.yul\":17753:17870   */\n    tag_217:\n        /* \"#utility.yul\":17862:17863   */\n      0x00\n        /* \"#utility.yul\":17859:17860   */\n      dup1\n        /* \"#utility.yul\":17852:17864   */\n      revert\n        /* \"#utility.yul\":17876:17978   */\n    tag_358:\n        /* \"#utility.yul\":17917:17923   */\n      0x00\n        /* \"#utility.yul\":17968:17970   */\n      0x1f\n        /* \"#utility.yul\":17964:17971   */\n      not\n        /* \"#utility.yul\":17959:17961   */\n      0x1f\n        /* \"#utility.yul\":17952:17957   */\n      dup4\n        /* \"#utility.yul\":17948:17962   */\n      add\n        /* \"#utility.yul\":17944:17972   */\n      and\n        /* \"#utility.yul\":17934:17972   */\n      swap1\n      pop\n        /* \"#utility.yul\":17876:17978   */\n      swap2\n      swap1\n      pop\n      jump\t// out\n        /* \"#utility.yul\":17984:18164   */\n    tag_284:\n        /* \"#utility.yul\":18124:18156   */\n      0x4261636b757020616464726573732063616e206e6f74206265207a65726f0000\n        /* \"#utility.yul\":18120:18121   */\n      0x00\n        /* \"#utility.yul\":18112:18118   */\n      dup3\n        /* \"#utility.yul\":18108:18122   */\n      add\n        /* \"#utility.yul\":18101:18157   */\n      mstore\n        /* \"#utility.yul\":17984:18164   */\n      pop\n      jump\t// out\n        /* \"#utility.yul\":18170:18350   */\n    tag_289:\n        /* \"#utility.yul\":18310:18342   */\n      0x53656e64657220616464726573732063616e206e6f74206265207a65726f0000\n        /* \"#utility.yul\":18306:18307   */\n      0x00\n        /* \"#utility.yul\":18298:18304   */\n      dup3\n        /* \"#utility.yul\":18294:18308   */\n      add\n        /* \"#utility.yul\":18287:18343   */\n      mstore\n        /* \"#utility.yul\":18170:18350   */\n      pop\n      jump\t// out\n        /* \"#utility.yul\":18356:18538   */\n    tag_294:\n        /* \"#utility.yul\":18496:18530   */\n      0x4f776e61626c653a2063616c6c6572206973206e6f7420746865206f776e6572\n        /* \"#utility.yul\":18492:18493   */\n      0x00\n        /* \"#utility.yul\":18484:18490   */\n      dup3\n        /* \"#utility.yul\":18480:18494   */\n      add\n        /* \"#utility.yul\":18473:18531   */\n      mstore\n        /* \"#utility.yul\":18356:18538   */\n      pop\n      jump\t// out\n        /* \"#utility.yul\":18544:18722   */\n    tag_299:\n        /* \"#utility.yul\":18684:18714   */\n      0x436f6e747261637420616c726561647920696e697469616c697a656400000000\n        /* \"#utility.yul\":18680:18681   */\n      0x00\n        /* \"#utility.yul\":18672:18678   */\n      dup3\n        /* \"#utility.yul\":18668:18682   */\n      add\n        /* \"#utility.yul\":18661:18715   */\n      mstore\n        /* \"#utility.yul\":18544:18722   */\n      pop\n      jump\t// out\n        /* \"#utility.yul\":18728:18961   */\n    tag_304:\n        /* \"#utility.yul\":18868:18902   */\n      0x4261636b75702077616c6c65742063616e206e6f742062652073616d65206173\n        /* \"#utility.yul\":18864:18865   */\n      0x00\n        /* \"#utility.yul\":18856:18862   */\n      dup3\n        /* \"#utility.yul\":18852:18866   */\n      add\n        /* \"#utility.yul\":18845:18903   */\n      mstore\n        /* \"#utility.yul\":18937:18953   */\n      0x2073656e6465722077616c6c6574000000000000000000000000000000000000\n        /* \"#utility.yul\":18932:18934   */\n      0x20\n        /* \"#utility.yul\":18924:18930   */\n      dup3\n        /* \"#utility.yul\":18920:18935   */\n      add\n        /* \"#utility.yul\":18913:18954   */\n      mstore\n        /* \"#utility.yul\":18728:18961   */\n      pop\n      jump\t// out\n        /* \"#utility.yul\":18967:19081   */\n    tag_310:\n      pop\n      jump\t// out\n        /* \"#utility.yul\":19087:19209   */\n    tag_192:\n        /* \"#utility.yul\":19160:19184   */\n      tag_387\n        /* \"#utility.yul\":19178:19183   */\n      dup2\n        /* \"#utility.yul\":19160:19184   */\n      tag_270\n      jump\t// in\n    tag_387:\n        /* \"#utility.yul\":19153:19158   */\n      dup2\n        /* \"#utility.yul\":19150:19185   */\n      eq\n        /* \"#utility.yul\":19140:19203   */\n      tag_388\n      jumpi\n        /* \"#utility.yul\":19199:19200   */\n      0x00\n        /* \"#utility.yul\":19196:19197   */\n      dup1\n        /* \"#utility.yul\":19189:19201   */\n      revert\n        /* \"#utility.yul\":19140:19203   */\n    tag_388:\n        /* \"#utility.yul\":19087:19209   */\n      pop\n      jump\t// out\n        /* \"#utility.yul\":19215:19335   */\n    tag_202:\n        /* \"#utility.yul\":19287:19310   */\n      tag_390\n        /* \"#utility.yul\":19304:19309   */\n      dup2\n        /* \"#utility.yul\":19287:19310   */\n      tag_278\n      jump\t// in\n    tag_390:\n        /* \"#utility.yul\":19280:19285   */\n      dup2\n        /* \"#utility.yul\":19277:19311   */\n      eq\n        /* \"#utility.yul\":19267:19329   */\n      tag_391\n      jumpi\n        /* \"#utility.yul\":19325:19326   */\n      0x00\n        /* \"#utility.yul\":19322:19323   */\n      dup1\n        /* \"#utility.yul\":19315:19327   */\n      revert\n        /* \"#utility.yul\":19267:19329   */\n    tag_391:\n        /* \"#utility.yul\":19215:19335   */\n      pop\n      jump\t// out\n        /* \"#utility.yul\":19341:19463   */\n    tag_210:\n        /* \"#utility.yul\":19414:19438   */\n      tag_393\n        /* \"#utility.yul\":19432:19437   */\n      dup2\n        /* \"#utility.yul\":19414:19438   */\n      tag_314\n      jump\t// in\n    tag_393:\n        /* \"#utility.yul\":19407:19412   */\n      dup2\n        /* \"#utility.yul\":19404:19439   */\n      eq\n        /* \"#utility.yul\":19394:19457   */\n      tag_394\n      jumpi\n        /* \"#utility.yul\":19453:19454   */\n      0x00\n        /* \"#utility.yul\":19450:19451   */\n      dup1\n        /* \"#utility.yul\":19443:19455   */\n      revert\n        /* \"#utility.yul\":19394:19457   */\n    tag_394:\n        /* \"#utility.yul\":19341:19463   */\n      pop\n      jump\t// out\n\n    auxdata: 0xa26469706673582212205706ad18650f717c94ad14e5d04441dc5c94a17c424e12f614f6920032507d7e64736f6c63430008070033\n}\n",
				"bytecode": {
					"linkReferences": {},
					"object": "608060405234801561001057600080fd5b5061002d61002261003260201b60201c565b61003a60201b60201c565b6100fe565b600033905090565b60008060009054906101000a900473ffffffffffffffffffffffffffffffffffffffff169050816000806101000a81548173ffffffffffffffffffffffffffffffffffffffff021916908373ffffffffffffffffffffffffffffffffffffffff1602179055508173ffffffffffffffffffffffffffffffffffffffff168173ffffffffffffffffffffffffffffffffffffffff167f8be0079c531659141344cd1fd0a4f28419497f9722a3daafe3b4186f6b6457e060405160405180910390a35050565b6115c08061010d6000396000f3fe6080604052600436106100a05760003560e01c806371b4bc991161006457806371b4bc991461018f5780638c7f807b146101b85780638da5cb5b146101cf578063bc197c81146101fa578063f09a401614610237578063f23a6e6114610260576100a7565b806301ffc9a7146100ac578063027f81ed146100e9578063150b7a0214610112578063450b2ad71461014f5780636354a2f714610166576100a7565b366100a757005b600080fd5b3480156100b857600080fd5b506100d360048036038101906100ce9190610f8d565b61029d565b6040516100e091906111c8565b60405180910390f35b3480156100f557600080fd5b50610110600480360381019061010b9190610f4d565b610317565b005b34801561011e57600080fd5b5061013960048036038101906101349190610e33565b6103a9565b60405161014691906111e3565b60405180910390f35b34801561015b57600080fd5b506101646103bd565b005b34801561017257600080fd5b5061018d60048036038101906101889190610f4d565b610466565b005b34801561019b57600080fd5b506101b660048036038101906101b19190610f4d565b610513565b005b3480156101c457600080fd5b506101cd6105c0565b005b3480156101db57600080fd5b506101e461064e565b6040516101f191906110f5565b60405180910390f35b34801561020657600080fd5b50610221600480360381019061021c9190610d64565b610677565b60405161022e91906111e3565b60405180910390f35b34801561024357600080fd5b5061025e60048036038101906102599190610d24565b61068c565b005b34801561026c57600080fd5b5061028760048036038101906102829190610eb6565b61089a565b60405161029491906111e3565b60405180910390f35b60007f4e2312e0000000000000000000000000000000000000000000000000000000007bffffffffffffffffffffffffffffffffffffffffffffffffffffffff1916827bffffffffffffffffffffffffffffffffffffffffffffffffffffffff19161480610310575061030f826108af565b5b9050919050565b61031f610919565b73ffffffffffffffffffffffffffffffffffffffff1661033d61064e565b73ffffffffffffffffffffffffffffffffffffffff1614610393576040517f08c379a000000000000000000000000000000000000000000000000000000000815260040161038a9061123e565b60405180910390fd5b6103a561039e61064e565b8383610921565b5050565b600063150b7a0260e01b9050949350505050565b6103c5610919565b73ffffffffffffffffffffffffffffffffffffffff166103e361064e565b73ffffffffffffffffffffffffffffffffffffffff1614610439576040517f08c379a00000000000000000000000000000000000000000000000000000000081526004016104309061123e565b60405180910390fd5b610464600160009054906101000a900473ffffffffffffffffffffffffffffffffffffffff16610995565b565b61046e610919565b73ffffffffffffffffffffffffffffffffffffffff1661048c61064e565b73ffffffffffffffffffffffffffffffffffffffff16146104e2576040517f08c379a00000000000000000000000000000000000000000000000000000000081526004016104d99061123e565b60405180910390fd5b61050f600160009054906101000a900473ffffffffffffffffffffffffffffffffffffffff1683836109ef565b5050565b61051b610919565b73ffffffffffffffffffffffffffffffffffffffff1661053961064e565b73ffffffffffffffffffffffffffffffffffffffff161461058f576040517f08c379a00000000000000000000000000000000000000000000000000000000081526004016105869061123e565b60405180910390fd5b6105bc600160009054906101000a900473ffffffffffffffffffffffffffffffffffffffff168383610921565b5050565b6105c8610919565b73ffffffffffffffffffffffffffffffffffffffff166105e661064e565b73ffffffffffffffffffffffffffffffffffffffff161461063c576040517f08c379a00000000000000000000000000000000000000000000000000000000081526004016106339061123e565b60405180910390fd5b61064c61064761064e565b610995565b565b60008060009054906101000a900473ffffffffffffffffffffffffffffffffffffffff16905090565b600063bc197c8160e01b905095945050505050565b600073ffffffffffffffffffffffffffffffffffffffff168273ffffffffffffffffffffffffffffffffffffffff1614156106fc576040517f08c379a00000000000000000000000000000000000000000000000000000000081526004016106f39061121e565b60405180910390fd5b600073ffffffffffffffffffffffffffffffffffffffff168173ffffffffffffffffffffffffffffffffffffffff16141561076c576040517f08c379a0000000000000000000000000000000000000000000000000000000008152600401610763906111fe565b60405180910390fd5b8173ffffffffffffffffffffffffffffffffffffffff168173ffffffffffffffffffffffffffffffffffffffff1614156107db576040517f08c379a00000000000000000000000000000000000000000000000000000000081526004016107d29061127e565b60405180910390fd5b60001515600060149054906101000a900460ff16151514610831576040517f08c379a00000000000000000000000000000000000000000000000000000000081526004016108289061125e565b60405180910390fd5b61083a82610afe565b80600160006101000a81548173ffffffffffffffffffffffffffffffffffffffff021916908373ffffffffffffffffffffffffffffffffffffffff1602179055506001600060146101000a81548160ff0219169083151502179055505050565b600063f23a6e6160e01b905095945050505050565b60007f01ffc9a7000000000000000000000000000000000000000000000000000000007bffffffffffffffffffffffffffffffffffffffffffffffffffffffff1916827bffffffffffffffffffffffffffffffffffffffffffffffffffffffff1916149050919050565b600033905090565b8173ffffffffffffffffffffffffffffffffffffffff166342842e0e3085846040518463ffffffff1660e01b815260040161095e93929190611110565b600060405180830381600087803b15801561097857600080fd5b505af115801561098c573d6000803e3d6000fd5b50505050505050565b600047905060008111156109eb578173ffffffffffffffffffffffffffffffffffffffff166108fc829081150290604051600060405180830381858888f193505050501580156109e9573d6000803e3d6000fd5b505b5050565b60008273ffffffffffffffffffffffffffffffffffffffff1662fdd58e30846040518363ffffffff1660e01b8152600401610a2b92919061119f565b60206040518083038186803b158015610a4357600080fd5b505afa158015610a57573d6000803e3d6000fd5b505050506040513d601f19601f82011682018060405250810190610a7b9190610fba565b90506000811115610af8578273ffffffffffffffffffffffffffffffffffffffff1663f242432a308685856040518563ffffffff1660e01b8152600401610ac59493929190611147565b600060405180830381600087803b158015610adf57600080fd5b505af1158015610af3573d6000803e3d6000fd5b505050505b50505050565b60008060009054906101000a900473ffffffffffffffffffffffffffffffffffffffff169050816000806101000a81548173ffffffffffffffffffffffffffffffffffffffff021916908373ffffffffffffffffffffffffffffffffffffffff1602179055508173ffffffffffffffffffffffffffffffffffffffff168173ffffffffffffffffffffffffffffffffffffffff167f8be0079c531659141344cd1fd0a4f28419497f9722a3daafe3b4186f6b6457e060405160405180910390a35050565b6000610bd5610bd0846112c3565b61129e565b90508083825260208201905082856020860282011115610bf857610bf761142a565b5b60005b85811015610c285781610c0e8882610cfa565b845260208401935060208301925050600181019050610bfb565b5050509392505050565b6000610c45610c40846112ef565b61129e565b905082815260208101848484011115610c6157610c6061142f565b5b610c6c8482856113b6565b509392505050565b600081359050610c8381611545565b92915050565b600082601f830112610c9e57610c9d611425565b5b8135610cae848260208601610bc2565b91505092915050565b600081359050610cc68161155c565b92915050565b600082601f830112610ce157610ce0611425565b5b8135610cf1848260208601610c32565b91505092915050565b600081359050610d0981611573565b92915050565b600081519050610d1e81611573565b92915050565b60008060408385031215610d3b57610d3a611439565b5b6000610d4985828601610c74565b9250506020610d5a85828601610c74565b9150509250929050565b600080600080600060a08688031215610d8057610d7f611439565b5b6000610d8e88828901610c74565b9550506020610d9f88828901610c74565b945050604086013567ffffffffffffffff811115610dc057610dbf611434565b5b610dcc88828901610c89565b935050606086013567ffffffffffffffff811115610ded57610dec611434565b5b610df988828901610c89565b925050608086013567ffffffffffffffff811115610e1a57610e19611434565b5b610e2688828901610ccc565b9150509295509295909350565b60008060008060808587031215610e4d57610e4c611439565b5b6000610e5b87828801610c74565b9450506020610e6c87828801610c74565b9350506040610e7d87828801610cfa565b925050606085013567ffffffffffffffff811115610e9e57610e9d611434565b5b610eaa87828801610ccc565b91505092959194509250565b600080600080600060a08688031215610ed257610ed1611439565b5b6000610ee088828901610c74565b9550506020610ef188828901610c74565b9450506040610f0288828901610cfa565b9350506060610f1388828901610cfa565b925050608086013567ffffffffffffffff811115610f3457610f33611434565b5b610f4088828901610ccc565b9150509295509295909350565b60008060408385031215610f6457610f63611439565b5b6000610f7285828601610c74565b9250506020610f8385828601610cfa565b9150509250929050565b600060208284031215610fa357610fa2611439565b5b6000610fb184828501610cb7565b91505092915050565b600060208284031215610fd057610fcf611439565b5b6000610fde84828501610d0f565b91505092915050565b610ff081611342565b82525050565b610fff81611354565b82525050565b61100e81611360565b82525050565b6000611021601e83611331565b915061102c8261144f565b602082019050919050565b6000611044601e83611331565b915061104f82611478565b602082019050919050565b6000611067602083611331565b9150611072826114a1565b602082019050919050565b600061108a601c83611331565b9150611095826114ca565b602082019050919050565b60006110ad602e83611331565b91506110b8826114f3565b604082019050919050565b60006110d0600083611320565b91506110db82611542565b600082019050919050565b6110ef816113ac565b82525050565b600060208201905061110a6000830184610fe7565b92915050565b60006060820190506111256000830186610fe7565b6111326020830185610fe7565b61113f60408301846110e6565b949350505050565b600060a08201905061115c6000830187610fe7565b6111696020830186610fe7565b61117660408301856110e6565b61118360608301846110e6565b8181036080830152611194816110c3565b905095945050505050565b60006040820190506111b46000830185610fe7565b6111c160208301846110e6565b9392505050565b60006020820190506111dd6000830184610ff6565b92915050565b60006020820190506111f86000830184611005565b92915050565b6000602082019050818103600083015261121781611014565b9050919050565b6000602082019050818103600083015261123781611037565b9050919050565b600060208201905081810360008301526112578161105a565b9050919050565b600060208201905081810360008301526112778161107d565b9050919050565b60006020820190508181036000830152611297816110a0565b9050919050565b60006112a86112b9565b90506112b482826113c5565b919050565b6000604051905090565b600067ffffffffffffffff8211156112de576112dd6113f6565b5b602082029050602081019050919050565b600067ffffffffffffffff82111561130a576113096113f6565b5b6113138261143e565b9050602081019050919050565b600082825260208201905092915050565b600082825260208201905092915050565b600061134d8261138c565b9050919050565b60008115159050919050565b60007fffffffff0000000000000000000000000000000000000000000000000000000082169050919050565b600073ffffffffffffffffffffffffffffffffffffffff82169050919050565b6000819050919050565b82818337600083830152505050565b6113ce8261143e565b810181811067ffffffffffffffff821117156113ed576113ec6113f6565b5b80604052505050565b7f4e487b7100000000000000000000000000000000000000000000000000000000600052604160045260246000fd5b600080fd5b600080fd5b600080fd5b600080fd5b600080fd5b6000601f19601f8301169050919050565b7f4261636b757020616464726573732063616e206e6f74206265207a65726f0000600082015250565b7f53656e64657220616464726573732063616e206e6f74206265207a65726f0000600082015250565b7f4f776e61626c653a2063616c6c6572206973206e6f7420746865206f776e6572600082015250565b7f436f6e747261637420616c726561647920696e697469616c697a656400000000600082015250565b7f4261636b75702077616c6c65742063616e206e6f742062652073616d6520617360008201527f2073656e6465722077616c6c6574000000000000000000000000000000000000602082015250565b50565b61154e81611342565b811461155957600080fd5b50565b61156581611360565b811461157057600080fd5b50565b61157c816113ac565b811461158757600080fd5b5056fea26469706673582212205706ad18650f717c94ad14e5d04441dc5c94a17c424e12f614f6920032507d7e64736f6c63430008070033",
					"opcodes": "PUSH1 0x80 PUSH1 0x40 MSTORE CALLVALUE DUP1 ISZERO PUSH2 0x10 JUMPI PUSH1 0x0 DUP1 REVERT JUMPDEST POP PUSH2 0x2D PUSH2 0x22 PUSH2 0x32 PUSH1 0x20 SHL PUSH1 0x20 SHR JUMP JUMPDEST PUSH2 0x3A PUSH1 0x20 SHL PUSH1 0x20 SHR JUMP JUMPDEST PUSH2 0xFE JUMP JUMPDEST PUSH1 0x0 CALLER SWAP1 POP SWAP1 JUMP JUMPDEST PUSH1 0x0 DUP1 PUSH1 0x0 SWAP1 SLOAD SWAP1 PUSH2 0x100 EXP SWAP1 DIV PUSH20 0xFFFFFFFFFFFFFFFFFFFFFFFFFFFFFFFFFFFFFFFF AND SWAP1 POP DUP2 PUSH1 0x0 DUP1 PUSH2 0x100 EXP DUP2 SLOAD DUP2 PUSH20 0xFFFFFFFFFFFFFFFFFFFFFFFFFFFFFFFFFFFFFFFF MUL NOT AND SWAP1 DUP4 PUSH20 0xFFFFFFFFFFFFFFFFFFFFFFFFFFFFFFFFFFFFFFFF AND MUL OR SWAP1 SSTORE POP DUP2 PUSH20 0xFFFFFFFFFFFFFFFFFFFFFFFFFFFFFFFFFFFFFFFF AND DUP2 PUSH20 0xFFFFFFFFFFFFFFFFFFFFFFFFFFFFFFFFFFFFFFFF AND PUSH32 0x8BE0079C531659141344CD1FD0A4F28419497F9722A3DAAFE3B4186F6B6457E0 PUSH1 0x40 MLOAD PUSH1 0x40 MLOAD DUP1 SWAP2 SUB SWAP1 LOG3 POP POP JUMP JUMPDEST PUSH2 0x15C0 DUP1 PUSH2 0x10D PUSH1 0x0 CODECOPY PUSH1 0x0 RETURN INVALID PUSH1 0x80 PUSH1 0x40 MSTORE PUSH1 0x4 CALLDATASIZE LT PUSH2 0xA0 JUMPI PUSH1 0x0 CALLDATALOAD PUSH1 0xE0 SHR DUP1 PUSH4 0x71B4BC99 GT PUSH2 0x64 JUMPI DUP1 PUSH4 0x71B4BC99 EQ PUSH2 0x18F JUMPI DUP1 PUSH4 0x8C7F807B EQ PUSH2 0x1B8 JUMPI DUP1 PUSH4 0x8DA5CB5B EQ PUSH2 0x1CF JUMPI DUP1 PUSH4 0xBC197C81 EQ PUSH2 0x1FA JUMPI DUP1 PUSH4 0xF09A4016 EQ PUSH2 0x237 JUMPI DUP1 PUSH4 0xF23A6E61 EQ PUSH2 0x260 JUMPI PUSH2 0xA7 JUMP JUMPDEST DUP1 PUSH4 0x1FFC9A7 EQ PUSH2 0xAC JUMPI DUP1 PUSH4 0x27F81ED EQ PUSH2 0xE9 JUMPI DUP1 PUSH4 0x150B7A02 EQ PUSH2 0x112 JUMPI DUP1 PUSH4 0x450B2AD7 EQ PUSH2 0x14F JUMPI DUP1 PUSH4 0x6354A2F7 EQ PUSH2 0x166 JUMPI PUSH2 0xA7 JUMP JUMPDEST CALLDATASIZE PUSH2 0xA7 JUMPI STOP JUMPDEST PUSH1 0x0 DUP1 REVERT JUMPDEST CALLVALUE DUP1 ISZERO PUSH2 0xB8 JUMPI PUSH1 0x0 DUP1 REVERT JUMPDEST POP PUSH2 0xD3 PUSH1 0x4 DUP1 CALLDATASIZE SUB DUP2 ADD SWAP1 PUSH2 0xCE SWAP2 SWAP1 PUSH2 0xF8D JUMP JUMPDEST PUSH2 0x29D JUMP JUMPDEST PUSH1 0x40 MLOAD PUSH2 0xE0 SWAP2 SWAP1 PUSH2 0x11C8 JUMP JUMPDEST PUSH1 0x40 MLOAD DUP1 SWAP2 SUB SWAP1 RETURN JUMPDEST CALLVALUE DUP1 ISZERO PUSH2 0xF5 JUMPI PUSH1 0x0 DUP1 REVERT JUMPDEST POP PUSH2 0x110 PUSH1 0x4 DUP1 CALLDATASIZE SUB DUP2 ADD SWAP1 PUSH2 0x10B SWAP2 SWAP1 PUSH2 0xF4D JUMP JUMPDEST PUSH2 0x317 JUMP JUMPDEST STOP JUMPDEST CALLVALUE DUP1 ISZERO PUSH2 0x11E JUMPI PUSH1 0x0 DUP1 REVERT JUMPDEST POP PUSH2 0x139 PUSH1 0x4 DUP1 CALLDATASIZE SUB DUP2 ADD SWAP1 PUSH2 0x134 SWAP2 SWAP1 PUSH2 0xE33 JUMP JUMPDEST PUSH2 0x3A9 JUMP JUMPDEST PUSH1 0x40 MLOAD PUSH2 0x146 SWAP2 SWAP1 PUSH2 0x11E3 JUMP JUMPDEST PUSH1 0x40 MLOAD DUP1 SWAP2 SUB SWAP1 RETURN JUMPDEST CALLVALUE DUP1 ISZERO PUSH2 0x15B JUMPI PUSH1 0x0 DUP1 REVERT JUMPDEST POP PUSH2 0x164 PUSH2 0x3BD JUMP JUMPDEST STOP JUMPDEST CALLVALUE DUP1 ISZERO PUSH2 0x172 JUMPI PUSH1 0x0 DUP1 REVERT JUMPDEST POP PUSH2 0x18D PUSH1 0x4 DUP1 CALLDATASIZE SUB DUP2 ADD SWAP1 PUSH2 0x188 SWAP2 SWAP1 PUSH2 0xF4D JUMP JUMPDEST PUSH2 0x466 JUMP JUMPDEST STOP JUMPDEST CALLVALUE DUP1 ISZERO PUSH2 0x19B JUMPI PUSH1 0x0 DUP1 REVERT JUMPDEST POP PUSH2 0x1B6 PUSH1 0x4 DUP1 CALLDATASIZE SUB DUP2 ADD SWAP1 PUSH2 0x1B1 SWAP2 SWAP1 PUSH2 0xF4D JUMP JUMPDEST PUSH2 0x513 JUMP JUMPDEST STOP JUMPDEST CALLVALUE DUP1 ISZERO PUSH2 0x1C4 JUMPI PUSH1 0x0 DUP1 REVERT JUMPDEST POP PUSH2 0x1CD PUSH2 0x5C0 JUMP JUMPDEST STOP JUMPDEST CALLVALUE DUP1 ISZERO PUSH2 0x1DB JUMPI PUSH1 0x0 DUP1 REVERT JUMPDEST POP PUSH2 0x1E4 PUSH2 0x64E JUMP JUMPDEST PUSH1 0x40 MLOAD PUSH2 0x1F1 SWAP2 SWAP1 PUSH2 0x10F5 JUMP JUMPDEST PUSH1 0x40 MLOAD DUP1 SWAP2 SUB SWAP1 RETURN JUMPDEST CALLVALUE DUP1 ISZERO PUSH2 0x206 JUMPI PUSH1 0x0 DUP1 REVERT JUMPDEST POP PUSH2 0x221 PUSH1 0x4 DUP1 CALLDATASIZE SUB DUP2 ADD SWAP1 PUSH2 0x21C SWAP2 SWAP1 PUSH2 0xD64 JUMP JUMPDEST PUSH2 0x677 JUMP JUMPDEST PUSH1 0x40 MLOAD PUSH2 0x22E SWAP2 SWAP1 PUSH2 0x11E3 JUMP JUMPDEST PUSH1 0x40 MLOAD DUP1 SWAP2 SUB SWAP1 RETURN JUMPDEST CALLVALUE DUP1 ISZERO PUSH2 0x243 JUMPI PUSH1 0x0 DUP1 REVERT JUMPDEST POP PUSH2 0x25E PUSH1 0x4 DUP1 CALLDATASIZE SUB DUP2 ADD SWAP1 PUSH2 0x259 SWAP2 SWAP1 PUSH2 0xD24 JUMP JUMPDEST PUSH2 0x68C JUMP JUMPDEST STOP JUMPDEST CALLVALUE DUP1 ISZERO PUSH2 0x26C JUMPI PUSH1 0x0 DUP1 REVERT JUMPDEST POP PUSH2 0x287 PUSH1 0x4 DUP1 CALLDATASIZE SUB DUP2 ADD SWAP1 PUSH2 0x282 SWAP2 SWAP1 PUSH2 0xEB6 JUMP JUMPDEST PUSH2 0x89A JUMP JUMPDEST PUSH1 0x40 MLOAD PUSH2 0x294 SWAP2 SWAP1 PUSH2 0x11E3 JUMP JUMPDEST PUSH1 0x40 MLOAD DUP1 SWAP2 SUB SWAP1 RETURN JUMPDEST PUSH1 0x0 PUSH32 0x4E2312E000000000000000000000000000000000000000000000000000000000 PUSH28 0xFFFFFFFFFFFFFFFFFFFFFFFFFFFFFFFFFFFFFFFFFFFFFFFFFFFFFFFF NOT AND DUP3 PUSH28 0xFFFFFFFFFFFFFFFFFFFFFFFFFFFFFFFFFFFFFFFFFFFFFFFFFFFFFFFF NOT AND EQ DUP1 PUSH2 0x310 JUMPI POP PUSH2 0x30F DUP3 PUSH2 0x8AF JUMP JUMPDEST JUMPDEST SWAP1 POP SWAP2 SWAP1 POP JUMP JUMPDEST PUSH2 0x31F PUSH2 0x919 JUMP JUMPDEST PUSH20 0xFFFFFFFFFFFFFFFFFFFFFFFFFFFFFFFFFFFFFFFF AND PUSH2 0x33D PUSH2 0x64E JUMP JUMPDEST PUSH20 0xFFFFFFFFFFFFFFFFFFFFFFFFFFFFFFFFFFFFFFFF AND EQ PUSH2 0x393 JUMPI PUSH1 0x40 MLOAD PUSH32 0x8C379A000000000000000000000000000000000000000000000000000000000 DUP2 MSTORE PUSH1 0x4 ADD PUSH2 0x38A SWAP1 PUSH2 0x123E JUMP JUMPDEST PUSH1 0x40 MLOAD DUP1 SWAP2 SUB SWAP1 REVERT JUMPDEST PUSH2 0x3A5 PUSH2 0x39E PUSH2 0x64E JUMP JUMPDEST DUP4 DUP4 PUSH2 0x921 JUMP JUMPDEST POP POP JUMP JUMPDEST PUSH1 0x0 PUSH4 0x150B7A02 PUSH1 0xE0 SHL SWAP1 POP SWAP5 SWAP4 POP POP POP POP JUMP JUMPDEST PUSH2 0x3C5 PUSH2 0x919 JUMP JUMPDEST PUSH20 0xFFFFFFFFFFFFFFFFFFFFFFFFFFFFFFFFFFFFFFFF AND PUSH2 0x3E3 PUSH2 0x64E JUMP JUMPDEST PUSH20 0xFFFFFFFFFFFFFFFFFFFFFFFFFFFFFFFFFFFFFFFF AND EQ PUSH2 0x439 JUMPI PUSH1 0x40 MLOAD PUSH32 0x8C379A000000000000000000000000000000000000000000000000000000000 DUP2 MSTORE PUSH1 0x4 ADD PUSH2 0x430 SWAP1 PUSH2 0x123E JUMP JUMPDEST PUSH1 0x40 MLOAD DUP1 SWAP2 SUB SWAP1 REVERT JUMPDEST PUSH2 0x464 PUSH1 0x1 PUSH1 0x0 SWAP1 SLOAD SWAP1 PUSH2 0x100 EXP SWAP1 DIV PUSH20 0xFFFFFFFFFFFFFFFFFFFFFFFFFFFFFFFFFFFFFFFF AND PUSH2 0x995 JUMP JUMPDEST JUMP JUMPDEST PUSH2 0x46E PUSH2 0x919 JUMP JUMPDEST PUSH20 0xFFFFFFFFFFFFFFFFFFFFFFFFFFFFFFFFFFFFFFFF AND PUSH2 0x48C PUSH2 0x64E JUMP JUMPDEST PUSH20 0xFFFFFFFFFFFFFFFFFFFFFFFFFFFFFFFFFFFFFFFF AND EQ PUSH2 0x4E2 JUMPI PUSH1 0x40 MLOAD PUSH32 0x8C379A000000000000000000000000000000000000000000000000000000000 DUP2 MSTORE PUSH1 0x4 ADD PUSH2 0x4D9 SWAP1 PUSH2 0x123E JUMP JUMPDEST PUSH1 0x40 MLOAD DUP1 SWAP2 SUB SWAP1 REVERT JUMPDEST PUSH2 0x50F PUSH1 0x1 PUSH1 0x0 SWAP1 SLOAD SWAP1 PUSH2 0x100 EXP SWAP1 DIV PUSH20 0xFFFFFFFFFFFFFFFFFFFFFFFFFFFFFFFFFFFFFFFF AND DUP4 DUP4 PUSH2 0x9EF JUMP JUMPDEST POP POP JUMP JUMPDEST PUSH2 0x51B PUSH2 0x919 JUMP JUMPDEST PUSH20 0xFFFFFFFFFFFFFFFFFFFFFFFFFFFFFFFFFFFFFFFF AND PUSH2 0x539 PUSH2 0x64E JUMP JUMPDEST PUSH20 0xFFFFFFFFFFFFFFFFFFFFFFFFFFFFFFFFFFFFFFFF AND EQ PUSH2 0x58F JUMPI PUSH1 0x40 MLOAD PUSH32 0x8C379A000000000000000000000000000000000000000000000000000000000 DUP2 MSTORE PUSH1 0x4 ADD PUSH2 0x586 SWAP1 PUSH2 0x123E JUMP JUMPDEST PUSH1 0x40 MLOAD DUP1 SWAP2 SUB SWAP1 REVERT JUMPDEST PUSH2 0x5BC PUSH1 0x1 PUSH1 0x0 SWAP1 SLOAD SWAP1 PUSH2 0x100 EXP SWAP1 DIV PUSH20 0xFFFFFFFFFFFFFFFFFFFFFFFFFFFFFFFFFFFFFFFF AND DUP4 DUP4 PUSH2 0x921 JUMP JUMPDEST POP POP JUMP JUMPDEST PUSH2 0x5C8 PUSH2 0x919 JUMP JUMPDEST PUSH20 0xFFFFFFFFFFFFFFFFFFFFFFFFFFFFFFFFFFFFFFFF AND PUSH2 0x5E6 PUSH2 0x64E JUMP JUMPDEST PUSH20 0xFFFFFFFFFFFFFFFFFFFFFFFFFFFFFFFFFFFFFFFF AND EQ PUSH2 0x63C JUMPI PUSH1 0x40 MLOAD PUSH32 0x8C379A000000000000000000000000000000000000000000000000000000000 DUP2 MSTORE PUSH1 0x4 ADD PUSH2 0x633 SWAP1 PUSH2 0x123E JUMP JUMPDEST PUSH1 0x40 MLOAD DUP1 SWAP2 SUB SWAP1 REVERT JUMPDEST PUSH2 0x64C PUSH2 0x647 PUSH2 0x64E JUMP JUMPDEST PUSH2 0x995 JUMP JUMPDEST JUMP JUMPDEST PUSH1 0x0 DUP1 PUSH1 0x0 SWAP1 SLOAD SWAP1 PUSH2 0x100 EXP SWAP1 DIV PUSH20 0xFFFFFFFFFFFFFFFFFFFFFFFFFFFFFFFFFFFFFFFF AND SWAP1 POP SWAP1 JUMP JUMPDEST PUSH1 0x0 PUSH4 0xBC197C81 PUSH1 0xE0 SHL SWAP1 POP SWAP6 SWAP5 POP POP POP POP POP JUMP JUMPDEST PUSH1 0x0 PUSH20 0xFFFFFFFFFFFFFFFFFFFFFFFFFFFFFFFFFFFFFFFF AND DUP3 PUSH20 0xFFFFFFFFFFFFFFFFFFFFFFFFFFFFFFFFFFFFFFFF AND EQ ISZERO PUSH2 0x6FC JUMPI PUSH1 0x40 MLOAD PUSH32 0x8C379A000000000000000000000000000000000000000000000000000000000 DUP2 MSTORE PUSH1 0x4 ADD PUSH2 0x6F3 SWAP1 PUSH2 0x121E JUMP JUMPDEST PUSH1 0x40 MLOAD DUP1 SWAP2 SUB SWAP1 REVERT JUMPDEST PUSH1 0x0 PUSH20 0xFFFFFFFFFFFFFFFFFFFFFFFFFFFFFFFFFFFFFFFF AND DUP2 PUSH20 0xFFFFFFFFFFFFFFFFFFFFFFFFFFFFFFFFFFFFFFFF AND EQ ISZERO PUSH2 0x76C JUMPI PUSH1 0x40 MLOAD PUSH32 0x8C379A000000000000000000000000000000000000000000000000000000000 DUP2 MSTORE PUSH1 0x4 ADD PUSH2 0x763 SWAP1 PUSH2 0x11FE JUMP JUMPDEST PUSH1 0x40 MLOAD DUP1 SWAP2 SUB SWAP1 REVERT JUMPDEST DUP2 PUSH20 0xFFFFFFFFFFFFFFFFFFFFFFFFFFFFFFFFFFFFFFFF AND DUP2 PUSH20 0xFFFFFFFFFFFFFFFFFFFFFFFFFFFFFFFFFFFFFFFF AND EQ ISZERO PUSH2 0x7DB JUMPI PUSH1 0x40 MLOAD PUSH32 0x8C379A000000000000000000000000000000000000000000000000000000000 DUP2 MSTORE PUSH1 0x4 ADD PUSH2 0x7D2 SWAP1 PUSH2 0x127E JUMP JUMPDEST PUSH1 0x40 MLOAD DUP1 SWAP2 SUB SWAP1 REVERT JUMPDEST PUSH1 0x0 ISZERO ISZERO PUSH1 0x0 PUSH1 0x14 SWAP1 SLOAD SWAP1 PUSH2 0x100 EXP SWAP1 DIV PUSH1 0xFF AND ISZERO ISZERO EQ PUSH2 0x831 JUMPI PUSH1 0x40 MLOAD PUSH32 0x8C379A000000000000000000000000000000000000000000000000000000000 DUP2 MSTORE PUSH1 0x4 ADD PUSH2 0x828 SWAP1 PUSH2 0x125E JUMP JUMPDEST PUSH1 0x40 MLOAD DUP1 SWAP2 SUB SWAP1 REVERT JUMPDEST PUSH2 0x83A DUP3 PUSH2 0xAFE JUMP JUMPDEST DUP1 PUSH1 0x1 PUSH1 0x0 PUSH2 0x100 EXP DUP2 SLOAD DUP2 PUSH20 0xFFFFFFFFFFFFFFFFFFFFFFFFFFFFFFFFFFFFFFFF MUL NOT AND SWAP1 DUP4 PUSH20 0xFFFFFFFFFFFFFFFFFFFFFFFFFFFFFFFFFFFFFFFF AND MUL OR SWAP1 SSTORE POP PUSH1 0x1 PUSH1 0x0 PUSH1 0x14 PUSH2 0x100 EXP DUP2 SLOAD DUP2 PUSH1 0xFF MUL NOT AND SWAP1 DUP4 ISZERO ISZERO MUL OR SWAP1 SSTORE POP POP POP JUMP JUMPDEST PUSH1 0x0 PUSH4 0xF23A6E61 PUSH1 0xE0 SHL SWAP1 POP SWAP6 SWAP5 POP POP POP POP POP JUMP JUMPDEST PUSH1 0x0 PUSH32 0x1FFC9A700000000000000000000000000000000000000000000000000000000 PUSH28 0xFFFFFFFFFFFFFFFFFFFFFFFFFFFFFFFFFFFFFFFFFFFFFFFFFFFFFFFF NOT AND DUP3 PUSH28 0xFFFFFFFFFFFFFFFFFFFFFFFFFFFFFFFFFFFFFFFFFFFFFFFFFFFFFFFF NOT AND EQ SWAP1 POP SWAP2 SWAP1 POP JUMP JUMPDEST PUSH1 0x0 CALLER SWAP1 POP SWAP1 JUMP JUMPDEST DUP2 PUSH20 0xFFFFFFFFFFFFFFFFFFFFFFFFFFFFFFFFFFFFFFFF AND PUSH4 0x42842E0E ADDRESS DUP6 DUP5 PUSH1 0x40 MLOAD DUP5 PUSH4 0xFFFFFFFF AND PUSH1 0xE0 SHL DUP2 MSTORE PUSH1 0x4 ADD PUSH2 0x95E SWAP4 SWAP3 SWAP2 SWAP1 PUSH2 0x1110 JUMP JUMPDEST PUSH1 0x0 PUSH1 0x40 MLOAD DUP1 DUP4 SUB DUP2 PUSH1 0x0 DUP8 DUP1 EXTCODESIZE ISZERO DUP1 ISZERO PUSH2 0x978 JUMPI PUSH1 0x0 DUP1 REVERT JUMPDEST POP GAS CALL ISZERO DUP1 ISZERO PUSH2 0x98C JUMPI RETURNDATASIZE PUSH1 0x0 DUP1 RETURNDATACOPY RETURNDATASIZE PUSH1 0x0 REVERT JUMPDEST POP POP POP POP POP POP POP JUMP JUMPDEST PUSH1 0x0 SELFBALANCE SWAP1 POP PUSH1 0x0 DUP2 GT ISZERO PUSH2 0x9EB JUMPI DUP2 PUSH20 0xFFFFFFFFFFFFFFFFFFFFFFFFFFFFFFFFFFFFFFFF AND PUSH2 0x8FC DUP3 SWAP1 DUP2 ISZERO MUL SWAP1 PUSH1 0x40 MLOAD PUSH1 0x0 PUSH1 0x40 MLOAD DUP1 DUP4 SUB DUP2 DUP6 DUP9 DUP9 CALL SWAP4 POP POP POP POP ISZERO DUP1 ISZERO PUSH2 0x9E9 JUMPI RETURNDATASIZE PUSH1 0x0 DUP1 RETURNDATACOPY RETURNDATASIZE PUSH1 0x0 REVERT JUMPDEST POP JUMPDEST POP POP JUMP JUMPDEST PUSH1 0x0 DUP3 PUSH20 0xFFFFFFFFFFFFFFFFFFFFFFFFFFFFFFFFFFFFFFFF AND PUSH3 0xFDD58E ADDRESS DUP5 PUSH1 0x40 MLOAD DUP4 PUSH4 0xFFFFFFFF AND PUSH1 0xE0 SHL DUP2 MSTORE PUSH1 0x4 ADD PUSH2 0xA2B SWAP3 SWAP2 SWAP1 PUSH2 0x119F JUMP JUMPDEST PUSH1 0x20 PUSH1 0x40 MLOAD DUP1 DUP4 SUB DUP2 DUP7 DUP1 EXTCODESIZE ISZERO DUP1 ISZERO PUSH2 0xA43 JUMPI PUSH1 0x0 DUP1 REVERT JUMPDEST POP GAS STATICCALL ISZERO DUP1 ISZERO PUSH2 0xA57 JUMPI RETURNDATASIZE PUSH1 0x0 DUP1 RETURNDATACOPY RETURNDATASIZE PUSH1 0x0 REVERT JUMPDEST POP POP POP POP PUSH1 0x40 MLOAD RETURNDATASIZE PUSH1 0x1F NOT PUSH1 0x1F DUP3 ADD AND DUP3 ADD DUP1 PUSH1 0x40 MSTORE POP DUP2 ADD SWAP1 PUSH2 0xA7B SWAP2 SWAP1 PUSH2 0xFBA JUMP JUMPDEST SWAP1 POP PUSH1 0x0 DUP2 GT ISZERO PUSH2 0xAF8 JUMPI DUP3 PUSH20 0xFFFFFFFFFFFFFFFFFFFFFFFFFFFFFFFFFFFFFFFF AND PUSH4 0xF242432A ADDRESS DUP7 DUP6 DUP6 PUSH1 0x40 MLOAD DUP6 PUSH4 0xFFFFFFFF AND PUSH1 0xE0 SHL DUP2 MSTORE PUSH1 0x4 ADD PUSH2 0xAC5 SWAP5 SWAP4 SWAP3 SWAP2 SWAP1 PUSH2 0x1147 JUMP JUMPDEST PUSH1 0x0 PUSH1 0x40 MLOAD DUP1 DUP4 SUB DUP2 PUSH1 0x0 DUP8 DUP1 EXTCODESIZE ISZERO DUP1 ISZERO PUSH2 0xADF JUMPI PUSH1 0x0 DUP1 REVERT JUMPDEST POP GAS CALL ISZERO DUP1 ISZERO PUSH2 0xAF3 JUMPI RETURNDATASIZE PUSH1 0x0 DUP1 RETURNDATACOPY RETURNDATASIZE PUSH1 0x0 REVERT JUMPDEST POP POP POP POP JUMPDEST POP POP POP POP JUMP JUMPDEST PUSH1 0x0 DUP1 PUSH1 0x0 SWAP1 SLOAD SWAP1 PUSH2 0x100 EXP SWAP1 DIV PUSH20 0xFFFFFFFFFFFFFFFFFFFFFFFFFFFFFFFFFFFFFFFF AND SWAP1 POP DUP2 PUSH1 0x0 DUP1 PUSH2 0x100 EXP DUP2 SLOAD DUP2 PUSH20 0xFFFFFFFFFFFFFFFFFFFFFFFFFFFFFFFFFFFFFFFF MUL NOT AND SWAP1 DUP4 PUSH20 0xFFFFFFFFFFFFFFFFFFFFFFFFFFFFFFFFFFFFFFFF AND MUL OR SWAP1 SSTORE POP DUP2 PUSH20 0xFFFFFFFFFFFFFFFFFFFFFFFFFFFFFFFFFFFFFFFF AND DUP2 PUSH20 0xFFFFFFFFFFFFFFFFFFFFFFFFFFFFFFFFFFFFFFFF AND PUSH32 0x8BE0079C531659141344CD1FD0A4F28419497F9722A3DAAFE3B4186F6B6457E0 PUSH1 0x40 MLOAD PUSH1 0x40 MLOAD DUP1 SWAP2 SUB SWAP1 LOG3 POP POP JUMP JUMPDEST PUSH1 0x0 PUSH2 0xBD5 PUSH2 0xBD0 DUP5 PUSH2 0x12C3 JUMP JUMPDEST PUSH2 0x129E JUMP JUMPDEST SWAP1 POP DUP1 DUP4 DUP3 MSTORE PUSH1 0x20 DUP3 ADD SWAP1 POP DUP3 DUP6 PUSH1 0x20 DUP7 MUL DUP3 ADD GT ISZERO PUSH2 0xBF8 JUMPI PUSH2 0xBF7 PUSH2 0x142A JUMP JUMPDEST JUMPDEST PUSH1 0x0 JUMPDEST DUP6 DUP2 LT ISZERO PUSH2 0xC28 JUMPI DUP2 PUSH2 0xC0E DUP9 DUP3 PUSH2 0xCFA JUMP JUMPDEST DUP5 MSTORE PUSH1 0x20 DUP5 ADD SWAP4 POP PUSH1 0x20 DUP4 ADD SWAP3 POP POP PUSH1 0x1 DUP2 ADD SWAP1 POP PUSH2 0xBFB JUMP JUMPDEST POP POP POP SWAP4 SWAP3 POP POP POP JUMP JUMPDEST PUSH1 0x0 PUSH2 0xC45 PUSH2 0xC40 DUP5 PUSH2 0x12EF JUMP JUMPDEST PUSH2 0x129E JUMP JUMPDEST SWAP1 POP DUP3 DUP2 MSTORE PUSH1 0x20 DUP2 ADD DUP5 DUP5 DUP5 ADD GT ISZERO PUSH2 0xC61 JUMPI PUSH2 0xC60 PUSH2 0x142F JUMP JUMPDEST JUMPDEST PUSH2 0xC6C DUP5 DUP3 DUP6 PUSH2 0x13B6 JUMP JUMPDEST POP SWAP4 SWAP3 POP POP POP JUMP JUMPDEST PUSH1 0x0 DUP2 CALLDATALOAD SWAP1 POP PUSH2 0xC83 DUP2 PUSH2 0x1545 JUMP JUMPDEST SWAP3 SWAP2 POP POP JUMP JUMPDEST PUSH1 0x0 DUP3 PUSH1 0x1F DUP4 ADD SLT PUSH2 0xC9E JUMPI PUSH2 0xC9D PUSH2 0x1425 JUMP JUMPDEST JUMPDEST DUP2 CALLDATALOAD PUSH2 0xCAE DUP5 DUP3 PUSH1 0x20 DUP7 ADD PUSH2 0xBC2 JUMP JUMPDEST SWAP2 POP POP SWAP3 SWAP2 POP POP JUMP JUMPDEST PUSH1 0x0 DUP2 CALLDATALOAD SWAP1 POP PUSH2 0xCC6 DUP2 PUSH2 0x155C JUMP JUMPDEST SWAP3 SWAP2 POP POP JUMP JUMPDEST PUSH1 0x0 DUP3 PUSH1 0x1F DUP4 ADD SLT PUSH2 0xCE1 JUMPI PUSH2 0xCE0 PUSH2 0x1425 JUMP JUMPDEST JUMPDEST DUP2 CALLDATALOAD PUSH2 0xCF1 DUP5 DUP3 PUSH1 0x20 DUP7 ADD PUSH2 0xC32 JUMP JUMPDEST SWAP2 POP POP SWAP3 SWAP2 POP POP JUMP JUMPDEST PUSH1 0x0 DUP2 CALLDATALOAD SWAP1 POP PUSH2 0xD09 DUP2 PUSH2 0x1573 JUMP JUMPDEST SWAP3 SWAP2 POP POP JUMP JUMPDEST PUSH1 0x0 DUP2 MLOAD SWAP1 POP PUSH2 0xD1E DUP2 PUSH2 0x1573 JUMP JUMPDEST SWAP3 SWAP2 POP POP JUMP JUMPDEST PUSH1 0x0 DUP1 PUSH1 0x40 DUP4 DUP6 SUB SLT ISZERO PUSH2 0xD3B JUMPI PUSH2 0xD3A PUSH2 0x1439 JUMP JUMPDEST JUMPDEST PUSH1 0x0 PUSH2 0xD49 DUP6 DUP3 DUP7 ADD PUSH2 0xC74 JUMP JUMPDEST SWAP3 POP POP PUSH1 0x20 PUSH2 0xD5A DUP6 DUP3 DUP7 ADD PUSH2 0xC74 JUMP JUMPDEST SWAP2 POP POP SWAP3 POP SWAP3 SWAP1 POP JUMP JUMPDEST PUSH1 0x0 DUP1 PUSH1 0x0 DUP1 PUSH1 0x0 PUSH1 0xA0 DUP7 DUP9 SUB SLT ISZERO PUSH2 0xD80 JUMPI PUSH2 0xD7F PUSH2 0x1439 JUMP JUMPDEST JUMPDEST PUSH1 0x0 PUSH2 0xD8E DUP9 DUP3 DUP10 ADD PUSH2 0xC74 JUMP JUMPDEST SWAP6 POP POP PUSH1 0x20 PUSH2 0xD9F DUP9 DUP3 DUP10 ADD PUSH2 0xC74 JUMP JUMPDEST SWAP5 POP POP PUSH1 0x40 DUP7 ADD CALLDATALOAD PUSH8 0xFFFFFFFFFFFFFFFF DUP2 GT ISZERO PUSH2 0xDC0 JUMPI PUSH2 0xDBF PUSH2 0x1434 JUMP JUMPDEST JUMPDEST PUSH2 0xDCC DUP9 DUP3 DUP10 ADD PUSH2 0xC89 JUMP JUMPDEST SWAP4 POP POP PUSH1 0x60 DUP7 ADD CALLDATALOAD PUSH8 0xFFFFFFFFFFFFFFFF DUP2 GT ISZERO PUSH2 0xDED JUMPI PUSH2 0xDEC PUSH2 0x1434 JUMP JUMPDEST JUMPDEST PUSH2 0xDF9 DUP9 DUP3 DUP10 ADD PUSH2 0xC89 JUMP JUMPDEST SWAP3 POP POP PUSH1 0x80 DUP7 ADD CALLDATALOAD PUSH8 0xFFFFFFFFFFFFFFFF DUP2 GT ISZERO PUSH2 0xE1A JUMPI PUSH2 0xE19 PUSH2 0x1434 JUMP JUMPDEST JUMPDEST PUSH2 0xE26 DUP9 DUP3 DUP10 ADD PUSH2 0xCCC JUMP JUMPDEST SWAP2 POP POP SWAP3 SWAP6 POP SWAP3 SWAP6 SWAP1 SWAP4 POP JUMP JUMPDEST PUSH1 0x0 DUP1 PUSH1 0x0 DUP1 PUSH1 0x80 DUP6 DUP8 SUB SLT ISZERO PUSH2 0xE4D JUMPI PUSH2 0xE4C PUSH2 0x1439 JUMP JUMPDEST JUMPDEST PUSH1 0x0 PUSH2 0xE5B DUP8 DUP3 DUP9 ADD PUSH2 0xC74 JUMP JUMPDEST SWAP5 POP POP PUSH1 0x20 PUSH2 0xE6C DUP8 DUP3 DUP9 ADD PUSH2 0xC74 JUMP JUMPDEST SWAP4 POP POP PUSH1 0x40 PUSH2 0xE7D DUP8 DUP3 DUP9 ADD PUSH2 0xCFA JUMP JUMPDEST SWAP3 POP POP PUSH1 0x60 DUP6 ADD CALLDATALOAD PUSH8 0xFFFFFFFFFFFFFFFF DUP2 GT ISZERO PUSH2 0xE9E JUMPI PUSH2 0xE9D PUSH2 0x1434 JUMP JUMPDEST JUMPDEST PUSH2 0xEAA DUP8 DUP3 DUP9 ADD PUSH2 0xCCC JUMP JUMPDEST SWAP2 POP POP SWAP3 SWAP6 SWAP2 SWAP5 POP SWAP3 POP JUMP JUMPDEST PUSH1 0x0 DUP1 PUSH1 0x0 DUP1 PUSH1 0x0 PUSH1 0xA0 DUP7 DUP9 SUB SLT ISZERO PUSH2 0xED2 JUMPI PUSH2 0xED1 PUSH2 0x1439 JUMP JUMPDEST JUMPDEST PUSH1 0x0 PUSH2 0xEE0 DUP9 DUP3 DUP10 ADD PUSH2 0xC74 JUMP JUMPDEST SWAP6 POP POP PUSH1 0x20 PUSH2 0xEF1 DUP9 DUP3 DUP10 ADD PUSH2 0xC74 JUMP JUMPDEST SWAP5 POP POP PUSH1 0x40 PUSH2 0xF02 DUP9 DUP3 DUP10 ADD PUSH2 0xCFA JUMP JUMPDEST SWAP4 POP POP PUSH1 0x60 PUSH2 0xF13 DUP9 DUP3 DUP10 ADD PUSH2 0xCFA JUMP JUMPDEST SWAP3 POP POP PUSH1 0x80 DUP7 ADD CALLDATALOAD PUSH8 0xFFFFFFFFFFFFFFFF DUP2 GT ISZERO PUSH2 0xF34 JUMPI PUSH2 0xF33 PUSH2 0x1434 JUMP JUMPDEST JUMPDEST PUSH2 0xF40 DUP9 DUP3 DUP10 ADD PUSH2 0xCCC JUMP JUMPDEST SWAP2 POP POP SWAP3 SWAP6 POP SWAP3 SWAP6 SWAP1 SWAP4 POP JUMP JUMPDEST PUSH1 0x0 DUP1 PUSH1 0x40 DUP4 DUP6 SUB SLT ISZERO PUSH2 0xF64 JUMPI PUSH2 0xF63 PUSH2 0x1439 JUMP JUMPDEST JUMPDEST PUSH1 0x0 PUSH2 0xF72 DUP6 DUP3 DUP7 ADD PUSH2 0xC74 JUMP JUMPDEST SWAP3 POP POP PUSH1 0x20 PUSH2 0xF83 DUP6 DUP3 DUP7 ADD PUSH2 0xCFA JUMP JUMPDEST SWAP2 POP POP SWAP3 POP SWAP3 SWAP1 POP JUMP JUMPDEST PUSH1 0x0 PUSH1 0x20 DUP3 DUP5 SUB SLT ISZERO PUSH2 0xFA3 JUMPI PUSH2 0xFA2 PUSH2 0x1439 JUMP JUMPDEST JUMPDEST PUSH1 0x0 PUSH2 0xFB1 DUP5 DUP3 DUP6 ADD PUSH2 0xCB7 JUMP JUMPDEST SWAP2 POP POP SWAP3 SWAP2 POP POP JUMP JUMPDEST PUSH1 0x0 PUSH1 0x20 DUP3 DUP5 SUB SLT ISZERO PUSH2 0xFD0 JUMPI PUSH2 0xFCF PUSH2 0x1439 JUMP JUMPDEST JUMPDEST PUSH1 0x0 PUSH2 0xFDE DUP5 DUP3 DUP6 ADD PUSH2 0xD0F JUMP JUMPDEST SWAP2 POP POP SWAP3 SWAP2 POP POP JUMP JUMPDEST PUSH2 0xFF0 DUP2 PUSH2 0x1342 JUMP JUMPDEST DUP3 MSTORE POP POP JUMP JUMPDEST PUSH2 0xFFF DUP2 PUSH2 0x1354 JUMP JUMPDEST DUP3 MSTORE POP POP JUMP JUMPDEST PUSH2 0x100E DUP2 PUSH2 0x1360 JUMP JUMPDEST DUP3 MSTORE POP POP JUMP JUMPDEST PUSH1 0x0 PUSH2 0x1021 PUSH1 0x1E DUP4 PUSH2 0x1331 JUMP JUMPDEST SWAP2 POP PUSH2 0x102C DUP3 PUSH2 0x144F JUMP JUMPDEST PUSH1 0x20 DUP3 ADD SWAP1 POP SWAP2 SWAP1 POP JUMP JUMPDEST PUSH1 0x0 PUSH2 0x1044 PUSH1 0x1E DUP4 PUSH2 0x1331 JUMP JUMPDEST SWAP2 POP PUSH2 0x104F DUP3 PUSH2 0x1478 JUMP JUMPDEST PUSH1 0x20 DUP3 ADD SWAP1 POP SWAP2 SWAP1 POP JUMP JUMPDEST PUSH1 0x0 PUSH2 0x1067 PUSH1 0x20 DUP4 PUSH2 0x1331 JUMP JUMPDEST SWAP2 POP PUSH2 0x1072 DUP3 PUSH2 0x14A1 JUMP JUMPDEST PUSH1 0x20 DUP3 ADD SWAP1 POP SWAP2 SWAP1 POP JUMP JUMPDEST PUSH1 0x0 PUSH2 0x108A PUSH1 0x1C DUP4 PUSH2 0x1331 JUMP JUMPDEST SWAP2 POP PUSH2 0x1095 DUP3 PUSH2 0x14CA JUMP JUMPDEST PUSH1 0x20 DUP3 ADD SWAP1 POP SWAP2 SWAP1 POP JUMP JUMPDEST PUSH1 0x0 PUSH2 0x10AD PUSH1 0x2E DUP4 PUSH2 0x1331 JUMP JUMPDEST SWAP2 POP PUSH2 0x10B8 DUP3 PUSH2 0x14F3 JUMP JUMPDEST PUSH1 0x40 DUP3 ADD SWAP1 POP SWAP2 SWAP1 POP JUMP JUMPDEST PUSH1 0x0 PUSH2 0x10D0 PUSH1 0x0 DUP4 PUSH2 0x1320 JUMP JUMPDEST SWAP2 POP PUSH2 0x10DB DUP3 PUSH2 0x1542 JUMP JUMPDEST PUSH1 0x0 DUP3 ADD SWAP1 POP SWAP2 SWAP1 POP JUMP JUMPDEST PUSH2 0x10EF DUP2 PUSH2 0x13AC JUMP JUMPDEST DUP3 MSTORE POP POP JUMP JUMPDEST PUSH1 0x0 PUSH1 0x20 DUP3 ADD SWAP1 POP PUSH2 0x110A PUSH1 0x0 DUP4 ADD DUP5 PUSH2 0xFE7 JUMP JUMPDEST SWAP3 SWAP2 POP POP JUMP JUMPDEST PUSH1 0x0 PUSH1 0x60 DUP3 ADD SWAP1 POP PUSH2 0x1125 PUSH1 0x0 DUP4 ADD DUP7 PUSH2 0xFE7 JUMP JUMPDEST PUSH2 0x1132 PUSH1 0x20 DUP4 ADD DUP6 PUSH2 0xFE7 JUMP JUMPDEST PUSH2 0x113F PUSH1 0x40 DUP4 ADD DUP5 PUSH2 0x10E6 JUMP JUMPDEST SWAP5 SWAP4 POP POP POP POP JUMP JUMPDEST PUSH1 0x0 PUSH1 0xA0 DUP3 ADD SWAP1 POP PUSH2 0x115C PUSH1 0x0 DUP4 ADD DUP8 PUSH2 0xFE7 JUMP JUMPDEST PUSH2 0x1169 PUSH1 0x20 DUP4 ADD DUP7 PUSH2 0xFE7 JUMP JUMPDEST PUSH2 0x1176 PUSH1 0x40 DUP4 ADD DUP6 PUSH2 0x10E6 JUMP JUMPDEST PUSH2 0x1183 PUSH1 0x60 DUP4 ADD DUP5 PUSH2 0x10E6 JUMP JUMPDEST DUP2 DUP2 SUB PUSH1 0x80 DUP4 ADD MSTORE PUSH2 0x1194 DUP2 PUSH2 0x10C3 JUMP JUMPDEST SWAP1 POP SWAP6 SWAP5 POP POP POP POP POP JUMP JUMPDEST PUSH1 0x0 PUSH1 0x40 DUP3 ADD SWAP1 POP PUSH2 0x11B4 PUSH1 0x0 DUP4 ADD DUP6 PUSH2 0xFE7 JUMP JUMPDEST PUSH2 0x11C1 PUSH1 0x20 DUP4 ADD DUP5 PUSH2 0x10E6 JUMP JUMPDEST SWAP4 SWAP3 POP POP POP JUMP JUMPDEST PUSH1 0x0 PUSH1 0x20 DUP3 ADD SWAP1 POP PUSH2 0x11DD PUSH1 0x0 DUP4 ADD DUP5 PUSH2 0xFF6 JUMP JUMPDEST SWAP3 SWAP2 POP POP JUMP JUMPDEST PUSH1 0x0 PUSH1 0x20 DUP3 ADD SWAP1 POP PUSH2 0x11F8 PUSH1 0x0 DUP4 ADD DUP5 PUSH2 0x1005 JUMP JUMPDEST SWAP3 SWAP2 POP POP JUMP JUMPDEST PUSH1 0x0 PUSH1 0x20 DUP3 ADD SWAP1 POP DUP2 DUP2 SUB PUSH1 0x0 DUP4 ADD MSTORE PUSH2 0x1217 DUP2 PUSH2 0x1014 JUMP JUMPDEST SWAP1 POP SWAP2 SWAP1 POP JUMP JUMPDEST PUSH1 0x0 PUSH1 0x20 DUP3 ADD SWAP1 POP DUP2 DUP2 SUB PUSH1 0x0 DUP4 ADD MSTORE PUSH2 0x1237 DUP2 PUSH2 0x1037 JUMP JUMPDEST SWAP1 POP SWAP2 SWAP1 POP JUMP JUMPDEST PUSH1 0x0 PUSH1 0x20 DUP3 ADD SWAP1 POP DUP2 DUP2 SUB PUSH1 0x0 DUP4 ADD MSTORE PUSH2 0x1257 DUP2 PUSH2 0x105A JUMP JUMPDEST SWAP1 POP SWAP2 SWAP1 POP JUMP JUMPDEST PUSH1 0x0 PUSH1 0x20 DUP3 ADD SWAP1 POP DUP2 DUP2 SUB PUSH1 0x0 DUP4 ADD MSTORE PUSH2 0x1277 DUP2 PUSH2 0x107D JUMP JUMPDEST SWAP1 POP SWAP2 SWAP1 POP JUMP JUMPDEST PUSH1 0x0 PUSH1 0x20 DUP3 ADD SWAP1 POP DUP2 DUP2 SUB PUSH1 0x0 DUP4 ADD MSTORE PUSH2 0x1297 DUP2 PUSH2 0x10A0 JUMP JUMPDEST SWAP1 POP SWAP2 SWAP1 POP JUMP JUMPDEST PUSH1 0x0 PUSH2 0x12A8 PUSH2 0x12B9 JUMP JUMPDEST SWAP1 POP PUSH2 0x12B4 DUP3 DUP3 PUSH2 0x13C5 JUMP JUMPDEST SWAP2 SWAP1 POP JUMP JUMPDEST PUSH1 0x0 PUSH1 0x40 MLOAD SWAP1 POP SWAP1 JUMP JUMPDEST PUSH1 0x0 PUSH8 0xFFFFFFFFFFFFFFFF DUP3 GT ISZERO PUSH2 0x12DE JUMPI PUSH2 0x12DD PUSH2 0x13F6 JUMP JUMPDEST JUMPDEST PUSH1 0x20 DUP3 MUL SWAP1 POP PUSH1 0x20 DUP2 ADD SWAP1 POP SWAP2 SWAP1 POP JUMP JUMPDEST PUSH1 0x0 PUSH8 0xFFFFFFFFFFFFFFFF DUP3 GT ISZERO PUSH2 0x130A JUMPI PUSH2 0x1309 PUSH2 0x13F6 JUMP JUMPDEST JUMPDEST PUSH2 0x1313 DUP3 PUSH2 0x143E JUMP JUMPDEST SWAP1 POP PUSH1 0x20 DUP2 ADD SWAP1 POP SWAP2 SWAP1 POP JUMP JUMPDEST PUSH1 0x0 DUP3 DUP3 MSTORE PUSH1 0x20 DUP3 ADD SWAP1 POP SWAP3 SWAP2 POP POP JUMP JUMPDEST PUSH1 0x0 DUP3 DUP3 MSTORE PUSH1 0x20 DUP3 ADD SWAP1 POP SWAP3 SWAP2 POP POP JUMP JUMPDEST PUSH1 0x0 PUSH2 0x134D DUP3 PUSH2 0x138C JUMP JUMPDEST SWAP1 POP SWAP2 SWAP1 POP JUMP JUMPDEST PUSH1 0x0 DUP2 ISZERO ISZERO SWAP1 POP SWAP2 SWAP1 POP JUMP JUMPDEST PUSH1 0x0 PUSH32 0xFFFFFFFF00000000000000000000000000000000000000000000000000000000 DUP3 AND SWAP1 POP SWAP2 SWAP1 POP JUMP JUMPDEST PUSH1 0x0 PUSH20 0xFFFFFFFFFFFFFFFFFFFFFFFFFFFFFFFFFFFFFFFF DUP3 AND SWAP1 POP SWAP2 SWAP1 POP JUMP JUMPDEST PUSH1 0x0 DUP2 SWAP1 POP SWAP2 SWAP1 POP JUMP JUMPDEST DUP3 DUP2 DUP4 CALLDATACOPY PUSH1 0x0 DUP4 DUP4 ADD MSTORE POP POP POP JUMP JUMPDEST PUSH2 0x13CE DUP3 PUSH2 0x143E JUMP JUMPDEST DUP2 ADD DUP2 DUP2 LT PUSH8 0xFFFFFFFFFFFFFFFF DUP3 GT OR ISZERO PUSH2 0x13ED JUMPI PUSH2 0x13EC PUSH2 0x13F6 JUMP JUMPDEST JUMPDEST DUP1 PUSH1 0x40 MSTORE POP POP POP JUMP JUMPDEST PUSH32 0x4E487B7100000000000000000000000000000000000000000000000000000000 PUSH1 0x0 MSTORE PUSH1 0x41 PUSH1 0x4 MSTORE PUSH1 0x24 PUSH1 0x0 REVERT JUMPDEST PUSH1 0x0 DUP1 REVERT JUMPDEST PUSH1 0x0 DUP1 REVERT JUMPDEST PUSH1 0x0 DUP1 REVERT JUMPDEST PUSH1 0x0 DUP1 REVERT JUMPDEST PUSH1 0x0 DUP1 REVERT JUMPDEST PUSH1 0x0 PUSH1 0x1F NOT PUSH1 0x1F DUP4 ADD AND SWAP1 POP SWAP2 SWAP1 POP JUMP JUMPDEST PUSH32 0x4261636B757020616464726573732063616E206E6F74206265207A65726F0000 PUSH1 0x0 DUP3 ADD MSTORE POP JUMP JUMPDEST PUSH32 0x53656E64657220616464726573732063616E206E6F74206265207A65726F0000 PUSH1 0x0 DUP3 ADD MSTORE POP JUMP JUMPDEST PUSH32 0x4F776E61626C653A2063616C6C6572206973206E6F7420746865206F776E6572 PUSH1 0x0 DUP3 ADD MSTORE POP JUMP JUMPDEST PUSH32 0x436F6E747261637420616C726561647920696E697469616C697A656400000000 PUSH1 0x0 DUP3 ADD MSTORE POP JUMP JUMPDEST PUSH32 0x4261636B75702077616C6C65742063616E206E6F742062652073616D65206173 PUSH1 0x0 DUP3 ADD MSTORE PUSH32 0x2073656E6465722077616C6C6574000000000000000000000000000000000000 PUSH1 0x20 DUP3 ADD MSTORE POP JUMP JUMPDEST POP JUMP JUMPDEST PUSH2 0x154E DUP2 PUSH2 0x1342 JUMP JUMPDEST DUP2 EQ PUSH2 0x1559 JUMPI PUSH1 0x0 DUP1 REVERT JUMPDEST POP JUMP JUMPDEST PUSH2 0x1565 DUP2 PUSH2 0x1360 JUMP JUMPDEST DUP2 EQ PUSH2 0x1570 JUMPI PUSH1 0x0 DUP1 REVERT JUMPDEST POP JUMP JUMPDEST PUSH2 0x157C DUP2 PUSH2 0x13AC JUMP JUMPDEST DUP2 EQ PUSH2 0x1587 JUMPI PUSH1 0x0 DUP1 REVERT JUMPDEST POP JUMP INVALID LOG2 PUSH5 0x6970667358 0x22 SLT KECCAK256 JUMPI MOD 0xAD XOR PUSH6 0xF717C94AD14 0xE5 0xD0 DIFFICULTY COINBASE 0xDC 0x5C SWAP5 LOG1 PUSH29 0x424E12F614F6920032507D7E64736F6C63430008070033000000000000 "
				},
				"gasEstimates": {
					"creation": {
						"codeDepositCost": "1113600",
						"executionCost": "infinite",
						"totalCost": "infinite"
					},
					"external": {
						"init(address,address)": "infinite",
						"onERC1155BatchReceived(address,address,uint256[],uint256[],bytes)": "infinite",
						"onERC1155Received(address,address,uint256,uint256,bytes)": "infinite",
						"onERC721Received(address,address,uint256,bytes)": "infinite",
						"owner()": "2566",
						"sendERC1155FundsToBackupWallet(address,uint256)": "infinite",
						"sendERC721FundsToBackupWallet(address,uint256)": "infinite",
						"sendNativeFundsToBackupWallet()": "infinite",
						"supportsInterface(bytes4)": "728",
						"transferERC721AssetsToWallet(address,uint256)": "infinite",
						"transferNativeAssetToWallet()": "infinite"
					},
					"internal": {
						"_transferERC1155FundsToAddress(address,address,uint256)": "infinite",
						"_transferERC20FundsToAddress(address,address[] memory)": "infinite",
						"_transferERC721FundsToAddress(address,address,uint256)": "infinite",
						"_transferNativeFundsToAddress(address payable)": "infinite"
					}
				},
				"methodIdentifiers": {
					"init(address,address)": "f09a4016",
					"onERC1155BatchReceived(address,address,uint256[],uint256[],bytes)": "bc197c81",
					"onERC1155Received(address,address,uint256,uint256,bytes)": "f23a6e61",
					"onERC721Received(address,address,uint256,bytes)": "150b7a02",
					"owner()": "8da5cb5b",
					"sendERC1155FundsToBackupWallet(address,uint256)": "6354a2f7",
					"sendERC721FundsToBackupWallet(address,uint256)": "71b4bc99",
					"sendNativeFundsToBackupWallet()": "450b2ad7",
					"supportsInterface(bytes4)": "01ffc9a7",
					"transferERC721AssetsToWallet(address,uint256)": "027f81ed",
					"transferNativeAssetToWallet()": "8c7f807b"
				}
			},
			"storageLayout": {
				"storage": [
					{
						"astId": 1071,
						"contract": "Practice NFT.sol:TwoFactor",
						"label": "_owner",
						"offset": 0,
						"slot": "0",
						"type": "t_address"
					},
					{
						"astId": 1152,
						"contract": "Practice NFT.sol:TwoFactor",
						"label": "isInitialized",
						"offset": 20,
						"slot": "0",
						"type": "t_bool"
					},
					{
						"astId": 1154,
						"contract": "Practice NFT.sol:TwoFactor",
						"label": "backupWallet",
						"offset": 0,
						"slot": "1",
						"type": "t_address"
					}
				],
				"types": {
					"t_address": {
						"encoding": "inplace",
						"label": "address",
						"numberOfBytes": "20"
					},
					"t_bool": {
						"encoding": "inplace",
						"label": "bool",
						"numberOfBytes": "1"
					}
				}
			},
			"userdoc": {
				"kind": "user",
				"methods": {},
				"version": 1
			}
		}
	}
}