{
	"@openzeppelin/contracts/token/ERC1155/utils/ERC1155Holder.sol": {
		"ERC1155Holder": {
			"abi": [
				{
					"inputs": [
						{
							"internalType": "address",
							"name": "",
							"type": "address"
						},
						{
							"internalType": "address",
							"name": "",
							"type": "address"
						},
						{
							"internalType": "uint256[]",
							"name": "",
							"type": "uint256[]"
						},
						{
							"internalType": "uint256[]",
							"name": "",
							"type": "uint256[]"
						},
						{
							"internalType": "bytes",
							"name": "",
							"type": "bytes"
						}
					],
					"name": "onERC1155BatchReceived",
					"outputs": [
						{
							"internalType": "bytes4",
							"name": "",
							"type": "bytes4"
						}
					],
					"stateMutability": "nonpayable",
					"type": "function"
				},
				{
					"inputs": [
						{
							"internalType": "address",
							"name": "",
							"type": "address"
						},
						{
							"internalType": "address",
							"name": "",
							"type": "address"
						},
						{
							"internalType": "uint256",
							"name": "",
							"type": "uint256"
						},
						{
							"internalType": "uint256",
							"name": "",
							"type": "uint256"
						},
						{
							"internalType": "bytes",
							"name": "",
							"type": "bytes"
						}
					],
					"name": "onERC1155Received",
					"outputs": [
						{
							"internalType": "bytes4",
							"name": "",
							"type": "bytes4"
						}
					],
					"stateMutability": "nonpayable",
					"type": "function"
				},
				{
					"inputs": [
						{
							"internalType": "bytes4",
							"name": "interfaceId",
							"type": "bytes4"
						}
					],
					"name": "supportsInterface",
					"outputs": [
						{
							"internalType": "bool",
							"name": "",
							"type": "bool"
						}
					],
					"stateMutability": "view",
					"type": "function"
				}
			],
			"devdoc": {
				"details": "_Available since v3.1._",
				"kind": "dev",
				"methods": {
					"supportsInterface(bytes4)": {
						"details": "See {IERC165-supportsInterface}."
					}
				},
				"version": 1
			},
			"evm": {
				"assembly": "    /* \"@openzeppelin/contracts/token/ERC1155/utils/ERC1155Holder.sol\":451:973  contract ERC1155Holder is ERC1155Receiver {... */\n  mstore(0x40, 0x80)\n  callvalue\n  dup1\n  iszero\n  tag_1\n  jumpi\n  0x00\n  dup1\n  revert\ntag_1:\n  pop\n  dataSize(sub_0)\n  dup1\n  dataOffset(sub_0)\n  0x00\n  codecopy\n  0x00\n  return\nstop\n\nsub_0: assembly {\n        /* \"@openzeppelin/contracts/token/ERC1155/utils/ERC1155Holder.sol\":451:973  contract ERC1155Holder is ERC1155Receiver {... */\n      mstore(0x40, 0x80)\n      callvalue\n      dup1\n      iszero\n      tag_1\n      jumpi\n      0x00\n      dup1\n      revert\n    tag_1:\n      pop\n      jumpi(tag_2, lt(calldatasize, 0x04))\n      shr(0xe0, calldataload(0x00))\n      dup1\n      0x01ffc9a7\n      eq\n      tag_3\n      jumpi\n      dup1\n      0xbc197c81\n      eq\n      tag_4\n      jumpi\n      dup1\n      0xf23a6e61\n      eq\n      tag_5\n      jumpi\n    tag_2:\n      0x00\n      dup1\n      revert\n        /* \"@openzeppelin/contracts/token/ERC1155/utils/ERC1155Receiver.sol\":387:608  function supportsInterface(bytes4 interfaceId) public view virtual override(ERC165, IERC165) returns (bool) {... */\n    tag_3:\n      tag_6\n      0x04\n      dup1\n      calldatasize\n      sub\n      dup2\n      add\n      swap1\n      tag_7\n      swap2\n      swap1\n      tag_8\n      jump\t// in\n    tag_7:\n      tag_9\n      jump\t// in\n    tag_6:\n      mload(0x40)\n      tag_10\n      swap2\n      swap1\n      tag_11\n      jump\t// in\n    tag_10:\n      mload(0x40)\n      dup1\n      swap2\n      sub\n      swap1\n      return\n        /* \"@openzeppelin/contracts/token/ERC1155/utils/ERC1155Holder.sol\":724:971  function onERC1155BatchReceived(... */\n    tag_4:\n      tag_12\n      0x04\n      dup1\n      calldatasize\n      sub\n      dup2\n      add\n      swap1\n      tag_13\n      swap2\n      swap1\n      tag_14\n      jump\t// in\n    tag_13:\n      tag_15\n      jump\t// in\n    tag_12:\n      mload(0x40)\n      tag_16\n      swap2\n      swap1\n      tag_17\n      jump\t// in\n    tag_16:\n      mload(0x40)\n      dup1\n      swap2\n      sub\n      swap1\n      return\n        /* \"@openzeppelin/contracts/token/ERC1155/utils/ERC1155Holder.sol\":499:718  function onERC1155Received(... */\n    tag_5:\n      tag_18\n      0x04\n      dup1\n      calldatasize\n      sub\n      dup2\n      add\n      swap1\n      tag_19\n      swap2\n      swap1\n      tag_20\n      jump\t// in\n    tag_19:\n      tag_21\n      jump\t// in\n    tag_18:\n      mload(0x40)\n      tag_22\n      swap2\n      swap1\n      tag_17\n      jump\t// in\n    tag_22:\n      mload(0x40)\n      dup1\n      swap2\n      sub\n      swap1\n      return\n        /* \"@openzeppelin/contracts/token/ERC1155/utils/ERC1155Receiver.sol\":387:608  function supportsInterface(bytes4 interfaceId) public view virtual override(ERC165, IERC165) returns (bool) {... */\n    tag_9:\n        /* \"@openzeppelin/contracts/token/ERC1155/utils/ERC1155Receiver.sol\":489:493  bool */\n      0x00\n        /* \"@openzeppelin/contracts/token/ERC1155/utils/ERC1155Receiver.sol\":527:561  type(IERC1155Receiver).interfaceId */\n      0x4e2312e000000000000000000000000000000000000000000000000000000000\n        /* \"@openzeppelin/contracts/token/ERC1155/utils/ERC1155Receiver.sol\":512:561  interfaceId == type(IERC1155Receiver).interfaceId */\n      not(0xffffffffffffffffffffffffffffffffffffffffffffffffffffffff)\n      and\n        /* \"@openzeppelin/contracts/token/ERC1155/utils/ERC1155Receiver.sol\":512:523  interfaceId */\n      dup3\n        /* \"@openzeppelin/contracts/token/ERC1155/utils/ERC1155Receiver.sol\":512:561  interfaceId == type(IERC1155Receiver).interfaceId */\n      not(0xffffffffffffffffffffffffffffffffffffffffffffffffffffffff)\n      and\n      eq\n        /* \"@openzeppelin/contracts/token/ERC1155/utils/ERC1155Receiver.sol\":512:601  interfaceId == type(IERC1155Receiver).interfaceId || super.supportsInterface(interfaceId) */\n      dup1\n      tag_24\n      jumpi\n      pop\n        /* \"@openzeppelin/contracts/token/ERC1155/utils/ERC1155Receiver.sol\":565:601  super.supportsInterface(interfaceId) */\n      tag_25\n        /* \"@openzeppelin/contracts/token/ERC1155/utils/ERC1155Receiver.sol\":589:600  interfaceId */\n      dup3\n        /* \"@openzeppelin/contracts/token/ERC1155/utils/ERC1155Receiver.sol\":565:588  super.supportsInterface */\n      tag_26\n        /* \"@openzeppelin/contracts/token/ERC1155/utils/ERC1155Receiver.sol\":565:601  super.supportsInterface(interfaceId) */\n      jump\t// in\n    tag_25:\n        /* \"@openzeppelin/contracts/token/ERC1155/utils/ERC1155Receiver.sol\":512:601  interfaceId == type(IERC1155Receiver).interfaceId || super.supportsInterface(interfaceId) */\n    tag_24:\n        /* \"@openzeppelin/contracts/token/ERC1155/utils/ERC1155Receiver.sol\":505:601  return interfaceId == type(IERC1155Receiver).interfaceId || super.supportsInterface(interfaceId) */\n      swap1\n      pop\n        /* \"@openzeppelin/contracts/token/ERC1155/utils/ERC1155Receiver.sol\":387:608  function supportsInterface(bytes4 interfaceId) public view virtual override(ERC165, IERC165) returns (bool) {... */\n      swap2\n      swap1\n      pop\n      jump\t// out\n        /* \"@openzeppelin/contracts/token/ERC1155/utils/ERC1155Holder.sol\":724:971  function onERC1155BatchReceived(... */\n    tag_15:\n        /* \"@openzeppelin/contracts/token/ERC1155/utils/ERC1155Holder.sol\":903:909  bytes4 */\n      0x00\n        /* \"@openzeppelin/contracts/token/ERC1155/utils/ERC1155Holder.sol\":928:964  this.onERC1155BatchReceived.selector */\n      shl(0xe0, 0xbc197c81)\n        /* \"@openzeppelin/contracts/token/ERC1155/utils/ERC1155Holder.sol\":921:964  return this.onERC1155BatchReceived.selector */\n      swap1\n      pop\n        /* \"@openzeppelin/contracts/token/ERC1155/utils/ERC1155Holder.sol\":724:971  function onERC1155BatchReceived(... */\n      swap6\n      swap5\n      pop\n      pop\n      pop\n      pop\n      pop\n      jump\t// out\n        /* \"@openzeppelin/contracts/token/ERC1155/utils/ERC1155Holder.sol\":499:718  function onERC1155Received(... */\n    tag_21:\n        /* \"@openzeppelin/contracts/token/ERC1155/utils/ERC1155Holder.sol\":655:661  bytes4 */\n      0x00\n        /* \"@openzeppelin/contracts/token/ERC1155/utils/ERC1155Holder.sol\":680:711  this.onERC1155Received.selector */\n      shl(0xe0, 0xf23a6e61)\n        /* \"@openzeppelin/contracts/token/ERC1155/utils/ERC1155Holder.sol\":673:711  return this.onERC1155Received.selector */\n      swap1\n      pop\n        /* \"@openzeppelin/contracts/token/ERC1155/utils/ERC1155Holder.sol\":499:718  function onERC1155Received(... */\n      swap6\n      swap5\n      pop\n      pop\n      pop\n      pop\n      pop\n      jump\t// out\n        /* \"@openzeppelin/contracts/utils/introspection/ERC165.sol\":829:984  function supportsInterface(bytes4 interfaceId) public view virtual override returns (bool) {... */\n    tag_26:\n        /* \"@openzeppelin/contracts/utils/introspection/ERC165.sol\":914:918  bool */\n      0x00\n        /* \"@openzeppelin/contracts/utils/introspection/ERC165.sol\":952:977  type(IERC165).interfaceId */\n      0x01ffc9a700000000000000000000000000000000000000000000000000000000\n        /* \"@openzeppelin/contracts/utils/introspection/ERC165.sol\":937:977  interfaceId == type(IERC165).interfaceId */\n      not(0xffffffffffffffffffffffffffffffffffffffffffffffffffffffff)\n      and\n        /* \"@openzeppelin/contracts/utils/introspection/ERC165.sol\":937:948  interfaceId */\n      dup3\n        /* \"@openzeppelin/contracts/utils/introspection/ERC165.sol\":937:977  interfaceId == type(IERC165).interfaceId */\n      not(0xffffffffffffffffffffffffffffffffffffffffffffffffffffffff)\n      and\n      eq\n        /* \"@openzeppelin/contracts/utils/introspection/ERC165.sol\":930:977  return interfaceId == type(IERC165).interfaceId */\n      swap1\n      pop\n        /* \"@openzeppelin/contracts/utils/introspection/ERC165.sol\":829:984  function supportsInterface(bytes4 interfaceId) public view virtual override returns (bool) {... */\n      swap2\n      swap1\n      pop\n      jump\t// out\n        /* \"#utility.yul\":24:746   */\n    tag_31:\n        /* \"#utility.yul\":120:125   */\n      0x00\n        /* \"#utility.yul\":145:226   */\n      tag_33\n        /* \"#utility.yul\":161:225   */\n      tag_34\n        /* \"#utility.yul\":218:224   */\n      dup5\n        /* \"#utility.yul\":161:225   */\n      tag_35\n      jump\t// in\n    tag_34:\n        /* \"#utility.yul\":145:226   */\n      tag_36\n      jump\t// in\n    tag_33:\n        /* \"#utility.yul\":136:226   */\n      swap1\n      pop\n        /* \"#utility.yul\":246:251   */\n      dup1\n        /* \"#utility.yul\":275:281   */\n      dup4\n        /* \"#utility.yul\":268:273   */\n      dup3\n        /* \"#utility.yul\":261:282   */\n      mstore\n        /* \"#utility.yul\":309:313   */\n      0x20\n        /* \"#utility.yul\":302:307   */\n      dup3\n        /* \"#utility.yul\":298:314   */\n      add\n        /* \"#utility.yul\":291:314   */\n      swap1\n      pop\n        /* \"#utility.yul\":335:341   */\n      dup3\n        /* \"#utility.yul\":385:388   */\n      dup6\n        /* \"#utility.yul\":377:381   */\n      0x20\n        /* \"#utility.yul\":369:375   */\n      dup7\n        /* \"#utility.yul\":365:382   */\n      mul\n        /* \"#utility.yul\":360:363   */\n      dup3\n        /* \"#utility.yul\":356:383   */\n      add\n        /* \"#utility.yul\":353:389   */\n      gt\n        /* \"#utility.yul\":350:493   */\n      iszero\n      tag_37\n      jumpi\n        /* \"#utility.yul\":404:483   */\n      tag_38\n      tag_39\n      jump\t// in\n    tag_38:\n        /* \"#utility.yul\":350:493   */\n    tag_37:\n        /* \"#utility.yul\":517:518   */\n      0x00\n        /* \"#utility.yul\":502:740   */\n    tag_40:\n        /* \"#utility.yul\":527:533   */\n      dup6\n        /* \"#utility.yul\":524:525   */\n      dup2\n        /* \"#utility.yul\":521:534   */\n      lt\n        /* \"#utility.yul\":502:740   */\n      iszero\n      tag_42\n      jumpi\n        /* \"#utility.yul\":595:598   */\n      dup2\n        /* \"#utility.yul\":624:661   */\n      tag_43\n        /* \"#utility.yul\":657:660   */\n      dup9\n        /* \"#utility.yul\":645:655   */\n      dup3\n        /* \"#utility.yul\":624:661   */\n      tag_44\n      jump\t// in\n    tag_43:\n        /* \"#utility.yul\":619:622   */\n      dup5\n        /* \"#utility.yul\":612:662   */\n      mstore\n        /* \"#utility.yul\":691:695   */\n      0x20\n        /* \"#utility.yul\":686:689   */\n      dup5\n        /* \"#utility.yul\":682:696   */\n      add\n        /* \"#utility.yul\":675:696   */\n      swap4\n      pop\n        /* \"#utility.yul\":725:729   */\n      0x20\n        /* \"#utility.yul\":720:723   */\n      dup4\n        /* \"#utility.yul\":716:730   */\n      add\n        /* \"#utility.yul\":709:730   */\n      swap3\n      pop\n        /* \"#utility.yul\":562:740   */\n      pop\n        /* \"#utility.yul\":549:550   */\n      0x01\n        /* \"#utility.yul\":546:547   */\n      dup2\n        /* \"#utility.yul\":542:551   */\n      add\n        /* \"#utility.yul\":537:551   */\n      swap1\n      pop\n        /* \"#utility.yul\":502:740   */\n      jump(tag_40)\n    tag_42:\n        /* \"#utility.yul\":506:520   */\n      pop\n        /* \"#utility.yul\":126:746   */\n      pop\n      pop\n        /* \"#utility.yul\":24:746   */\n      swap4\n      swap3\n      pop\n      pop\n      pop\n      jump\t// out\n        /* \"#utility.yul\":752:1162   */\n    tag_45:\n        /* \"#utility.yul\":829:834   */\n      0x00\n        /* \"#utility.yul\":854:919   */\n      tag_47\n        /* \"#utility.yul\":870:918   */\n      tag_48\n        /* \"#utility.yul\":911:917   */\n      dup5\n        /* \"#utility.yul\":870:918   */\n      tag_49\n      jump\t// in\n    tag_48:\n        /* \"#utility.yul\":854:919   */\n      tag_36\n      jump\t// in\n    tag_47:\n        /* \"#utility.yul\":845:919   */\n      swap1\n      pop\n        /* \"#utility.yul\":942:948   */\n      dup3\n        /* \"#utility.yul\":935:940   */\n      dup2\n        /* \"#utility.yul\":928:949   */\n      mstore\n        /* \"#utility.yul\":980:984   */\n      0x20\n        /* \"#utility.yul\":973:978   */\n      dup2\n        /* \"#utility.yul\":969:985   */\n      add\n        /* \"#utility.yul\":1018:1021   */\n      dup5\n        /* \"#utility.yul\":1009:1015   */\n      dup5\n        /* \"#utility.yul\":1004:1007   */\n      dup5\n        /* \"#utility.yul\":1000:1016   */\n      add\n        /* \"#utility.yul\":997:1022   */\n      gt\n        /* \"#utility.yul\":994:1106   */\n      iszero\n      tag_50\n      jumpi\n        /* \"#utility.yul\":1025:1104   */\n      tag_51\n      tag_52\n      jump\t// in\n    tag_51:\n        /* \"#utility.yul\":994:1106   */\n    tag_50:\n        /* \"#utility.yul\":1115:1156   */\n      tag_53\n        /* \"#utility.yul\":1149:1155   */\n      dup5\n        /* \"#utility.yul\":1144:1147   */\n      dup3\n        /* \"#utility.yul\":1139:1142   */\n      dup6\n        /* \"#utility.yul\":1115:1156   */\n      tag_54\n      jump\t// in\n    tag_53:\n        /* \"#utility.yul\":835:1162   */\n      pop\n        /* \"#utility.yul\":752:1162   */\n      swap4\n      swap3\n      pop\n      pop\n      pop\n      jump\t// out\n        /* \"#utility.yul\":1168:1307   */\n    tag_55:\n        /* \"#utility.yul\":1214:1219   */\n      0x00\n        /* \"#utility.yul\":1252:1258   */\n      dup2\n        /* \"#utility.yul\":1239:1259   */\n      calldataload\n        /* \"#utility.yul\":1230:1259   */\n      swap1\n      pop\n        /* \"#utility.yul\":1268:1301   */\n      tag_57\n        /* \"#utility.yul\":1295:1300   */\n      dup2\n        /* \"#utility.yul\":1268:1301   */\n      tag_58\n      jump\t// in\n    tag_57:\n        /* \"#utility.yul\":1168:1307   */\n      swap3\n      swap2\n      pop\n      pop\n      jump\t// out\n        /* \"#utility.yul\":1330:1700   */\n    tag_59:\n        /* \"#utility.yul\":1401:1406   */\n      0x00\n        /* \"#utility.yul\":1450:1453   */\n      dup3\n        /* \"#utility.yul\":1443:1447   */\n      0x1f\n        /* \"#utility.yul\":1435:1441   */\n      dup4\n        /* \"#utility.yul\":1431:1448   */\n      add\n        /* \"#utility.yul\":1427:1454   */\n      slt\n        /* \"#utility.yul\":1417:1539   */\n      tag_61\n      jumpi\n        /* \"#utility.yul\":1458:1537   */\n      tag_62\n      tag_63\n      jump\t// in\n    tag_62:\n        /* \"#utility.yul\":1417:1539   */\n    tag_61:\n        /* \"#utility.yul\":1575:1581   */\n      dup2\n        /* \"#utility.yul\":1562:1582   */\n      calldataload\n        /* \"#utility.yul\":1600:1694   */\n      tag_64\n        /* \"#utility.yul\":1690:1693   */\n      dup5\n        /* \"#utility.yul\":1682:1688   */\n      dup3\n        /* \"#utility.yul\":1675:1679   */\n      0x20\n        /* \"#utility.yul\":1667:1673   */\n      dup7\n        /* \"#utility.yul\":1663:1680   */\n      add\n        /* \"#utility.yul\":1600:1694   */\n      tag_31\n      jump\t// in\n    tag_64:\n        /* \"#utility.yul\":1591:1694   */\n      swap2\n      pop\n        /* \"#utility.yul\":1407:1700   */\n      pop\n        /* \"#utility.yul\":1330:1700   */\n      swap3\n      swap2\n      pop\n      pop\n      jump\t// out\n        /* \"#utility.yul\":1706:1843   */\n    tag_65:\n        /* \"#utility.yul\":1751:1756   */\n      0x00\n        /* \"#utility.yul\":1789:1795   */\n      dup2\n        /* \"#utility.yul\":1776:1796   */\n      calldataload\n        /* \"#utility.yul\":1767:1796   */\n      swap1\n      pop\n        /* \"#utility.yul\":1805:1837   */\n      tag_67\n        /* \"#utility.yul\":1831:1836   */\n      dup2\n        /* \"#utility.yul\":1805:1837   */\n      tag_68\n      jump\t// in\n    tag_67:\n        /* \"#utility.yul\":1706:1843   */\n      swap3\n      swap2\n      pop\n      pop\n      jump\t// out\n        /* \"#utility.yul\":1862:2200   */\n    tag_69:\n        /* \"#utility.yul\":1917:1922   */\n      0x00\n        /* \"#utility.yul\":1966:1969   */\n      dup3\n        /* \"#utility.yul\":1959:1963   */\n      0x1f\n        /* \"#utility.yul\":1951:1957   */\n      dup4\n        /* \"#utility.yul\":1947:1964   */\n      add\n        /* \"#utility.yul\":1943:1970   */\n      slt\n        /* \"#utility.yul\":1933:2055   */\n      tag_71\n      jumpi\n        /* \"#utility.yul\":1974:2053   */\n      tag_72\n      tag_63\n      jump\t// in\n    tag_72:\n        /* \"#utility.yul\":1933:2055   */\n    tag_71:\n        /* \"#utility.yul\":2091:2097   */\n      dup2\n        /* \"#utility.yul\":2078:2098   */\n      calldataload\n        /* \"#utility.yul\":2116:2194   */\n      tag_73\n        /* \"#utility.yul\":2190:2193   */\n      dup5\n        /* \"#utility.yul\":2182:2188   */\n      dup3\n        /* \"#utility.yul\":2175:2179   */\n      0x20\n        /* \"#utility.yul\":2167:2173   */\n      dup7\n        /* \"#utility.yul\":2163:2180   */\n      add\n        /* \"#utility.yul\":2116:2194   */\n      tag_45\n      jump\t// in\n    tag_73:\n        /* \"#utility.yul\":2107:2194   */\n      swap2\n      pop\n        /* \"#utility.yul\":1923:2200   */\n      pop\n        /* \"#utility.yul\":1862:2200   */\n      swap3\n      swap2\n      pop\n      pop\n      jump\t// out\n        /* \"#utility.yul\":2206:2345   */\n    tag_44:\n        /* \"#utility.yul\":2252:2257   */\n      0x00\n        /* \"#utility.yul\":2290:2296   */\n      dup2\n        /* \"#utility.yul\":2277:2297   */\n      calldataload\n        /* \"#utility.yul\":2268:2297   */\n      swap1\n      pop\n        /* \"#utility.yul\":2306:2339   */\n      tag_75\n        /* \"#utility.yul\":2333:2338   */\n      dup2\n        /* \"#utility.yul\":2306:2339   */\n      tag_76\n      jump\t// in\n    tag_75:\n        /* \"#utility.yul\":2206:2345   */\n      swap3\n      swap2\n      pop\n      pop\n      jump\t// out\n        /* \"#utility.yul\":2351:3860   */\n    tag_14:\n        /* \"#utility.yul\":2505:2511   */\n      0x00\n        /* \"#utility.yul\":2513:2519   */\n      dup1\n        /* \"#utility.yul\":2521:2527   */\n      0x00\n        /* \"#utility.yul\":2529:2535   */\n      dup1\n        /* \"#utility.yul\":2537:2543   */\n      0x00\n        /* \"#utility.yul\":2586:2589   */\n      0xa0\n        /* \"#utility.yul\":2574:2583   */\n      dup7\n        /* \"#utility.yul\":2565:2572   */\n      dup9\n        /* \"#utility.yul\":2561:2584   */\n      sub\n        /* \"#utility.yul\":2557:2590   */\n      slt\n        /* \"#utility.yul\":2554:2674   */\n      iszero\n      tag_78\n      jumpi\n        /* \"#utility.yul\":2593:2672   */\n      tag_79\n      tag_80\n      jump\t// in\n    tag_79:\n        /* \"#utility.yul\":2554:2674   */\n    tag_78:\n        /* \"#utility.yul\":2713:2714   */\n      0x00\n        /* \"#utility.yul\":2738:2791   */\n      tag_81\n        /* \"#utility.yul\":2783:2790   */\n      dup9\n        /* \"#utility.yul\":2774:2780   */\n      dup3\n        /* \"#utility.yul\":2763:2772   */\n      dup10\n        /* \"#utility.yul\":2759:2781   */\n      add\n        /* \"#utility.yul\":2738:2791   */\n      tag_55\n      jump\t// in\n    tag_81:\n        /* \"#utility.yul\":2728:2791   */\n      swap6\n      pop\n        /* \"#utility.yul\":2684:2801   */\n      pop\n        /* \"#utility.yul\":2840:2842   */\n      0x20\n        /* \"#utility.yul\":2866:2919   */\n      tag_82\n        /* \"#utility.yul\":2911:2918   */\n      dup9\n        /* \"#utility.yul\":2902:2908   */\n      dup3\n        /* \"#utility.yul\":2891:2900   */\n      dup10\n        /* \"#utility.yul\":2887:2909   */\n      add\n        /* \"#utility.yul\":2866:2919   */\n      tag_55\n      jump\t// in\n    tag_82:\n        /* \"#utility.yul\":2856:2919   */\n      swap5\n      pop\n        /* \"#utility.yul\":2811:2929   */\n      pop\n        /* \"#utility.yul\":2996:2998   */\n      0x40\n        /* \"#utility.yul\":2985:2994   */\n      dup7\n        /* \"#utility.yul\":2981:2999   */\n      add\n        /* \"#utility.yul\":2968:3000   */\n      calldataload\n        /* \"#utility.yul\":3027:3045   */\n      0xffffffffffffffff\n        /* \"#utility.yul\":3019:3025   */\n      dup2\n        /* \"#utility.yul\":3016:3046   */\n      gt\n        /* \"#utility.yul\":3013:3130   */\n      iszero\n      tag_83\n      jumpi\n        /* \"#utility.yul\":3049:3128   */\n      tag_84\n      tag_85\n      jump\t// in\n    tag_84:\n        /* \"#utility.yul\":3013:3130   */\n    tag_83:\n        /* \"#utility.yul\":3154:3232   */\n      tag_86\n        /* \"#utility.yul\":3224:3231   */\n      dup9\n        /* \"#utility.yul\":3215:3221   */\n      dup3\n        /* \"#utility.yul\":3204:3213   */\n      dup10\n        /* \"#utility.yul\":3200:3222   */\n      add\n        /* \"#utility.yul\":3154:3232   */\n      tag_59\n      jump\t// in\n    tag_86:\n        /* \"#utility.yul\":3144:3232   */\n      swap4\n      pop\n        /* \"#utility.yul\":2939:3242   */\n      pop\n        /* \"#utility.yul\":3309:3311   */\n      0x60\n        /* \"#utility.yul\":3298:3307   */\n      dup7\n        /* \"#utility.yul\":3294:3312   */\n      add\n        /* \"#utility.yul\":3281:3313   */\n      calldataload\n        /* \"#utility.yul\":3340:3358   */\n      0xffffffffffffffff\n        /* \"#utility.yul\":3332:3338   */\n      dup2\n        /* \"#utility.yul\":3329:3359   */\n      gt\n        /* \"#utility.yul\":3326:3443   */\n      iszero\n      tag_87\n      jumpi\n        /* \"#utility.yul\":3362:3441   */\n      tag_88\n      tag_85\n      jump\t// in\n    tag_88:\n        /* \"#utility.yul\":3326:3443   */\n    tag_87:\n        /* \"#utility.yul\":3467:3545   */\n      tag_89\n        /* \"#utility.yul\":3537:3544   */\n      dup9\n        /* \"#utility.yul\":3528:3534   */\n      dup3\n        /* \"#utility.yul\":3517:3526   */\n      dup10\n        /* \"#utility.yul\":3513:3535   */\n      add\n        /* \"#utility.yul\":3467:3545   */\n      tag_59\n      jump\t// in\n    tag_89:\n        /* \"#utility.yul\":3457:3545   */\n      swap3\n      pop\n        /* \"#utility.yul\":3252:3555   */\n      pop\n        /* \"#utility.yul\":3622:3625   */\n      0x80\n        /* \"#utility.yul\":3611:3620   */\n      dup7\n        /* \"#utility.yul\":3607:3626   */\n      add\n        /* \"#utility.yul\":3594:3627   */\n      calldataload\n        /* \"#utility.yul\":3654:3672   */\n      0xffffffffffffffff\n        /* \"#utility.yul\":3646:3652   */\n      dup2\n        /* \"#utility.yul\":3643:3673   */\n      gt\n        /* \"#utility.yul\":3640:3757   */\n      iszero\n      tag_90\n      jumpi\n        /* \"#utility.yul\":3676:3755   */\n      tag_91\n      tag_85\n      jump\t// in\n    tag_91:\n        /* \"#utility.yul\":3640:3757   */\n    tag_90:\n        /* \"#utility.yul\":3781:3843   */\n      tag_92\n        /* \"#utility.yul\":3835:3842   */\n      dup9\n        /* \"#utility.yul\":3826:3832   */\n      dup3\n        /* \"#utility.yul\":3815:3824   */\n      dup10\n        /* \"#utility.yul\":3811:3833   */\n      add\n        /* \"#utility.yul\":3781:3843   */\n      tag_69\n      jump\t// in\n    tag_92:\n        /* \"#utility.yul\":3771:3843   */\n      swap2\n      pop\n        /* \"#utility.yul\":3565:3853   */\n      pop\n        /* \"#utility.yul\":2351:3860   */\n      swap3\n      swap6\n      pop\n      swap3\n      swap6\n      swap1\n      swap4\n      pop\n      jump\t// out\n        /* \"#utility.yul\":3866:4955   */\n    tag_20:\n        /* \"#utility.yul\":3970:3976   */\n      0x00\n        /* \"#utility.yul\":3978:3984   */\n      dup1\n        /* \"#utility.yul\":3986:3992   */\n      0x00\n        /* \"#utility.yul\":3994:4000   */\n      dup1\n        /* \"#utility.yul\":4002:4008   */\n      0x00\n        /* \"#utility.yul\":4051:4054   */\n      0xa0\n        /* \"#utility.yul\":4039:4048   */\n      dup7\n        /* \"#utility.yul\":4030:4037   */\n      dup9\n        /* \"#utility.yul\":4026:4049   */\n      sub\n        /* \"#utility.yul\":4022:4055   */\n      slt\n        /* \"#utility.yul\":4019:4139   */\n      iszero\n      tag_94\n      jumpi\n        /* \"#utility.yul\":4058:4137   */\n      tag_95\n      tag_80\n      jump\t// in\n    tag_95:\n        /* \"#utility.yul\":4019:4139   */\n    tag_94:\n        /* \"#utility.yul\":4178:4179   */\n      0x00\n        /* \"#utility.yul\":4203:4256   */\n      tag_96\n        /* \"#utility.yul\":4248:4255   */\n      dup9\n        /* \"#utility.yul\":4239:4245   */\n      dup3\n        /* \"#utility.yul\":4228:4237   */\n      dup10\n        /* \"#utility.yul\":4224:4246   */\n      add\n        /* \"#utility.yul\":4203:4256   */\n      tag_55\n      jump\t// in\n    tag_96:\n        /* \"#utility.yul\":4193:4256   */\n      swap6\n      pop\n        /* \"#utility.yul\":4149:4266   */\n      pop\n        /* \"#utility.yul\":4305:4307   */\n      0x20\n        /* \"#utility.yul\":4331:4384   */\n      tag_97\n        /* \"#utility.yul\":4376:4383   */\n      dup9\n        /* \"#utility.yul\":4367:4373   */\n      dup3\n        /* \"#utility.yul\":4356:4365   */\n      dup10\n        /* \"#utility.yul\":4352:4374   */\n      add\n        /* \"#utility.yul\":4331:4384   */\n      tag_55\n      jump\t// in\n    tag_97:\n        /* \"#utility.yul\":4321:4384   */\n      swap5\n      pop\n        /* \"#utility.yul\":4276:4394   */\n      pop\n        /* \"#utility.yul\":4433:4435   */\n      0x40\n        /* \"#utility.yul\":4459:4512   */\n      tag_98\n        /* \"#utility.yul\":4504:4511   */\n      dup9\n        /* \"#utility.yul\":4495:4501   */\n      dup3\n        /* \"#utility.yul\":4484:4493   */\n      dup10\n        /* \"#utility.yul\":4480:4502   */\n      add\n        /* \"#utility.yul\":4459:4512   */\n      tag_44\n      jump\t// in\n    tag_98:\n        /* \"#utility.yul\":4449:4512   */\n      swap4\n      pop\n        /* \"#utility.yul\":4404:4522   */\n      pop\n        /* \"#utility.yul\":4561:4563   */\n      0x60\n        /* \"#utility.yul\":4587:4640   */\n      tag_99\n        /* \"#utility.yul\":4632:4639   */\n      dup9\n        /* \"#utility.yul\":4623:4629   */\n      dup3\n        /* \"#utility.yul\":4612:4621   */\n      dup10\n        /* \"#utility.yul\":4608:4630   */\n      add\n        /* \"#utility.yul\":4587:4640   */\n      tag_44\n      jump\t// in\n    tag_99:\n        /* \"#utility.yul\":4577:4640   */\n      swap3\n      pop\n        /* \"#utility.yul\":4532:4650   */\n      pop\n        /* \"#utility.yul\":4717:4720   */\n      0x80\n        /* \"#utility.yul\":4706:4715   */\n      dup7\n        /* \"#utility.yul\":4702:4721   */\n      add\n        /* \"#utility.yul\":4689:4722   */\n      calldataload\n        /* \"#utility.yul\":4749:4767   */\n      0xffffffffffffffff\n        /* \"#utility.yul\":4741:4747   */\n      dup2\n        /* \"#utility.yul\":4738:4768   */\n      gt\n        /* \"#utility.yul\":4735:4852   */\n      iszero\n      tag_100\n      jumpi\n        /* \"#utility.yul\":4771:4850   */\n      tag_101\n      tag_85\n      jump\t// in\n    tag_101:\n        /* \"#utility.yul\":4735:4852   */\n    tag_100:\n        /* \"#utility.yul\":4876:4938   */\n      tag_102\n        /* \"#utility.yul\":4930:4937   */\n      dup9\n        /* \"#utility.yul\":4921:4927   */\n      dup3\n        /* \"#utility.yul\":4910:4919   */\n      dup10\n        /* \"#utility.yul\":4906:4928   */\n      add\n        /* \"#utility.yul\":4876:4938   */\n      tag_69\n      jump\t// in\n    tag_102:\n        /* \"#utility.yul\":4866:4938   */\n      swap2\n      pop\n        /* \"#utility.yul\":4660:4948   */\n      pop\n        /* \"#utility.yul\":3866:4955   */\n      swap3\n      swap6\n      pop\n      swap3\n      swap6\n      swap1\n      swap4\n      pop\n      jump\t// out\n        /* \"#utility.yul\":4961:5288   */\n    tag_8:\n        /* \"#utility.yul\":5019:5025   */\n      0x00\n        /* \"#utility.yul\":5068:5070   */\n      0x20\n        /* \"#utility.yul\":5056:5065   */\n      dup3\n        /* \"#utility.yul\":5047:5054   */\n      dup5\n        /* \"#utility.yul\":5043:5066   */\n      sub\n        /* \"#utility.yul\":5039:5071   */\n      slt\n        /* \"#utility.yul\":5036:5155   */\n      iszero\n      tag_104\n      jumpi\n        /* \"#utility.yul\":5074:5153   */\n      tag_105\n      tag_80\n      jump\t// in\n    tag_105:\n        /* \"#utility.yul\":5036:5155   */\n    tag_104:\n        /* \"#utility.yul\":5194:5195   */\n      0x00\n        /* \"#utility.yul\":5219:5271   */\n      tag_106\n        /* \"#utility.yul\":5263:5270   */\n      dup5\n        /* \"#utility.yul\":5254:5260   */\n      dup3\n        /* \"#utility.yul\":5243:5252   */\n      dup6\n        /* \"#utility.yul\":5239:5261   */\n      add\n        /* \"#utility.yul\":5219:5271   */\n      tag_65\n      jump\t// in\n    tag_106:\n        /* \"#utility.yul\":5209:5271   */\n      swap2\n      pop\n        /* \"#utility.yul\":5165:5281   */\n      pop\n        /* \"#utility.yul\":4961:5288   */\n      swap3\n      swap2\n      pop\n      pop\n      jump\t// out\n        /* \"#utility.yul\":5294:5403   */\n    tag_107:\n        /* \"#utility.yul\":5375:5396   */\n      tag_109\n        /* \"#utility.yul\":5390:5395   */\n      dup2\n        /* \"#utility.yul\":5375:5396   */\n      tag_110\n      jump\t// in\n    tag_109:\n        /* \"#utility.yul\":5370:5373   */\n      dup3\n        /* \"#utility.yul\":5363:5397   */\n      mstore\n        /* \"#utility.yul\":5294:5403   */\n      pop\n      pop\n      jump\t// out\n        /* \"#utility.yul\":5409:5524   */\n    tag_111:\n        /* \"#utility.yul\":5494:5517   */\n      tag_113\n        /* \"#utility.yul\":5511:5516   */\n      dup2\n        /* \"#utility.yul\":5494:5517   */\n      tag_114\n      jump\t// in\n    tag_113:\n        /* \"#utility.yul\":5489:5492   */\n      dup3\n        /* \"#utility.yul\":5482:5518   */\n      mstore\n        /* \"#utility.yul\":5409:5524   */\n      pop\n      pop\n      jump\t// out\n        /* \"#utility.yul\":5530:5740   */\n    tag_11:\n        /* \"#utility.yul\":5617:5621   */\n      0x00\n        /* \"#utility.yul\":5655:5657   */\n      0x20\n        /* \"#utility.yul\":5644:5653   */\n      dup3\n        /* \"#utility.yul\":5640:5658   */\n      add\n        /* \"#utility.yul\":5632:5658   */\n      swap1\n      pop\n        /* \"#utility.yul\":5668:5733   */\n      tag_116\n        /* \"#utility.yul\":5730:5731   */\n      0x00\n        /* \"#utility.yul\":5719:5728   */\n      dup4\n        /* \"#utility.yul\":5715:5732   */\n      add\n        /* \"#utility.yul\":5706:5712   */\n      dup5\n        /* \"#utility.yul\":5668:5733   */\n      tag_107\n      jump\t// in\n    tag_116:\n        /* \"#utility.yul\":5530:5740   */\n      swap3\n      swap2\n      pop\n      pop\n      jump\t// out\n        /* \"#utility.yul\":5746:5964   */\n    tag_17:\n        /* \"#utility.yul\":5837:5841   */\n      0x00\n        /* \"#utility.yul\":5875:5877   */\n      0x20\n        /* \"#utility.yul\":5864:5873   */\n      dup3\n        /* \"#utility.yul\":5860:5878   */\n      add\n        /* \"#utility.yul\":5852:5878   */\n      swap1\n      pop\n        /* \"#utility.yul\":5888:5957   */\n      tag_118\n        /* \"#utility.yul\":5954:5955   */\n      0x00\n        /* \"#utility.yul\":5943:5952   */\n      dup4\n        /* \"#utility.yul\":5939:5956   */\n      add\n        /* \"#utility.yul\":5930:5936   */\n      dup5\n        /* \"#utility.yul\":5888:5957   */\n      tag_111\n      jump\t// in\n    tag_118:\n        /* \"#utility.yul\":5746:5964   */\n      swap3\n      swap2\n      pop\n      pop\n      jump\t// out\n        /* \"#utility.yul\":5970:6099   */\n    tag_36:\n        /* \"#utility.yul\":6004:6010   */\n      0x00\n        /* \"#utility.yul\":6031:6051   */\n      tag_120\n      tag_121\n      jump\t// in\n    tag_120:\n        /* \"#utility.yul\":6021:6051   */\n      swap1\n      pop\n        /* \"#utility.yul\":6060:6093   */\n      tag_122\n        /* \"#utility.yul\":6088:6092   */\n      dup3\n        /* \"#utility.yul\":6080:6086   */\n      dup3\n        /* \"#utility.yul\":6060:6093   */\n      tag_123\n      jump\t// in\n    tag_122:\n        /* \"#utility.yul\":5970:6099   */\n      swap2\n      swap1\n      pop\n      jump\t// out\n        /* \"#utility.yul\":6105:6180   */\n    tag_121:\n        /* \"#utility.yul\":6138:6144   */\n      0x00\n        /* \"#utility.yul\":6171:6173   */\n      0x40\n        /* \"#utility.yul\":6165:6174   */\n      mload\n        /* \"#utility.yul\":6155:6174   */\n      swap1\n      pop\n        /* \"#utility.yul\":6105:6180   */\n      swap1\n      jump\t// out\n        /* \"#utility.yul\":6186:6497   */\n    tag_35:\n        /* \"#utility.yul\":6263:6267   */\n      0x00\n        /* \"#utility.yul\":6353:6371   */\n      0xffffffffffffffff\n        /* \"#utility.yul\":6345:6351   */\n      dup3\n        /* \"#utility.yul\":6342:6372   */\n      gt\n        /* \"#utility.yul\":6339:6395   */\n      iszero\n      tag_126\n      jumpi\n        /* \"#utility.yul\":6375:6393   */\n      tag_127\n      tag_128\n      jump\t// in\n    tag_127:\n        /* \"#utility.yul\":6339:6395   */\n    tag_126:\n        /* \"#utility.yul\":6425:6429   */\n      0x20\n        /* \"#utility.yul\":6417:6423   */\n      dup3\n        /* \"#utility.yul\":6413:6430   */\n      mul\n        /* \"#utility.yul\":6405:6430   */\n      swap1\n      pop\n        /* \"#utility.yul\":6485:6489   */\n      0x20\n        /* \"#utility.yul\":6479:6483   */\n      dup2\n        /* \"#utility.yul\":6475:6490   */\n      add\n        /* \"#utility.yul\":6467:6490   */\n      swap1\n      pop\n        /* \"#utility.yul\":6186:6497   */\n      swap2\n      swap1\n      pop\n      jump\t// out\n        /* \"#utility.yul\":6503:6810   */\n    tag_49:\n        /* \"#utility.yul\":6564:6568   */\n      0x00\n        /* \"#utility.yul\":6654:6672   */\n      0xffffffffffffffff\n        /* \"#utility.yul\":6646:6652   */\n      dup3\n        /* \"#utility.yul\":6643:6673   */\n      gt\n        /* \"#utility.yul\":6640:6696   */\n      iszero\n      tag_130\n      jumpi\n        /* \"#utility.yul\":6676:6694   */\n      tag_131\n      tag_128\n      jump\t// in\n    tag_131:\n        /* \"#utility.yul\":6640:6696   */\n    tag_130:\n        /* \"#utility.yul\":6714:6743   */\n      tag_132\n        /* \"#utility.yul\":6736:6742   */\n      dup3\n        /* \"#utility.yul\":6714:6743   */\n      tag_133\n      jump\t// in\n    tag_132:\n        /* \"#utility.yul\":6706:6743   */\n      swap1\n      pop\n        /* \"#utility.yul\":6798:6802   */\n      0x20\n        /* \"#utility.yul\":6792:6796   */\n      dup2\n        /* \"#utility.yul\":6788:6803   */\n      add\n        /* \"#utility.yul\":6780:6803   */\n      swap1\n      pop\n        /* \"#utility.yul\":6503:6810   */\n      swap2\n      swap1\n      pop\n      jump\t// out\n        /* \"#utility.yul\":6816:6912   */\n    tag_134:\n        /* \"#utility.yul\":6853:6860   */\n      0x00\n        /* \"#utility.yul\":6882:6906   */\n      tag_136\n        /* \"#utility.yul\":6900:6905   */\n      dup3\n        /* \"#utility.yul\":6882:6906   */\n      tag_137\n      jump\t// in\n    tag_136:\n        /* \"#utility.yul\":6871:6906   */\n      swap1\n      pop\n        /* \"#utility.yul\":6816:6912   */\n      swap2\n      swap1\n      pop\n      jump\t// out\n        /* \"#utility.yul\":6918:7008   */\n    tag_110:\n        /* \"#utility.yul\":6952:6959   */\n      0x00\n        /* \"#utility.yul\":6995:7000   */\n      dup2\n        /* \"#utility.yul\":6988:7001   */\n      iszero\n        /* \"#utility.yul\":6981:7002   */\n      iszero\n        /* \"#utility.yul\":6970:7002   */\n      swap1\n      pop\n        /* \"#utility.yul\":6918:7008   */\n      swap2\n      swap1\n      pop\n      jump\t// out\n        /* \"#utility.yul\":7014:7163   */\n    tag_114:\n        /* \"#utility.yul\":7050:7057   */\n      0x00\n        /* \"#utility.yul\":7090:7156   */\n      0xffffffff00000000000000000000000000000000000000000000000000000000\n        /* \"#utility.yul\":7083:7088   */\n      dup3\n        /* \"#utility.yul\":7079:7157   */\n      and\n        /* \"#utility.yul\":7068:7157   */\n      swap1\n      pop\n        /* \"#utility.yul\":7014:7163   */\n      swap2\n      swap1\n      pop\n      jump\t// out\n        /* \"#utility.yul\":7169:7295   */\n    tag_137:\n        /* \"#utility.yul\":7206:7213   */\n      0x00\n        /* \"#utility.yul\":7246:7288   */\n      0xffffffffffffffffffffffffffffffffffffffff\n        /* \"#utility.yul\":7239:7244   */\n      dup3\n        /* \"#utility.yul\":7235:7289   */\n      and\n        /* \"#utility.yul\":7224:7289   */\n      swap1\n      pop\n        /* \"#utility.yul\":7169:7295   */\n      swap2\n      swap1\n      pop\n      jump\t// out\n        /* \"#utility.yul\":7301:7378   */\n    tag_141:\n        /* \"#utility.yul\":7338:7345   */\n      0x00\n        /* \"#utility.yul\":7367:7372   */\n      dup2\n        /* \"#utility.yul\":7356:7372   */\n      swap1\n      pop\n        /* \"#utility.yul\":7301:7378   */\n      swap2\n      swap1\n      pop\n      jump\t// out\n        /* \"#utility.yul\":7384:7538   */\n    tag_54:\n        /* \"#utility.yul\":7468:7474   */\n      dup3\n        /* \"#utility.yul\":7463:7466   */\n      dup2\n        /* \"#utility.yul\":7458:7461   */\n      dup4\n        /* \"#utility.yul\":7445:7475   */\n      calldatacopy\n        /* \"#utility.yul\":7530:7531   */\n      0x00\n        /* \"#utility.yul\":7521:7527   */\n      dup4\n        /* \"#utility.yul\":7516:7519   */\n      dup4\n        /* \"#utility.yul\":7512:7528   */\n      add\n        /* \"#utility.yul\":7505:7532   */\n      mstore\n        /* \"#utility.yul\":7384:7538   */\n      pop\n      pop\n      pop\n      jump\t// out\n        /* \"#utility.yul\":7544:7825   */\n    tag_123:\n        /* \"#utility.yul\":7627:7654   */\n      tag_145\n        /* \"#utility.yul\":7649:7653   */\n      dup3\n        /* \"#utility.yul\":7627:7654   */\n      tag_133\n      jump\t// in\n    tag_145:\n        /* \"#utility.yul\":7619:7625   */\n      dup2\n        /* \"#utility.yul\":7615:7655   */\n      add\n        /* \"#utility.yul\":7757:7763   */\n      dup2\n        /* \"#utility.yul\":7745:7755   */\n      dup2\n        /* \"#utility.yul\":7742:7764   */\n      lt\n        /* \"#utility.yul\":7721:7739   */\n      0xffffffffffffffff\n        /* \"#utility.yul\":7709:7719   */\n      dup3\n        /* \"#utility.yul\":7706:7740   */\n      gt\n        /* \"#utility.yul\":7703:7765   */\n      or\n        /* \"#utility.yul\":7700:7788   */\n      iszero\n      tag_146\n      jumpi\n        /* \"#utility.yul\":7768:7786   */\n      tag_147\n      tag_128\n      jump\t// in\n    tag_147:\n        /* \"#utility.yul\":7700:7788   */\n    tag_146:\n        /* \"#utility.yul\":7808:7818   */\n      dup1\n        /* \"#utility.yul\":7804:7806   */\n      0x40\n        /* \"#utility.yul\":7797:7819   */\n      mstore\n        /* \"#utility.yul\":7587:7825   */\n      pop\n        /* \"#utility.yul\":7544:7825   */\n      pop\n      pop\n      jump\t// out\n        /* \"#utility.yul\":7831:8011   */\n    tag_128:\n        /* \"#utility.yul\":7879:7956   */\n      0x4e487b7100000000000000000000000000000000000000000000000000000000\n        /* \"#utility.yul\":7876:7877   */\n      0x00\n        /* \"#utility.yul\":7869:7957   */\n      mstore\n        /* \"#utility.yul\":7976:7980   */\n      0x41\n        /* \"#utility.yul\":7973:7974   */\n      0x04\n        /* \"#utility.yul\":7966:7981   */\n      mstore\n        /* \"#utility.yul\":8000:8004   */\n      0x24\n        /* \"#utility.yul\":7997:7998   */\n      0x00\n        /* \"#utility.yul\":7990:8005   */\n      revert\n        /* \"#utility.yul\":8017:8134   */\n    tag_63:\n        /* \"#utility.yul\":8126:8127   */\n      0x00\n        /* \"#utility.yul\":8123:8124   */\n      dup1\n        /* \"#utility.yul\":8116:8128   */\n      revert\n        /* \"#utility.yul\":8140:8257   */\n    tag_39:\n        /* \"#utility.yul\":8249:8250   */\n      0x00\n        /* \"#utility.yul\":8246:8247   */\n      dup1\n        /* \"#utility.yul\":8239:8251   */\n      revert\n        /* \"#utility.yul\":8263:8380   */\n    tag_52:\n        /* \"#utility.yul\":8372:8373   */\n      0x00\n        /* \"#utility.yul\":8369:8370   */\n      dup1\n        /* \"#utility.yul\":8362:8374   */\n      revert\n        /* \"#utility.yul\":8386:8503   */\n    tag_85:\n        /* \"#utility.yul\":8495:8496   */\n      0x00\n        /* \"#utility.yul\":8492:8493   */\n      dup1\n        /* \"#utility.yul\":8485:8497   */\n      revert\n        /* \"#utility.yul\":8509:8626   */\n    tag_80:\n        /* \"#utility.yul\":8618:8619   */\n      0x00\n        /* \"#utility.yul\":8615:8616   */\n      dup1\n        /* \"#utility.yul\":8608:8620   */\n      revert\n        /* \"#utility.yul\":8632:8734   */\n    tag_133:\n        /* \"#utility.yul\":8673:8679   */\n      0x00\n        /* \"#utility.yul\":8724:8726   */\n      0x1f\n        /* \"#utility.yul\":8720:8727   */\n      not\n        /* \"#utility.yul\":8715:8717   */\n      0x1f\n        /* \"#utility.yul\":8708:8713   */\n      dup4\n        /* \"#utility.yul\":8704:8718   */\n      add\n        /* \"#utility.yul\":8700:8728   */\n      and\n        /* \"#utility.yul\":8690:8728   */\n      swap1\n      pop\n        /* \"#utility.yul\":8632:8734   */\n      swap2\n      swap1\n      pop\n      jump\t// out\n        /* \"#utility.yul\":8740:8862   */\n    tag_58:\n        /* \"#utility.yul\":8813:8837   */\n      tag_156\n        /* \"#utility.yul\":8831:8836   */\n      dup2\n        /* \"#utility.yul\":8813:8837   */\n      tag_134\n      jump\t// in\n    tag_156:\n        /* \"#utility.yul\":8806:8811   */\n      dup2\n        /* \"#utility.yul\":8803:8838   */\n      eq\n        /* \"#utility.yul\":8793:8856   */\n      tag_157\n      jumpi\n        /* \"#utility.yul\":8852:8853   */\n      0x00\n        /* \"#utility.yul\":8849:8850   */\n      dup1\n        /* \"#utility.yul\":8842:8854   */\n      revert\n        /* \"#utility.yul\":8793:8856   */\n    tag_157:\n        /* \"#utility.yul\":8740:8862   */\n      pop\n      jump\t// out\n        /* \"#utility.yul\":8868:8988   */\n    tag_68:\n        /* \"#utility.yul\":8940:8963   */\n      tag_159\n        /* \"#utility.yul\":8957:8962   */\n      dup2\n        /* \"#utility.yul\":8940:8963   */\n      tag_114\n      jump\t// in\n    tag_159:\n        /* \"#utility.yul\":8933:8938   */\n      dup2\n        /* \"#utility.yul\":8930:8964   */\n      eq\n        /* \"#utility.yul\":8920:8982   */\n      tag_160\n      jumpi\n        /* \"#utility.yul\":8978:8979   */\n      0x00\n        /* \"#utility.yul\":8975:8976   */\n      dup1\n        /* \"#utility.yul\":8968:8980   */\n      revert\n        /* \"#utility.yul\":8920:8982   */\n    tag_160:\n        /* \"#utility.yul\":8868:8988   */\n      pop\n      jump\t// out\n        /* \"#utility.yul\":8994:9116   */\n    tag_76:\n        /* \"#utility.yul\":9067:9091   */\n      tag_162\n        /* \"#utility.yul\":9085:9090   */\n      dup2\n        /* \"#utility.yul\":9067:9091   */\n      tag_141\n      jump\t// in\n    tag_162:\n        /* \"#utility.yul\":9060:9065   */\n      dup2\n        /* \"#utility.yul\":9057:9092   */\n      eq\n        /* \"#utility.yul\":9047:9110   */\n      tag_163\n      jumpi\n        /* \"#utility.yul\":9106:9107   */\n      0x00\n        /* \"#utility.yul\":9103:9104   */\n      dup1\n        /* \"#utility.yul\":9096:9108   */\n      revert\n        /* \"#utility.yul\":9047:9110   */\n    tag_163:\n        /* \"#utility.yul\":8994:9116   */\n      pop\n      jump\t// out\n\n    auxdata: 0xa26469706673582212205c38a71feef050dfade62137089f79984c2ea208278ab8984649ed46135259f464736f6c63430008070033\n}\n",
				"bytecode": {
					"linkReferences": {},
					"object": "608060405234801561001057600080fd5b50610722806100206000396000f3fe608060405234801561001057600080fd5b50600436106100415760003560e01c806301ffc9a714610046578063bc197c8114610076578063f23a6e61146100a6575b600080fd5b610060600480360381019061005b9190610497565b6100d6565b60405161006d91906104e2565b60405180910390f35b610090600480360381019061008b9190610331565b610150565b60405161009d91906104fd565b60405180910390f35b6100c060048036038101906100bb9190610400565b610165565b6040516100cd91906104fd565b60405180910390f35b60007f4e2312e0000000000000000000000000000000000000000000000000000000007bffffffffffffffffffffffffffffffffffffffffffffffffffffffff1916827bffffffffffffffffffffffffffffffffffffffffffffffffffffffff1916148061014957506101488261017a565b5b9050919050565b600063bc197c8160e01b905095945050505050565b600063f23a6e6160e01b905095945050505050565b60007f01ffc9a7000000000000000000000000000000000000000000000000000000007bffffffffffffffffffffffffffffffffffffffffffffffffffffffff1916827bffffffffffffffffffffffffffffffffffffffffffffffffffffffff1916149050919050565b60006101f76101f28461053d565b610518565b9050808382526020820190508285602086028201111561021a57610219610682565b5b60005b8581101561024a5781610230888261031c565b84526020840193506020830192505060018101905061021d565b5050509392505050565b600061026761026284610569565b610518565b90508281526020810184848401111561028357610282610687565b5b61028e84828561060e565b509392505050565b6000813590506102a5816106a7565b92915050565b600082601f8301126102c0576102bf61067d565b5b81356102d08482602086016101e4565b91505092915050565b6000813590506102e8816106be565b92915050565b600082601f8301126103035761030261067d565b5b8135610313848260208601610254565b91505092915050565b60008135905061032b816106d5565b92915050565b600080600080600060a0868803121561034d5761034c610691565b5b600061035b88828901610296565b955050602061036c88828901610296565b945050604086013567ffffffffffffffff81111561038d5761038c61068c565b5b610399888289016102ab565b935050606086013567ffffffffffffffff8111156103ba576103b961068c565b5b6103c6888289016102ab565b925050608086013567ffffffffffffffff8111156103e7576103e661068c565b5b6103f3888289016102ee565b9150509295509295909350565b600080600080600060a0868803121561041c5761041b610691565b5b600061042a88828901610296565b955050602061043b88828901610296565b945050604061044c8882890161031c565b935050606061045d8882890161031c565b925050608086013567ffffffffffffffff81111561047e5761047d61068c565b5b61048a888289016102ee565b9150509295509295909350565b6000602082840312156104ad576104ac610691565b5b60006104bb848285016102d9565b91505092915050565b6104cd816105ac565b82525050565b6104dc816105b8565b82525050565b60006020820190506104f760008301846104c4565b92915050565b600060208201905061051260008301846104d3565b92915050565b6000610522610533565b905061052e828261061d565b919050565b6000604051905090565b600067ffffffffffffffff8211156105585761055761064e565b5b602082029050602081019050919050565b600067ffffffffffffffff8211156105845761058361064e565b5b61058d82610696565b9050602081019050919050565b60006105a5826105e4565b9050919050565b60008115159050919050565b60007fffffffff0000000000000000000000000000000000000000000000000000000082169050919050565b600073ffffffffffffffffffffffffffffffffffffffff82169050919050565b6000819050919050565b82818337600083830152505050565b61062682610696565b810181811067ffffffffffffffff821117156106455761064461064e565b5b80604052505050565b7f4e487b7100000000000000000000000000000000000000000000000000000000600052604160045260246000fd5b600080fd5b600080fd5b600080fd5b600080fd5b600080fd5b6000601f19601f8301169050919050565b6106b08161059a565b81146106bb57600080fd5b50565b6106c7816105b8565b81146106d257600080fd5b50565b6106de81610604565b81146106e957600080fd5b5056fea26469706673582212205c38a71feef050dfade62137089f79984c2ea208278ab8984649ed46135259f464736f6c63430008070033",
					"opcodes": "PUSH1 0x80 PUSH1 0x40 MSTORE CALLVALUE DUP1 ISZERO PUSH2 0x10 JUMPI PUSH1 0x0 DUP1 REVERT JUMPDEST POP PUSH2 0x722 DUP1 PUSH2 0x20 PUSH1 0x0 CODECOPY PUSH1 0x0 RETURN INVALID PUSH1 0x80 PUSH1 0x40 MSTORE CALLVALUE DUP1 ISZERO PUSH2 0x10 JUMPI PUSH1 0x0 DUP1 REVERT JUMPDEST POP PUSH1 0x4 CALLDATASIZE LT PUSH2 0x41 JUMPI PUSH1 0x0 CALLDATALOAD PUSH1 0xE0 SHR DUP1 PUSH4 0x1FFC9A7 EQ PUSH2 0x46 JUMPI DUP1 PUSH4 0xBC197C81 EQ PUSH2 0x76 JUMPI DUP1 PUSH4 0xF23A6E61 EQ PUSH2 0xA6 JUMPI JUMPDEST PUSH1 0x0 DUP1 REVERT JUMPDEST PUSH2 0x60 PUSH1 0x4 DUP1 CALLDATASIZE SUB DUP2 ADD SWAP1 PUSH2 0x5B SWAP2 SWAP1 PUSH2 0x497 JUMP JUMPDEST PUSH2 0xD6 JUMP JUMPDEST PUSH1 0x40 MLOAD PUSH2 0x6D SWAP2 SWAP1 PUSH2 0x4E2 JUMP JUMPDEST PUSH1 0x40 MLOAD DUP1 SWAP2 SUB SWAP1 RETURN JUMPDEST PUSH2 0x90 PUSH1 0x4 DUP1 CALLDATASIZE SUB DUP2 ADD SWAP1 PUSH2 0x8B SWAP2 SWAP1 PUSH2 0x331 JUMP JUMPDEST PUSH2 0x150 JUMP JUMPDEST PUSH1 0x40 MLOAD PUSH2 0x9D SWAP2 SWAP1 PUSH2 0x4FD JUMP JUMPDEST PUSH1 0x40 MLOAD DUP1 SWAP2 SUB SWAP1 RETURN JUMPDEST PUSH2 0xC0 PUSH1 0x4 DUP1 CALLDATASIZE SUB DUP2 ADD SWAP1 PUSH2 0xBB SWAP2 SWAP1 PUSH2 0x400 JUMP JUMPDEST PUSH2 0x165 JUMP JUMPDEST PUSH1 0x40 MLOAD PUSH2 0xCD SWAP2 SWAP1 PUSH2 0x4FD JUMP JUMPDEST PUSH1 0x40 MLOAD DUP1 SWAP2 SUB SWAP1 RETURN JUMPDEST PUSH1 0x0 PUSH32 0x4E2312E000000000000000000000000000000000000000000000000000000000 PUSH28 0xFFFFFFFFFFFFFFFFFFFFFFFFFFFFFFFFFFFFFFFFFFFFFFFFFFFFFFFF NOT AND DUP3 PUSH28 0xFFFFFFFFFFFFFFFFFFFFFFFFFFFFFFFFFFFFFFFFFFFFFFFFFFFFFFFF NOT AND EQ DUP1 PUSH2 0x149 JUMPI POP PUSH2 0x148 DUP3 PUSH2 0x17A JUMP JUMPDEST JUMPDEST SWAP1 POP SWAP2 SWAP1 POP JUMP JUMPDEST PUSH1 0x0 PUSH4 0xBC197C81 PUSH1 0xE0 SHL SWAP1 POP SWAP6 SWAP5 POP POP POP POP POP JUMP JUMPDEST PUSH1 0x0 PUSH4 0xF23A6E61 PUSH1 0xE0 SHL SWAP1 POP SWAP6 SWAP5 POP POP POP POP POP JUMP JUMPDEST PUSH1 0x0 PUSH32 0x1FFC9A700000000000000000000000000000000000000000000000000000000 PUSH28 0xFFFFFFFFFFFFFFFFFFFFFFFFFFFFFFFFFFFFFFFFFFFFFFFFFFFFFFFF NOT AND DUP3 PUSH28 0xFFFFFFFFFFFFFFFFFFFFFFFFFFFFFFFFFFFFFFFFFFFFFFFFFFFFFFFF NOT AND EQ SWAP1 POP SWAP2 SWAP1 POP JUMP JUMPDEST PUSH1 0x0 PUSH2 0x1F7 PUSH2 0x1F2 DUP5 PUSH2 0x53D JUMP JUMPDEST PUSH2 0x518 JUMP JUMPDEST SWAP1 POP DUP1 DUP4 DUP3 MSTORE PUSH1 0x20 DUP3 ADD SWAP1 POP DUP3 DUP6 PUSH1 0x20 DUP7 MUL DUP3 ADD GT ISZERO PUSH2 0x21A JUMPI PUSH2 0x219 PUSH2 0x682 JUMP JUMPDEST JUMPDEST PUSH1 0x0 JUMPDEST DUP6 DUP2 LT ISZERO PUSH2 0x24A JUMPI DUP2 PUSH2 0x230 DUP9 DUP3 PUSH2 0x31C JUMP JUMPDEST DUP5 MSTORE PUSH1 0x20 DUP5 ADD SWAP4 POP PUSH1 0x20 DUP4 ADD SWAP3 POP POP PUSH1 0x1 DUP2 ADD SWAP1 POP PUSH2 0x21D JUMP JUMPDEST POP POP POP SWAP4 SWAP3 POP POP POP JUMP JUMPDEST PUSH1 0x0 PUSH2 0x267 PUSH2 0x262 DUP5 PUSH2 0x569 JUMP JUMPDEST PUSH2 0x518 JUMP JUMPDEST SWAP1 POP DUP3 DUP2 MSTORE PUSH1 0x20 DUP2 ADD DUP5 DUP5 DUP5 ADD GT ISZERO PUSH2 0x283 JUMPI PUSH2 0x282 PUSH2 0x687 JUMP JUMPDEST JUMPDEST PUSH2 0x28E DUP5 DUP3 DUP6 PUSH2 0x60E JUMP JUMPDEST POP SWAP4 SWAP3 POP POP POP JUMP JUMPDEST PUSH1 0x0 DUP2 CALLDATALOAD SWAP1 POP PUSH2 0x2A5 DUP2 PUSH2 0x6A7 JUMP JUMPDEST SWAP3 SWAP2 POP POP JUMP JUMPDEST PUSH1 0x0 DUP3 PUSH1 0x1F DUP4 ADD SLT PUSH2 0x2C0 JUMPI PUSH2 0x2BF PUSH2 0x67D JUMP JUMPDEST JUMPDEST DUP2 CALLDATALOAD PUSH2 0x2D0 DUP5 DUP3 PUSH1 0x20 DUP7 ADD PUSH2 0x1E4 JUMP JUMPDEST SWAP2 POP POP SWAP3 SWAP2 POP POP JUMP JUMPDEST PUSH1 0x0 DUP2 CALLDATALOAD SWAP1 POP PUSH2 0x2E8 DUP2 PUSH2 0x6BE JUMP JUMPDEST SWAP3 SWAP2 POP POP JUMP JUMPDEST PUSH1 0x0 DUP3 PUSH1 0x1F DUP4 ADD SLT PUSH2 0x303 JUMPI PUSH2 0x302 PUSH2 0x67D JUMP JUMPDEST JUMPDEST DUP2 CALLDATALOAD PUSH2 0x313 DUP5 DUP3 PUSH1 0x20 DUP7 ADD PUSH2 0x254 JUMP JUMPDEST SWAP2 POP POP SWAP3 SWAP2 POP POP JUMP JUMPDEST PUSH1 0x0 DUP2 CALLDATALOAD SWAP1 POP PUSH2 0x32B DUP2 PUSH2 0x6D5 JUMP JUMPDEST SWAP3 SWAP2 POP POP JUMP JUMPDEST PUSH1 0x0 DUP1 PUSH1 0x0 DUP1 PUSH1 0x0 PUSH1 0xA0 DUP7 DUP9 SUB SLT ISZERO PUSH2 0x34D JUMPI PUSH2 0x34C PUSH2 0x691 JUMP JUMPDEST JUMPDEST PUSH1 0x0 PUSH2 0x35B DUP9 DUP3 DUP10 ADD PUSH2 0x296 JUMP JUMPDEST SWAP6 POP POP PUSH1 0x20 PUSH2 0x36C DUP9 DUP3 DUP10 ADD PUSH2 0x296 JUMP JUMPDEST SWAP5 POP POP PUSH1 0x40 DUP7 ADD CALLDATALOAD PUSH8 0xFFFFFFFFFFFFFFFF DUP2 GT ISZERO PUSH2 0x38D JUMPI PUSH2 0x38C PUSH2 0x68C JUMP JUMPDEST JUMPDEST PUSH2 0x399 DUP9 DUP3 DUP10 ADD PUSH2 0x2AB JUMP JUMPDEST SWAP4 POP POP PUSH1 0x60 DUP7 ADD CALLDATALOAD PUSH8 0xFFFFFFFFFFFFFFFF DUP2 GT ISZERO PUSH2 0x3BA JUMPI PUSH2 0x3B9 PUSH2 0x68C JUMP JUMPDEST JUMPDEST PUSH2 0x3C6 DUP9 DUP3 DUP10 ADD PUSH2 0x2AB JUMP JUMPDEST SWAP3 POP POP PUSH1 0x80 DUP7 ADD CALLDATALOAD PUSH8 0xFFFFFFFFFFFFFFFF DUP2 GT ISZERO PUSH2 0x3E7 JUMPI PUSH2 0x3E6 PUSH2 0x68C JUMP JUMPDEST JUMPDEST PUSH2 0x3F3 DUP9 DUP3 DUP10 ADD PUSH2 0x2EE JUMP JUMPDEST SWAP2 POP POP SWAP3 SWAP6 POP SWAP3 SWAP6 SWAP1 SWAP4 POP JUMP JUMPDEST PUSH1 0x0 DUP1 PUSH1 0x0 DUP1 PUSH1 0x0 PUSH1 0xA0 DUP7 DUP9 SUB SLT ISZERO PUSH2 0x41C JUMPI PUSH2 0x41B PUSH2 0x691 JUMP JUMPDEST JUMPDEST PUSH1 0x0 PUSH2 0x42A DUP9 DUP3 DUP10 ADD PUSH2 0x296 JUMP JUMPDEST SWAP6 POP POP PUSH1 0x20 PUSH2 0x43B DUP9 DUP3 DUP10 ADD PUSH2 0x296 JUMP JUMPDEST SWAP5 POP POP PUSH1 0x40 PUSH2 0x44C DUP9 DUP3 DUP10 ADD PUSH2 0x31C JUMP JUMPDEST SWAP4 POP POP PUSH1 0x60 PUSH2 0x45D DUP9 DUP3 DUP10 ADD PUSH2 0x31C JUMP JUMPDEST SWAP3 POP POP PUSH1 0x80 DUP7 ADD CALLDATALOAD PUSH8 0xFFFFFFFFFFFFFFFF DUP2 GT ISZERO PUSH2 0x47E JUMPI PUSH2 0x47D PUSH2 0x68C JUMP JUMPDEST JUMPDEST PUSH2 0x48A DUP9 DUP3 DUP10 ADD PUSH2 0x2EE JUMP JUMPDEST SWAP2 POP POP SWAP3 SWAP6 POP SWAP3 SWAP6 SWAP1 SWAP4 POP JUMP JUMPDEST PUSH1 0x0 PUSH1 0x20 DUP3 DUP5 SUB SLT ISZERO PUSH2 0x4AD JUMPI PUSH2 0x4AC PUSH2 0x691 JUMP JUMPDEST JUMPDEST PUSH1 0x0 PUSH2 0x4BB DUP5 DUP3 DUP6 ADD PUSH2 0x2D9 JUMP JUMPDEST SWAP2 POP POP SWAP3 SWAP2 POP POP JUMP JUMPDEST PUSH2 0x4CD DUP2 PUSH2 0x5AC JUMP JUMPDEST DUP3 MSTORE POP POP JUMP JUMPDEST PUSH2 0x4DC DUP2 PUSH2 0x5B8 JUMP JUMPDEST DUP3 MSTORE POP POP JUMP JUMPDEST PUSH1 0x0 PUSH1 0x20 DUP3 ADD SWAP1 POP PUSH2 0x4F7 PUSH1 0x0 DUP4 ADD DUP5 PUSH2 0x4C4 JUMP JUMPDEST SWAP3 SWAP2 POP POP JUMP JUMPDEST PUSH1 0x0 PUSH1 0x20 DUP3 ADD SWAP1 POP PUSH2 0x512 PUSH1 0x0 DUP4 ADD DUP5 PUSH2 0x4D3 JUMP JUMPDEST SWAP3 SWAP2 POP POP JUMP JUMPDEST PUSH1 0x0 PUSH2 0x522 PUSH2 0x533 JUMP JUMPDEST SWAP1 POP PUSH2 0x52E DUP3 DUP3 PUSH2 0x61D JUMP JUMPDEST SWAP2 SWAP1 POP JUMP JUMPDEST PUSH1 0x0 PUSH1 0x40 MLOAD SWAP1 POP SWAP1 JUMP JUMPDEST PUSH1 0x0 PUSH8 0xFFFFFFFFFFFFFFFF DUP3 GT ISZERO PUSH2 0x558 JUMPI PUSH2 0x557 PUSH2 0x64E JUMP JUMPDEST JUMPDEST PUSH1 0x20 DUP3 MUL SWAP1 POP PUSH1 0x20 DUP2 ADD SWAP1 POP SWAP2 SWAP1 POP JUMP JUMPDEST PUSH1 0x0 PUSH8 0xFFFFFFFFFFFFFFFF DUP3 GT ISZERO PUSH2 0x584 JUMPI PUSH2 0x583 PUSH2 0x64E JUMP JUMPDEST JUMPDEST PUSH2 0x58D DUP3 PUSH2 0x696 JUMP JUMPDEST SWAP1 POP PUSH1 0x20 DUP2 ADD SWAP1 POP SWAP2 SWAP1 POP JUMP JUMPDEST PUSH1 0x0 PUSH2 0x5A5 DUP3 PUSH2 0x5E4 JUMP JUMPDEST SWAP1 POP SWAP2 SWAP1 POP JUMP JUMPDEST PUSH1 0x0 DUP2 ISZERO ISZERO SWAP1 POP SWAP2 SWAP1 POP JUMP JUMPDEST PUSH1 0x0 PUSH32 0xFFFFFFFF00000000000000000000000000000000000000000000000000000000 DUP3 AND SWAP1 POP SWAP2 SWAP1 POP JUMP JUMPDEST PUSH1 0x0 PUSH20 0xFFFFFFFFFFFFFFFFFFFFFFFFFFFFFFFFFFFFFFFF DUP3 AND SWAP1 POP SWAP2 SWAP1 POP JUMP JUMPDEST PUSH1 0x0 DUP2 SWAP1 POP SWAP2 SWAP1 POP JUMP JUMPDEST DUP3 DUP2 DUP4 CALLDATACOPY PUSH1 0x0 DUP4 DUP4 ADD MSTORE POP POP POP JUMP JUMPDEST PUSH2 0x626 DUP3 PUSH2 0x696 JUMP JUMPDEST DUP2 ADD DUP2 DUP2 LT PUSH8 0xFFFFFFFFFFFFFFFF DUP3 GT OR ISZERO PUSH2 0x645 JUMPI PUSH2 0x644 PUSH2 0x64E JUMP JUMPDEST JUMPDEST DUP1 PUSH1 0x40 MSTORE POP POP POP JUMP JUMPDEST PUSH32 0x4E487B7100000000000000000000000000000000000000000000000000000000 PUSH1 0x0 MSTORE PUSH1 0x41 PUSH1 0x4 MSTORE PUSH1 0x24 PUSH1 0x0 REVERT JUMPDEST PUSH1 0x0 DUP1 REVERT JUMPDEST PUSH1 0x0 DUP1 REVERT JUMPDEST PUSH1 0x0 DUP1 REVERT JUMPDEST PUSH1 0x0 DUP1 REVERT JUMPDEST PUSH1 0x0 DUP1 REVERT JUMPDEST PUSH1 0x0 PUSH1 0x1F NOT PUSH1 0x1F DUP4 ADD AND SWAP1 POP SWAP2 SWAP1 POP JUMP JUMPDEST PUSH2 0x6B0 DUP2 PUSH2 0x59A JUMP JUMPDEST DUP2 EQ PUSH2 0x6BB JUMPI PUSH1 0x0 DUP1 REVERT JUMPDEST POP JUMP JUMPDEST PUSH2 0x6C7 DUP2 PUSH2 0x5B8 JUMP JUMPDEST DUP2 EQ PUSH2 0x6D2 JUMPI PUSH1 0x0 DUP1 REVERT JUMPDEST POP JUMP JUMPDEST PUSH2 0x6DE DUP2 PUSH2 0x604 JUMP JUMPDEST DUP2 EQ PUSH2 0x6E9 JUMPI PUSH1 0x0 DUP1 REVERT JUMPDEST POP JUMP INVALID LOG2 PUSH5 0x6970667358 0x22 SLT KECCAK256 0x5C CODESIZE 0xA7 0x1F 0xEE CREATE POP 0xDF 0xAD 0xE6 0x21 CALLDATACOPY ADDMOD SWAP16 PUSH26 0x984C2EA208278AB8984649ED46135259F464736F6C6343000807 STOP CALLER "
				},
				"gasEstimates": {
					"creation": {
						"codeDepositCost": "365200",
						"executionCost": "405",
						"totalCost": "365605"
					},
					"external": {
						"onERC1155BatchReceived(address,address,uint256[],uint256[],bytes)": "infinite",
						"onERC1155Received(address,address,uint256,uint256,bytes)": "infinite",
						"supportsInterface(bytes4)": "705"
					}
				},
				"methodIdentifiers": {
					"onERC1155BatchReceived(address,address,uint256[],uint256[],bytes)": "bc197c81",
					"onERC1155Received(address,address,uint256,uint256,bytes)": "f23a6e61",
					"supportsInterface(bytes4)": "01ffc9a7"
				}
			},
			"storageLayout": {
				"storage": [],
				"types": null
			},
			"userdoc": {
				"kind": "user",
				"methods": {},
				"notice": "Simple implementation of `ERC1155Receiver` that will allow a contract to hold ERC1155 tokens. IMPORTANT: When inheriting this contract, you must include a way to use the received tokens, otherwise they will be stuck.",
				"version": 1
			}
		}
	}
}