{
	"Practice NFT.sol": {
		"TwoFactor": {
			"abi": [
				{
					"anonymous": false,
					"inputs": [
						{
							"indexed": true,
							"internalType": "address",
							"name": "previousOwner",
							"type": "address"
						},
						{
							"indexed": true,
							"internalType": "address",
							"name": "newOwner",
							"type": "address"
						}
					],
					"name": "OwnershipTransferred",
					"type": "event"
				},
				{
					"inputs": [
						{
							"internalType": "address",
							"name": "_sender",
							"type": "address"
						},
						{
							"internalType": "address",
							"name": "_backupWallet",
							"type": "address"
						}
					],
					"name": "init",
					"outputs": [],
					"stateMutability": "nonpayable",
					"type": "function"
				},
				{
					"inputs": [
						{
							"internalType": "address",
							"name": "",
							"type": "address"
						},
						{
							"internalType": "address",
							"name": "",
							"type": "address"
						},
						{
							"internalType": "uint256[]",
							"name": "",
							"type": "uint256[]"
						},
						{
							"internalType": "uint256[]",
							"name": "",
							"type": "uint256[]"
						},
						{
							"internalType": "bytes",
							"name": "",
							"type": "bytes"
						}
					],
					"name": "onERC1155BatchReceived",
					"outputs": [
						{
							"internalType": "bytes4",
							"name": "",
							"type": "bytes4"
						}
					],
					"stateMutability": "nonpayable",
					"type": "function"
				},
				{
					"inputs": [
						{
							"internalType": "address",
							"name": "",
							"type": "address"
						},
						{
							"internalType": "address",
							"name": "",
							"type": "address"
						},
						{
							"internalType": "uint256",
							"name": "",
							"type": "uint256"
						},
						{
							"internalType": "uint256",
							"name": "",
							"type": "uint256"
						},
						{
							"internalType": "bytes",
							"name": "",
							"type": "bytes"
						}
					],
					"name": "onERC1155Received",
					"outputs": [
						{
							"internalType": "bytes4",
							"name": "",
							"type": "bytes4"
						}
					],
					"stateMutability": "nonpayable",
					"type": "function"
				},
				{
					"inputs": [
						{
							"internalType": "address",
							"name": "",
							"type": "address"
						},
						{
							"internalType": "address",
							"name": "",
							"type": "address"
						},
						{
							"internalType": "uint256",
							"name": "",
							"type": "uint256"
						},
						{
							"internalType": "bytes",
							"name": "",
							"type": "bytes"
						}
					],
					"name": "onERC721Received",
					"outputs": [
						{
							"internalType": "bytes4",
							"name": "",
							"type": "bytes4"
						}
					],
					"stateMutability": "nonpayable",
					"type": "function"
				},
				{
					"inputs": [],
					"name": "owner",
					"outputs": [
						{
							"internalType": "address",
							"name": "",
							"type": "address"
						}
					],
					"stateMutability": "view",
					"type": "function"
				},
				{
					"inputs": [
						{
							"internalType": "address",
							"name": "tokenAddress",
							"type": "address"
						},
						{
							"internalType": "uint256",
							"name": "tokenId",
							"type": "uint256"
						}
					],
					"name": "sendERC721FundsToBackupWallet",
					"outputs": [],
					"stateMutability": "nonpayable",
					"type": "function"
				},
				{
					"inputs": [],
					"name": "sendNativeFundsToBackupWallet",
					"outputs": [],
					"stateMutability": "nonpayable",
					"type": "function"
				},
				{
					"inputs": [
						{
							"internalType": "bytes4",
							"name": "interfaceId",
							"type": "bytes4"
						}
					],
					"name": "supportsInterface",
					"outputs": [
						{
							"internalType": "bool",
							"name": "",
							"type": "bool"
						}
					],
					"stateMutability": "view",
					"type": "function"
				},
				{
					"stateMutability": "payable",
					"type": "receive"
				}
			],
			"devdoc": {
				"kind": "dev",
				"methods": {
					"onERC721Received(address,address,uint256,bytes)": {
						"details": "See {IERC721Receiver-onERC721Received}. Always returns `IERC721Receiver.onERC721Received.selector`."
					},
					"owner()": {
						"details": "Returns the address of the current owner."
					},
					"supportsInterface(bytes4)": {
						"details": "See {IERC165-supportsInterface}."
					}
				},
				"version": 1
			},
			"evm": {
				"assembly": "    /* \"Practice NFT.sol\":467:5862  contract TwoFactor is Ownable, ERC721Holder, ERC1155Holder {... */\n  mstore(0x40, 0x80)\n  callvalue\n  dup1\n  iszero\n  tag_1\n  jumpi\n  0x00\n  dup1\n  revert\ntag_1:\n  pop\n    /* \"Ownable.sol\":818:850  _transferOwnership(_msgSender()) */\n  tag_4\n    /* \"Ownable.sol\":837:849  _msgSender() */\n  tag_5\n    /* \"Ownable.sol\":837:847  _msgSender */\n  shl(0x20, tag_6)\n    /* \"Ownable.sol\":837:849  _msgSender() */\n  0x20\n  shr\n  jump\t// in\ntag_5:\n    /* \"Ownable.sol\":818:836  _transferOwnership */\n  shl(0x20, tag_7)\n    /* \"Ownable.sol\":818:850  _transferOwnership(_msgSender()) */\n  0x20\n  shr\n  jump\t// in\ntag_4:\n    /* \"Practice NFT.sol\":467:5862  contract TwoFactor is Ownable, ERC721Holder, ERC1155Holder {... */\n  jump(tag_8)\n    /* \"@openzeppelin/contracts/utils/Context.sol\":640:736  function _msgSender() internal view virtual returns (address) {... */\ntag_6:\n    /* \"@openzeppelin/contracts/utils/Context.sol\":693:700  address */\n  0x00\n    /* \"@openzeppelin/contracts/utils/Context.sol\":719:729  msg.sender */\n  caller\n    /* \"@openzeppelin/contracts/utils/Context.sol\":712:729  return msg.sender */\n  swap1\n  pop\n    /* \"@openzeppelin/contracts/utils/Context.sol\":640:736  function _msgSender() internal view virtual returns (address) {... */\n  swap1\n  jump\t// out\n    /* \"Ownable.sol\":1377:1564  function _transferOwnership(address newOwner) internal virtual {... */\ntag_7:\n    /* \"Ownable.sol\":1450:1466  address oldOwner */\n  0x00\n    /* \"Ownable.sol\":1469:1475  _owner */\n  dup1\n  0x00\n  swap1\n  sload\n  swap1\n  0x0100\n  exp\n  swap1\n  div\n  0xffffffffffffffffffffffffffffffffffffffff\n  and\n    /* \"Ownable.sol\":1450:1475  address oldOwner = _owner */\n  swap1\n  pop\n    /* \"Ownable.sol\":1494:1502  newOwner */\n  dup2\n    /* \"Ownable.sol\":1485:1491  _owner */\n  0x00\n  dup1\n    /* \"Ownable.sol\":1485:1502  _owner = newOwner */\n  0x0100\n  exp\n  dup2\n  sload\n  dup2\n  0xffffffffffffffffffffffffffffffffffffffff\n  mul\n  not\n  and\n  swap1\n  dup4\n  0xffffffffffffffffffffffffffffffffffffffff\n  and\n  mul\n  or\n  swap1\n  sstore\n  pop\n    /* \"Ownable.sol\":1548:1556  newOwner */\n  dup2\n    /* \"Ownable.sol\":1517:1557  OwnershipTransferred(oldOwner, newOwner) */\n  0xffffffffffffffffffffffffffffffffffffffff\n  and\n    /* \"Ownable.sol\":1538:1546  oldOwner */\n  dup2\n    /* \"Ownable.sol\":1517:1557  OwnershipTransferred(oldOwner, newOwner) */\n  0xffffffffffffffffffffffffffffffffffffffff\n  and\n  0x8be0079c531659141344cd1fd0a4f28419497f9722a3daafe3b4186f6b6457e0\n  mload(0x40)\n  mload(0x40)\n  dup1\n  swap2\n  sub\n  swap1\n  log3\n    /* \"Ownable.sol\":1440:1564  {... */\n  pop\n    /* \"Ownable.sol\":1377:1564  function _transferOwnership(address newOwner) internal virtual {... */\n  pop\n  jump\t// out\n    /* \"Practice NFT.sol\":467:5862  contract TwoFactor is Ownable, ERC721Holder, ERC1155Holder {... */\ntag_8:\n  dataSize(sub_0)\n  dup1\n  dataOffset(sub_0)\n  0x00\n  codecopy\n  0x00\n  return\nstop\n\nsub_0: assembly {\n        /* \"Practice NFT.sol\":467:5862  contract TwoFactor is Ownable, ERC721Holder, ERC1155Holder {... */\n      mstore(0x40, 0x80)\n      jumpi(tag_1, lt(calldatasize, 0x04))\n      shr(0xe0, calldataload(0x00))\n      dup1\n      0x8da5cb5b\n      gt\n      tag_11\n      jumpi\n      dup1\n      0x8da5cb5b\n      eq\n      tag_7\n      jumpi\n      dup1\n      0xbc197c81\n      eq\n      tag_8\n      jumpi\n      dup1\n      0xf09a4016\n      eq\n      tag_9\n      jumpi\n      dup1\n      0xf23a6e61\n      eq\n      tag_10\n      jumpi\n      jump(tag_2)\n    tag_11:\n      dup1\n      0x01ffc9a7\n      eq\n      tag_3\n      jumpi\n      dup1\n      0x150b7a02\n      eq\n      tag_4\n      jumpi\n      dup1\n      0x450b2ad7\n      eq\n      tag_5\n      jumpi\n      dup1\n      0x71b4bc99\n      eq\n      tag_6\n      jumpi\n      jump(tag_2)\n    tag_1:\n      jumpi(tag_2, calldatasize)\n      stop\n    tag_2:\n      0x00\n      dup1\n      revert\n        /* \"@openzeppelin/contracts/token/ERC1155/utils/ERC1155Receiver.sol\":387:608  function supportsInterface(bytes4 interfaceId) public view virtual override(ERC165, IERC165) returns (bool) {... */\n    tag_3:\n      callvalue\n      dup1\n      iszero\n      tag_14\n      jumpi\n      0x00\n      dup1\n      revert\n    tag_14:\n      pop\n      tag_15\n      0x04\n      dup1\n      calldatasize\n      sub\n      dup2\n      add\n      swap1\n      tag_16\n      swap2\n      swap1\n      tag_17\n      jump\t// in\n    tag_16:\n      tag_18\n      jump\t// in\n    tag_15:\n      mload(0x40)\n      tag_19\n      swap2\n      swap1\n      tag_20\n      jump\t// in\n    tag_19:\n      mload(0x40)\n      dup1\n      swap2\n      sub\n      swap1\n      return\n        /* \"@openzeppelin/contracts/token/ERC721/utils/ERC721Holder.sol\":588:788  function onERC721Received(... */\n    tag_4:\n      callvalue\n      dup1\n      iszero\n      tag_21\n      jumpi\n      0x00\n      dup1\n      revert\n    tag_21:\n      pop\n      tag_22\n      0x04\n      dup1\n      calldatasize\n      sub\n      dup2\n      add\n      swap1\n      tag_23\n      swap2\n      swap1\n      tag_24\n      jump\t// in\n    tag_23:\n      tag_25\n      jump\t// in\n    tag_22:\n      mload(0x40)\n      tag_26\n      swap2\n      swap1\n      tag_27\n      jump\t// in\n    tag_26:\n      mload(0x40)\n      dup1\n      swap2\n      sub\n      swap1\n      return\n        /* \"Practice NFT.sol\":4485:4614  function sendNativeFundsToBackupWallet() external onlyOwner {... */\n    tag_5:\n      callvalue\n      dup1\n      iszero\n      tag_28\n      jumpi\n      0x00\n      dup1\n      revert\n    tag_28:\n      pop\n      tag_29\n      tag_30\n      jump\t// in\n    tag_29:\n      stop\n        /* \"Practice NFT.sol\":4062:4264  function sendERC721FundsToBackupWallet(... */\n    tag_6:\n      callvalue\n      dup1\n      iszero\n      tag_31\n      jumpi\n      0x00\n      dup1\n      revert\n    tag_31:\n      pop\n      tag_32\n      0x04\n      dup1\n      calldatasize\n      sub\n      dup2\n      add\n      swap1\n      tag_33\n      swap2\n      swap1\n      tag_34\n      jump\t// in\n    tag_33:\n      tag_35\n      jump\t// in\n    tag_32:\n      stop\n        /* \"Ownable.sol\":933:1018  function owner() public view virtual returns (address) {... */\n    tag_7:\n      callvalue\n      dup1\n      iszero\n      tag_36\n      jumpi\n      0x00\n      dup1\n      revert\n    tag_36:\n      pop\n      tag_37\n      tag_38\n      jump\t// in\n    tag_37:\n      mload(0x40)\n      tag_39\n      swap2\n      swap1\n      tag_40\n      jump\t// in\n    tag_39:\n      mload(0x40)\n      dup1\n      swap2\n      sub\n      swap1\n      return\n        /* \"@openzeppelin/contracts/token/ERC1155/utils/ERC1155Holder.sol\":724:971  function onERC1155BatchReceived(... */\n    tag_8:\n      callvalue\n      dup1\n      iszero\n      tag_41\n      jumpi\n      0x00\n      dup1\n      revert\n    tag_41:\n      pop\n      tag_42\n      0x04\n      dup1\n      calldatasize\n      sub\n      dup2\n      add\n      swap1\n      tag_43\n      swap2\n      swap1\n      tag_44\n      jump\t// in\n    tag_43:\n      tag_45\n      jump\t// in\n    tag_42:\n      mload(0x40)\n      tag_46\n      swap2\n      swap1\n      tag_27\n      jump\t// in\n    tag_46:\n      mload(0x40)\n      dup1\n      swap2\n      sub\n      swap1\n      return\n        /* \"Practice NFT.sol\":644:1144  function init(address _sender, address _backupWallet) external {        ... */\n    tag_9:\n      callvalue\n      dup1\n      iszero\n      tag_47\n      jumpi\n      0x00\n      dup1\n      revert\n    tag_47:\n      pop\n      tag_48\n      0x04\n      dup1\n      calldatasize\n      sub\n      dup2\n      add\n      swap1\n      tag_49\n      swap2\n      swap1\n      tag_50\n      jump\t// in\n    tag_49:\n      tag_51\n      jump\t// in\n    tag_48:\n      stop\n        /* \"@openzeppelin/contracts/token/ERC1155/utils/ERC1155Holder.sol\":499:718  function onERC1155Received(... */\n    tag_10:\n      callvalue\n      dup1\n      iszero\n      tag_52\n      jumpi\n      0x00\n      dup1\n      revert\n    tag_52:\n      pop\n      tag_53\n      0x04\n      dup1\n      calldatasize\n      sub\n      dup2\n      add\n      swap1\n      tag_54\n      swap2\n      swap1\n      tag_55\n      jump\t// in\n    tag_54:\n      tag_56\n      jump\t// in\n    tag_53:\n      mload(0x40)\n      tag_57\n      swap2\n      swap1\n      tag_27\n      jump\t// in\n    tag_57:\n      mload(0x40)\n      dup1\n      swap2\n      sub\n      swap1\n      return\n        /* \"@openzeppelin/contracts/token/ERC1155/utils/ERC1155Receiver.sol\":387:608  function supportsInterface(bytes4 interfaceId) public view virtual override(ERC165, IERC165) returns (bool) {... */\n    tag_18:\n        /* \"@openzeppelin/contracts/token/ERC1155/utils/ERC1155Receiver.sol\":489:493  bool */\n      0x00\n        /* \"@openzeppelin/contracts/token/ERC1155/utils/ERC1155Receiver.sol\":527:561  type(IERC1155Receiver).interfaceId */\n      0x4e2312e000000000000000000000000000000000000000000000000000000000\n        /* \"@openzeppelin/contracts/token/ERC1155/utils/ERC1155Receiver.sol\":512:561  interfaceId == type(IERC1155Receiver).interfaceId */\n      not(0xffffffffffffffffffffffffffffffffffffffffffffffffffffffff)\n      and\n        /* \"@openzeppelin/contracts/token/ERC1155/utils/ERC1155Receiver.sol\":512:523  interfaceId */\n      dup3\n        /* \"@openzeppelin/contracts/token/ERC1155/utils/ERC1155Receiver.sol\":512:561  interfaceId == type(IERC1155Receiver).interfaceId */\n      not(0xffffffffffffffffffffffffffffffffffffffffffffffffffffffff)\n      and\n      eq\n        /* \"@openzeppelin/contracts/token/ERC1155/utils/ERC1155Receiver.sol\":512:601  interfaceId == type(IERC1155Receiver).interfaceId || super.supportsInterface(interfaceId) */\n      dup1\n      tag_59\n      jumpi\n      pop\n        /* \"@openzeppelin/contracts/token/ERC1155/utils/ERC1155Receiver.sol\":565:601  super.supportsInterface(interfaceId) */\n      tag_60\n        /* \"@openzeppelin/contracts/token/ERC1155/utils/ERC1155Receiver.sol\":589:600  interfaceId */\n      dup3\n        /* \"@openzeppelin/contracts/token/ERC1155/utils/ERC1155Receiver.sol\":565:588  super.supportsInterface */\n      tag_61\n        /* \"@openzeppelin/contracts/token/ERC1155/utils/ERC1155Receiver.sol\":565:601  super.supportsInterface(interfaceId) */\n      jump\t// in\n    tag_60:\n        /* \"@openzeppelin/contracts/token/ERC1155/utils/ERC1155Receiver.sol\":512:601  interfaceId == type(IERC1155Receiver).interfaceId || super.supportsInterface(interfaceId) */\n    tag_59:\n        /* \"@openzeppelin/contracts/token/ERC1155/utils/ERC1155Receiver.sol\":505:601  return interfaceId == type(IERC1155Receiver).interfaceId || super.supportsInterface(interfaceId) */\n      swap1\n      pop\n        /* \"@openzeppelin/contracts/token/ERC1155/utils/ERC1155Receiver.sol\":387:608  function supportsInterface(bytes4 interfaceId) public view virtual override(ERC165, IERC165) returns (bool) {... */\n      swap2\n      swap1\n      pop\n      jump\t// out\n        /* \"@openzeppelin/contracts/token/ERC721/utils/ERC721Holder.sol\":588:788  function onERC721Received(... */\n    tag_25:\n        /* \"@openzeppelin/contracts/token/ERC721/utils/ERC721Holder.sol\":726:732  bytes4 */\n      0x00\n        /* \"@openzeppelin/contracts/token/ERC721/utils/ERC721Holder.sol\":751:781  this.onERC721Received.selector */\n      shl(0xe0, 0x150b7a02)\n        /* \"@openzeppelin/contracts/token/ERC721/utils/ERC721Holder.sol\":744:781  return this.onERC721Received.selector */\n      swap1\n      pop\n        /* \"@openzeppelin/contracts/token/ERC721/utils/ERC721Holder.sol\":588:788  function onERC721Received(... */\n      swap5\n      swap4\n      pop\n      pop\n      pop\n      pop\n      jump\t// out\n        /* \"Practice NFT.sol\":4485:4614  function sendNativeFundsToBackupWallet() external onlyOwner {... */\n    tag_30:\n        /* \"Ownable.sol\":1156:1168  _msgSender() */\n      tag_64\n        /* \"Ownable.sol\":1156:1166  _msgSender */\n      tag_65\n        /* \"Ownable.sol\":1156:1168  _msgSender() */\n      jump\t// in\n    tag_64:\n        /* \"Ownable.sol\":1145:1168  owner() == _msgSender() */\n      0xffffffffffffffffffffffffffffffffffffffff\n      and\n        /* \"Ownable.sol\":1145:1152  owner() */\n      tag_66\n        /* \"Ownable.sol\":1145:1150  owner */\n      tag_38\n        /* \"Ownable.sol\":1145:1152  owner() */\n      jump\t// in\n    tag_66:\n        /* \"Ownable.sol\":1145:1168  owner() == _msgSender() */\n      0xffffffffffffffffffffffffffffffffffffffff\n      and\n      eq\n        /* \"Ownable.sol\":1137:1205  require(owner() == _msgSender(), \"Ownable: caller is not the owner\") */\n      tag_67\n      jumpi\n      mload(0x40)\n      0x08c379a000000000000000000000000000000000000000000000000000000000\n      dup2\n      mstore\n      0x04\n      add\n      tag_68\n      swap1\n      tag_69\n      jump\t// in\n    tag_68:\n      mload(0x40)\n      dup1\n      swap2\n      sub\n      swap1\n      revert\n    tag_67:\n        /* \"Practice NFT.sol\":4555:4607  _transferNativeFundsToAddress(payable(backupWallet)) */\n      tag_71\n        /* \"Practice NFT.sol\":4593:4605  backupWallet */\n      0x01\n      0x00\n      swap1\n      sload\n      swap1\n      0x0100\n      exp\n      swap1\n      div\n      0xffffffffffffffffffffffffffffffffffffffff\n      and\n        /* \"Practice NFT.sol\":4555:4584  _transferNativeFundsToAddress */\n      tag_72\n        /* \"Practice NFT.sol\":4555:4607  _transferNativeFundsToAddress(payable(backupWallet)) */\n      jump\t// in\n    tag_71:\n        /* \"Practice NFT.sol\":4485:4614  function sendNativeFundsToBackupWallet() external onlyOwner {... */\n      jump\t// out\n        /* \"Practice NFT.sol\":4062:4264  function sendERC721FundsToBackupWallet(... */\n    tag_35:\n        /* \"Ownable.sol\":1156:1168  _msgSender() */\n      tag_74\n        /* \"Ownable.sol\":1156:1166  _msgSender */\n      tag_65\n        /* \"Ownable.sol\":1156:1168  _msgSender() */\n      jump\t// in\n    tag_74:\n        /* \"Ownable.sol\":1145:1168  owner() == _msgSender() */\n      0xffffffffffffffffffffffffffffffffffffffff\n      and\n        /* \"Ownable.sol\":1145:1152  owner() */\n      tag_75\n        /* \"Ownable.sol\":1145:1150  owner */\n      tag_38\n        /* \"Ownable.sol\":1145:1152  owner() */\n      jump\t// in\n    tag_75:\n        /* \"Ownable.sol\":1145:1168  owner() == _msgSender() */\n      0xffffffffffffffffffffffffffffffffffffffff\n      and\n      eq\n        /* \"Ownable.sol\":1137:1205  require(owner() == _msgSender(), \"Ownable: caller is not the owner\") */\n      tag_76\n      jumpi\n      mload(0x40)\n      0x08c379a000000000000000000000000000000000000000000000000000000000\n      dup2\n      mstore\n      0x04\n      add\n      tag_77\n      swap1\n      tag_69\n      jump\t// in\n    tag_77:\n      mload(0x40)\n      dup1\n      swap2\n      sub\n      swap1\n      revert\n    tag_76:\n        /* \"Practice NFT.sol\":4191:4257  _transferERC721FundsToAddress(backupWallet, tokenAddress, tokenId) */\n      tag_79\n        /* \"Practice NFT.sol\":4221:4233  backupWallet */\n      0x01\n      0x00\n      swap1\n      sload\n      swap1\n      0x0100\n      exp\n      swap1\n      div\n      0xffffffffffffffffffffffffffffffffffffffff\n      and\n        /* \"Practice NFT.sol\":4235:4247  tokenAddress */\n      dup4\n        /* \"Practice NFT.sol\":4249:4256  tokenId */\n      dup4\n        /* \"Practice NFT.sol\":4191:4220  _transferERC721FundsToAddress */\n      tag_80\n        /* \"Practice NFT.sol\":4191:4257  _transferERC721FundsToAddress(backupWallet, tokenAddress, tokenId) */\n      jump\t// in\n    tag_79:\n        /* \"Practice NFT.sol\":4062:4264  function sendERC721FundsToBackupWallet(... */\n      pop\n      pop\n      jump\t// out\n        /* \"Ownable.sol\":933:1018  function owner() public view virtual returns (address) {... */\n    tag_38:\n        /* \"Ownable.sol\":979:986  address */\n      0x00\n        /* \"Ownable.sol\":1005:1011  _owner */\n      dup1\n      0x00\n      swap1\n      sload\n      swap1\n      0x0100\n      exp\n      swap1\n      div\n      0xffffffffffffffffffffffffffffffffffffffff\n      and\n        /* \"Ownable.sol\":998:1011  return _owner */\n      swap1\n      pop\n        /* \"Ownable.sol\":933:1018  function owner() public view virtual returns (address) {... */\n      swap1\n      jump\t// out\n        /* \"@openzeppelin/contracts/token/ERC1155/utils/ERC1155Holder.sol\":724:971  function onERC1155BatchReceived(... */\n    tag_45:\n        /* \"@openzeppelin/contracts/token/ERC1155/utils/ERC1155Holder.sol\":903:909  bytes4 */\n      0x00\n        /* \"@openzeppelin/contracts/token/ERC1155/utils/ERC1155Holder.sol\":928:964  this.onERC1155BatchReceived.selector */\n      shl(0xe0, 0xbc197c81)\n        /* \"@openzeppelin/contracts/token/ERC1155/utils/ERC1155Holder.sol\":921:964  return this.onERC1155BatchReceived.selector */\n      swap1\n      pop\n        /* \"@openzeppelin/contracts/token/ERC1155/utils/ERC1155Holder.sol\":724:971  function onERC1155BatchReceived(... */\n      swap6\n      swap5\n      pop\n      pop\n      pop\n      pop\n      pop\n      jump\t// out\n        /* \"Practice NFT.sol\":644:1144  function init(address _sender, address _backupWallet) external {        ... */\n    tag_51:\n        /* \"Practice NFT.sol\":751:752  0 */\n      0x00\n        /* \"Practice NFT.sol\":733:753  _sender!= address(0) */\n      0xffffffffffffffffffffffffffffffffffffffff\n      and\n        /* \"Practice NFT.sol\":733:740  _sender */\n      dup3\n        /* \"Practice NFT.sol\":733:753  _sender!= address(0) */\n      0xffffffffffffffffffffffffffffffffffffffff\n      and\n      eq\n      iszero\n        /* \"Practice NFT.sol\":725:788  require(_sender!= address(0), \"Sender address can not be zero\") */\n      tag_84\n      jumpi\n      mload(0x40)\n      0x08c379a000000000000000000000000000000000000000000000000000000000\n      dup2\n      mstore\n      0x04\n      add\n      tag_85\n      swap1\n      tag_86\n      jump\t// in\n    tag_85:\n      mload(0x40)\n      dup1\n      swap2\n      sub\n      swap1\n      revert\n    tag_84:\n        /* \"Practice NFT.sol\":830:831  0 */\n      0x00\n        /* \"Practice NFT.sol\":806:832  _backupWallet!= address(0) */\n      0xffffffffffffffffffffffffffffffffffffffff\n      and\n        /* \"Practice NFT.sol\":806:819  _backupWallet */\n      dup2\n        /* \"Practice NFT.sol\":806:832  _backupWallet!= address(0) */\n      0xffffffffffffffffffffffffffffffffffffffff\n      and\n      eq\n      iszero\n        /* \"Practice NFT.sol\":798:867  require(_backupWallet!= address(0), \"Backup address can not be zero\") */\n      tag_87\n      jumpi\n      mload(0x40)\n      0x08c379a000000000000000000000000000000000000000000000000000000000\n      dup2\n      mstore\n      0x04\n      add\n      tag_88\n      swap1\n      tag_89\n      jump\t// in\n    tag_88:\n      mload(0x40)\n      dup1\n      swap2\n      sub\n      swap1\n      revert\n    tag_87:\n        /* \"Practice NFT.sol\":901:908  _sender */\n      dup2\n        /* \"Practice NFT.sol\":885:908  _backupWallet!= _sender */\n      0xffffffffffffffffffffffffffffffffffffffff\n      and\n        /* \"Practice NFT.sol\":885:898  _backupWallet */\n      dup2\n        /* \"Practice NFT.sol\":885:908  _backupWallet!= _sender */\n      0xffffffffffffffffffffffffffffffffffffffff\n      and\n      eq\n      iszero\n        /* \"Practice NFT.sol\":877:959  require(_backupWallet!= _sender, \"Backup wallet can not be same as sender wallet\") */\n      tag_90\n      jumpi\n      mload(0x40)\n      0x08c379a000000000000000000000000000000000000000000000000000000000\n      dup2\n      mstore\n      0x04\n      add\n      tag_91\n      swap1\n      tag_92\n      jump\t// in\n    tag_91:\n      mload(0x40)\n      dup1\n      swap2\n      sub\n      swap1\n      revert\n    tag_90:\n        /* \"Practice NFT.sol\":994:999  false */\n      0x00\n        /* \"Practice NFT.sol\":977:999  isInitialized == false */\n      iszero\n      iszero\n        /* \"Practice NFT.sol\":977:990  isInitialized */\n      0x00\n      0x14\n      swap1\n      sload\n      swap1\n      0x0100\n      exp\n      swap1\n      div\n      0xff\n      and\n        /* \"Practice NFT.sol\":977:999  isInitialized == false */\n      iszero\n      iszero\n      eq\n        /* \"Practice NFT.sol\":969:1032  require(isInitialized == false, \"Contract already initialized\") */\n      tag_93\n      jumpi\n      mload(0x40)\n      0x08c379a000000000000000000000000000000000000000000000000000000000\n      dup2\n      mstore\n      0x04\n      add\n      tag_94\n      swap1\n      tag_95\n      jump\t// in\n    tag_94:\n      mload(0x40)\n      dup1\n      swap2\n      sub\n      swap1\n      revert\n    tag_93:\n        /* \"Practice NFT.sol\":1042:1069  _transferOwnership(_sender) */\n      tag_96\n        /* \"Practice NFT.sol\":1061:1068  _sender */\n      dup3\n        /* \"Practice NFT.sol\":1042:1060  _transferOwnership */\n      tag_97\n        /* \"Practice NFT.sol\":1042:1069  _transferOwnership(_sender) */\n      jump\t// in\n    tag_96:\n        /* \"Practice NFT.sol\":1094:1107  _backupWallet */\n      dup1\n        /* \"Practice NFT.sol\":1079:1091  backupWallet */\n      0x01\n      0x00\n        /* \"Practice NFT.sol\":1079:1107  backupWallet = _backupWallet */\n      0x0100\n      exp\n      dup2\n      sload\n      dup2\n      0xffffffffffffffffffffffffffffffffffffffff\n      mul\n      not\n      and\n      swap1\n      dup4\n      0xffffffffffffffffffffffffffffffffffffffff\n      and\n      mul\n      or\n      swap1\n      sstore\n      pop\n        /* \"Practice NFT.sol\":1133:1137  true */\n      0x01\n        /* \"Practice NFT.sol\":1117:1130  isInitialized */\n      0x00\n      0x14\n        /* \"Practice NFT.sol\":1117:1137  isInitialized = true */\n      0x0100\n      exp\n      dup2\n      sload\n      dup2\n      0xff\n      mul\n      not\n      and\n      swap1\n      dup4\n      iszero\n      iszero\n      mul\n      or\n      swap1\n      sstore\n      pop\n        /* \"Practice NFT.sol\":644:1144  function init(address _sender, address _backupWallet) external {        ... */\n      pop\n      pop\n      jump\t// out\n        /* \"@openzeppelin/contracts/token/ERC1155/utils/ERC1155Holder.sol\":499:718  function onERC1155Received(... */\n    tag_56:\n        /* \"@openzeppelin/contracts/token/ERC1155/utils/ERC1155Holder.sol\":655:661  bytes4 */\n      0x00\n        /* \"@openzeppelin/contracts/token/ERC1155/utils/ERC1155Holder.sol\":680:711  this.onERC1155Received.selector */\n      shl(0xe0, 0xf23a6e61)\n        /* \"@openzeppelin/contracts/token/ERC1155/utils/ERC1155Holder.sol\":673:711  return this.onERC1155Received.selector */\n      swap1\n      pop\n        /* \"@openzeppelin/contracts/token/ERC1155/utils/ERC1155Holder.sol\":499:718  function onERC1155Received(... */\n      swap6\n      swap5\n      pop\n      pop\n      pop\n      pop\n      pop\n      jump\t// out\n        /* \"@openzeppelin/contracts/utils/introspection/ERC165.sol\":829:984  function supportsInterface(bytes4 interfaceId) public view virtual override returns (bool) {... */\n    tag_61:\n        /* \"@openzeppelin/contracts/utils/introspection/ERC165.sol\":914:918  bool */\n      0x00\n        /* \"@openzeppelin/contracts/utils/introspection/ERC165.sol\":952:977  type(IERC165).interfaceId */\n      0x01ffc9a700000000000000000000000000000000000000000000000000000000\n        /* \"@openzeppelin/contracts/utils/introspection/ERC165.sol\":937:977  interfaceId == type(IERC165).interfaceId */\n      not(0xffffffffffffffffffffffffffffffffffffffffffffffffffffffff)\n      and\n        /* \"@openzeppelin/contracts/utils/introspection/ERC165.sol\":937:948  interfaceId */\n      dup3\n        /* \"@openzeppelin/contracts/utils/introspection/ERC165.sol\":937:977  interfaceId == type(IERC165).interfaceId */\n      not(0xffffffffffffffffffffffffffffffffffffffffffffffffffffffff)\n      and\n      eq\n        /* \"@openzeppelin/contracts/utils/introspection/ERC165.sol\":930:977  return interfaceId == type(IERC165).interfaceId */\n      swap1\n      pop\n        /* \"@openzeppelin/contracts/utils/introspection/ERC165.sol\":829:984  function supportsInterface(bytes4 interfaceId) public view virtual override returns (bool) {... */\n      swap2\n      swap1\n      pop\n      jump\t// out\n        /* \"@openzeppelin/contracts/utils/Context.sol\":640:736  function _msgSender() internal view virtual returns (address) {... */\n    tag_65:\n        /* \"@openzeppelin/contracts/utils/Context.sol\":693:700  address */\n      0x00\n        /* \"@openzeppelin/contracts/utils/Context.sol\":719:729  msg.sender */\n      caller\n        /* \"@openzeppelin/contracts/utils/Context.sol\":712:729  return msg.sender */\n      swap1\n      pop\n        /* \"@openzeppelin/contracts/utils/Context.sol\":640:736  function _msgSender() internal view virtual returns (address) {... */\n      swap1\n      jump\t// out\n        /* \"Practice NFT.sol\":5652:5860  function _transferNativeFundsToAddress(address payable toAddress) private {... */\n    tag_72:\n        /* \"Practice NFT.sol\":5736:5751  uint256 balance */\n      0x00\n        /* \"Practice NFT.sol\":5754:5775  address(this).balance */\n      selfbalance\n        /* \"Practice NFT.sol\":5736:5775  uint256 balance = address(this).balance */\n      swap1\n      pop\n        /* \"Practice NFT.sol\":5799:5800  0 */\n      0x00\n        /* \"Practice NFT.sol\":5789:5796  balance */\n      dup2\n        /* \"Practice NFT.sol\":5789:5800  balance > 0 */\n      gt\n        /* \"Practice NFT.sol\":5785:5854  if (balance > 0) {... */\n      iszero\n      tag_102\n      jumpi\n        /* \"Practice NFT.sol\":5816:5825  toAddress */\n      dup2\n        /* \"Practice NFT.sol\":5816:5834  toAddress.transfer */\n      0xffffffffffffffffffffffffffffffffffffffff\n      and\n        /* \"Practice NFT.sol\":5816:5843  toAddress.transfer(balance) */\n      0x08fc\n        /* \"Practice NFT.sol\":5835:5842  balance */\n      dup3\n        /* \"Practice NFT.sol\":5816:5843  toAddress.transfer(balance) */\n      swap1\n      dup2\n      iszero\n      mul\n      swap1\n      mload(0x40)\n      0x00\n      mload(0x40)\n      dup1\n      dup4\n      sub\n      dup2\n      dup6\n      dup9\n      dup9\n      call\n      swap4\n      pop\n      pop\n      pop\n      pop\n      iszero\n      dup1\n      iszero\n      tag_104\n      jumpi\n      returndatasize\n      0x00\n      dup1\n      returndatacopy\n      revert(0x00, returndatasize)\n    tag_104:\n      pop\n        /* \"Practice NFT.sol\":5785:5854  if (balance > 0) {... */\n    tag_102:\n        /* \"Practice NFT.sol\":5726:5860  {... */\n      pop\n        /* \"Practice NFT.sol\":5652:5860  function _transferNativeFundsToAddress(address payable toAddress) private {... */\n      pop\n      jump\t// out\n        /* \"Practice NFT.sol\":1882:2107  function _transferERC721FundsToAddress(... */\n    tag_80:\n        /* \"Practice NFT.sol\":2035:2047  tokenAddress */\n      dup2\n        /* \"Practice NFT.sol\":2027:2065  IERC721(tokenAddress).safeTransferFrom */\n      0xffffffffffffffffffffffffffffffffffffffff\n      and\n      0x42842e0e\n        /* \"Practice NFT.sol\":2074:2078  this */\n      address\n        /* \"Practice NFT.sol\":2081:2090  toAddress */\n      dup6\n        /* \"Practice NFT.sol\":2092:2099  tokenId */\n      dup5\n        /* \"Practice NFT.sol\":2027:2100  IERC721(tokenAddress).safeTransferFrom(address(this), toAddress, tokenId) */\n      mload(0x40)\n      dup5\n      0xffffffff\n      and\n      0xe0\n      shl\n      dup2\n      mstore\n      0x04\n      add\n      tag_106\n      swap4\n      swap3\n      swap2\n      swap1\n      tag_107\n      jump\t// in\n    tag_106:\n      0x00\n      mload(0x40)\n      dup1\n      dup4\n      sub\n      dup2\n      0x00\n      dup8\n      dup1\n      extcodesize\n      iszero\n      dup1\n      iszero\n      tag_108\n      jumpi\n      0x00\n      dup1\n      revert\n    tag_108:\n      pop\n      gas\n      call\n      iszero\n      dup1\n      iszero\n      tag_110\n      jumpi\n      returndatasize\n      0x00\n      dup1\n      returndatacopy\n      revert(0x00, returndatasize)\n    tag_110:\n      pop\n      pop\n      pop\n      pop\n        /* \"Practice NFT.sol\":1882:2107  function _transferERC721FundsToAddress(... */\n      pop\n      pop\n      pop\n      jump\t// out\n        /* \"Ownable.sol\":1377:1564  function _transferOwnership(address newOwner) internal virtual {... */\n    tag_97:\n        /* \"Ownable.sol\":1450:1466  address oldOwner */\n      0x00\n        /* \"Ownable.sol\":1469:1475  _owner */\n      dup1\n      0x00\n      swap1\n      sload\n      swap1\n      0x0100\n      exp\n      swap1\n      div\n      0xffffffffffffffffffffffffffffffffffffffff\n      and\n        /* \"Ownable.sol\":1450:1475  address oldOwner = _owner */\n      swap1\n      pop\n        /* \"Ownable.sol\":1494:1502  newOwner */\n      dup2\n        /* \"Ownable.sol\":1485:1491  _owner */\n      0x00\n      dup1\n        /* \"Ownable.sol\":1485:1502  _owner = newOwner */\n      0x0100\n      exp\n      dup2\n      sload\n      dup2\n      0xffffffffffffffffffffffffffffffffffffffff\n      mul\n      not\n      and\n      swap1\n      dup4\n      0xffffffffffffffffffffffffffffffffffffffff\n      and\n      mul\n      or\n      swap1\n      sstore\n      pop\n        /* \"Ownable.sol\":1548:1556  newOwner */\n      dup2\n        /* \"Ownable.sol\":1517:1557  OwnershipTransferred(oldOwner, newOwner) */\n      0xffffffffffffffffffffffffffffffffffffffff\n      and\n        /* \"Ownable.sol\":1538:1546  oldOwner */\n      dup2\n        /* \"Ownable.sol\":1517:1557  OwnershipTransferred(oldOwner, newOwner) */\n      0xffffffffffffffffffffffffffffffffffffffff\n      and\n      0x8be0079c531659141344cd1fd0a4f28419497f9722a3daafe3b4186f6b6457e0\n      mload(0x40)\n      mload(0x40)\n      dup1\n      swap2\n      sub\n      swap1\n      log3\n        /* \"Ownable.sol\":1440:1564  {... */\n      pop\n        /* \"Ownable.sol\":1377:1564  function _transferOwnership(address newOwner) internal virtual {... */\n      pop\n      jump\t// out\n        /* \"#utility.yul\":24:746   */\n    tag_113:\n        /* \"#utility.yul\":120:125   */\n      0x00\n        /* \"#utility.yul\":145:226   */\n      tag_115\n        /* \"#utility.yul\":161:225   */\n      tag_116\n        /* \"#utility.yul\":218:224   */\n      dup5\n        /* \"#utility.yul\":161:225   */\n      tag_117\n      jump\t// in\n    tag_116:\n        /* \"#utility.yul\":145:226   */\n      tag_118\n      jump\t// in\n    tag_115:\n        /* \"#utility.yul\":136:226   */\n      swap1\n      pop\n        /* \"#utility.yul\":246:251   */\n      dup1\n        /* \"#utility.yul\":275:281   */\n      dup4\n        /* \"#utility.yul\":268:273   */\n      dup3\n        /* \"#utility.yul\":261:282   */\n      mstore\n        /* \"#utility.yul\":309:313   */\n      0x20\n        /* \"#utility.yul\":302:307   */\n      dup3\n        /* \"#utility.yul\":298:314   */\n      add\n        /* \"#utility.yul\":291:314   */\n      swap1\n      pop\n        /* \"#utility.yul\":335:341   */\n      dup3\n        /* \"#utility.yul\":385:388   */\n      dup6\n        /* \"#utility.yul\":377:381   */\n      0x20\n        /* \"#utility.yul\":369:375   */\n      dup7\n        /* \"#utility.yul\":365:382   */\n      mul\n        /* \"#utility.yul\":360:363   */\n      dup3\n        /* \"#utility.yul\":356:383   */\n      add\n        /* \"#utility.yul\":353:389   */\n      gt\n        /* \"#utility.yul\":350:493   */\n      iszero\n      tag_119\n      jumpi\n        /* \"#utility.yul\":404:483   */\n      tag_120\n      tag_121\n      jump\t// in\n    tag_120:\n        /* \"#utility.yul\":350:493   */\n    tag_119:\n        /* \"#utility.yul\":517:518   */\n      0x00\n        /* \"#utility.yul\":502:740   */\n    tag_122:\n        /* \"#utility.yul\":527:533   */\n      dup6\n        /* \"#utility.yul\":524:525   */\n      dup2\n        /* \"#utility.yul\":521:534   */\n      lt\n        /* \"#utility.yul\":502:740   */\n      iszero\n      tag_124\n      jumpi\n        /* \"#utility.yul\":595:598   */\n      dup2\n        /* \"#utility.yul\":624:661   */\n      tag_125\n        /* \"#utility.yul\":657:660   */\n      dup9\n        /* \"#utility.yul\":645:655   */\n      dup3\n        /* \"#utility.yul\":624:661   */\n      tag_126\n      jump\t// in\n    tag_125:\n        /* \"#utility.yul\":619:622   */\n      dup5\n        /* \"#utility.yul\":612:662   */\n      mstore\n        /* \"#utility.yul\":691:695   */\n      0x20\n        /* \"#utility.yul\":686:689   */\n      dup5\n        /* \"#utility.yul\":682:696   */\n      add\n        /* \"#utility.yul\":675:696   */\n      swap4\n      pop\n        /* \"#utility.yul\":725:729   */\n      0x20\n        /* \"#utility.yul\":720:723   */\n      dup4\n        /* \"#utility.yul\":716:730   */\n      add\n        /* \"#utility.yul\":709:730   */\n      swap3\n      pop\n        /* \"#utility.yul\":562:740   */\n      pop\n        /* \"#utility.yul\":549:550   */\n      0x01\n        /* \"#utility.yul\":546:547   */\n      dup2\n        /* \"#utility.yul\":542:551   */\n      add\n        /* \"#utility.yul\":537:551   */\n      swap1\n      pop\n        /* \"#utility.yul\":502:740   */\n      jump(tag_122)\n    tag_124:\n        /* \"#utility.yul\":506:520   */\n      pop\n        /* \"#utility.yul\":126:746   */\n      pop\n      pop\n        /* \"#utility.yul\":24:746   */\n      swap4\n      swap3\n      pop\n      pop\n      pop\n      jump\t// out\n        /* \"#utility.yul\":752:1162   */\n    tag_127:\n        /* \"#utility.yul\":829:834   */\n      0x00\n        /* \"#utility.yul\":854:919   */\n      tag_129\n        /* \"#utility.yul\":870:918   */\n      tag_130\n        /* \"#utility.yul\":911:917   */\n      dup5\n        /* \"#utility.yul\":870:918   */\n      tag_131\n      jump\t// in\n    tag_130:\n        /* \"#utility.yul\":854:919   */\n      tag_118\n      jump\t// in\n    tag_129:\n        /* \"#utility.yul\":845:919   */\n      swap1\n      pop\n        /* \"#utility.yul\":942:948   */\n      dup3\n        /* \"#utility.yul\":935:940   */\n      dup2\n        /* \"#utility.yul\":928:949   */\n      mstore\n        /* \"#utility.yul\":980:984   */\n      0x20\n        /* \"#utility.yul\":973:978   */\n      dup2\n        /* \"#utility.yul\":969:985   */\n      add\n        /* \"#utility.yul\":1018:1021   */\n      dup5\n        /* \"#utility.yul\":1009:1015   */\n      dup5\n        /* \"#utility.yul\":1004:1007   */\n      dup5\n        /* \"#utility.yul\":1000:1016   */\n      add\n        /* \"#utility.yul\":997:1022   */\n      gt\n        /* \"#utility.yul\":994:1106   */\n      iszero\n      tag_132\n      jumpi\n        /* \"#utility.yul\":1025:1104   */\n      tag_133\n      tag_134\n      jump\t// in\n    tag_133:\n        /* \"#utility.yul\":994:1106   */\n    tag_132:\n        /* \"#utility.yul\":1115:1156   */\n      tag_135\n        /* \"#utility.yul\":1149:1155   */\n      dup5\n        /* \"#utility.yul\":1144:1147   */\n      dup3\n        /* \"#utility.yul\":1139:1142   */\n      dup6\n        /* \"#utility.yul\":1115:1156   */\n      tag_136\n      jump\t// in\n    tag_135:\n        /* \"#utility.yul\":835:1162   */\n      pop\n        /* \"#utility.yul\":752:1162   */\n      swap4\n      swap3\n      pop\n      pop\n      pop\n      jump\t// out\n        /* \"#utility.yul\":1168:1307   */\n    tag_137:\n        /* \"#utility.yul\":1214:1219   */\n      0x00\n        /* \"#utility.yul\":1252:1258   */\n      dup2\n        /* \"#utility.yul\":1239:1259   */\n      calldataload\n        /* \"#utility.yul\":1230:1259   */\n      swap1\n      pop\n        /* \"#utility.yul\":1268:1301   */\n      tag_139\n        /* \"#utility.yul\":1295:1300   */\n      dup2\n        /* \"#utility.yul\":1268:1301   */\n      tag_140\n      jump\t// in\n    tag_139:\n        /* \"#utility.yul\":1168:1307   */\n      swap3\n      swap2\n      pop\n      pop\n      jump\t// out\n        /* \"#utility.yul\":1330:1700   */\n    tag_141:\n        /* \"#utility.yul\":1401:1406   */\n      0x00\n        /* \"#utility.yul\":1450:1453   */\n      dup3\n        /* \"#utility.yul\":1443:1447   */\n      0x1f\n        /* \"#utility.yul\":1435:1441   */\n      dup4\n        /* \"#utility.yul\":1431:1448   */\n      add\n        /* \"#utility.yul\":1427:1454   */\n      slt\n        /* \"#utility.yul\":1417:1539   */\n      tag_143\n      jumpi\n        /* \"#utility.yul\":1458:1537   */\n      tag_144\n      tag_145\n      jump\t// in\n    tag_144:\n        /* \"#utility.yul\":1417:1539   */\n    tag_143:\n        /* \"#utility.yul\":1575:1581   */\n      dup2\n        /* \"#utility.yul\":1562:1582   */\n      calldataload\n        /* \"#utility.yul\":1600:1694   */\n      tag_146\n        /* \"#utility.yul\":1690:1693   */\n      dup5\n        /* \"#utility.yul\":1682:1688   */\n      dup3\n        /* \"#utility.yul\":1675:1679   */\n      0x20\n        /* \"#utility.yul\":1667:1673   */\n      dup7\n        /* \"#utility.yul\":1663:1680   */\n      add\n        /* \"#utility.yul\":1600:1694   */\n      tag_113\n      jump\t// in\n    tag_146:\n        /* \"#utility.yul\":1591:1694   */\n      swap2\n      pop\n        /* \"#utility.yul\":1407:1700   */\n      pop\n        /* \"#utility.yul\":1330:1700   */\n      swap3\n      swap2\n      pop\n      pop\n      jump\t// out\n        /* \"#utility.yul\":1706:1843   */\n    tag_147:\n        /* \"#utility.yul\":1751:1756   */\n      0x00\n        /* \"#utility.yul\":1789:1795   */\n      dup2\n        /* \"#utility.yul\":1776:1796   */\n      calldataload\n        /* \"#utility.yul\":1767:1796   */\n      swap1\n      pop\n        /* \"#utility.yul\":1805:1837   */\n      tag_149\n        /* \"#utility.yul\":1831:1836   */\n      dup2\n        /* \"#utility.yul\":1805:1837   */\n      tag_150\n      jump\t// in\n    tag_149:\n        /* \"#utility.yul\":1706:1843   */\n      swap3\n      swap2\n      pop\n      pop\n      jump\t// out\n        /* \"#utility.yul\":1862:2200   */\n    tag_151:\n        /* \"#utility.yul\":1917:1922   */\n      0x00\n        /* \"#utility.yul\":1966:1969   */\n      dup3\n        /* \"#utility.yul\":1959:1963   */\n      0x1f\n        /* \"#utility.yul\":1951:1957   */\n      dup4\n        /* \"#utility.yul\":1947:1964   */\n      add\n        /* \"#utility.yul\":1943:1970   */\n      slt\n        /* \"#utility.yul\":1933:2055   */\n      tag_153\n      jumpi\n        /* \"#utility.yul\":1974:2053   */\n      tag_154\n      tag_145\n      jump\t// in\n    tag_154:\n        /* \"#utility.yul\":1933:2055   */\n    tag_153:\n        /* \"#utility.yul\":2091:2097   */\n      dup2\n        /* \"#utility.yul\":2078:2098   */\n      calldataload\n        /* \"#utility.yul\":2116:2194   */\n      tag_155\n        /* \"#utility.yul\":2190:2193   */\n      dup5\n        /* \"#utility.yul\":2182:2188   */\n      dup3\n        /* \"#utility.yul\":2175:2179   */\n      0x20\n        /* \"#utility.yul\":2167:2173   */\n      dup7\n        /* \"#utility.yul\":2163:2180   */\n      add\n        /* \"#utility.yul\":2116:2194   */\n      tag_127\n      jump\t// in\n    tag_155:\n        /* \"#utility.yul\":2107:2194   */\n      swap2\n      pop\n        /* \"#utility.yul\":1923:2200   */\n      pop\n        /* \"#utility.yul\":1862:2200   */\n      swap3\n      swap2\n      pop\n      pop\n      jump\t// out\n        /* \"#utility.yul\":2206:2345   */\n    tag_126:\n        /* \"#utility.yul\":2252:2257   */\n      0x00\n        /* \"#utility.yul\":2290:2296   */\n      dup2\n        /* \"#utility.yul\":2277:2297   */\n      calldataload\n        /* \"#utility.yul\":2268:2297   */\n      swap1\n      pop\n        /* \"#utility.yul\":2306:2339   */\n      tag_157\n        /* \"#utility.yul\":2333:2338   */\n      dup2\n        /* \"#utility.yul\":2306:2339   */\n      tag_158\n      jump\t// in\n    tag_157:\n        /* \"#utility.yul\":2206:2345   */\n      swap3\n      swap2\n      pop\n      pop\n      jump\t// out\n        /* \"#utility.yul\":2351:2825   */\n    tag_50:\n        /* \"#utility.yul\":2419:2425   */\n      0x00\n        /* \"#utility.yul\":2427:2433   */\n      dup1\n        /* \"#utility.yul\":2476:2478   */\n      0x40\n        /* \"#utility.yul\":2464:2473   */\n      dup4\n        /* \"#utility.yul\":2455:2462   */\n      dup6\n        /* \"#utility.yul\":2451:2474   */\n      sub\n        /* \"#utility.yul\":2447:2479   */\n      slt\n        /* \"#utility.yul\":2444:2563   */\n      iszero\n      tag_160\n      jumpi\n        /* \"#utility.yul\":2482:2561   */\n      tag_161\n      tag_162\n      jump\t// in\n    tag_161:\n        /* \"#utility.yul\":2444:2563   */\n    tag_160:\n        /* \"#utility.yul\":2602:2603   */\n      0x00\n        /* \"#utility.yul\":2627:2680   */\n      tag_163\n        /* \"#utility.yul\":2672:2679   */\n      dup6\n        /* \"#utility.yul\":2663:2669   */\n      dup3\n        /* \"#utility.yul\":2652:2661   */\n      dup7\n        /* \"#utility.yul\":2648:2670   */\n      add\n        /* \"#utility.yul\":2627:2680   */\n      tag_137\n      jump\t// in\n    tag_163:\n        /* \"#utility.yul\":2617:2680   */\n      swap3\n      pop\n        /* \"#utility.yul\":2573:2690   */\n      pop\n        /* \"#utility.yul\":2729:2731   */\n      0x20\n        /* \"#utility.yul\":2755:2808   */\n      tag_164\n        /* \"#utility.yul\":2800:2807   */\n      dup6\n        /* \"#utility.yul\":2791:2797   */\n      dup3\n        /* \"#utility.yul\":2780:2789   */\n      dup7\n        /* \"#utility.yul\":2776:2798   */\n      add\n        /* \"#utility.yul\":2755:2808   */\n      tag_137\n      jump\t// in\n    tag_164:\n        /* \"#utility.yul\":2745:2808   */\n      swap2\n      pop\n        /* \"#utility.yul\":2700:2818   */\n      pop\n        /* \"#utility.yul\":2351:2825   */\n      swap3\n      pop\n      swap3\n      swap1\n      pop\n      jump\t// out\n        /* \"#utility.yul\":2831:4340   */\n    tag_44:\n        /* \"#utility.yul\":2985:2991   */\n      0x00\n        /* \"#utility.yul\":2993:2999   */\n      dup1\n        /* \"#utility.yul\":3001:3007   */\n      0x00\n        /* \"#utility.yul\":3009:3015   */\n      dup1\n        /* \"#utility.yul\":3017:3023   */\n      0x00\n        /* \"#utility.yul\":3066:3069   */\n      0xa0\n        /* \"#utility.yul\":3054:3063   */\n      dup7\n        /* \"#utility.yul\":3045:3052   */\n      dup9\n        /* \"#utility.yul\":3041:3064   */\n      sub\n        /* \"#utility.yul\":3037:3070   */\n      slt\n        /* \"#utility.yul\":3034:3154   */\n      iszero\n      tag_166\n      jumpi\n        /* \"#utility.yul\":3073:3152   */\n      tag_167\n      tag_162\n      jump\t// in\n    tag_167:\n        /* \"#utility.yul\":3034:3154   */\n    tag_166:\n        /* \"#utility.yul\":3193:3194   */\n      0x00\n        /* \"#utility.yul\":3218:3271   */\n      tag_168\n        /* \"#utility.yul\":3263:3270   */\n      dup9\n        /* \"#utility.yul\":3254:3260   */\n      dup3\n        /* \"#utility.yul\":3243:3252   */\n      dup10\n        /* \"#utility.yul\":3239:3261   */\n      add\n        /* \"#utility.yul\":3218:3271   */\n      tag_137\n      jump\t// in\n    tag_168:\n        /* \"#utility.yul\":3208:3271   */\n      swap6\n      pop\n        /* \"#utility.yul\":3164:3281   */\n      pop\n        /* \"#utility.yul\":3320:3322   */\n      0x20\n        /* \"#utility.yul\":3346:3399   */\n      tag_169\n        /* \"#utility.yul\":3391:3398   */\n      dup9\n        /* \"#utility.yul\":3382:3388   */\n      dup3\n        /* \"#utility.yul\":3371:3380   */\n      dup10\n        /* \"#utility.yul\":3367:3389   */\n      add\n        /* \"#utility.yul\":3346:3399   */\n      tag_137\n      jump\t// in\n    tag_169:\n        /* \"#utility.yul\":3336:3399   */\n      swap5\n      pop\n        /* \"#utility.yul\":3291:3409   */\n      pop\n        /* \"#utility.yul\":3476:3478   */\n      0x40\n        /* \"#utility.yul\":3465:3474   */\n      dup7\n        /* \"#utility.yul\":3461:3479   */\n      add\n        /* \"#utility.yul\":3448:3480   */\n      calldataload\n        /* \"#utility.yul\":3507:3525   */\n      0xffffffffffffffff\n        /* \"#utility.yul\":3499:3505   */\n      dup2\n        /* \"#utility.yul\":3496:3526   */\n      gt\n        /* \"#utility.yul\":3493:3610   */\n      iszero\n      tag_170\n      jumpi\n        /* \"#utility.yul\":3529:3608   */\n      tag_171\n      tag_172\n      jump\t// in\n    tag_171:\n        /* \"#utility.yul\":3493:3610   */\n    tag_170:\n        /* \"#utility.yul\":3634:3712   */\n      tag_173\n        /* \"#utility.yul\":3704:3711   */\n      dup9\n        /* \"#utility.yul\":3695:3701   */\n      dup3\n        /* \"#utility.yul\":3684:3693   */\n      dup10\n        /* \"#utility.yul\":3680:3702   */\n      add\n        /* \"#utility.yul\":3634:3712   */\n      tag_141\n      jump\t// in\n    tag_173:\n        /* \"#utility.yul\":3624:3712   */\n      swap4\n      pop\n        /* \"#utility.yul\":3419:3722   */\n      pop\n        /* \"#utility.yul\":3789:3791   */\n      0x60\n        /* \"#utility.yul\":3778:3787   */\n      dup7\n        /* \"#utility.yul\":3774:3792   */\n      add\n        /* \"#utility.yul\":3761:3793   */\n      calldataload\n        /* \"#utility.yul\":3820:3838   */\n      0xffffffffffffffff\n        /* \"#utility.yul\":3812:3818   */\n      dup2\n        /* \"#utility.yul\":3809:3839   */\n      gt\n        /* \"#utility.yul\":3806:3923   */\n      iszero\n      tag_174\n      jumpi\n        /* \"#utility.yul\":3842:3921   */\n      tag_175\n      tag_172\n      jump\t// in\n    tag_175:\n        /* \"#utility.yul\":3806:3923   */\n    tag_174:\n        /* \"#utility.yul\":3947:4025   */\n      tag_176\n        /* \"#utility.yul\":4017:4024   */\n      dup9\n        /* \"#utility.yul\":4008:4014   */\n      dup3\n        /* \"#utility.yul\":3997:4006   */\n      dup10\n        /* \"#utility.yul\":3993:4015   */\n      add\n        /* \"#utility.yul\":3947:4025   */\n      tag_141\n      jump\t// in\n    tag_176:\n        /* \"#utility.yul\":3937:4025   */\n      swap3\n      pop\n        /* \"#utility.yul\":3732:4035   */\n      pop\n        /* \"#utility.yul\":4102:4105   */\n      0x80\n        /* \"#utility.yul\":4091:4100   */\n      dup7\n        /* \"#utility.yul\":4087:4106   */\n      add\n        /* \"#utility.yul\":4074:4107   */\n      calldataload\n        /* \"#utility.yul\":4134:4152   */\n      0xffffffffffffffff\n        /* \"#utility.yul\":4126:4132   */\n      dup2\n        /* \"#utility.yul\":4123:4153   */\n      gt\n        /* \"#utility.yul\":4120:4237   */\n      iszero\n      tag_177\n      jumpi\n        /* \"#utility.yul\":4156:4235   */\n      tag_178\n      tag_172\n      jump\t// in\n    tag_178:\n        /* \"#utility.yul\":4120:4237   */\n    tag_177:\n        /* \"#utility.yul\":4261:4323   */\n      tag_179\n        /* \"#utility.yul\":4315:4322   */\n      dup9\n        /* \"#utility.yul\":4306:4312   */\n      dup3\n        /* \"#utility.yul\":4295:4304   */\n      dup10\n        /* \"#utility.yul\":4291:4313   */\n      add\n        /* \"#utility.yul\":4261:4323   */\n      tag_151\n      jump\t// in\n    tag_179:\n        /* \"#utility.yul\":4251:4323   */\n      swap2\n      pop\n        /* \"#utility.yul\":4045:4333   */\n      pop\n        /* \"#utility.yul\":2831:4340   */\n      swap3\n      swap6\n      pop\n      swap3\n      swap6\n      swap1\n      swap4\n      pop\n      jump\t// out\n        /* \"#utility.yul\":4346:5289   */\n    tag_24:\n        /* \"#utility.yul\":4441:4447   */\n      0x00\n        /* \"#utility.yul\":4449:4455   */\n      dup1\n        /* \"#utility.yul\":4457:4463   */\n      0x00\n        /* \"#utility.yul\":4465:4471   */\n      dup1\n        /* \"#utility.yul\":4514:4517   */\n      0x80\n        /* \"#utility.yul\":4502:4511   */\n      dup6\n        /* \"#utility.yul\":4493:4500   */\n      dup8\n        /* \"#utility.yul\":4489:4512   */\n      sub\n        /* \"#utility.yul\":4485:4518   */\n      slt\n        /* \"#utility.yul\":4482:4602   */\n      iszero\n      tag_181\n      jumpi\n        /* \"#utility.yul\":4521:4600   */\n      tag_182\n      tag_162\n      jump\t// in\n    tag_182:\n        /* \"#utility.yul\":4482:4602   */\n    tag_181:\n        /* \"#utility.yul\":4641:4642   */\n      0x00\n        /* \"#utility.yul\":4666:4719   */\n      tag_183\n        /* \"#utility.yul\":4711:4718   */\n      dup8\n        /* \"#utility.yul\":4702:4708   */\n      dup3\n        /* \"#utility.yul\":4691:4700   */\n      dup9\n        /* \"#utility.yul\":4687:4709   */\n      add\n        /* \"#utility.yul\":4666:4719   */\n      tag_137\n      jump\t// in\n    tag_183:\n        /* \"#utility.yul\":4656:4719   */\n      swap5\n      pop\n        /* \"#utility.yul\":4612:4729   */\n      pop\n        /* \"#utility.yul\":4768:4770   */\n      0x20\n        /* \"#utility.yul\":4794:4847   */\n      tag_184\n        /* \"#utility.yul\":4839:4846   */\n      dup8\n        /* \"#utility.yul\":4830:4836   */\n      dup3\n        /* \"#utility.yul\":4819:4828   */\n      dup9\n        /* \"#utility.yul\":4815:4837   */\n      add\n        /* \"#utility.yul\":4794:4847   */\n      tag_137\n      jump\t// in\n    tag_184:\n        /* \"#utility.yul\":4784:4847   */\n      swap4\n      pop\n        /* \"#utility.yul\":4739:4857   */\n      pop\n        /* \"#utility.yul\":4896:4898   */\n      0x40\n        /* \"#utility.yul\":4922:4975   */\n      tag_185\n        /* \"#utility.yul\":4967:4974   */\n      dup8\n        /* \"#utility.yul\":4958:4964   */\n      dup3\n        /* \"#utility.yul\":4947:4956   */\n      dup9\n        /* \"#utility.yul\":4943:4965   */\n      add\n        /* \"#utility.yul\":4922:4975   */\n      tag_126\n      jump\t// in\n    tag_185:\n        /* \"#utility.yul\":4912:4975   */\n      swap3\n      pop\n        /* \"#utility.yul\":4867:4985   */\n      pop\n        /* \"#utility.yul\":5052:5054   */\n      0x60\n        /* \"#utility.yul\":5041:5050   */\n      dup6\n        /* \"#utility.yul\":5037:5055   */\n      add\n        /* \"#utility.yul\":5024:5056   */\n      calldataload\n        /* \"#utility.yul\":5083:5101   */\n      0xffffffffffffffff\n        /* \"#utility.yul\":5075:5081   */\n      dup2\n        /* \"#utility.yul\":5072:5102   */\n      gt\n        /* \"#utility.yul\":5069:5186   */\n      iszero\n      tag_186\n      jumpi\n        /* \"#utility.yul\":5105:5184   */\n      tag_187\n      tag_172\n      jump\t// in\n    tag_187:\n        /* \"#utility.yul\":5069:5186   */\n    tag_186:\n        /* \"#utility.yul\":5210:5272   */\n      tag_188\n        /* \"#utility.yul\":5264:5271   */\n      dup8\n        /* \"#utility.yul\":5255:5261   */\n      dup3\n        /* \"#utility.yul\":5244:5253   */\n      dup9\n        /* \"#utility.yul\":5240:5262   */\n      add\n        /* \"#utility.yul\":5210:5272   */\n      tag_151\n      jump\t// in\n    tag_188:\n        /* \"#utility.yul\":5200:5272   */\n      swap2\n      pop\n        /* \"#utility.yul\":4995:5282   */\n      pop\n        /* \"#utility.yul\":4346:5289   */\n      swap3\n      swap6\n      swap2\n      swap5\n      pop\n      swap3\n      pop\n      jump\t// out\n        /* \"#utility.yul\":5295:6384   */\n    tag_55:\n        /* \"#utility.yul\":5399:5405   */\n      0x00\n        /* \"#utility.yul\":5407:5413   */\n      dup1\n        /* \"#utility.yul\":5415:5421   */\n      0x00\n        /* \"#utility.yul\":5423:5429   */\n      dup1\n        /* \"#utility.yul\":5431:5437   */\n      0x00\n        /* \"#utility.yul\":5480:5483   */\n      0xa0\n        /* \"#utility.yul\":5468:5477   */\n      dup7\n        /* \"#utility.yul\":5459:5466   */\n      dup9\n        /* \"#utility.yul\":5455:5478   */\n      sub\n        /* \"#utility.yul\":5451:5484   */\n      slt\n        /* \"#utility.yul\":5448:5568   */\n      iszero\n      tag_190\n      jumpi\n        /* \"#utility.yul\":5487:5566   */\n      tag_191\n      tag_162\n      jump\t// in\n    tag_191:\n        /* \"#utility.yul\":5448:5568   */\n    tag_190:\n        /* \"#utility.yul\":5607:5608   */\n      0x00\n        /* \"#utility.yul\":5632:5685   */\n      tag_192\n        /* \"#utility.yul\":5677:5684   */\n      dup9\n        /* \"#utility.yul\":5668:5674   */\n      dup3\n        /* \"#utility.yul\":5657:5666   */\n      dup10\n        /* \"#utility.yul\":5653:5675   */\n      add\n        /* \"#utility.yul\":5632:5685   */\n      tag_137\n      jump\t// in\n    tag_192:\n        /* \"#utility.yul\":5622:5685   */\n      swap6\n      pop\n        /* \"#utility.yul\":5578:5695   */\n      pop\n        /* \"#utility.yul\":5734:5736   */\n      0x20\n        /* \"#utility.yul\":5760:5813   */\n      tag_193\n        /* \"#utility.yul\":5805:5812   */\n      dup9\n        /* \"#utility.yul\":5796:5802   */\n      dup3\n        /* \"#utility.yul\":5785:5794   */\n      dup10\n        /* \"#utility.yul\":5781:5803   */\n      add\n        /* \"#utility.yul\":5760:5813   */\n      tag_137\n      jump\t// in\n    tag_193:\n        /* \"#utility.yul\":5750:5813   */\n      swap5\n      pop\n        /* \"#utility.yul\":5705:5823   */\n      pop\n        /* \"#utility.yul\":5862:5864   */\n      0x40\n        /* \"#utility.yul\":5888:5941   */\n      tag_194\n        /* \"#utility.yul\":5933:5940   */\n      dup9\n        /* \"#utility.yul\":5924:5930   */\n      dup3\n        /* \"#utility.yul\":5913:5922   */\n      dup10\n        /* \"#utility.yul\":5909:5931   */\n      add\n        /* \"#utility.yul\":5888:5941   */\n      tag_126\n      jump\t// in\n    tag_194:\n        /* \"#utility.yul\":5878:5941   */\n      swap4\n      pop\n        /* \"#utility.yul\":5833:5951   */\n      pop\n        /* \"#utility.yul\":5990:5992   */\n      0x60\n        /* \"#utility.yul\":6016:6069   */\n      tag_195\n        /* \"#utility.yul\":6061:6068   */\n      dup9\n        /* \"#utility.yul\":6052:6058   */\n      dup3\n        /* \"#utility.yul\":6041:6050   */\n      dup10\n        /* \"#utility.yul\":6037:6059   */\n      add\n        /* \"#utility.yul\":6016:6069   */\n      tag_126\n      jump\t// in\n    tag_195:\n        /* \"#utility.yul\":6006:6069   */\n      swap3\n      pop\n        /* \"#utility.yul\":5961:6079   */\n      pop\n        /* \"#utility.yul\":6146:6149   */\n      0x80\n        /* \"#utility.yul\":6135:6144   */\n      dup7\n        /* \"#utility.yul\":6131:6150   */\n      add\n        /* \"#utility.yul\":6118:6151   */\n      calldataload\n        /* \"#utility.yul\":6178:6196   */\n      0xffffffffffffffff\n        /* \"#utility.yul\":6170:6176   */\n      dup2\n        /* \"#utility.yul\":6167:6197   */\n      gt\n        /* \"#utility.yul\":6164:6281   */\n      iszero\n      tag_196\n      jumpi\n        /* \"#utility.yul\":6200:6279   */\n      tag_197\n      tag_172\n      jump\t// in\n    tag_197:\n        /* \"#utility.yul\":6164:6281   */\n    tag_196:\n        /* \"#utility.yul\":6305:6367   */\n      tag_198\n        /* \"#utility.yul\":6359:6366   */\n      dup9\n        /* \"#utility.yul\":6350:6356   */\n      dup3\n        /* \"#utility.yul\":6339:6348   */\n      dup10\n        /* \"#utility.yul\":6335:6357   */\n      add\n        /* \"#utility.yul\":6305:6367   */\n      tag_151\n      jump\t// in\n    tag_198:\n        /* \"#utility.yul\":6295:6367   */\n      swap2\n      pop\n        /* \"#utility.yul\":6089:6377   */\n      pop\n        /* \"#utility.yul\":5295:6384   */\n      swap3\n      swap6\n      pop\n      swap3\n      swap6\n      swap1\n      swap4\n      pop\n      jump\t// out\n        /* \"#utility.yul\":6390:6864   */\n    tag_34:\n        /* \"#utility.yul\":6458:6464   */\n      0x00\n        /* \"#utility.yul\":6466:6472   */\n      dup1\n        /* \"#utility.yul\":6515:6517   */\n      0x40\n        /* \"#utility.yul\":6503:6512   */\n      dup4\n        /* \"#utility.yul\":6494:6501   */\n      dup6\n        /* \"#utility.yul\":6490:6513   */\n      sub\n        /* \"#utility.yul\":6486:6518   */\n      slt\n        /* \"#utility.yul\":6483:6602   */\n      iszero\n      tag_200\n      jumpi\n        /* \"#utility.yul\":6521:6600   */\n      tag_201\n      tag_162\n      jump\t// in\n    tag_201:\n        /* \"#utility.yul\":6483:6602   */\n    tag_200:\n        /* \"#utility.yul\":6641:6642   */\n      0x00\n        /* \"#utility.yul\":6666:6719   */\n      tag_202\n        /* \"#utility.yul\":6711:6718   */\n      dup6\n        /* \"#utility.yul\":6702:6708   */\n      dup3\n        /* \"#utility.yul\":6691:6700   */\n      dup7\n        /* \"#utility.yul\":6687:6709   */\n      add\n        /* \"#utility.yul\":6666:6719   */\n      tag_137\n      jump\t// in\n    tag_202:\n        /* \"#utility.yul\":6656:6719   */\n      swap3\n      pop\n        /* \"#utility.yul\":6612:6729   */\n      pop\n        /* \"#utility.yul\":6768:6770   */\n      0x20\n        /* \"#utility.yul\":6794:6847   */\n      tag_203\n        /* \"#utility.yul\":6839:6846   */\n      dup6\n        /* \"#utility.yul\":6830:6836   */\n      dup3\n        /* \"#utility.yul\":6819:6828   */\n      dup7\n        /* \"#utility.yul\":6815:6837   */\n      add\n        /* \"#utility.yul\":6794:6847   */\n      tag_126\n      jump\t// in\n    tag_203:\n        /* \"#utility.yul\":6784:6847   */\n      swap2\n      pop\n        /* \"#utility.yul\":6739:6857   */\n      pop\n        /* \"#utility.yul\":6390:6864   */\n      swap3\n      pop\n      swap3\n      swap1\n      pop\n      jump\t// out\n        /* \"#utility.yul\":6870:7197   */\n    tag_17:\n        /* \"#utility.yul\":6928:6934   */\n      0x00\n        /* \"#utility.yul\":6977:6979   */\n      0x20\n        /* \"#utility.yul\":6965:6974   */\n      dup3\n        /* \"#utility.yul\":6956:6963   */\n      dup5\n        /* \"#utility.yul\":6952:6975   */\n      sub\n        /* \"#utility.yul\":6948:6980   */\n      slt\n        /* \"#utility.yul\":6945:7064   */\n      iszero\n      tag_205\n      jumpi\n        /* \"#utility.yul\":6983:7062   */\n      tag_206\n      tag_162\n      jump\t// in\n    tag_206:\n        /* \"#utility.yul\":6945:7064   */\n    tag_205:\n        /* \"#utility.yul\":7103:7104   */\n      0x00\n        /* \"#utility.yul\":7128:7180   */\n      tag_207\n        /* \"#utility.yul\":7172:7179   */\n      dup5\n        /* \"#utility.yul\":7163:7169   */\n      dup3\n        /* \"#utility.yul\":7152:7161   */\n      dup6\n        /* \"#utility.yul\":7148:7170   */\n      add\n        /* \"#utility.yul\":7128:7180   */\n      tag_147\n      jump\t// in\n    tag_207:\n        /* \"#utility.yul\":7118:7180   */\n      swap2\n      pop\n        /* \"#utility.yul\":7074:7190   */\n      pop\n        /* \"#utility.yul\":6870:7197   */\n      swap3\n      swap2\n      pop\n      pop\n      jump\t// out\n        /* \"#utility.yul\":7203:7321   */\n    tag_208:\n        /* \"#utility.yul\":7290:7314   */\n      tag_210\n        /* \"#utility.yul\":7308:7313   */\n      dup2\n        /* \"#utility.yul\":7290:7314   */\n      tag_211\n      jump\t// in\n    tag_210:\n        /* \"#utility.yul\":7285:7288   */\n      dup3\n        /* \"#utility.yul\":7278:7315   */\n      mstore\n        /* \"#utility.yul\":7203:7321   */\n      pop\n      pop\n      jump\t// out\n        /* \"#utility.yul\":7327:7436   */\n    tag_212:\n        /* \"#utility.yul\":7408:7429   */\n      tag_214\n        /* \"#utility.yul\":7423:7428   */\n      dup2\n        /* \"#utility.yul\":7408:7429   */\n      tag_215\n      jump\t// in\n    tag_214:\n        /* \"#utility.yul\":7403:7406   */\n      dup3\n        /* \"#utility.yul\":7396:7430   */\n      mstore\n        /* \"#utility.yul\":7327:7436   */\n      pop\n      pop\n      jump\t// out\n        /* \"#utility.yul\":7442:7557   */\n    tag_216:\n        /* \"#utility.yul\":7527:7550   */\n      tag_218\n        /* \"#utility.yul\":7544:7549   */\n      dup2\n        /* \"#utility.yul\":7527:7550   */\n      tag_219\n      jump\t// in\n    tag_218:\n        /* \"#utility.yul\":7522:7525   */\n      dup3\n        /* \"#utility.yul\":7515:7551   */\n      mstore\n        /* \"#utility.yul\":7442:7557   */\n      pop\n      pop\n      jump\t// out\n        /* \"#utility.yul\":7563:7929   */\n    tag_220:\n        /* \"#utility.yul\":7705:7708   */\n      0x00\n        /* \"#utility.yul\":7726:7793   */\n      tag_222\n        /* \"#utility.yul\":7790:7792   */\n      0x1e\n        /* \"#utility.yul\":7785:7788   */\n      dup4\n        /* \"#utility.yul\":7726:7793   */\n      tag_223\n      jump\t// in\n    tag_222:\n        /* \"#utility.yul\":7719:7793   */\n      swap2\n      pop\n        /* \"#utility.yul\":7802:7895   */\n      tag_224\n        /* \"#utility.yul\":7891:7894   */\n      dup3\n        /* \"#utility.yul\":7802:7895   */\n      tag_225\n      jump\t// in\n    tag_224:\n        /* \"#utility.yul\":7920:7922   */\n      0x20\n        /* \"#utility.yul\":7915:7918   */\n      dup3\n        /* \"#utility.yul\":7911:7923   */\n      add\n        /* \"#utility.yul\":7904:7923   */\n      swap1\n      pop\n        /* \"#utility.yul\":7563:7929   */\n      swap2\n      swap1\n      pop\n      jump\t// out\n        /* \"#utility.yul\":7935:8301   */\n    tag_226:\n        /* \"#utility.yul\":8077:8080   */\n      0x00\n        /* \"#utility.yul\":8098:8165   */\n      tag_228\n        /* \"#utility.yul\":8162:8164   */\n      0x1e\n        /* \"#utility.yul\":8157:8160   */\n      dup4\n        /* \"#utility.yul\":8098:8165   */\n      tag_223\n      jump\t// in\n    tag_228:\n        /* \"#utility.yul\":8091:8165   */\n      swap2\n      pop\n        /* \"#utility.yul\":8174:8267   */\n      tag_229\n        /* \"#utility.yul\":8263:8266   */\n      dup3\n        /* \"#utility.yul\":8174:8267   */\n      tag_230\n      jump\t// in\n    tag_229:\n        /* \"#utility.yul\":8292:8294   */\n      0x20\n        /* \"#utility.yul\":8287:8290   */\n      dup3\n        /* \"#utility.yul\":8283:8295   */\n      add\n        /* \"#utility.yul\":8276:8295   */\n      swap1\n      pop\n        /* \"#utility.yul\":7935:8301   */\n      swap2\n      swap1\n      pop\n      jump\t// out\n        /* \"#utility.yul\":8307:8673   */\n    tag_231:\n        /* \"#utility.yul\":8449:8452   */\n      0x00\n        /* \"#utility.yul\":8470:8537   */\n      tag_233\n        /* \"#utility.yul\":8534:8536   */\n      0x20\n        /* \"#utility.yul\":8529:8532   */\n      dup4\n        /* \"#utility.yul\":8470:8537   */\n      tag_223\n      jump\t// in\n    tag_233:\n        /* \"#utility.yul\":8463:8537   */\n      swap2\n      pop\n        /* \"#utility.yul\":8546:8639   */\n      tag_234\n        /* \"#utility.yul\":8635:8638   */\n      dup3\n        /* \"#utility.yul\":8546:8639   */\n      tag_235\n      jump\t// in\n    tag_234:\n        /* \"#utility.yul\":8664:8666   */\n      0x20\n        /* \"#utility.yul\":8659:8662   */\n      dup3\n        /* \"#utility.yul\":8655:8667   */\n      add\n        /* \"#utility.yul\":8648:8667   */\n      swap1\n      pop\n        /* \"#utility.yul\":8307:8673   */\n      swap2\n      swap1\n      pop\n      jump\t// out\n        /* \"#utility.yul\":8679:9045   */\n    tag_236:\n        /* \"#utility.yul\":8821:8824   */\n      0x00\n        /* \"#utility.yul\":8842:8909   */\n      tag_238\n        /* \"#utility.yul\":8906:8908   */\n      0x1c\n        /* \"#utility.yul\":8901:8904   */\n      dup4\n        /* \"#utility.yul\":8842:8909   */\n      tag_223\n      jump\t// in\n    tag_238:\n        /* \"#utility.yul\":8835:8909   */\n      swap2\n      pop\n        /* \"#utility.yul\":8918:9011   */\n      tag_239\n        /* \"#utility.yul\":9007:9010   */\n      dup3\n        /* \"#utility.yul\":8918:9011   */\n      tag_240\n      jump\t// in\n    tag_239:\n        /* \"#utility.yul\":9036:9038   */\n      0x20\n        /* \"#utility.yul\":9031:9034   */\n      dup3\n        /* \"#utility.yul\":9027:9039   */\n      add\n        /* \"#utility.yul\":9020:9039   */\n      swap1\n      pop\n        /* \"#utility.yul\":8679:9045   */\n      swap2\n      swap1\n      pop\n      jump\t// out\n        /* \"#utility.yul\":9051:9417   */\n    tag_241:\n        /* \"#utility.yul\":9193:9196   */\n      0x00\n        /* \"#utility.yul\":9214:9281   */\n      tag_243\n        /* \"#utility.yul\":9278:9280   */\n      0x2e\n        /* \"#utility.yul\":9273:9276   */\n      dup4\n        /* \"#utility.yul\":9214:9281   */\n      tag_223\n      jump\t// in\n    tag_243:\n        /* \"#utility.yul\":9207:9281   */\n      swap2\n      pop\n        /* \"#utility.yul\":9290:9383   */\n      tag_244\n        /* \"#utility.yul\":9379:9382   */\n      dup3\n        /* \"#utility.yul\":9290:9383   */\n      tag_245\n      jump\t// in\n    tag_244:\n        /* \"#utility.yul\":9408:9410   */\n      0x40\n        /* \"#utility.yul\":9403:9406   */\n      dup3\n        /* \"#utility.yul\":9399:9411   */\n      add\n        /* \"#utility.yul\":9392:9411   */\n      swap1\n      pop\n        /* \"#utility.yul\":9051:9417   */\n      swap2\n      swap1\n      pop\n      jump\t// out\n        /* \"#utility.yul\":9423:9541   */\n    tag_246:\n        /* \"#utility.yul\":9510:9534   */\n      tag_248\n        /* \"#utility.yul\":9528:9533   */\n      dup2\n        /* \"#utility.yul\":9510:9534   */\n      tag_249\n      jump\t// in\n    tag_248:\n        /* \"#utility.yul\":9505:9508   */\n      dup3\n        /* \"#utility.yul\":9498:9535   */\n      mstore\n        /* \"#utility.yul\":9423:9541   */\n      pop\n      pop\n      jump\t// out\n        /* \"#utility.yul\":9547:9769   */\n    tag_40:\n        /* \"#utility.yul\":9640:9644   */\n      0x00\n        /* \"#utility.yul\":9678:9680   */\n      0x20\n        /* \"#utility.yul\":9667:9676   */\n      dup3\n        /* \"#utility.yul\":9663:9681   */\n      add\n        /* \"#utility.yul\":9655:9681   */\n      swap1\n      pop\n        /* \"#utility.yul\":9691:9762   */\n      tag_251\n        /* \"#utility.yul\":9759:9760   */\n      0x00\n        /* \"#utility.yul\":9748:9757   */\n      dup4\n        /* \"#utility.yul\":9744:9761   */\n      add\n        /* \"#utility.yul\":9735:9741   */\n      dup5\n        /* \"#utility.yul\":9691:9762   */\n      tag_208\n      jump\t// in\n    tag_251:\n        /* \"#utility.yul\":9547:9769   */\n      swap3\n      swap2\n      pop\n      pop\n      jump\t// out\n        /* \"#utility.yul\":9775:10217   */\n    tag_107:\n        /* \"#utility.yul\":9924:9928   */\n      0x00\n        /* \"#utility.yul\":9962:9964   */\n      0x60\n        /* \"#utility.yul\":9951:9960   */\n      dup3\n        /* \"#utility.yul\":9947:9965   */\n      add\n        /* \"#utility.yul\":9939:9965   */\n      swap1\n      pop\n        /* \"#utility.yul\":9975:10046   */\n      tag_253\n        /* \"#utility.yul\":10043:10044   */\n      0x00\n        /* \"#utility.yul\":10032:10041   */\n      dup4\n        /* \"#utility.yul\":10028:10045   */\n      add\n        /* \"#utility.yul\":10019:10025   */\n      dup7\n        /* \"#utility.yul\":9975:10046   */\n      tag_208\n      jump\t// in\n    tag_253:\n        /* \"#utility.yul\":10056:10128   */\n      tag_254\n        /* \"#utility.yul\":10124:10126   */\n      0x20\n        /* \"#utility.yul\":10113:10122   */\n      dup4\n        /* \"#utility.yul\":10109:10127   */\n      add\n        /* \"#utility.yul\":10100:10106   */\n      dup6\n        /* \"#utility.yul\":10056:10128   */\n      tag_208\n      jump\t// in\n    tag_254:\n        /* \"#utility.yul\":10138:10210   */\n      tag_255\n        /* \"#utility.yul\":10206:10208   */\n      0x40\n        /* \"#utility.yul\":10195:10204   */\n      dup4\n        /* \"#utility.yul\":10191:10209   */\n      add\n        /* \"#utility.yul\":10182:10188   */\n      dup5\n        /* \"#utility.yul\":10138:10210   */\n      tag_246\n      jump\t// in\n    tag_255:\n        /* \"#utility.yul\":9775:10217   */\n      swap5\n      swap4\n      pop\n      pop\n      pop\n      pop\n      jump\t// out\n        /* \"#utility.yul\":10223:10433   */\n    tag_20:\n        /* \"#utility.yul\":10310:10314   */\n      0x00\n        /* \"#utility.yul\":10348:10350   */\n      0x20\n        /* \"#utility.yul\":10337:10346   */\n      dup3\n        /* \"#utility.yul\":10333:10351   */\n      add\n        /* \"#utility.yul\":10325:10351   */\n      swap1\n      pop\n        /* \"#utility.yul\":10361:10426   */\n      tag_257\n        /* \"#utility.yul\":10423:10424   */\n      0x00\n        /* \"#utility.yul\":10412:10421   */\n      dup4\n        /* \"#utility.yul\":10408:10425   */\n      add\n        /* \"#utility.yul\":10399:10405   */\n      dup5\n        /* \"#utility.yul\":10361:10426   */\n      tag_212\n      jump\t// in\n    tag_257:\n        /* \"#utility.yul\":10223:10433   */\n      swap3\n      swap2\n      pop\n      pop\n      jump\t// out\n        /* \"#utility.yul\":10439:10657   */\n    tag_27:\n        /* \"#utility.yul\":10530:10534   */\n      0x00\n        /* \"#utility.yul\":10568:10570   */\n      0x20\n        /* \"#utility.yul\":10557:10566   */\n      dup3\n        /* \"#utility.yul\":10553:10571   */\n      add\n        /* \"#utility.yul\":10545:10571   */\n      swap1\n      pop\n        /* \"#utility.yul\":10581:10650   */\n      tag_259\n        /* \"#utility.yul\":10647:10648   */\n      0x00\n        /* \"#utility.yul\":10636:10645   */\n      dup4\n        /* \"#utility.yul\":10632:10649   */\n      add\n        /* \"#utility.yul\":10623:10629   */\n      dup5\n        /* \"#utility.yul\":10581:10650   */\n      tag_216\n      jump\t// in\n    tag_259:\n        /* \"#utility.yul\":10439:10657   */\n      swap3\n      swap2\n      pop\n      pop\n      jump\t// out\n        /* \"#utility.yul\":10663:11082   */\n    tag_89:\n        /* \"#utility.yul\":10829:10833   */\n      0x00\n        /* \"#utility.yul\":10867:10869   */\n      0x20\n        /* \"#utility.yul\":10856:10865   */\n      dup3\n        /* \"#utility.yul\":10852:10870   */\n      add\n        /* \"#utility.yul\":10844:10870   */\n      swap1\n      pop\n        /* \"#utility.yul\":10916:10925   */\n      dup2\n        /* \"#utility.yul\":10910:10914   */\n      dup2\n        /* \"#utility.yul\":10906:10926   */\n      sub\n        /* \"#utility.yul\":10902:10903   */\n      0x00\n        /* \"#utility.yul\":10891:10900   */\n      dup4\n        /* \"#utility.yul\":10887:10904   */\n      add\n        /* \"#utility.yul\":10880:10927   */\n      mstore\n        /* \"#utility.yul\":10944:11075   */\n      tag_261\n        /* \"#utility.yul\":11070:11074   */\n      dup2\n        /* \"#utility.yul\":10944:11075   */\n      tag_220\n      jump\t// in\n    tag_261:\n        /* \"#utility.yul\":10936:11075   */\n      swap1\n      pop\n        /* \"#utility.yul\":10663:11082   */\n      swap2\n      swap1\n      pop\n      jump\t// out\n        /* \"#utility.yul\":11088:11507   */\n    tag_86:\n        /* \"#utility.yul\":11254:11258   */\n      0x00\n        /* \"#utility.yul\":11292:11294   */\n      0x20\n        /* \"#utility.yul\":11281:11290   */\n      dup3\n        /* \"#utility.yul\":11277:11295   */\n      add\n        /* \"#utility.yul\":11269:11295   */\n      swap1\n      pop\n        /* \"#utility.yul\":11341:11350   */\n      dup2\n        /* \"#utility.yul\":11335:11339   */\n      dup2\n        /* \"#utility.yul\":11331:11351   */\n      sub\n        /* \"#utility.yul\":11327:11328   */\n      0x00\n        /* \"#utility.yul\":11316:11325   */\n      dup4\n        /* \"#utility.yul\":11312:11329   */\n      add\n        /* \"#utility.yul\":11305:11352   */\n      mstore\n        /* \"#utility.yul\":11369:11500   */\n      tag_263\n        /* \"#utility.yul\":11495:11499   */\n      dup2\n        /* \"#utility.yul\":11369:11500   */\n      tag_226\n      jump\t// in\n    tag_263:\n        /* \"#utility.yul\":11361:11500   */\n      swap1\n      pop\n        /* \"#utility.yul\":11088:11507   */\n      swap2\n      swap1\n      pop\n      jump\t// out\n        /* \"#utility.yul\":11513:11932   */\n    tag_69:\n        /* \"#utility.yul\":11679:11683   */\n      0x00\n        /* \"#utility.yul\":11717:11719   */\n      0x20\n        /* \"#utility.yul\":11706:11715   */\n      dup3\n        /* \"#utility.yul\":11702:11720   */\n      add\n        /* \"#utility.yul\":11694:11720   */\n      swap1\n      pop\n        /* \"#utility.yul\":11766:11775   */\n      dup2\n        /* \"#utility.yul\":11760:11764   */\n      dup2\n        /* \"#utility.yul\":11756:11776   */\n      sub\n        /* \"#utility.yul\":11752:11753   */\n      0x00\n        /* \"#utility.yul\":11741:11750   */\n      dup4\n        /* \"#utility.yul\":11737:11754   */\n      add\n        /* \"#utility.yul\":11730:11777   */\n      mstore\n        /* \"#utility.yul\":11794:11925   */\n      tag_265\n        /* \"#utility.yul\":11920:11924   */\n      dup2\n        /* \"#utility.yul\":11794:11925   */\n      tag_231\n      jump\t// in\n    tag_265:\n        /* \"#utility.yul\":11786:11925   */\n      swap1\n      pop\n        /* \"#utility.yul\":11513:11932   */\n      swap2\n      swap1\n      pop\n      jump\t// out\n        /* \"#utility.yul\":11938:12357   */\n    tag_95:\n        /* \"#utility.yul\":12104:12108   */\n      0x00\n        /* \"#utility.yul\":12142:12144   */\n      0x20\n        /* \"#utility.yul\":12131:12140   */\n      dup3\n        /* \"#utility.yul\":12127:12145   */\n      add\n        /* \"#utility.yul\":12119:12145   */\n      swap1\n      pop\n        /* \"#utility.yul\":12191:12200   */\n      dup2\n        /* \"#utility.yul\":12185:12189   */\n      dup2\n        /* \"#utility.yul\":12181:12201   */\n      sub\n        /* \"#utility.yul\":12177:12178   */\n      0x00\n        /* \"#utility.yul\":12166:12175   */\n      dup4\n        /* \"#utility.yul\":12162:12179   */\n      add\n        /* \"#utility.yul\":12155:12202   */\n      mstore\n        /* \"#utility.yul\":12219:12350   */\n      tag_267\n        /* \"#utility.yul\":12345:12349   */\n      dup2\n        /* \"#utility.yul\":12219:12350   */\n      tag_236\n      jump\t// in\n    tag_267:\n        /* \"#utility.yul\":12211:12350   */\n      swap1\n      pop\n        /* \"#utility.yul\":11938:12357   */\n      swap2\n      swap1\n      pop\n      jump\t// out\n        /* \"#utility.yul\":12363:12782   */\n    tag_92:\n        /* \"#utility.yul\":12529:12533   */\n      0x00\n        /* \"#utility.yul\":12567:12569   */\n      0x20\n        /* \"#utility.yul\":12556:12565   */\n      dup3\n        /* \"#utility.yul\":12552:12570   */\n      add\n        /* \"#utility.yul\":12544:12570   */\n      swap1\n      pop\n        /* \"#utility.yul\":12616:12625   */\n      dup2\n        /* \"#utility.yul\":12610:12614   */\n      dup2\n        /* \"#utility.yul\":12606:12626   */\n      sub\n        /* \"#utility.yul\":12602:12603   */\n      0x00\n        /* \"#utility.yul\":12591:12600   */\n      dup4\n        /* \"#utility.yul\":12587:12604   */\n      add\n        /* \"#utility.yul\":12580:12627   */\n      mstore\n        /* \"#utility.yul\":12644:12775   */\n      tag_269\n        /* \"#utility.yul\":12770:12774   */\n      dup2\n        /* \"#utility.yul\":12644:12775   */\n      tag_241\n      jump\t// in\n    tag_269:\n        /* \"#utility.yul\":12636:12775   */\n      swap1\n      pop\n        /* \"#utility.yul\":12363:12782   */\n      swap2\n      swap1\n      pop\n      jump\t// out\n        /* \"#utility.yul\":12788:12917   */\n    tag_118:\n        /* \"#utility.yul\":12822:12828   */\n      0x00\n        /* \"#utility.yul\":12849:12869   */\n      tag_271\n      tag_272\n      jump\t// in\n    tag_271:\n        /* \"#utility.yul\":12839:12869   */\n      swap1\n      pop\n        /* \"#utility.yul\":12878:12911   */\n      tag_273\n        /* \"#utility.yul\":12906:12910   */\n      dup3\n        /* \"#utility.yul\":12898:12904   */\n      dup3\n        /* \"#utility.yul\":12878:12911   */\n      tag_274\n      jump\t// in\n    tag_273:\n        /* \"#utility.yul\":12788:12917   */\n      swap2\n      swap1\n      pop\n      jump\t// out\n        /* \"#utility.yul\":12923:12998   */\n    tag_272:\n        /* \"#utility.yul\":12956:12962   */\n      0x00\n        /* \"#utility.yul\":12989:12991   */\n      0x40\n        /* \"#utility.yul\":12983:12992   */\n      mload\n        /* \"#utility.yul\":12973:12992   */\n      swap1\n      pop\n        /* \"#utility.yul\":12923:12998   */\n      swap1\n      jump\t// out\n        /* \"#utility.yul\":13004:13315   */\n    tag_117:\n        /* \"#utility.yul\":13081:13085   */\n      0x00\n        /* \"#utility.yul\":13171:13189   */\n      0xffffffffffffffff\n        /* \"#utility.yul\":13163:13169   */\n      dup3\n        /* \"#utility.yul\":13160:13190   */\n      gt\n        /* \"#utility.yul\":13157:13213   */\n      iszero\n      tag_277\n      jumpi\n        /* \"#utility.yul\":13193:13211   */\n      tag_278\n      tag_279\n      jump\t// in\n    tag_278:\n        /* \"#utility.yul\":13157:13213   */\n    tag_277:\n        /* \"#utility.yul\":13243:13247   */\n      0x20\n        /* \"#utility.yul\":13235:13241   */\n      dup3\n        /* \"#utility.yul\":13231:13248   */\n      mul\n        /* \"#utility.yul\":13223:13248   */\n      swap1\n      pop\n        /* \"#utility.yul\":13303:13307   */\n      0x20\n        /* \"#utility.yul\":13297:13301   */\n      dup2\n        /* \"#utility.yul\":13293:13308   */\n      add\n        /* \"#utility.yul\":13285:13308   */\n      swap1\n      pop\n        /* \"#utility.yul\":13004:13315   */\n      swap2\n      swap1\n      pop\n      jump\t// out\n        /* \"#utility.yul\":13321:13628   */\n    tag_131:\n        /* \"#utility.yul\":13382:13386   */\n      0x00\n        /* \"#utility.yul\":13472:13490   */\n      0xffffffffffffffff\n        /* \"#utility.yul\":13464:13470   */\n      dup3\n        /* \"#utility.yul\":13461:13491   */\n      gt\n        /* \"#utility.yul\":13458:13514   */\n      iszero\n      tag_281\n      jumpi\n        /* \"#utility.yul\":13494:13512   */\n      tag_282\n      tag_279\n      jump\t// in\n    tag_282:\n        /* \"#utility.yul\":13458:13514   */\n    tag_281:\n        /* \"#utility.yul\":13532:13561   */\n      tag_283\n        /* \"#utility.yul\":13554:13560   */\n      dup3\n        /* \"#utility.yul\":13532:13561   */\n      tag_284\n      jump\t// in\n    tag_283:\n        /* \"#utility.yul\":13524:13561   */\n      swap1\n      pop\n        /* \"#utility.yul\":13616:13620   */\n      0x20\n        /* \"#utility.yul\":13610:13614   */\n      dup2\n        /* \"#utility.yul\":13606:13621   */\n      add\n        /* \"#utility.yul\":13598:13621   */\n      swap1\n      pop\n        /* \"#utility.yul\":13321:13628   */\n      swap2\n      swap1\n      pop\n      jump\t// out\n        /* \"#utility.yul\":13634:13803   */\n    tag_223:\n        /* \"#utility.yul\":13718:13729   */\n      0x00\n        /* \"#utility.yul\":13752:13758   */\n      dup3\n        /* \"#utility.yul\":13747:13750   */\n      dup3\n        /* \"#utility.yul\":13740:13759   */\n      mstore\n        /* \"#utility.yul\":13792:13796   */\n      0x20\n        /* \"#utility.yul\":13787:13790   */\n      dup3\n        /* \"#utility.yul\":13783:13797   */\n      add\n        /* \"#utility.yul\":13768:13797   */\n      swap1\n      pop\n        /* \"#utility.yul\":13634:13803   */\n      swap3\n      swap2\n      pop\n      pop\n      jump\t// out\n        /* \"#utility.yul\":13809:13905   */\n    tag_211:\n        /* \"#utility.yul\":13846:13853   */\n      0x00\n        /* \"#utility.yul\":13875:13899   */\n      tag_287\n        /* \"#utility.yul\":13893:13898   */\n      dup3\n        /* \"#utility.yul\":13875:13899   */\n      tag_288\n      jump\t// in\n    tag_287:\n        /* \"#utility.yul\":13864:13899   */\n      swap1\n      pop\n        /* \"#utility.yul\":13809:13905   */\n      swap2\n      swap1\n      pop\n      jump\t// out\n        /* \"#utility.yul\":13911:14001   */\n    tag_215:\n        /* \"#utility.yul\":13945:13952   */\n      0x00\n        /* \"#utility.yul\":13988:13993   */\n      dup2\n        /* \"#utility.yul\":13981:13994   */\n      iszero\n        /* \"#utility.yul\":13974:13995   */\n      iszero\n        /* \"#utility.yul\":13963:13995   */\n      swap1\n      pop\n        /* \"#utility.yul\":13911:14001   */\n      swap2\n      swap1\n      pop\n      jump\t// out\n        /* \"#utility.yul\":14007:14156   */\n    tag_219:\n        /* \"#utility.yul\":14043:14050   */\n      0x00\n        /* \"#utility.yul\":14083:14149   */\n      0xffffffff00000000000000000000000000000000000000000000000000000000\n        /* \"#utility.yul\":14076:14081   */\n      dup3\n        /* \"#utility.yul\":14072:14150   */\n      and\n        /* \"#utility.yul\":14061:14150   */\n      swap1\n      pop\n        /* \"#utility.yul\":14007:14156   */\n      swap2\n      swap1\n      pop\n      jump\t// out\n        /* \"#utility.yul\":14162:14288   */\n    tag_288:\n        /* \"#utility.yul\":14199:14206   */\n      0x00\n        /* \"#utility.yul\":14239:14281   */\n      0xffffffffffffffffffffffffffffffffffffffff\n        /* \"#utility.yul\":14232:14237   */\n      dup3\n        /* \"#utility.yul\":14228:14282   */\n      and\n        /* \"#utility.yul\":14217:14282   */\n      swap1\n      pop\n        /* \"#utility.yul\":14162:14288   */\n      swap2\n      swap1\n      pop\n      jump\t// out\n        /* \"#utility.yul\":14294:14371   */\n    tag_249:\n        /* \"#utility.yul\":14331:14338   */\n      0x00\n        /* \"#utility.yul\":14360:14365   */\n      dup2\n        /* \"#utility.yul\":14349:14365   */\n      swap1\n      pop\n        /* \"#utility.yul\":14294:14371   */\n      swap2\n      swap1\n      pop\n      jump\t// out\n        /* \"#utility.yul\":14377:14531   */\n    tag_136:\n        /* \"#utility.yul\":14461:14467   */\n      dup3\n        /* \"#utility.yul\":14456:14459   */\n      dup2\n        /* \"#utility.yul\":14451:14454   */\n      dup4\n        /* \"#utility.yul\":14438:14468   */\n      calldatacopy\n        /* \"#utility.yul\":14523:14524   */\n      0x00\n        /* \"#utility.yul\":14514:14520   */\n      dup4\n        /* \"#utility.yul\":14509:14512   */\n      dup4\n        /* \"#utility.yul\":14505:14521   */\n      add\n        /* \"#utility.yul\":14498:14525   */\n      mstore\n        /* \"#utility.yul\":14377:14531   */\n      pop\n      pop\n      pop\n      jump\t// out\n        /* \"#utility.yul\":14537:14818   */\n    tag_274:\n        /* \"#utility.yul\":14620:14647   */\n      tag_295\n        /* \"#utility.yul\":14642:14646   */\n      dup3\n        /* \"#utility.yul\":14620:14647   */\n      tag_284\n      jump\t// in\n    tag_295:\n        /* \"#utility.yul\":14612:14618   */\n      dup2\n        /* \"#utility.yul\":14608:14648   */\n      add\n        /* \"#utility.yul\":14750:14756   */\n      dup2\n        /* \"#utility.yul\":14738:14748   */\n      dup2\n        /* \"#utility.yul\":14735:14757   */\n      lt\n        /* \"#utility.yul\":14714:14732   */\n      0xffffffffffffffff\n        /* \"#utility.yul\":14702:14712   */\n      dup3\n        /* \"#utility.yul\":14699:14733   */\n      gt\n        /* \"#utility.yul\":14696:14758   */\n      or\n        /* \"#utility.yul\":14693:14781   */\n      iszero\n      tag_296\n      jumpi\n        /* \"#utility.yul\":14761:14779   */\n      tag_297\n      tag_279\n      jump\t// in\n    tag_297:\n        /* \"#utility.yul\":14693:14781   */\n    tag_296:\n        /* \"#utility.yul\":14801:14811   */\n      dup1\n        /* \"#utility.yul\":14797:14799   */\n      0x40\n        /* \"#utility.yul\":14790:14812   */\n      mstore\n        /* \"#utility.yul\":14580:14818   */\n      pop\n        /* \"#utility.yul\":14537:14818   */\n      pop\n      pop\n      jump\t// out\n        /* \"#utility.yul\":14824:15004   */\n    tag_279:\n        /* \"#utility.yul\":14872:14949   */\n      0x4e487b7100000000000000000000000000000000000000000000000000000000\n        /* \"#utility.yul\":14869:14870   */\n      0x00\n        /* \"#utility.yul\":14862:14950   */\n      mstore\n        /* \"#utility.yul\":14969:14973   */\n      0x41\n        /* \"#utility.yul\":14966:14967   */\n      0x04\n        /* \"#utility.yul\":14959:14974   */\n      mstore\n        /* \"#utility.yul\":14993:14997   */\n      0x24\n        /* \"#utility.yul\":14990:14991   */\n      0x00\n        /* \"#utility.yul\":14983:14998   */\n      revert\n        /* \"#utility.yul\":15010:15127   */\n    tag_145:\n        /* \"#utility.yul\":15119:15120   */\n      0x00\n        /* \"#utility.yul\":15116:15117   */\n      dup1\n        /* \"#utility.yul\":15109:15121   */\n      revert\n        /* \"#utility.yul\":15133:15250   */\n    tag_121:\n        /* \"#utility.yul\":15242:15243   */\n      0x00\n        /* \"#utility.yul\":15239:15240   */\n      dup1\n        /* \"#utility.yul\":15232:15244   */\n      revert\n        /* \"#utility.yul\":15256:15373   */\n    tag_134:\n        /* \"#utility.yul\":15365:15366   */\n      0x00\n        /* \"#utility.yul\":15362:15363   */\n      dup1\n        /* \"#utility.yul\":15355:15367   */\n      revert\n        /* \"#utility.yul\":15379:15496   */\n    tag_172:\n        /* \"#utility.yul\":15488:15489   */\n      0x00\n        /* \"#utility.yul\":15485:15486   */\n      dup1\n        /* \"#utility.yul\":15478:15490   */\n      revert\n        /* \"#utility.yul\":15502:15619   */\n    tag_162:\n        /* \"#utility.yul\":15611:15612   */\n      0x00\n        /* \"#utility.yul\":15608:15609   */\n      dup1\n        /* \"#utility.yul\":15601:15613   */\n      revert\n        /* \"#utility.yul\":15625:15727   */\n    tag_284:\n        /* \"#utility.yul\":15666:15672   */\n      0x00\n        /* \"#utility.yul\":15717:15719   */\n      0x1f\n        /* \"#utility.yul\":15713:15720   */\n      not\n        /* \"#utility.yul\":15708:15710   */\n      0x1f\n        /* \"#utility.yul\":15701:15706   */\n      dup4\n        /* \"#utility.yul\":15697:15711   */\n      add\n        /* \"#utility.yul\":15693:15721   */\n      and\n        /* \"#utility.yul\":15683:15721   */\n      swap1\n      pop\n        /* \"#utility.yul\":15625:15727   */\n      swap2\n      swap1\n      pop\n      jump\t// out\n        /* \"#utility.yul\":15733:15913   */\n    tag_225:\n        /* \"#utility.yul\":15873:15905   */\n      0x4261636b757020616464726573732063616e206e6f74206265207a65726f0000\n        /* \"#utility.yul\":15869:15870   */\n      0x00\n        /* \"#utility.yul\":15861:15867   */\n      dup3\n        /* \"#utility.yul\":15857:15871   */\n      add\n        /* \"#utility.yul\":15850:15906   */\n      mstore\n        /* \"#utility.yul\":15733:15913   */\n      pop\n      jump\t// out\n        /* \"#utility.yul\":15919:16099   */\n    tag_230:\n        /* \"#utility.yul\":16059:16091   */\n      0x53656e64657220616464726573732063616e206e6f74206265207a65726f0000\n        /* \"#utility.yul\":16055:16056   */\n      0x00\n        /* \"#utility.yul\":16047:16053   */\n      dup3\n        /* \"#utility.yul\":16043:16057   */\n      add\n        /* \"#utility.yul\":16036:16092   */\n      mstore\n        /* \"#utility.yul\":15919:16099   */\n      pop\n      jump\t// out\n        /* \"#utility.yul\":16105:16287   */\n    tag_235:\n        /* \"#utility.yul\":16245:16279   */\n      0x4f776e61626c653a2063616c6c6572206973206e6f7420746865206f776e6572\n        /* \"#utility.yul\":16241:16242   */\n      0x00\n        /* \"#utility.yul\":16233:16239   */\n      dup3\n        /* \"#utility.yul\":16229:16243   */\n      add\n        /* \"#utility.yul\":16222:16280   */\n      mstore\n        /* \"#utility.yul\":16105:16287   */\n      pop\n      jump\t// out\n        /* \"#utility.yul\":16293:16471   */\n    tag_240:\n        /* \"#utility.yul\":16433:16463   */\n      0x436f6e747261637420616c726561647920696e697469616c697a656400000000\n        /* \"#utility.yul\":16429:16430   */\n      0x00\n        /* \"#utility.yul\":16421:16427   */\n      dup3\n        /* \"#utility.yul\":16417:16431   */\n      add\n        /* \"#utility.yul\":16410:16464   */\n      mstore\n        /* \"#utility.yul\":16293:16471   */\n      pop\n      jump\t// out\n        /* \"#utility.yul\":16477:16710   */\n    tag_245:\n        /* \"#utility.yul\":16617:16651   */\n      0x4261636b75702077616c6c65742063616e206e6f742062652073616d65206173\n        /* \"#utility.yul\":16613:16614   */\n      0x00\n        /* \"#utility.yul\":16605:16611   */\n      dup3\n        /* \"#utility.yul\":16601:16615   */\n      add\n        /* \"#utility.yul\":16594:16652   */\n      mstore\n        /* \"#utility.yul\":16686:16702   */\n      0x2073656e6465722077616c6c6574000000000000000000000000000000000000\n        /* \"#utility.yul\":16681:16683   */\n      0x20\n        /* \"#utility.yul\":16673:16679   */\n      dup3\n        /* \"#utility.yul\":16669:16684   */\n      add\n        /* \"#utility.yul\":16662:16703   */\n      mstore\n        /* \"#utility.yul\":16477:16710   */\n      pop\n      jump\t// out\n        /* \"#utility.yul\":16716:16838   */\n    tag_140:\n        /* \"#utility.yul\":16789:16813   */\n      tag_311\n        /* \"#utility.yul\":16807:16812   */\n      dup2\n        /* \"#utility.yul\":16789:16813   */\n      tag_211\n      jump\t// in\n    tag_311:\n        /* \"#utility.yul\":16782:16787   */\n      dup2\n        /* \"#utility.yul\":16779:16814   */\n      eq\n        /* \"#utility.yul\":16769:16832   */\n      tag_312\n      jumpi\n        /* \"#utility.yul\":16828:16829   */\n      0x00\n        /* \"#utility.yul\":16825:16826   */\n      dup1\n        /* \"#utility.yul\":16818:16830   */\n      revert\n        /* \"#utility.yul\":16769:16832   */\n    tag_312:\n        /* \"#utility.yul\":16716:16838   */\n      pop\n      jump\t// out\n        /* \"#utility.yul\":16844:16964   */\n    tag_150:\n        /* \"#utility.yul\":16916:16939   */\n      tag_314\n        /* \"#utility.yul\":16933:16938   */\n      dup2\n        /* \"#utility.yul\":16916:16939   */\n      tag_219\n      jump\t// in\n    tag_314:\n        /* \"#utility.yul\":16909:16914   */\n      dup2\n        /* \"#utility.yul\":16906:16940   */\n      eq\n        /* \"#utility.yul\":16896:16958   */\n      tag_315\n      jumpi\n        /* \"#utility.yul\":16954:16955   */\n      0x00\n        /* \"#utility.yul\":16951:16952   */\n      dup1\n        /* \"#utility.yul\":16944:16956   */\n      revert\n        /* \"#utility.yul\":16896:16958   */\n    tag_315:\n        /* \"#utility.yul\":16844:16964   */\n      pop\n      jump\t// out\n        /* \"#utility.yul\":16970:17092   */\n    tag_158:\n        /* \"#utility.yul\":17043:17067   */\n      tag_317\n        /* \"#utility.yul\":17061:17066   */\n      dup2\n        /* \"#utility.yul\":17043:17067   */\n      tag_249\n      jump\t// in\n    tag_317:\n        /* \"#utility.yul\":17036:17041   */\n      dup2\n        /* \"#utility.yul\":17033:17068   */\n      eq\n        /* \"#utility.yul\":17023:17086   */\n      tag_318\n      jumpi\n        /* \"#utility.yul\":17082:17083   */\n      0x00\n        /* \"#utility.yul\":17079:17080   */\n      dup1\n        /* \"#utility.yul\":17072:17084   */\n      revert\n        /* \"#utility.yul\":17023:17086   */\n    tag_318:\n        /* \"#utility.yul\":16970:17092   */\n      pop\n      jump\t// out\n\n    auxdata: 0xa2646970667358221220f1d8b4b0284f12790094990bace63ab8c51b33f2fadcfd7d71ef9fc66b7b00d464736f6c63430008070033\n}\n",
				"bytecode": {
					"linkReferences": {},
					"object": "608060405234801561001057600080fd5b5061002d61002261003260201b60201c565b61003a60201b60201c565b6100fe565b600033905090565b60008060009054906101000a900473ffffffffffffffffffffffffffffffffffffffff169050816000806101000a81548173ffffffffffffffffffffffffffffffffffffffff021916908373ffffffffffffffffffffffffffffffffffffffff1602179055508173ffffffffffffffffffffffffffffffffffffffff168173ffffffffffffffffffffffffffffffffffffffff167f8be0079c531659141344cd1fd0a4f28419497f9722a3daafe3b4186f6b6457e060405160405180910390a35050565b6111608061010d6000396000f3fe60806040526004361061007f5760003560e01c80638da5cb5b1161004e5780638da5cb5b14610145578063bc197c8114610170578063f09a4016146101ad578063f23a6e61146101d657610086565b806301ffc9a71461008b578063150b7a02146100c8578063450b2ad71461010557806371b4bc991461011c57610086565b3661008657005b600080fd5b34801561009757600080fd5b506100b260048036038101906100ad9190610c12565b610213565b6040516100bf9190610d7c565b60405180910390f35b3480156100d457600080fd5b506100ef60048036038101906100ea9190610ab8565b61028d565b6040516100fc9190610d97565b60405180910390f35b34801561011157600080fd5b5061011a6102a1565b005b34801561012857600080fd5b50610143600480360381019061013e9190610bd2565b61034a565b005b34801561015157600080fd5b5061015a6103f7565b6040516101679190610d2a565b60405180910390f35b34801561017c57600080fd5b50610197600480360381019061019291906109e9565b610420565b6040516101a49190610d97565b60405180910390f35b3480156101b957600080fd5b506101d460048036038101906101cf91906109a9565b610435565b005b3480156101e257600080fd5b506101fd60048036038101906101f89190610b3b565b610643565b60405161020a9190610d97565b60405180910390f35b60007f4e2312e0000000000000000000000000000000000000000000000000000000007bffffffffffffffffffffffffffffffffffffffffffffffffffffffff1916827bffffffffffffffffffffffffffffffffffffffffffffffffffffffff19161480610286575061028582610658565b5b9050919050565b600063150b7a0260e01b9050949350505050565b6102a96106c2565b73ffffffffffffffffffffffffffffffffffffffff166102c76103f7565b73ffffffffffffffffffffffffffffffffffffffff161461031d576040517f08c379a000000000000000000000000000000000000000000000000000000000815260040161031490610df2565b60405180910390fd5b610348600160009054906101000a900473ffffffffffffffffffffffffffffffffffffffff166106ca565b565b6103526106c2565b73ffffffffffffffffffffffffffffffffffffffff166103706103f7565b73ffffffffffffffffffffffffffffffffffffffff16146103c6576040517f08c379a00000000000000000000000000000000000000000000000000000000081526004016103bd90610df2565b60405180910390fd5b6103f3600160009054906101000a900473ffffffffffffffffffffffffffffffffffffffff168383610724565b5050565b60008060009054906101000a900473ffffffffffffffffffffffffffffffffffffffff16905090565b600063bc197c8160e01b905095945050505050565b600073ffffffffffffffffffffffffffffffffffffffff168273ffffffffffffffffffffffffffffffffffffffff1614156104a5576040517f08c379a000000000000000000000000000000000000000000000000000000000815260040161049c90610dd2565b60405180910390fd5b600073ffffffffffffffffffffffffffffffffffffffff168173ffffffffffffffffffffffffffffffffffffffff161415610515576040517f08c379a000000000000000000000000000000000000000000000000000000000815260040161050c90610db2565b60405180910390fd5b8173ffffffffffffffffffffffffffffffffffffffff168173ffffffffffffffffffffffffffffffffffffffff161415610584576040517f08c379a000000000000000000000000000000000000000000000000000000000815260040161057b90610e32565b60405180910390fd5b60001515600060149054906101000a900460ff161515146105da576040517f08c379a00000000000000000000000000000000000000000000000000000000081526004016105d190610e12565b60405180910390fd5b6105e382610798565b80600160006101000a81548173ffffffffffffffffffffffffffffffffffffffff021916908373ffffffffffffffffffffffffffffffffffffffff1602179055506001600060146101000a81548160ff0219169083151502179055505050565b600063f23a6e6160e01b905095945050505050565b60007f01ffc9a7000000000000000000000000000000000000000000000000000000007bffffffffffffffffffffffffffffffffffffffffffffffffffffffff1916827bffffffffffffffffffffffffffffffffffffffffffffffffffffffff1916149050919050565b600033905090565b60004790506000811115610720578173ffffffffffffffffffffffffffffffffffffffff166108fc829081150290604051600060405180830381858888f1935050505015801561071e573d6000803e3d6000fd5b505b5050565b8173ffffffffffffffffffffffffffffffffffffffff166342842e0e3085846040518463ffffffff1660e01b815260040161076193929190610d45565b600060405180830381600087803b15801561077b57600080fd5b505af115801561078f573d6000803e3d6000fd5b50505050505050565b60008060009054906101000a900473ffffffffffffffffffffffffffffffffffffffff169050816000806101000a81548173ffffffffffffffffffffffffffffffffffffffff021916908373ffffffffffffffffffffffffffffffffffffffff1602179055508173ffffffffffffffffffffffffffffffffffffffff168173ffffffffffffffffffffffffffffffffffffffff167f8be0079c531659141344cd1fd0a4f28419497f9722a3daafe3b4186f6b6457e060405160405180910390a35050565b600061086f61086a84610e77565b610e52565b9050808382526020820190508285602086028201111561089257610891610fcd565b5b60005b858110156108c257816108a88882610994565b845260208401935060208301925050600181019050610895565b5050509392505050565b60006108df6108da84610ea3565b610e52565b9050828152602081018484840111156108fb576108fa610fd2565b5b610906848285610f59565b509392505050565b60008135905061091d816110e5565b92915050565b600082601f83011261093857610937610fc8565b5b813561094884826020860161085c565b91505092915050565b600081359050610960816110fc565b92915050565b600082601f83011261097b5761097a610fc8565b5b813561098b8482602086016108cc565b91505092915050565b6000813590506109a381611113565b92915050565b600080604083850312156109c0576109bf610fdc565b5b60006109ce8582860161090e565b92505060206109df8582860161090e565b9150509250929050565b600080600080600060a08688031215610a0557610a04610fdc565b5b6000610a138882890161090e565b9550506020610a248882890161090e565b945050604086013567ffffffffffffffff811115610a4557610a44610fd7565b5b610a5188828901610923565b935050606086013567ffffffffffffffff811115610a7257610a71610fd7565b5b610a7e88828901610923565b925050608086013567ffffffffffffffff811115610a9f57610a9e610fd7565b5b610aab88828901610966565b9150509295509295909350565b60008060008060808587031215610ad257610ad1610fdc565b5b6000610ae08782880161090e565b9450506020610af18782880161090e565b9350506040610b0287828801610994565b925050606085013567ffffffffffffffff811115610b2357610b22610fd7565b5b610b2f87828801610966565b91505092959194509250565b600080600080600060a08688031215610b5757610b56610fdc565b5b6000610b658882890161090e565b9550506020610b768882890161090e565b9450506040610b8788828901610994565b9350506060610b9888828901610994565b925050608086013567ffffffffffffffff811115610bb957610bb8610fd7565b5b610bc588828901610966565b9150509295509295909350565b60008060408385031215610be957610be8610fdc565b5b6000610bf78582860161090e565b9250506020610c0885828601610994565b9150509250929050565b600060208284031215610c2857610c27610fdc565b5b6000610c3684828501610951565b91505092915050565b610c4881610ee5565b82525050565b610c5781610ef7565b82525050565b610c6681610f03565b82525050565b6000610c79601e83610ed4565b9150610c8482610ff2565b602082019050919050565b6000610c9c601e83610ed4565b9150610ca78261101b565b602082019050919050565b6000610cbf602083610ed4565b9150610cca82611044565b602082019050919050565b6000610ce2601c83610ed4565b9150610ced8261106d565b602082019050919050565b6000610d05602e83610ed4565b9150610d1082611096565b604082019050919050565b610d2481610f4f565b82525050565b6000602082019050610d3f6000830184610c3f565b92915050565b6000606082019050610d5a6000830186610c3f565b610d676020830185610c3f565b610d746040830184610d1b565b949350505050565b6000602082019050610d916000830184610c4e565b92915050565b6000602082019050610dac6000830184610c5d565b92915050565b60006020820190508181036000830152610dcb81610c6c565b9050919050565b60006020820190508181036000830152610deb81610c8f565b9050919050565b60006020820190508181036000830152610e0b81610cb2565b9050919050565b60006020820190508181036000830152610e2b81610cd5565b9050919050565b60006020820190508181036000830152610e4b81610cf8565b9050919050565b6000610e5c610e6d565b9050610e688282610f68565b919050565b6000604051905090565b600067ffffffffffffffff821115610e9257610e91610f99565b5b602082029050602081019050919050565b600067ffffffffffffffff821115610ebe57610ebd610f99565b5b610ec782610fe1565b9050602081019050919050565b600082825260208201905092915050565b6000610ef082610f2f565b9050919050565b60008115159050919050565b60007fffffffff0000000000000000000000000000000000000000000000000000000082169050919050565b600073ffffffffffffffffffffffffffffffffffffffff82169050919050565b6000819050919050565b82818337600083830152505050565b610f7182610fe1565b810181811067ffffffffffffffff82111715610f9057610f8f610f99565b5b80604052505050565b7f4e487b7100000000000000000000000000000000000000000000000000000000600052604160045260246000fd5b600080fd5b600080fd5b600080fd5b600080fd5b600080fd5b6000601f19601f8301169050919050565b7f4261636b757020616464726573732063616e206e6f74206265207a65726f0000600082015250565b7f53656e64657220616464726573732063616e206e6f74206265207a65726f0000600082015250565b7f4f776e61626c653a2063616c6c6572206973206e6f7420746865206f776e6572600082015250565b7f436f6e747261637420616c726561647920696e697469616c697a656400000000600082015250565b7f4261636b75702077616c6c65742063616e206e6f742062652073616d6520617360008201527f2073656e6465722077616c6c6574000000000000000000000000000000000000602082015250565b6110ee81610ee5565b81146110f957600080fd5b50565b61110581610f03565b811461111057600080fd5b50565b61111c81610f4f565b811461112757600080fd5b5056fea2646970667358221220f1d8b4b0284f12790094990bace63ab8c51b33f2fadcfd7d71ef9fc66b7b00d464736f6c63430008070033",
					"opcodes": "PUSH1 0x80 PUSH1 0x40 MSTORE CALLVALUE DUP1 ISZERO PUSH2 0x10 JUMPI PUSH1 0x0 DUP1 REVERT JUMPDEST POP PUSH2 0x2D PUSH2 0x22 PUSH2 0x32 PUSH1 0x20 SHL PUSH1 0x20 SHR JUMP JUMPDEST PUSH2 0x3A PUSH1 0x20 SHL PUSH1 0x20 SHR JUMP JUMPDEST PUSH2 0xFE JUMP JUMPDEST PUSH1 0x0 CALLER SWAP1 POP SWAP1 JUMP JUMPDEST PUSH1 0x0 DUP1 PUSH1 0x0 SWAP1 SLOAD SWAP1 PUSH2 0x100 EXP SWAP1 DIV PUSH20 0xFFFFFFFFFFFFFFFFFFFFFFFFFFFFFFFFFFFFFFFF AND SWAP1 POP DUP2 PUSH1 0x0 DUP1 PUSH2 0x100 EXP DUP2 SLOAD DUP2 PUSH20 0xFFFFFFFFFFFFFFFFFFFFFFFFFFFFFFFFFFFFFFFF MUL NOT AND SWAP1 DUP4 PUSH20 0xFFFFFFFFFFFFFFFFFFFFFFFFFFFFFFFFFFFFFFFF AND MUL OR SWAP1 SSTORE POP DUP2 PUSH20 0xFFFFFFFFFFFFFFFFFFFFFFFFFFFFFFFFFFFFFFFF AND DUP2 PUSH20 0xFFFFFFFFFFFFFFFFFFFFFFFFFFFFFFFFFFFFFFFF AND PUSH32 0x8BE0079C531659141344CD1FD0A4F28419497F9722A3DAAFE3B4186F6B6457E0 PUSH1 0x40 MLOAD PUSH1 0x40 MLOAD DUP1 SWAP2 SUB SWAP1 LOG3 POP POP JUMP JUMPDEST PUSH2 0x1160 DUP1 PUSH2 0x10D PUSH1 0x0 CODECOPY PUSH1 0x0 RETURN INVALID PUSH1 0x80 PUSH1 0x40 MSTORE PUSH1 0x4 CALLDATASIZE LT PUSH2 0x7F JUMPI PUSH1 0x0 CALLDATALOAD PUSH1 0xE0 SHR DUP1 PUSH4 0x8DA5CB5B GT PUSH2 0x4E JUMPI DUP1 PUSH4 0x8DA5CB5B EQ PUSH2 0x145 JUMPI DUP1 PUSH4 0xBC197C81 EQ PUSH2 0x170 JUMPI DUP1 PUSH4 0xF09A4016 EQ PUSH2 0x1AD JUMPI DUP1 PUSH4 0xF23A6E61 EQ PUSH2 0x1D6 JUMPI PUSH2 0x86 JUMP JUMPDEST DUP1 PUSH4 0x1FFC9A7 EQ PUSH2 0x8B JUMPI DUP1 PUSH4 0x150B7A02 EQ PUSH2 0xC8 JUMPI DUP1 PUSH4 0x450B2AD7 EQ PUSH2 0x105 JUMPI DUP1 PUSH4 0x71B4BC99 EQ PUSH2 0x11C JUMPI PUSH2 0x86 JUMP JUMPDEST CALLDATASIZE PUSH2 0x86 JUMPI STOP JUMPDEST PUSH1 0x0 DUP1 REVERT JUMPDEST CALLVALUE DUP1 ISZERO PUSH2 0x97 JUMPI PUSH1 0x0 DUP1 REVERT JUMPDEST POP PUSH2 0xB2 PUSH1 0x4 DUP1 CALLDATASIZE SUB DUP2 ADD SWAP1 PUSH2 0xAD SWAP2 SWAP1 PUSH2 0xC12 JUMP JUMPDEST PUSH2 0x213 JUMP JUMPDEST PUSH1 0x40 MLOAD PUSH2 0xBF SWAP2 SWAP1 PUSH2 0xD7C JUMP JUMPDEST PUSH1 0x40 MLOAD DUP1 SWAP2 SUB SWAP1 RETURN JUMPDEST CALLVALUE DUP1 ISZERO PUSH2 0xD4 JUMPI PUSH1 0x0 DUP1 REVERT JUMPDEST POP PUSH2 0xEF PUSH1 0x4 DUP1 CALLDATASIZE SUB DUP2 ADD SWAP1 PUSH2 0xEA SWAP2 SWAP1 PUSH2 0xAB8 JUMP JUMPDEST PUSH2 0x28D JUMP JUMPDEST PUSH1 0x40 MLOAD PUSH2 0xFC SWAP2 SWAP1 PUSH2 0xD97 JUMP JUMPDEST PUSH1 0x40 MLOAD DUP1 SWAP2 SUB SWAP1 RETURN JUMPDEST CALLVALUE DUP1 ISZERO PUSH2 0x111 JUMPI PUSH1 0x0 DUP1 REVERT JUMPDEST POP PUSH2 0x11A PUSH2 0x2A1 JUMP JUMPDEST STOP JUMPDEST CALLVALUE DUP1 ISZERO PUSH2 0x128 JUMPI PUSH1 0x0 DUP1 REVERT JUMPDEST POP PUSH2 0x143 PUSH1 0x4 DUP1 CALLDATASIZE SUB DUP2 ADD SWAP1 PUSH2 0x13E SWAP2 SWAP1 PUSH2 0xBD2 JUMP JUMPDEST PUSH2 0x34A JUMP JUMPDEST STOP JUMPDEST CALLVALUE DUP1 ISZERO PUSH2 0x151 JUMPI PUSH1 0x0 DUP1 REVERT JUMPDEST POP PUSH2 0x15A PUSH2 0x3F7 JUMP JUMPDEST PUSH1 0x40 MLOAD PUSH2 0x167 SWAP2 SWAP1 PUSH2 0xD2A JUMP JUMPDEST PUSH1 0x40 MLOAD DUP1 SWAP2 SUB SWAP1 RETURN JUMPDEST CALLVALUE DUP1 ISZERO PUSH2 0x17C JUMPI PUSH1 0x0 DUP1 REVERT JUMPDEST POP PUSH2 0x197 PUSH1 0x4 DUP1 CALLDATASIZE SUB DUP2 ADD SWAP1 PUSH2 0x192 SWAP2 SWAP1 PUSH2 0x9E9 JUMP JUMPDEST PUSH2 0x420 JUMP JUMPDEST PUSH1 0x40 MLOAD PUSH2 0x1A4 SWAP2 SWAP1 PUSH2 0xD97 JUMP JUMPDEST PUSH1 0x40 MLOAD DUP1 SWAP2 SUB SWAP1 RETURN JUMPDEST CALLVALUE DUP1 ISZERO PUSH2 0x1B9 JUMPI PUSH1 0x0 DUP1 REVERT JUMPDEST POP PUSH2 0x1D4 PUSH1 0x4 DUP1 CALLDATASIZE SUB DUP2 ADD SWAP1 PUSH2 0x1CF SWAP2 SWAP1 PUSH2 0x9A9 JUMP JUMPDEST PUSH2 0x435 JUMP JUMPDEST STOP JUMPDEST CALLVALUE DUP1 ISZERO PUSH2 0x1E2 JUMPI PUSH1 0x0 DUP1 REVERT JUMPDEST POP PUSH2 0x1FD PUSH1 0x4 DUP1 CALLDATASIZE SUB DUP2 ADD SWAP1 PUSH2 0x1F8 SWAP2 SWAP1 PUSH2 0xB3B JUMP JUMPDEST PUSH2 0x643 JUMP JUMPDEST PUSH1 0x40 MLOAD PUSH2 0x20A SWAP2 SWAP1 PUSH2 0xD97 JUMP JUMPDEST PUSH1 0x40 MLOAD DUP1 SWAP2 SUB SWAP1 RETURN JUMPDEST PUSH1 0x0 PUSH32 0x4E2312E000000000000000000000000000000000000000000000000000000000 PUSH28 0xFFFFFFFFFFFFFFFFFFFFFFFFFFFFFFFFFFFFFFFFFFFFFFFFFFFFFFFF NOT AND DUP3 PUSH28 0xFFFFFFFFFFFFFFFFFFFFFFFFFFFFFFFFFFFFFFFFFFFFFFFFFFFFFFFF NOT AND EQ DUP1 PUSH2 0x286 JUMPI POP PUSH2 0x285 DUP3 PUSH2 0x658 JUMP JUMPDEST JUMPDEST SWAP1 POP SWAP2 SWAP1 POP JUMP JUMPDEST PUSH1 0x0 PUSH4 0x150B7A02 PUSH1 0xE0 SHL SWAP1 POP SWAP5 SWAP4 POP POP POP POP JUMP JUMPDEST PUSH2 0x2A9 PUSH2 0x6C2 JUMP JUMPDEST PUSH20 0xFFFFFFFFFFFFFFFFFFFFFFFFFFFFFFFFFFFFFFFF AND PUSH2 0x2C7 PUSH2 0x3F7 JUMP JUMPDEST PUSH20 0xFFFFFFFFFFFFFFFFFFFFFFFFFFFFFFFFFFFFFFFF AND EQ PUSH2 0x31D JUMPI PUSH1 0x40 MLOAD PUSH32 0x8C379A000000000000000000000000000000000000000000000000000000000 DUP2 MSTORE PUSH1 0x4 ADD PUSH2 0x314 SWAP1 PUSH2 0xDF2 JUMP JUMPDEST PUSH1 0x40 MLOAD DUP1 SWAP2 SUB SWAP1 REVERT JUMPDEST PUSH2 0x348 PUSH1 0x1 PUSH1 0x0 SWAP1 SLOAD SWAP1 PUSH2 0x100 EXP SWAP1 DIV PUSH20 0xFFFFFFFFFFFFFFFFFFFFFFFFFFFFFFFFFFFFFFFF AND PUSH2 0x6CA JUMP JUMPDEST JUMP JUMPDEST PUSH2 0x352 PUSH2 0x6C2 JUMP JUMPDEST PUSH20 0xFFFFFFFFFFFFFFFFFFFFFFFFFFFFFFFFFFFFFFFF AND PUSH2 0x370 PUSH2 0x3F7 JUMP JUMPDEST PUSH20 0xFFFFFFFFFFFFFFFFFFFFFFFFFFFFFFFFFFFFFFFF AND EQ PUSH2 0x3C6 JUMPI PUSH1 0x40 MLOAD PUSH32 0x8C379A000000000000000000000000000000000000000000000000000000000 DUP2 MSTORE PUSH1 0x4 ADD PUSH2 0x3BD SWAP1 PUSH2 0xDF2 JUMP JUMPDEST PUSH1 0x40 MLOAD DUP1 SWAP2 SUB SWAP1 REVERT JUMPDEST PUSH2 0x3F3 PUSH1 0x1 PUSH1 0x0 SWAP1 SLOAD SWAP1 PUSH2 0x100 EXP SWAP1 DIV PUSH20 0xFFFFFFFFFFFFFFFFFFFFFFFFFFFFFFFFFFFFFFFF AND DUP4 DUP4 PUSH2 0x724 JUMP JUMPDEST POP POP JUMP JUMPDEST PUSH1 0x0 DUP1 PUSH1 0x0 SWAP1 SLOAD SWAP1 PUSH2 0x100 EXP SWAP1 DIV PUSH20 0xFFFFFFFFFFFFFFFFFFFFFFFFFFFFFFFFFFFFFFFF AND SWAP1 POP SWAP1 JUMP JUMPDEST PUSH1 0x0 PUSH4 0xBC197C81 PUSH1 0xE0 SHL SWAP1 POP SWAP6 SWAP5 POP POP POP POP POP JUMP JUMPDEST PUSH1 0x0 PUSH20 0xFFFFFFFFFFFFFFFFFFFFFFFFFFFFFFFFFFFFFFFF AND DUP3 PUSH20 0xFFFFFFFFFFFFFFFFFFFFFFFFFFFFFFFFFFFFFFFF AND EQ ISZERO PUSH2 0x4A5 JUMPI PUSH1 0x40 MLOAD PUSH32 0x8C379A000000000000000000000000000000000000000000000000000000000 DUP2 MSTORE PUSH1 0x4 ADD PUSH2 0x49C SWAP1 PUSH2 0xDD2 JUMP JUMPDEST PUSH1 0x40 MLOAD DUP1 SWAP2 SUB SWAP1 REVERT JUMPDEST PUSH1 0x0 PUSH20 0xFFFFFFFFFFFFFFFFFFFFFFFFFFFFFFFFFFFFFFFF AND DUP2 PUSH20 0xFFFFFFFFFFFFFFFFFFFFFFFFFFFFFFFFFFFFFFFF AND EQ ISZERO PUSH2 0x515 JUMPI PUSH1 0x40 MLOAD PUSH32 0x8C379A000000000000000000000000000000000000000000000000000000000 DUP2 MSTORE PUSH1 0x4 ADD PUSH2 0x50C SWAP1 PUSH2 0xDB2 JUMP JUMPDEST PUSH1 0x40 MLOAD DUP1 SWAP2 SUB SWAP1 REVERT JUMPDEST DUP2 PUSH20 0xFFFFFFFFFFFFFFFFFFFFFFFFFFFFFFFFFFFFFFFF AND DUP2 PUSH20 0xFFFFFFFFFFFFFFFFFFFFFFFFFFFFFFFFFFFFFFFF AND EQ ISZERO PUSH2 0x584 JUMPI PUSH1 0x40 MLOAD PUSH32 0x8C379A000000000000000000000000000000000000000000000000000000000 DUP2 MSTORE PUSH1 0x4 ADD PUSH2 0x57B SWAP1 PUSH2 0xE32 JUMP JUMPDEST PUSH1 0x40 MLOAD DUP1 SWAP2 SUB SWAP1 REVERT JUMPDEST PUSH1 0x0 ISZERO ISZERO PUSH1 0x0 PUSH1 0x14 SWAP1 SLOAD SWAP1 PUSH2 0x100 EXP SWAP1 DIV PUSH1 0xFF AND ISZERO ISZERO EQ PUSH2 0x5DA JUMPI PUSH1 0x40 MLOAD PUSH32 0x8C379A000000000000000000000000000000000000000000000000000000000 DUP2 MSTORE PUSH1 0x4 ADD PUSH2 0x5D1 SWAP1 PUSH2 0xE12 JUMP JUMPDEST PUSH1 0x40 MLOAD DUP1 SWAP2 SUB SWAP1 REVERT JUMPDEST PUSH2 0x5E3 DUP3 PUSH2 0x798 JUMP JUMPDEST DUP1 PUSH1 0x1 PUSH1 0x0 PUSH2 0x100 EXP DUP2 SLOAD DUP2 PUSH20 0xFFFFFFFFFFFFFFFFFFFFFFFFFFFFFFFFFFFFFFFF MUL NOT AND SWAP1 DUP4 PUSH20 0xFFFFFFFFFFFFFFFFFFFFFFFFFFFFFFFFFFFFFFFF AND MUL OR SWAP1 SSTORE POP PUSH1 0x1 PUSH1 0x0 PUSH1 0x14 PUSH2 0x100 EXP DUP2 SLOAD DUP2 PUSH1 0xFF MUL NOT AND SWAP1 DUP4 ISZERO ISZERO MUL OR SWAP1 SSTORE POP POP POP JUMP JUMPDEST PUSH1 0x0 PUSH4 0xF23A6E61 PUSH1 0xE0 SHL SWAP1 POP SWAP6 SWAP5 POP POP POP POP POP JUMP JUMPDEST PUSH1 0x0 PUSH32 0x1FFC9A700000000000000000000000000000000000000000000000000000000 PUSH28 0xFFFFFFFFFFFFFFFFFFFFFFFFFFFFFFFFFFFFFFFFFFFFFFFFFFFFFFFF NOT AND DUP3 PUSH28 0xFFFFFFFFFFFFFFFFFFFFFFFFFFFFFFFFFFFFFFFFFFFFFFFFFFFFFFFF NOT AND EQ SWAP1 POP SWAP2 SWAP1 POP JUMP JUMPDEST PUSH1 0x0 CALLER SWAP1 POP SWAP1 JUMP JUMPDEST PUSH1 0x0 SELFBALANCE SWAP1 POP PUSH1 0x0 DUP2 GT ISZERO PUSH2 0x720 JUMPI DUP2 PUSH20 0xFFFFFFFFFFFFFFFFFFFFFFFFFFFFFFFFFFFFFFFF AND PUSH2 0x8FC DUP3 SWAP1 DUP2 ISZERO MUL SWAP1 PUSH1 0x40 MLOAD PUSH1 0x0 PUSH1 0x40 MLOAD DUP1 DUP4 SUB DUP2 DUP6 DUP9 DUP9 CALL SWAP4 POP POP POP POP ISZERO DUP1 ISZERO PUSH2 0x71E JUMPI RETURNDATASIZE PUSH1 0x0 DUP1 RETURNDATACOPY RETURNDATASIZE PUSH1 0x0 REVERT JUMPDEST POP JUMPDEST POP POP JUMP JUMPDEST DUP2 PUSH20 0xFFFFFFFFFFFFFFFFFFFFFFFFFFFFFFFFFFFFFFFF AND PUSH4 0x42842E0E ADDRESS DUP6 DUP5 PUSH1 0x40 MLOAD DUP5 PUSH4 0xFFFFFFFF AND PUSH1 0xE0 SHL DUP2 MSTORE PUSH1 0x4 ADD PUSH2 0x761 SWAP4 SWAP3 SWAP2 SWAP1 PUSH2 0xD45 JUMP JUMPDEST PUSH1 0x0 PUSH1 0x40 MLOAD DUP1 DUP4 SUB DUP2 PUSH1 0x0 DUP8 DUP1 EXTCODESIZE ISZERO DUP1 ISZERO PUSH2 0x77B JUMPI PUSH1 0x0 DUP1 REVERT JUMPDEST POP GAS CALL ISZERO DUP1 ISZERO PUSH2 0x78F JUMPI RETURNDATASIZE PUSH1 0x0 DUP1 RETURNDATACOPY RETURNDATASIZE PUSH1 0x0 REVERT JUMPDEST POP POP POP POP POP POP POP JUMP JUMPDEST PUSH1 0x0 DUP1 PUSH1 0x0 SWAP1 SLOAD SWAP1 PUSH2 0x100 EXP SWAP1 DIV PUSH20 0xFFFFFFFFFFFFFFFFFFFFFFFFFFFFFFFFFFFFFFFF AND SWAP1 POP DUP2 PUSH1 0x0 DUP1 PUSH2 0x100 EXP DUP2 SLOAD DUP2 PUSH20 0xFFFFFFFFFFFFFFFFFFFFFFFFFFFFFFFFFFFFFFFF MUL NOT AND SWAP1 DUP4 PUSH20 0xFFFFFFFFFFFFFFFFFFFFFFFFFFFFFFFFFFFFFFFF AND MUL OR SWAP1 SSTORE POP DUP2 PUSH20 0xFFFFFFFFFFFFFFFFFFFFFFFFFFFFFFFFFFFFFFFF AND DUP2 PUSH20 0xFFFFFFFFFFFFFFFFFFFFFFFFFFFFFFFFFFFFFFFF AND PUSH32 0x8BE0079C531659141344CD1FD0A4F28419497F9722A3DAAFE3B4186F6B6457E0 PUSH1 0x40 MLOAD PUSH1 0x40 MLOAD DUP1 SWAP2 SUB SWAP1 LOG3 POP POP JUMP JUMPDEST PUSH1 0x0 PUSH2 0x86F PUSH2 0x86A DUP5 PUSH2 0xE77 JUMP JUMPDEST PUSH2 0xE52 JUMP JUMPDEST SWAP1 POP DUP1 DUP4 DUP3 MSTORE PUSH1 0x20 DUP3 ADD SWAP1 POP DUP3 DUP6 PUSH1 0x20 DUP7 MUL DUP3 ADD GT ISZERO PUSH2 0x892 JUMPI PUSH2 0x891 PUSH2 0xFCD JUMP JUMPDEST JUMPDEST PUSH1 0x0 JUMPDEST DUP6 DUP2 LT ISZERO PUSH2 0x8C2 JUMPI DUP2 PUSH2 0x8A8 DUP9 DUP3 PUSH2 0x994 JUMP JUMPDEST DUP5 MSTORE PUSH1 0x20 DUP5 ADD SWAP4 POP PUSH1 0x20 DUP4 ADD SWAP3 POP POP PUSH1 0x1 DUP2 ADD SWAP1 POP PUSH2 0x895 JUMP JUMPDEST POP POP POP SWAP4 SWAP3 POP POP POP JUMP JUMPDEST PUSH1 0x0 PUSH2 0x8DF PUSH2 0x8DA DUP5 PUSH2 0xEA3 JUMP JUMPDEST PUSH2 0xE52 JUMP JUMPDEST SWAP1 POP DUP3 DUP2 MSTORE PUSH1 0x20 DUP2 ADD DUP5 DUP5 DUP5 ADD GT ISZERO PUSH2 0x8FB JUMPI PUSH2 0x8FA PUSH2 0xFD2 JUMP JUMPDEST JUMPDEST PUSH2 0x906 DUP5 DUP3 DUP6 PUSH2 0xF59 JUMP JUMPDEST POP SWAP4 SWAP3 POP POP POP JUMP JUMPDEST PUSH1 0x0 DUP2 CALLDATALOAD SWAP1 POP PUSH2 0x91D DUP2 PUSH2 0x10E5 JUMP JUMPDEST SWAP3 SWAP2 POP POP JUMP JUMPDEST PUSH1 0x0 DUP3 PUSH1 0x1F DUP4 ADD SLT PUSH2 0x938 JUMPI PUSH2 0x937 PUSH2 0xFC8 JUMP JUMPDEST JUMPDEST DUP2 CALLDATALOAD PUSH2 0x948 DUP5 DUP3 PUSH1 0x20 DUP7 ADD PUSH2 0x85C JUMP JUMPDEST SWAP2 POP POP SWAP3 SWAP2 POP POP JUMP JUMPDEST PUSH1 0x0 DUP2 CALLDATALOAD SWAP1 POP PUSH2 0x960 DUP2 PUSH2 0x10FC JUMP JUMPDEST SWAP3 SWAP2 POP POP JUMP JUMPDEST PUSH1 0x0 DUP3 PUSH1 0x1F DUP4 ADD SLT PUSH2 0x97B JUMPI PUSH2 0x97A PUSH2 0xFC8 JUMP JUMPDEST JUMPDEST DUP2 CALLDATALOAD PUSH2 0x98B DUP5 DUP3 PUSH1 0x20 DUP7 ADD PUSH2 0x8CC JUMP JUMPDEST SWAP2 POP POP SWAP3 SWAP2 POP POP JUMP JUMPDEST PUSH1 0x0 DUP2 CALLDATALOAD SWAP1 POP PUSH2 0x9A3 DUP2 PUSH2 0x1113 JUMP JUMPDEST SWAP3 SWAP2 POP POP JUMP JUMPDEST PUSH1 0x0 DUP1 PUSH1 0x40 DUP4 DUP6 SUB SLT ISZERO PUSH2 0x9C0 JUMPI PUSH2 0x9BF PUSH2 0xFDC JUMP JUMPDEST JUMPDEST PUSH1 0x0 PUSH2 0x9CE DUP6 DUP3 DUP7 ADD PUSH2 0x90E JUMP JUMPDEST SWAP3 POP POP PUSH1 0x20 PUSH2 0x9DF DUP6 DUP3 DUP7 ADD PUSH2 0x90E JUMP JUMPDEST SWAP2 POP POP SWAP3 POP SWAP3 SWAP1 POP JUMP JUMPDEST PUSH1 0x0 DUP1 PUSH1 0x0 DUP1 PUSH1 0x0 PUSH1 0xA0 DUP7 DUP9 SUB SLT ISZERO PUSH2 0xA05 JUMPI PUSH2 0xA04 PUSH2 0xFDC JUMP JUMPDEST JUMPDEST PUSH1 0x0 PUSH2 0xA13 DUP9 DUP3 DUP10 ADD PUSH2 0x90E JUMP JUMPDEST SWAP6 POP POP PUSH1 0x20 PUSH2 0xA24 DUP9 DUP3 DUP10 ADD PUSH2 0x90E JUMP JUMPDEST SWAP5 POP POP PUSH1 0x40 DUP7 ADD CALLDATALOAD PUSH8 0xFFFFFFFFFFFFFFFF DUP2 GT ISZERO PUSH2 0xA45 JUMPI PUSH2 0xA44 PUSH2 0xFD7 JUMP JUMPDEST JUMPDEST PUSH2 0xA51 DUP9 DUP3 DUP10 ADD PUSH2 0x923 JUMP JUMPDEST SWAP4 POP POP PUSH1 0x60 DUP7 ADD CALLDATALOAD PUSH8 0xFFFFFFFFFFFFFFFF DUP2 GT ISZERO PUSH2 0xA72 JUMPI PUSH2 0xA71 PUSH2 0xFD7 JUMP JUMPDEST JUMPDEST PUSH2 0xA7E DUP9 DUP3 DUP10 ADD PUSH2 0x923 JUMP JUMPDEST SWAP3 POP POP PUSH1 0x80 DUP7 ADD CALLDATALOAD PUSH8 0xFFFFFFFFFFFFFFFF DUP2 GT ISZERO PUSH2 0xA9F JUMPI PUSH2 0xA9E PUSH2 0xFD7 JUMP JUMPDEST JUMPDEST PUSH2 0xAAB DUP9 DUP3 DUP10 ADD PUSH2 0x966 JUMP JUMPDEST SWAP2 POP POP SWAP3 SWAP6 POP SWAP3 SWAP6 SWAP1 SWAP4 POP JUMP JUMPDEST PUSH1 0x0 DUP1 PUSH1 0x0 DUP1 PUSH1 0x80 DUP6 DUP8 SUB SLT ISZERO PUSH2 0xAD2 JUMPI PUSH2 0xAD1 PUSH2 0xFDC JUMP JUMPDEST JUMPDEST PUSH1 0x0 PUSH2 0xAE0 DUP8 DUP3 DUP9 ADD PUSH2 0x90E JUMP JUMPDEST SWAP5 POP POP PUSH1 0x20 PUSH2 0xAF1 DUP8 DUP3 DUP9 ADD PUSH2 0x90E JUMP JUMPDEST SWAP4 POP POP PUSH1 0x40 PUSH2 0xB02 DUP8 DUP3 DUP9 ADD PUSH2 0x994 JUMP JUMPDEST SWAP3 POP POP PUSH1 0x60 DUP6 ADD CALLDATALOAD PUSH8 0xFFFFFFFFFFFFFFFF DUP2 GT ISZERO PUSH2 0xB23 JUMPI PUSH2 0xB22 PUSH2 0xFD7 JUMP JUMPDEST JUMPDEST PUSH2 0xB2F DUP8 DUP3 DUP9 ADD PUSH2 0x966 JUMP JUMPDEST SWAP2 POP POP SWAP3 SWAP6 SWAP2 SWAP5 POP SWAP3 POP JUMP JUMPDEST PUSH1 0x0 DUP1 PUSH1 0x0 DUP1 PUSH1 0x0 PUSH1 0xA0 DUP7 DUP9 SUB SLT ISZERO PUSH2 0xB57 JUMPI PUSH2 0xB56 PUSH2 0xFDC JUMP JUMPDEST JUMPDEST PUSH1 0x0 PUSH2 0xB65 DUP9 DUP3 DUP10 ADD PUSH2 0x90E JUMP JUMPDEST SWAP6 POP POP PUSH1 0x20 PUSH2 0xB76 DUP9 DUP3 DUP10 ADD PUSH2 0x90E JUMP JUMPDEST SWAP5 POP POP PUSH1 0x40 PUSH2 0xB87 DUP9 DUP3 DUP10 ADD PUSH2 0x994 JUMP JUMPDEST SWAP4 POP POP PUSH1 0x60 PUSH2 0xB98 DUP9 DUP3 DUP10 ADD PUSH2 0x994 JUMP JUMPDEST SWAP3 POP POP PUSH1 0x80 DUP7 ADD CALLDATALOAD PUSH8 0xFFFFFFFFFFFFFFFF DUP2 GT ISZERO PUSH2 0xBB9 JUMPI PUSH2 0xBB8 PUSH2 0xFD7 JUMP JUMPDEST JUMPDEST PUSH2 0xBC5 DUP9 DUP3 DUP10 ADD PUSH2 0x966 JUMP JUMPDEST SWAP2 POP POP SWAP3 SWAP6 POP SWAP3 SWAP6 SWAP1 SWAP4 POP JUMP JUMPDEST PUSH1 0x0 DUP1 PUSH1 0x40 DUP4 DUP6 SUB SLT ISZERO PUSH2 0xBE9 JUMPI PUSH2 0xBE8 PUSH2 0xFDC JUMP JUMPDEST JUMPDEST PUSH1 0x0 PUSH2 0xBF7 DUP6 DUP3 DUP7 ADD PUSH2 0x90E JUMP JUMPDEST SWAP3 POP POP PUSH1 0x20 PUSH2 0xC08 DUP6 DUP3 DUP7 ADD PUSH2 0x994 JUMP JUMPDEST SWAP2 POP POP SWAP3 POP SWAP3 SWAP1 POP JUMP JUMPDEST PUSH1 0x0 PUSH1 0x20 DUP3 DUP5 SUB SLT ISZERO PUSH2 0xC28 JUMPI PUSH2 0xC27 PUSH2 0xFDC JUMP JUMPDEST JUMPDEST PUSH1 0x0 PUSH2 0xC36 DUP5 DUP3 DUP6 ADD PUSH2 0x951 JUMP JUMPDEST SWAP2 POP POP SWAP3 SWAP2 POP POP JUMP JUMPDEST PUSH2 0xC48 DUP2 PUSH2 0xEE5 JUMP JUMPDEST DUP3 MSTORE POP POP JUMP JUMPDEST PUSH2 0xC57 DUP2 PUSH2 0xEF7 JUMP JUMPDEST DUP3 MSTORE POP POP JUMP JUMPDEST PUSH2 0xC66 DUP2 PUSH2 0xF03 JUMP JUMPDEST DUP3 MSTORE POP POP JUMP JUMPDEST PUSH1 0x0 PUSH2 0xC79 PUSH1 0x1E DUP4 PUSH2 0xED4 JUMP JUMPDEST SWAP2 POP PUSH2 0xC84 DUP3 PUSH2 0xFF2 JUMP JUMPDEST PUSH1 0x20 DUP3 ADD SWAP1 POP SWAP2 SWAP1 POP JUMP JUMPDEST PUSH1 0x0 PUSH2 0xC9C PUSH1 0x1E DUP4 PUSH2 0xED4 JUMP JUMPDEST SWAP2 POP PUSH2 0xCA7 DUP3 PUSH2 0x101B JUMP JUMPDEST PUSH1 0x20 DUP3 ADD SWAP1 POP SWAP2 SWAP1 POP JUMP JUMPDEST PUSH1 0x0 PUSH2 0xCBF PUSH1 0x20 DUP4 PUSH2 0xED4 JUMP JUMPDEST SWAP2 POP PUSH2 0xCCA DUP3 PUSH2 0x1044 JUMP JUMPDEST PUSH1 0x20 DUP3 ADD SWAP1 POP SWAP2 SWAP1 POP JUMP JUMPDEST PUSH1 0x0 PUSH2 0xCE2 PUSH1 0x1C DUP4 PUSH2 0xED4 JUMP JUMPDEST SWAP2 POP PUSH2 0xCED DUP3 PUSH2 0x106D JUMP JUMPDEST PUSH1 0x20 DUP3 ADD SWAP1 POP SWAP2 SWAP1 POP JUMP JUMPDEST PUSH1 0x0 PUSH2 0xD05 PUSH1 0x2E DUP4 PUSH2 0xED4 JUMP JUMPDEST SWAP2 POP PUSH2 0xD10 DUP3 PUSH2 0x1096 JUMP JUMPDEST PUSH1 0x40 DUP3 ADD SWAP1 POP SWAP2 SWAP1 POP JUMP JUMPDEST PUSH2 0xD24 DUP2 PUSH2 0xF4F JUMP JUMPDEST DUP3 MSTORE POP POP JUMP JUMPDEST PUSH1 0x0 PUSH1 0x20 DUP3 ADD SWAP1 POP PUSH2 0xD3F PUSH1 0x0 DUP4 ADD DUP5 PUSH2 0xC3F JUMP JUMPDEST SWAP3 SWAP2 POP POP JUMP JUMPDEST PUSH1 0x0 PUSH1 0x60 DUP3 ADD SWAP1 POP PUSH2 0xD5A PUSH1 0x0 DUP4 ADD DUP7 PUSH2 0xC3F JUMP JUMPDEST PUSH2 0xD67 PUSH1 0x20 DUP4 ADD DUP6 PUSH2 0xC3F JUMP JUMPDEST PUSH2 0xD74 PUSH1 0x40 DUP4 ADD DUP5 PUSH2 0xD1B JUMP JUMPDEST SWAP5 SWAP4 POP POP POP POP JUMP JUMPDEST PUSH1 0x0 PUSH1 0x20 DUP3 ADD SWAP1 POP PUSH2 0xD91 PUSH1 0x0 DUP4 ADD DUP5 PUSH2 0xC4E JUMP JUMPDEST SWAP3 SWAP2 POP POP JUMP JUMPDEST PUSH1 0x0 PUSH1 0x20 DUP3 ADD SWAP1 POP PUSH2 0xDAC PUSH1 0x0 DUP4 ADD DUP5 PUSH2 0xC5D JUMP JUMPDEST SWAP3 SWAP2 POP POP JUMP JUMPDEST PUSH1 0x0 PUSH1 0x20 DUP3 ADD SWAP1 POP DUP2 DUP2 SUB PUSH1 0x0 DUP4 ADD MSTORE PUSH2 0xDCB DUP2 PUSH2 0xC6C JUMP JUMPDEST SWAP1 POP SWAP2 SWAP1 POP JUMP JUMPDEST PUSH1 0x0 PUSH1 0x20 DUP3 ADD SWAP1 POP DUP2 DUP2 SUB PUSH1 0x0 DUP4 ADD MSTORE PUSH2 0xDEB DUP2 PUSH2 0xC8F JUMP JUMPDEST SWAP1 POP SWAP2 SWAP1 POP JUMP JUMPDEST PUSH1 0x0 PUSH1 0x20 DUP3 ADD SWAP1 POP DUP2 DUP2 SUB PUSH1 0x0 DUP4 ADD MSTORE PUSH2 0xE0B DUP2 PUSH2 0xCB2 JUMP JUMPDEST SWAP1 POP SWAP2 SWAP1 POP JUMP JUMPDEST PUSH1 0x0 PUSH1 0x20 DUP3 ADD SWAP1 POP DUP2 DUP2 SUB PUSH1 0x0 DUP4 ADD MSTORE PUSH2 0xE2B DUP2 PUSH2 0xCD5 JUMP JUMPDEST SWAP1 POP SWAP2 SWAP1 POP JUMP JUMPDEST PUSH1 0x0 PUSH1 0x20 DUP3 ADD SWAP1 POP DUP2 DUP2 SUB PUSH1 0x0 DUP4 ADD MSTORE PUSH2 0xE4B DUP2 PUSH2 0xCF8 JUMP JUMPDEST SWAP1 POP SWAP2 SWAP1 POP JUMP JUMPDEST PUSH1 0x0 PUSH2 0xE5C PUSH2 0xE6D JUMP JUMPDEST SWAP1 POP PUSH2 0xE68 DUP3 DUP3 PUSH2 0xF68 JUMP JUMPDEST SWAP2 SWAP1 POP JUMP JUMPDEST PUSH1 0x0 PUSH1 0x40 MLOAD SWAP1 POP SWAP1 JUMP JUMPDEST PUSH1 0x0 PUSH8 0xFFFFFFFFFFFFFFFF DUP3 GT ISZERO PUSH2 0xE92 JUMPI PUSH2 0xE91 PUSH2 0xF99 JUMP JUMPDEST JUMPDEST PUSH1 0x20 DUP3 MUL SWAP1 POP PUSH1 0x20 DUP2 ADD SWAP1 POP SWAP2 SWAP1 POP JUMP JUMPDEST PUSH1 0x0 PUSH8 0xFFFFFFFFFFFFFFFF DUP3 GT ISZERO PUSH2 0xEBE JUMPI PUSH2 0xEBD PUSH2 0xF99 JUMP JUMPDEST JUMPDEST PUSH2 0xEC7 DUP3 PUSH2 0xFE1 JUMP JUMPDEST SWAP1 POP PUSH1 0x20 DUP2 ADD SWAP1 POP SWAP2 SWAP1 POP JUMP JUMPDEST PUSH1 0x0 DUP3 DUP3 MSTORE PUSH1 0x20 DUP3 ADD SWAP1 POP SWAP3 SWAP2 POP POP JUMP JUMPDEST PUSH1 0x0 PUSH2 0xEF0 DUP3 PUSH2 0xF2F JUMP JUMPDEST SWAP1 POP SWAP2 SWAP1 POP JUMP JUMPDEST PUSH1 0x0 DUP2 ISZERO ISZERO SWAP1 POP SWAP2 SWAP1 POP JUMP JUMPDEST PUSH1 0x0 PUSH32 0xFFFFFFFF00000000000000000000000000000000000000000000000000000000 DUP3 AND SWAP1 POP SWAP2 SWAP1 POP JUMP JUMPDEST PUSH1 0x0 PUSH20 0xFFFFFFFFFFFFFFFFFFFFFFFFFFFFFFFFFFFFFFFF DUP3 AND SWAP1 POP SWAP2 SWAP1 POP JUMP JUMPDEST PUSH1 0x0 DUP2 SWAP1 POP SWAP2 SWAP1 POP JUMP JUMPDEST DUP3 DUP2 DUP4 CALLDATACOPY PUSH1 0x0 DUP4 DUP4 ADD MSTORE POP POP POP JUMP JUMPDEST PUSH2 0xF71 DUP3 PUSH2 0xFE1 JUMP JUMPDEST DUP2 ADD DUP2 DUP2 LT PUSH8 0xFFFFFFFFFFFFFFFF DUP3 GT OR ISZERO PUSH2 0xF90 JUMPI PUSH2 0xF8F PUSH2 0xF99 JUMP JUMPDEST JUMPDEST DUP1 PUSH1 0x40 MSTORE POP POP POP JUMP JUMPDEST PUSH32 0x4E487B7100000000000000000000000000000000000000000000000000000000 PUSH1 0x0 MSTORE PUSH1 0x41 PUSH1 0x4 MSTORE PUSH1 0x24 PUSH1 0x0 REVERT JUMPDEST PUSH1 0x0 DUP1 REVERT JUMPDEST PUSH1 0x0 DUP1 REVERT JUMPDEST PUSH1 0x0 DUP1 REVERT JUMPDEST PUSH1 0x0 DUP1 REVERT JUMPDEST PUSH1 0x0 DUP1 REVERT JUMPDEST PUSH1 0x0 PUSH1 0x1F NOT PUSH1 0x1F DUP4 ADD AND SWAP1 POP SWAP2 SWAP1 POP JUMP JUMPDEST PUSH32 0x4261636B757020616464726573732063616E206E6F74206265207A65726F0000 PUSH1 0x0 DUP3 ADD MSTORE POP JUMP JUMPDEST PUSH32 0x53656E64657220616464726573732063616E206E6F74206265207A65726F0000 PUSH1 0x0 DUP3 ADD MSTORE POP JUMP JUMPDEST PUSH32 0x4F776E61626C653A2063616C6C6572206973206E6F7420746865206F776E6572 PUSH1 0x0 DUP3 ADD MSTORE POP JUMP JUMPDEST PUSH32 0x436F6E747261637420616C726561647920696E697469616C697A656400000000 PUSH1 0x0 DUP3 ADD MSTORE POP JUMP JUMPDEST PUSH32 0x4261636B75702077616C6C65742063616E206E6F742062652073616D65206173 PUSH1 0x0 DUP3 ADD MSTORE PUSH32 0x2073656E6465722077616C6C6574000000000000000000000000000000000000 PUSH1 0x20 DUP3 ADD MSTORE POP JUMP JUMPDEST PUSH2 0x10EE DUP2 PUSH2 0xEE5 JUMP JUMPDEST DUP2 EQ PUSH2 0x10F9 JUMPI PUSH1 0x0 DUP1 REVERT JUMPDEST POP JUMP JUMPDEST PUSH2 0x1105 DUP2 PUSH2 0xF03 JUMP JUMPDEST DUP2 EQ PUSH2 0x1110 JUMPI PUSH1 0x0 DUP1 REVERT JUMPDEST POP JUMP JUMPDEST PUSH2 0x111C DUP2 PUSH2 0xF4F JUMP JUMPDEST DUP2 EQ PUSH2 0x1127 JUMPI PUSH1 0x0 DUP1 REVERT JUMPDEST POP JUMP INVALID LOG2 PUSH5 0x6970667358 0x22 SLT KECCAK256 CALL 0xD8 0xB4 0xB0 0x28 0x4F SLT PUSH26 0x94990BACE63AB8C51B33F2FADCFD7D71EF9FC66B7B00D46473 PUSH16 0x6C634300080700330000000000000000 "
				},
				"gasEstimates": {
					"creation": {
						"codeDepositCost": "889600",
						"executionCost": "infinite",
						"totalCost": "infinite"
					},
					"external": {
						"init(address,address)": "infinite",
						"onERC1155BatchReceived(address,address,uint256[],uint256[],bytes)": "infinite",
						"onERC1155Received(address,address,uint256,uint256,bytes)": "infinite",
						"onERC721Received(address,address,uint256,bytes)": "infinite",
						"owner()": "2522",
						"sendERC721FundsToBackupWallet(address,uint256)": "infinite",
						"sendNativeFundsToBackupWallet()": "infinite",
						"supportsInterface(bytes4)": "728"
					},
					"internal": {
						"_transferERC721FundsToAddress(address,address,uint256)": "infinite",
						"_transferNativeFundsToAddress(address payable)": "infinite"
					}
				},
				"methodIdentifiers": {
					"init(address,address)": "f09a4016",
					"onERC1155BatchReceived(address,address,uint256[],uint256[],bytes)": "bc197c81",
					"onERC1155Received(address,address,uint256,uint256,bytes)": "f23a6e61",
					"onERC721Received(address,address,uint256,bytes)": "150b7a02",
					"owner()": "8da5cb5b",
					"sendERC721FundsToBackupWallet(address,uint256)": "71b4bc99",
					"sendNativeFundsToBackupWallet()": "450b2ad7",
					"supportsInterface(bytes4)": "01ffc9a7"
				}
			},
			"storageLayout": {
				"storage": [
					{
						"astId": 1071,
						"contract": "Practice NFT.sol:TwoFactor",
						"label": "_owner",
						"offset": 0,
						"slot": "0",
						"type": "t_address"
					},
					{
						"astId": 1152,
						"contract": "Practice NFT.sol:TwoFactor",
						"label": "isInitialized",
						"offset": 20,
						"slot": "0",
						"type": "t_bool"
					},
					{
						"astId": 1154,
						"contract": "Practice NFT.sol:TwoFactor",
						"label": "backupWallet",
						"offset": 0,
						"slot": "1",
						"type": "t_address"
					}
				],
				"types": {
					"t_address": {
						"encoding": "inplace",
						"label": "address",
						"numberOfBytes": "20"
					},
					"t_bool": {
						"encoding": "inplace",
						"label": "bool",
						"numberOfBytes": "1"
					}
				}
			},
			"userdoc": {
				"kind": "user",
				"methods": {},
				"version": 1
			}
		}
	}
}