{
	"TwoFactorFactory.sol": {
		"TwoFactorFactory": {
			"abi": [
				{
					"inputs": [
						{
							"internalType": "address",
							"name": "_firstChildAddress",
							"type": "address"
						}
					],
					"stateMutability": "nonpayable",
					"type": "constructor"
				},
				{
					"anonymous": false,
					"inputs": [
						{
							"indexed": true,
							"internalType": "address",
							"name": "previousOwner",
							"type": "address"
						},
						{
							"indexed": true,
							"internalType": "address",
							"name": "newOwner",
							"type": "address"
						}
					],
					"name": "OwnershipTransferred",
					"type": "event"
				},
				{
					"anonymous": false,
					"inputs": [
						{
							"indexed": false,
							"internalType": "address",
							"name": "newTwoFactor",
							"type": "address"
						}
					],
					"name": "TwoFactorCreated",
					"type": "event"
				},
				{
					"inputs": [
						{
							"internalType": "address",
							"name": "_backupWallet",
							"type": "address"
						},
						{
							"internalType": "bytes32",
							"name": "_encryptedPassword",
							"type": "bytes32"
						}
					],
					"name": "createTwoFactor",
					"outputs": [],
					"stateMutability": "nonpayable",
					"type": "function"
				},
				{
					"inputs": [
						{
							"internalType": "address",
							"name": "",
							"type": "address"
						}
					],
					"name": "eoaToVaultMap",
					"outputs": [
						{
							"internalType": "address",
							"name": "",
							"type": "address"
						}
					],
					"stateMutability": "view",
					"type": "function"
				},
				{
					"inputs": [],
					"name": "firstChildAddress",
					"outputs": [
						{
							"internalType": "address",
							"name": "",
							"type": "address"
						}
					],
					"stateMutability": "view",
					"type": "function"
				},
				{
					"inputs": [],
					"name": "owner",
					"outputs": [
						{
							"internalType": "address",
							"name": "",
							"type": "address"
						}
					],
					"stateMutability": "view",
					"type": "function"
				},
				{
					"inputs": [],
					"name": "pauseTwoFactorProduction",
					"outputs": [],
					"stateMutability": "nonpayable",
					"type": "function"
				},
				{
					"inputs": [],
					"name": "resumeTwoFactorProduction",
					"outputs": [],
					"stateMutability": "nonpayable",
					"type": "function"
				}
			],
			"devdoc": {
				"kind": "dev",
				"methods": {
					"owner()": {
						"details": "Returns the address of the current owner."
					}
				},
				"version": 1
			},
			"evm": {
				"assembly": "    /* \"TwoFactorFactory.sol\":1635:2976  contract TwoFactorFactory is CloneFactory, Ownable {... */\n  mstore(0x40, 0x80)\n    /* \"TwoFactorFactory.sol\":1768:1772  true */\n  0x01\n    /* \"TwoFactorFactory.sol\":1735:1772  bool private isCreationEnabled = true */\n  dup1\n  exp(0x0100, 0x14)\n  dup2\n  sload\n  dup2\n  0xff\n  mul\n  not\n  and\n  swap1\n  dup4\n  iszero\n  iszero\n  mul\n  or\n  swap1\n  sstore\n  pop\n    /* \"TwoFactorFactory.sol\":1884:2056  constructor(address _firstChildAddress) {... */\n  callvalue\n  dup1\n  iszero\n  tag_1\n  jumpi\n  0x00\n  dup1\n  revert\ntag_1:\n  pop\n  mload(0x40)\n  sub(codesize, bytecodeSize)\n  dup1\n  bytecodeSize\n  dup4\n  codecopy\n  dup2\n  dup2\n  add\n  0x40\n  mstore\n  dup2\n  add\n  swap1\n  tag_2\n  swap2\n  swap1\n  tag_3\n  jump\t// in\ntag_2:\n    /* \"Ownable.sol\":818:850  _transferOwnership(_msgSender()) */\n  tag_7\n    /* \"Ownable.sol\":837:849  _msgSender() */\n  tag_8\n    /* \"Ownable.sol\":837:847  _msgSender */\n  shl(0x20, tag_9)\n    /* \"Ownable.sol\":837:849  _msgSender() */\n  0x20\n  shr\n  jump\t// in\ntag_8:\n    /* \"Ownable.sol\":818:836  _transferOwnership */\n  shl(0x20, tag_10)\n    /* \"Ownable.sol\":818:850  _transferOwnership(_msgSender()) */\n  0x20\n  shr\n  jump\t// in\ntag_7:\n    /* \"TwoFactorFactory.sol\":1971:1972  0 */\n  0x00\n    /* \"TwoFactorFactory.sol\":1942:1973  _firstChildAddress!= address(0) */\n  0xffffffffffffffffffffffffffffffffffffffff\n  and\n    /* \"TwoFactorFactory.sol\":1942:1960  _firstChildAddress */\n  dup2\n    /* \"TwoFactorFactory.sol\":1942:1973  _firstChildAddress!= address(0) */\n  0xffffffffffffffffffffffffffffffffffffffff\n  and\n  eq\n  iszero\n    /* \"TwoFactorFactory.sol\":1934:2001  require(_firstChildAddress!= address(0), \"Address can not be zero\") */\n  tag_12\n  jumpi\n  mload(0x40)\n  0x08c379a000000000000000000000000000000000000000000000000000000000\n  dup2\n  mstore\n  0x04\n  add\n  tag_13\n  swap1\n  tag_14\n  jump\t// in\ntag_13:\n  mload(0x40)\n  dup1\n  swap2\n  sub\n  swap1\n  revert\ntag_12:\n    /* \"TwoFactorFactory.sol\":2031:2049  _firstChildAddress */\n  dup1\n    /* \"TwoFactorFactory.sol\":2011:2028  firstChildAddress */\n  0x01\n  0x00\n    /* \"TwoFactorFactory.sol\":2011:2049  firstChildAddress = _firstChildAddress */\n  0x0100\n  exp\n  dup2\n  sload\n  dup2\n  0xffffffffffffffffffffffffffffffffffffffff\n  mul\n  not\n  and\n  swap1\n  dup4\n  0xffffffffffffffffffffffffffffffffffffffff\n  and\n  mul\n  or\n  swap1\n  sstore\n  pop\n    /* \"TwoFactorFactory.sol\":1884:2056  constructor(address _firstChildAddress) {... */\n  pop\n    /* \"TwoFactorFactory.sol\":1635:2976  contract TwoFactorFactory is CloneFactory, Ownable {... */\n  jump(tag_15)\n    /* \"@openzeppelin/contracts/utils/Context.sol\":640:736  function _msgSender() internal view virtual returns (address) {... */\ntag_9:\n    /* \"@openzeppelin/contracts/utils/Context.sol\":693:700  address */\n  0x00\n    /* \"@openzeppelin/contracts/utils/Context.sol\":719:729  msg.sender */\n  caller\n    /* \"@openzeppelin/contracts/utils/Context.sol\":712:729  return msg.sender */\n  swap1\n  pop\n    /* \"@openzeppelin/contracts/utils/Context.sol\":640:736  function _msgSender() internal view virtual returns (address) {... */\n  swap1\n  jump\t// out\n    /* \"Ownable.sol\":1377:1564  function _transferOwnership(address newOwner) internal virtual {... */\ntag_10:\n    /* \"Ownable.sol\":1450:1466  address oldOwner */\n  0x00\n    /* \"Ownable.sol\":1469:1475  _owner */\n  dup1\n  0x00\n  swap1\n  sload\n  swap1\n  0x0100\n  exp\n  swap1\n  div\n  0xffffffffffffffffffffffffffffffffffffffff\n  and\n    /* \"Ownable.sol\":1450:1475  address oldOwner = _owner */\n  swap1\n  pop\n    /* \"Ownable.sol\":1494:1502  newOwner */\n  dup2\n    /* \"Ownable.sol\":1485:1491  _owner */\n  0x00\n  dup1\n    /* \"Ownable.sol\":1485:1502  _owner = newOwner */\n  0x0100\n  exp\n  dup2\n  sload\n  dup2\n  0xffffffffffffffffffffffffffffffffffffffff\n  mul\n  not\n  and\n  swap1\n  dup4\n  0xffffffffffffffffffffffffffffffffffffffff\n  and\n  mul\n  or\n  swap1\n  sstore\n  pop\n    /* \"Ownable.sol\":1548:1556  newOwner */\n  dup2\n    /* \"Ownable.sol\":1517:1557  OwnershipTransferred(oldOwner, newOwner) */\n  0xffffffffffffffffffffffffffffffffffffffff\n  and\n    /* \"Ownable.sol\":1538:1546  oldOwner */\n  dup2\n    /* \"Ownable.sol\":1517:1557  OwnershipTransferred(oldOwner, newOwner) */\n  0xffffffffffffffffffffffffffffffffffffffff\n  and\n  0x8be0079c531659141344cd1fd0a4f28419497f9722a3daafe3b4186f6b6457e0\n  mload(0x40)\n  mload(0x40)\n  dup1\n  swap2\n  sub\n  swap1\n  log3\n    /* \"Ownable.sol\":1440:1564  {... */\n  pop\n    /* \"Ownable.sol\":1377:1564  function _transferOwnership(address newOwner) internal virtual {... */\n  pop\n  jump\t// out\n    /* \"#utility.yul\":7:150   */\ntag_19:\n    /* \"#utility.yul\":64:69   */\n  0x00\n    /* \"#utility.yul\":95:101   */\n  dup2\n    /* \"#utility.yul\":89:102   */\n  mload\n    /* \"#utility.yul\":80:102   */\n  swap1\n  pop\n    /* \"#utility.yul\":111:144   */\n  tag_21\n    /* \"#utility.yul\":138:143   */\n  dup2\n    /* \"#utility.yul\":111:144   */\n  tag_22\n  jump\t// in\ntag_21:\n    /* \"#utility.yul\":7:150   */\n  swap3\n  swap2\n  pop\n  pop\n  jump\t// out\n    /* \"#utility.yul\":156:507   */\ntag_3:\n    /* \"#utility.yul\":226:232   */\n  0x00\n    /* \"#utility.yul\":275:277   */\n  0x20\n    /* \"#utility.yul\":263:272   */\n  dup3\n    /* \"#utility.yul\":254:261   */\n  dup5\n    /* \"#utility.yul\":250:273   */\n  sub\n    /* \"#utility.yul\":246:278   */\n  slt\n    /* \"#utility.yul\":243:362   */\n  iszero\n  tag_24\n  jumpi\n    /* \"#utility.yul\":281:360   */\n  tag_25\n  tag_26\n  jump\t// in\ntag_25:\n    /* \"#utility.yul\":243:362   */\ntag_24:\n    /* \"#utility.yul\":401:402   */\n  0x00\n    /* \"#utility.yul\":426:490   */\n  tag_27\n    /* \"#utility.yul\":482:489   */\n  dup5\n    /* \"#utility.yul\":473:479   */\n  dup3\n    /* \"#utility.yul\":462:471   */\n  dup6\n    /* \"#utility.yul\":458:480   */\n  add\n    /* \"#utility.yul\":426:490   */\n  tag_19\n  jump\t// in\ntag_27:\n    /* \"#utility.yul\":416:490   */\n  swap2\n  pop\n    /* \"#utility.yul\":372:500   */\n  pop\n    /* \"#utility.yul\":156:507   */\n  swap3\n  swap2\n  pop\n  pop\n  jump\t// out\n    /* \"#utility.yul\":513:879   */\ntag_28:\n    /* \"#utility.yul\":655:658   */\n  0x00\n    /* \"#utility.yul\":676:743   */\n  tag_30\n    /* \"#utility.yul\":740:742   */\n  0x17\n    /* \"#utility.yul\":735:738   */\n  dup4\n    /* \"#utility.yul\":676:743   */\n  tag_31\n  jump\t// in\ntag_30:\n    /* \"#utility.yul\":669:743   */\n  swap2\n  pop\n    /* \"#utility.yul\":752:845   */\n  tag_32\n    /* \"#utility.yul\":841:844   */\n  dup3\n    /* \"#utility.yul\":752:845   */\n  tag_33\n  jump\t// in\ntag_32:\n    /* \"#utility.yul\":870:872   */\n  0x20\n    /* \"#utility.yul\":865:868   */\n  dup3\n    /* \"#utility.yul\":861:873   */\n  add\n    /* \"#utility.yul\":854:873   */\n  swap1\n  pop\n    /* \"#utility.yul\":513:879   */\n  swap2\n  swap1\n  pop\n  jump\t// out\n    /* \"#utility.yul\":885:1304   */\ntag_14:\n    /* \"#utility.yul\":1051:1055   */\n  0x00\n    /* \"#utility.yul\":1089:1091   */\n  0x20\n    /* \"#utility.yul\":1078:1087   */\n  dup3\n    /* \"#utility.yul\":1074:1092   */\n  add\n    /* \"#utility.yul\":1066:1092   */\n  swap1\n  pop\n    /* \"#utility.yul\":1138:1147   */\n  dup2\n    /* \"#utility.yul\":1132:1136   */\n  dup2\n    /* \"#utility.yul\":1128:1148   */\n  sub\n    /* \"#utility.yul\":1124:1125   */\n  0x00\n    /* \"#utility.yul\":1113:1122   */\n  dup4\n    /* \"#utility.yul\":1109:1126   */\n  add\n    /* \"#utility.yul\":1102:1149   */\n  mstore\n    /* \"#utility.yul\":1166:1297   */\n  tag_35\n    /* \"#utility.yul\":1292:1296   */\n  dup2\n    /* \"#utility.yul\":1166:1297   */\n  tag_28\n  jump\t// in\ntag_35:\n    /* \"#utility.yul\":1158:1297   */\n  swap1\n  pop\n    /* \"#utility.yul\":885:1304   */\n  swap2\n  swap1\n  pop\n  jump\t// out\n    /* \"#utility.yul\":1391:1560   */\ntag_31:\n    /* \"#utility.yul\":1475:1486   */\n  0x00\n    /* \"#utility.yul\":1509:1515   */\n  dup3\n    /* \"#utility.yul\":1504:1507   */\n  dup3\n    /* \"#utility.yul\":1497:1516   */\n  mstore\n    /* \"#utility.yul\":1549:1553   */\n  0x20\n    /* \"#utility.yul\":1544:1547   */\n  dup3\n    /* \"#utility.yul\":1540:1554   */\n  add\n    /* \"#utility.yul\":1525:1554   */\n  swap1\n  pop\n    /* \"#utility.yul\":1391:1560   */\n  swap3\n  swap2\n  pop\n  pop\n  jump\t// out\n    /* \"#utility.yul\":1566:1662   */\ntag_39:\n    /* \"#utility.yul\":1603:1610   */\n  0x00\n    /* \"#utility.yul\":1632:1656   */\n  tag_41\n    /* \"#utility.yul\":1650:1655   */\n  dup3\n    /* \"#utility.yul\":1632:1656   */\n  tag_42\n  jump\t// in\ntag_41:\n    /* \"#utility.yul\":1621:1656   */\n  swap1\n  pop\n    /* \"#utility.yul\":1566:1662   */\n  swap2\n  swap1\n  pop\n  jump\t// out\n    /* \"#utility.yul\":1668:1794   */\ntag_42:\n    /* \"#utility.yul\":1705:1712   */\n  0x00\n    /* \"#utility.yul\":1745:1787   */\n  0xffffffffffffffffffffffffffffffffffffffff\n    /* \"#utility.yul\":1738:1743   */\n  dup3\n    /* \"#utility.yul\":1734:1788   */\n  and\n    /* \"#utility.yul\":1723:1788   */\n  swap1\n  pop\n    /* \"#utility.yul\":1668:1794   */\n  swap2\n  swap1\n  pop\n  jump\t// out\n    /* \"#utility.yul\":1923:2040   */\ntag_26:\n    /* \"#utility.yul\":2032:2033   */\n  0x00\n    /* \"#utility.yul\":2029:2030   */\n  dup1\n    /* \"#utility.yul\":2022:2034   */\n  revert\n    /* \"#utility.yul\":2046:2219   */\ntag_33:\n    /* \"#utility.yul\":2186:2211   */\n  0x416464726573732063616e206e6f74206265207a65726f000000000000000000\n    /* \"#utility.yul\":2182:2183   */\n  0x00\n    /* \"#utility.yul\":2174:2180   */\n  dup3\n    /* \"#utility.yul\":2170:2184   */\n  add\n    /* \"#utility.yul\":2163:2212   */\n  mstore\n    /* \"#utility.yul\":2046:2219   */\n  pop\n  jump\t// out\n    /* \"#utility.yul\":2225:2347   */\ntag_22:\n    /* \"#utility.yul\":2298:2322   */\n  tag_49\n    /* \"#utility.yul\":2316:2321   */\n  dup2\n    /* \"#utility.yul\":2298:2322   */\n  tag_39\n  jump\t// in\ntag_49:\n    /* \"#utility.yul\":2291:2296   */\n  dup2\n    /* \"#utility.yul\":2288:2323   */\n  eq\n    /* \"#utility.yul\":2278:2341   */\n  tag_50\n  jumpi\n    /* \"#utility.yul\":2337:2338   */\n  0x00\n    /* \"#utility.yul\":2334:2335   */\n  dup1\n    /* \"#utility.yul\":2327:2339   */\n  revert\n    /* \"#utility.yul\":2278:2341   */\ntag_50:\n    /* \"#utility.yul\":2225:2347   */\n  pop\n  jump\t// out\n    /* \"TwoFactorFactory.sol\":1635:2976  contract TwoFactorFactory is CloneFactory, Ownable {... */\ntag_15:\n  dataSize(sub_0)\n  dup1\n  dataOffset(sub_0)\n  0x00\n  codecopy\n  0x00\n  return\nstop\n\nsub_0: assembly {\n        /* \"TwoFactorFactory.sol\":1635:2976  contract TwoFactorFactory is CloneFactory, Ownable {... */\n      mstore(0x40, 0x80)\n      callvalue\n      dup1\n      iszero\n      tag_1\n      jumpi\n      0x00\n      dup1\n      revert\n    tag_1:\n      pop\n      jumpi(tag_2, lt(calldatasize, 0x04))\n      shr(0xe0, calldataload(0x00))\n      dup1\n      0x23eaf139\n      eq\n      tag_3\n      jumpi\n      dup1\n      0x58a259c1\n      eq\n      tag_4\n      jumpi\n      dup1\n      0x7210868e\n      eq\n      tag_5\n      jumpi\n      dup1\n      0x8da5cb5b\n      eq\n      tag_6\n      jumpi\n      dup1\n      0x906b0603\n      eq\n      tag_7\n      jumpi\n      dup1\n      0x91b10cfc\n      eq\n      tag_8\n      jumpi\n    tag_2:\n      0x00\n      dup1\n      revert\n        /* \"TwoFactorFactory.sol\":1778:1826  mapping(address => address) public eoaToVaultMap */\n    tag_3:\n      tag_9\n      0x04\n      dup1\n      calldatasize\n      sub\n      dup2\n      add\n      swap1\n      tag_10\n      swap2\n      swap1\n      tag_11\n      jump\t// in\n    tag_10:\n      tag_12\n      jump\t// in\n    tag_9:\n      mload(0x40)\n      tag_13\n      swap2\n      swap1\n      tag_14\n      jump\t// in\n    tag_13:\n      mload(0x40)\n      dup1\n      swap2\n      sub\n      swap1\n      return\n        /* \"TwoFactorFactory.sol\":2604:2786  function pauseTwoFactorProduction() external onlyOwner{... */\n    tag_4:\n      tag_15\n      tag_16\n      jump\t// in\n    tag_15:\n      stop\n        /* \"TwoFactorFactory.sol\":1697:1729  address public firstChildAddress */\n    tag_5:\n      tag_17\n      tag_18\n      jump\t// in\n    tag_17:\n      mload(0x40)\n      tag_19\n      swap2\n      swap1\n      tag_14\n      jump\t// in\n    tag_19:\n      mload(0x40)\n      dup1\n      swap2\n      sub\n      swap1\n      return\n        /* \"Ownable.sol\":933:1018  function owner() public view virtual returns (address) {... */\n    tag_6:\n      tag_20\n      tag_21\n      jump\t// in\n    tag_20:\n      mload(0x40)\n      tag_22\n      swap2\n      swap1\n      tag_14\n      jump\t// in\n    tag_22:\n      mload(0x40)\n      dup1\n      swap2\n      sub\n      swap1\n      return\n        /* \"TwoFactorFactory.sol\":2792:2974  function resumeTwoFactorProduction() external onlyOwner{... */\n    tag_7:\n      tag_23\n      tag_24\n      jump\t// in\n    tag_23:\n      stop\n        /* \"TwoFactorFactory.sol\":2066:2598  function createTwoFactor(address _backupWallet, bytes32 _encryptedPassword) external {... */\n    tag_8:\n      tag_25\n      0x04\n      dup1\n      calldatasize\n      sub\n      dup2\n      add\n      swap1\n      tag_26\n      swap2\n      swap1\n      tag_27\n      jump\t// in\n    tag_26:\n      tag_28\n      jump\t// in\n    tag_25:\n      stop\n        /* \"TwoFactorFactory.sol\":1778:1826  mapping(address => address) public eoaToVaultMap */\n    tag_12:\n      mstore(0x20, 0x02)\n      dup1\n      0x00\n      mstore\n      keccak256(0x00, 0x40)\n      0x00\n      swap2\n      pop\n      sload\n      swap1\n      0x0100\n      exp\n      swap1\n      div\n      0xffffffffffffffffffffffffffffffffffffffff\n      and\n      dup2\n      jump\t// out\n        /* \"TwoFactorFactory.sol\":2604:2786  function pauseTwoFactorProduction() external onlyOwner{... */\n    tag_16:\n        /* \"Ownable.sol\":1156:1168  _msgSender() */\n      tag_30\n        /* \"Ownable.sol\":1156:1166  _msgSender */\n      tag_31\n        /* \"Ownable.sol\":1156:1168  _msgSender() */\n      jump\t// in\n    tag_30:\n        /* \"Ownable.sol\":1145:1168  owner() == _msgSender() */\n      0xffffffffffffffffffffffffffffffffffffffff\n      and\n        /* \"Ownable.sol\":1145:1152  owner() */\n      tag_32\n        /* \"Ownable.sol\":1145:1150  owner */\n      tag_21\n        /* \"Ownable.sol\":1145:1152  owner() */\n      jump\t// in\n    tag_32:\n        /* \"Ownable.sol\":1145:1168  owner() == _msgSender() */\n      0xffffffffffffffffffffffffffffffffffffffff\n      and\n      eq\n        /* \"Ownable.sol\":1137:1205  require(owner() == _msgSender(), \"Ownable: caller is not the owner\") */\n      tag_33\n      jumpi\n      mload(0x40)\n      0x08c379a000000000000000000000000000000000000000000000000000000000\n      dup2\n      mstore\n      0x04\n      add\n      tag_34\n      swap1\n      tag_35\n      jump\t// in\n    tag_34:\n      mload(0x40)\n      dup1\n      swap2\n      sub\n      swap1\n      revert\n    tag_33:\n        /* \"TwoFactorFactory.sol\":2697:2701  true */\n      0x01\n        /* \"TwoFactorFactory.sol\":2676:2701  isCreationEnabled == true */\n      iszero\n      iszero\n        /* \"TwoFactorFactory.sol\":2676:2693  isCreationEnabled */\n      0x01\n      0x14\n      swap1\n      sload\n      swap1\n      0x0100\n      exp\n      swap1\n      div\n      0xff\n      and\n        /* \"TwoFactorFactory.sol\":2676:2701  isCreationEnabled == true */\n      iszero\n      iszero\n      eq\n        /* \"TwoFactorFactory.sol\":2668:2744  require(isCreationEnabled == true, \"TwoFactor production is already paused\") */\n      tag_37\n      jumpi\n      mload(0x40)\n      0x08c379a000000000000000000000000000000000000000000000000000000000\n      dup2\n      mstore\n      0x04\n      add\n      tag_38\n      swap1\n      tag_39\n      jump\t// in\n    tag_38:\n      mload(0x40)\n      dup1\n      swap2\n      sub\n      swap1\n      revert\n    tag_37:\n        /* \"TwoFactorFactory.sol\":2774:2779  false */\n      0x00\n        /* \"TwoFactorFactory.sol\":2754:2771  isCreationEnabled */\n      0x01\n      0x14\n        /* \"TwoFactorFactory.sol\":2754:2779  isCreationEnabled = false */\n      0x0100\n      exp\n      dup2\n      sload\n      dup2\n      0xff\n      mul\n      not\n      and\n      swap1\n      dup4\n      iszero\n      iszero\n      mul\n      or\n      swap1\n      sstore\n      pop\n        /* \"TwoFactorFactory.sol\":2604:2786  function pauseTwoFactorProduction() external onlyOwner{... */\n      jump\t// out\n        /* \"TwoFactorFactory.sol\":1697:1729  address public firstChildAddress */\n    tag_18:\n      0x01\n      0x00\n      swap1\n      sload\n      swap1\n      0x0100\n      exp\n      swap1\n      div\n      0xffffffffffffffffffffffffffffffffffffffff\n      and\n      dup2\n      jump\t// out\n        /* \"Ownable.sol\":933:1018  function owner() public view virtual returns (address) {... */\n    tag_21:\n        /* \"Ownable.sol\":979:986  address */\n      0x00\n        /* \"Ownable.sol\":1005:1011  _owner */\n      dup1\n      0x00\n      swap1\n      sload\n      swap1\n      0x0100\n      exp\n      swap1\n      div\n      0xffffffffffffffffffffffffffffffffffffffff\n      and\n        /* \"Ownable.sol\":998:1011  return _owner */\n      swap1\n      pop\n        /* \"Ownable.sol\":933:1018  function owner() public view virtual returns (address) {... */\n      swap1\n      jump\t// out\n        /* \"TwoFactorFactory.sol\":2792:2974  function resumeTwoFactorProduction() external onlyOwner{... */\n    tag_24:\n        /* \"Ownable.sol\":1156:1168  _msgSender() */\n      tag_42\n        /* \"Ownable.sol\":1156:1166  _msgSender */\n      tag_31\n        /* \"Ownable.sol\":1156:1168  _msgSender() */\n      jump\t// in\n    tag_42:\n        /* \"Ownable.sol\":1145:1168  owner() == _msgSender() */\n      0xffffffffffffffffffffffffffffffffffffffff\n      and\n        /* \"Ownable.sol\":1145:1152  owner() */\n      tag_43\n        /* \"Ownable.sol\":1145:1150  owner */\n      tag_21\n        /* \"Ownable.sol\":1145:1152  owner() */\n      jump\t// in\n    tag_43:\n        /* \"Ownable.sol\":1145:1168  owner() == _msgSender() */\n      0xffffffffffffffffffffffffffffffffffffffff\n      and\n      eq\n        /* \"Ownable.sol\":1137:1205  require(owner() == _msgSender(), \"Ownable: caller is not the owner\") */\n      tag_44\n      jumpi\n      mload(0x40)\n      0x08c379a000000000000000000000000000000000000000000000000000000000\n      dup2\n      mstore\n      0x04\n      add\n      tag_45\n      swap1\n      tag_35\n      jump\t// in\n    tag_45:\n      mload(0x40)\n      dup1\n      swap2\n      sub\n      swap1\n      revert\n    tag_44:\n        /* \"TwoFactorFactory.sol\":2886:2891  false */\n      0x00\n        /* \"TwoFactorFactory.sol\":2865:2891  isCreationEnabled == false */\n      iszero\n      iszero\n        /* \"TwoFactorFactory.sol\":2865:2882  isCreationEnabled */\n      0x01\n      0x14\n      swap1\n      sload\n      swap1\n      0x0100\n      exp\n      swap1\n      div\n      0xff\n      and\n        /* \"TwoFactorFactory.sol\":2865:2891  isCreationEnabled == false */\n      iszero\n      iszero\n      eq\n        /* \"TwoFactorFactory.sol\":2857:2933  require(isCreationEnabled == false, \"TwoFactor production already going on\") */\n      tag_47\n      jumpi\n      mload(0x40)\n      0x08c379a000000000000000000000000000000000000000000000000000000000\n      dup2\n      mstore\n      0x04\n      add\n      tag_48\n      swap1\n      tag_49\n      jump\t// in\n    tag_48:\n      mload(0x40)\n      dup1\n      swap2\n      sub\n      swap1\n      revert\n    tag_47:\n        /* \"TwoFactorFactory.sol\":2963:2967  true */\n      0x01\n        /* \"TwoFactorFactory.sol\":2943:2960  isCreationEnabled */\n      dup1\n      0x14\n        /* \"TwoFactorFactory.sol\":2943:2967  isCreationEnabled = true */\n      0x0100\n      exp\n      dup2\n      sload\n      dup2\n      0xff\n      mul\n      not\n      and\n      swap1\n      dup4\n      iszero\n      iszero\n      mul\n      or\n      swap1\n      sstore\n      pop\n        /* \"TwoFactorFactory.sol\":2792:2974  function resumeTwoFactorProduction() external onlyOwner{... */\n      jump\t// out\n        /* \"TwoFactorFactory.sol\":2066:2598  function createTwoFactor(address _backupWallet, bytes32 _encryptedPassword) external {... */\n    tag_28:\n        /* \"TwoFactorFactory.sol\":2190:2194  true */\n      0x01\n        /* \"TwoFactorFactory.sol\":2169:2194  isCreationEnabled == true */\n      iszero\n      iszero\n        /* \"TwoFactorFactory.sol\":2169:2186  isCreationEnabled */\n      0x01\n      0x14\n      swap1\n      sload\n      swap1\n      0x0100\n      exp\n      swap1\n      div\n      0xff\n      and\n        /* \"TwoFactorFactory.sol\":2169:2194  isCreationEnabled == true */\n      iszero\n      iszero\n      eq\n        /* \"TwoFactorFactory.sol\":2161:2250  require(isCreationEnabled == true, \"Creating TwoFactor vaults has been disabled for now\") */\n      tag_51\n      jumpi\n      mload(0x40)\n      0x08c379a000000000000000000000000000000000000000000000000000000000\n      dup2\n      mstore\n      0x04\n      add\n      tag_52\n      swap1\n      tag_53\n      jump\t// in\n    tag_52:\n      mload(0x40)\n      dup1\n      swap2\n      sub\n      swap1\n      revert\n    tag_51:\n        /* \"TwoFactorFactory.sol\":2318:2319  0 */\n      0x00\n        /* \"TwoFactorFactory.sol\":2281:2320  eoaToVaultMap[msg.sender] == address(0) */\n      0xffffffffffffffffffffffffffffffffffffffff\n      and\n        /* \"TwoFactorFactory.sol\":2281:2294  eoaToVaultMap */\n      0x02\n        /* \"TwoFactorFactory.sol\":2281:2306  eoaToVaultMap[msg.sender] */\n      0x00\n        /* \"TwoFactorFactory.sol\":2295:2305  msg.sender */\n      caller\n        /* \"TwoFactorFactory.sol\":2281:2306  eoaToVaultMap[msg.sender] */\n      0xffffffffffffffffffffffffffffffffffffffff\n      and\n      0xffffffffffffffffffffffffffffffffffffffff\n      and\n      dup2\n      mstore\n      0x20\n      add\n      swap1\n      dup2\n      mstore\n      0x20\n      add\n      0x00\n      keccak256\n      0x00\n      swap1\n      sload\n      swap1\n      0x0100\n      exp\n      swap1\n      div\n      0xffffffffffffffffffffffffffffffffffffffff\n      and\n        /* \"TwoFactorFactory.sol\":2281:2320  eoaToVaultMap[msg.sender] == address(0) */\n      0xffffffffffffffffffffffffffffffffffffffff\n      and\n      eq\n        /* \"TwoFactorFactory.sol\":2260:2375  require(... */\n      tag_54\n      jumpi\n      mload(0x40)\n      0x08c379a000000000000000000000000000000000000000000000000000000000\n      dup2\n      mstore\n      0x04\n      add\n      tag_55\n      swap1\n      tag_56\n      jump\t// in\n    tag_55:\n      mload(0x40)\n      dup1\n      swap2\n      sub\n      swap1\n      revert\n    tag_54:\n        /* \"TwoFactorFactory.sol\":2385:2398  address clone */\n      0x00\n        /* \"TwoFactorFactory.sol\":2401:2431  createClone(firstChildAddress) */\n      tag_57\n        /* \"TwoFactorFactory.sol\":2413:2430  firstChildAddress */\n      0x01\n      0x00\n      swap1\n      sload\n      swap1\n      0x0100\n      exp\n      swap1\n      div\n      0xffffffffffffffffffffffffffffffffffffffff\n      and\n        /* \"TwoFactorFactory.sol\":2401:2412  createClone */\n      tag_58\n        /* \"TwoFactorFactory.sol\":2401:2431  createClone(firstChildAddress) */\n      jump\t// in\n    tag_57:\n        /* \"TwoFactorFactory.sol\":2385:2431  address clone = createClone(firstChildAddress) */\n      swap1\n      pop\n        /* \"TwoFactorFactory.sol\":2452:2457  clone */\n      dup1\n        /* \"TwoFactorFactory.sol\":2441:2463  ITwoFactor(clone).init */\n      0xffffffffffffffffffffffffffffffffffffffff\n      and\n      0x347258aa\n        /* \"TwoFactorFactory.sol\":2464:2474  msg.sender */\n      caller\n        /* \"TwoFactorFactory.sol\":2476:2489  _backupWallet */\n      dup6\n        /* \"TwoFactorFactory.sol\":2491:2509  _encryptedPassword */\n      dup6\n        /* \"TwoFactorFactory.sol\":2441:2510  ITwoFactor(clone).init(msg.sender, _backupWallet, _encryptedPassword) */\n      mload(0x40)\n      dup5\n      0xffffffff\n      and\n      0xe0\n      shl\n      dup2\n      mstore\n      0x04\n      add\n      tag_59\n      swap4\n      swap3\n      swap2\n      swap1\n      tag_60\n      jump\t// in\n    tag_59:\n      0x00\n      mload(0x40)\n      dup1\n      dup4\n      sub\n      dup2\n      0x00\n      dup8\n      dup1\n      extcodesize\n      iszero\n      dup1\n      iszero\n      tag_61\n      jumpi\n      0x00\n      dup1\n      revert\n    tag_61:\n      pop\n      gas\n      call\n      iszero\n      dup1\n      iszero\n      tag_63\n      jumpi\n      returndatasize\n      0x00\n      dup1\n      returndatacopy\n      revert(0x00, returndatasize)\n    tag_63:\n      pop\n      pop\n      pop\n      pop\n        /* \"TwoFactorFactory.sol\":2548:2553  clone */\n      dup1\n        /* \"TwoFactorFactory.sol\":2520:2533  eoaToVaultMap */\n      0x02\n        /* \"TwoFactorFactory.sol\":2520:2545  eoaToVaultMap[msg.sender] */\n      0x00\n        /* \"TwoFactorFactory.sol\":2534:2544  msg.sender */\n      caller\n        /* \"TwoFactorFactory.sol\":2520:2545  eoaToVaultMap[msg.sender] */\n      0xffffffffffffffffffffffffffffffffffffffff\n      and\n      0xffffffffffffffffffffffffffffffffffffffff\n      and\n      dup2\n      mstore\n      0x20\n      add\n      swap1\n      dup2\n      mstore\n      0x20\n      add\n      0x00\n      keccak256\n      0x00\n        /* \"TwoFactorFactory.sol\":2520:2553  eoaToVaultMap[msg.sender] = clone */\n      0x0100\n      exp\n      dup2\n      sload\n      dup2\n      0xffffffffffffffffffffffffffffffffffffffff\n      mul\n      not\n      and\n      swap1\n      dup4\n      0xffffffffffffffffffffffffffffffffffffffff\n      and\n      mul\n      or\n      swap1\n      sstore\n      pop\n        /* \"TwoFactorFactory.sol\":2568:2591  TwoFactorCreated(clone) */\n      0xecbdf26f66662df01408fec00cac8301b9178bed8605838f8ff36e3d65c61b9f\n        /* \"TwoFactorFactory.sol\":2585:2590  clone */\n      dup2\n        /* \"TwoFactorFactory.sol\":2568:2591  TwoFactorCreated(clone) */\n      mload(0x40)\n      tag_64\n      swap2\n      swap1\n      tag_14\n      jump\t// in\n    tag_64:\n      mload(0x40)\n      dup1\n      swap2\n      sub\n      swap1\n      log1\n        /* \"TwoFactorFactory.sol\":2151:2598  {... */\n      pop\n        /* \"TwoFactorFactory.sol\":2066:2598  function createTwoFactor(address _backupWallet, bytes32 _encryptedPassword) external {... */\n      pop\n      pop\n      jump\t// out\n        /* \"@openzeppelin/contracts/utils/Context.sol\":640:736  function _msgSender() internal view virtual returns (address) {... */\n    tag_31:\n        /* \"@openzeppelin/contracts/utils/Context.sol\":693:700  address */\n      0x00\n        /* \"@openzeppelin/contracts/utils/Context.sol\":719:729  msg.sender */\n      caller\n        /* \"@openzeppelin/contracts/utils/Context.sol\":712:729  return msg.sender */\n      swap1\n      pop\n        /* \"@openzeppelin/contracts/utils/Context.sol\":640:736  function _msgSender() internal view virtual returns (address) {... */\n      swap1\n      jump\t// out\n        /* \"TwoFactorFactory.sol\":108:685  function createClone(address target) internal returns (address result) {... */\n    tag_58:\n        /* \"TwoFactorFactory.sol\":163:177  address result */\n      0x00\n        /* \"TwoFactorFactory.sol\":189:208  bytes20 targetBytes */\n      dup1\n        /* \"TwoFactorFactory.sol\":219:225  target */\n      dup3\n        /* \"TwoFactorFactory.sol\":211:226  bytes20(target) */\n      0x60\n      shl\n        /* \"TwoFactorFactory.sol\":189:226  bytes20 targetBytes = bytes20(target) */\n      swap1\n      pop\n        /* \"TwoFactorFactory.sol\":278:282  0x40 */\n      0x40\n        /* \"TwoFactorFactory.sol\":272:283  mload(0x40) */\n      mload\n        /* \"TwoFactorFactory.sol\":343:409  0x3d602d80600a3d3981f3363d3d373d3d3d363d73000000000000000000000000 */\n      0x3d602d80600a3d3981f3363d3d373d3d3d363d73000000000000000000000000\n        /* \"TwoFactorFactory.sol\":320:325  clone */\n      dup2\n        /* \"TwoFactorFactory.sol\":296:423  mstore(... */\n      mstore\n        /* \"TwoFactorFactory.sol\":461:472  targetBytes */\n      dup2\n        /* \"TwoFactorFactory.sol\":454:458  0x14 */\n      0x14\n        /* \"TwoFactorFactory.sol\":447:452  clone */\n      dup3\n        /* \"TwoFactorFactory.sol\":443:459  add(clone, 0x14) */\n      add\n        /* \"TwoFactorFactory.sol\":436:473  mstore(add(clone, 0x14), targetBytes) */\n      mstore\n        /* \"TwoFactorFactory.sol\":544:610  0x5af43d82803e903d91602b57fd5bf30000000000000000000000000000000000 */\n      0x5af43d82803e903d91602b57fd5bf30000000000000000000000000000000000\n        /* \"TwoFactorFactory.sol\":521:525  0x28 */\n      0x28\n        /* \"TwoFactorFactory.sol\":514:519  clone */\n      dup3\n        /* \"TwoFactorFactory.sol\":510:526  add(clone, 0x28) */\n      add\n        /* \"TwoFactorFactory.sol\":486:624  mstore(... */\n      mstore\n        /* \"TwoFactorFactory.sol\":664:668  0x37 */\n      0x37\n        /* \"TwoFactorFactory.sol\":657:662  clone */\n      dup2\n        /* \"TwoFactorFactory.sol\":654:655  0 */\n      0x00\n        /* \"TwoFactorFactory.sol\":647:669  create(0, clone, 0x37) */\n      create\n        /* \"TwoFactorFactory.sol\":637:669  result := create(0, clone, 0x37) */\n      swap3\n      pop\n        /* \"TwoFactorFactory.sol\":245:679  {... */\n      pop\n      pop\n        /* \"TwoFactorFactory.sol\":108:685  function createClone(address target) internal returns (address result) {... */\n      swap2\n      swap1\n      pop\n      jump\t// out\n        /* \"#utility.yul\":7:146   */\n    tag_68:\n        /* \"#utility.yul\":53:58   */\n      0x00\n        /* \"#utility.yul\":91:97   */\n      dup2\n        /* \"#utility.yul\":78:98   */\n      calldataload\n        /* \"#utility.yul\":69:98   */\n      swap1\n      pop\n        /* \"#utility.yul\":107:140   */\n      tag_70\n        /* \"#utility.yul\":134:139   */\n      dup2\n        /* \"#utility.yul\":107:140   */\n      tag_71\n      jump\t// in\n    tag_70:\n        /* \"#utility.yul\":7:146   */\n      swap3\n      swap2\n      pop\n      pop\n      jump\t// out\n        /* \"#utility.yul\":152:291   */\n    tag_72:\n        /* \"#utility.yul\":198:203   */\n      0x00\n        /* \"#utility.yul\":236:242   */\n      dup2\n        /* \"#utility.yul\":223:243   */\n      calldataload\n        /* \"#utility.yul\":214:243   */\n      swap1\n      pop\n        /* \"#utility.yul\":252:285   */\n      tag_74\n        /* \"#utility.yul\":279:284   */\n      dup2\n        /* \"#utility.yul\":252:285   */\n      tag_75\n      jump\t// in\n    tag_74:\n        /* \"#utility.yul\":152:291   */\n      swap3\n      swap2\n      pop\n      pop\n      jump\t// out\n        /* \"#utility.yul\":297:626   */\n    tag_11:\n        /* \"#utility.yul\":356:362   */\n      0x00\n        /* \"#utility.yul\":405:407   */\n      0x20\n        /* \"#utility.yul\":393:402   */\n      dup3\n        /* \"#utility.yul\":384:391   */\n      dup5\n        /* \"#utility.yul\":380:403   */\n      sub\n        /* \"#utility.yul\":376:408   */\n      slt\n        /* \"#utility.yul\":373:492   */\n      iszero\n      tag_77\n      jumpi\n        /* \"#utility.yul\":411:490   */\n      tag_78\n      tag_79\n      jump\t// in\n    tag_78:\n        /* \"#utility.yul\":373:492   */\n    tag_77:\n        /* \"#utility.yul\":531:532   */\n      0x00\n        /* \"#utility.yul\":556:609   */\n      tag_80\n        /* \"#utility.yul\":601:608   */\n      dup5\n        /* \"#utility.yul\":592:598   */\n      dup3\n        /* \"#utility.yul\":581:590   */\n      dup6\n        /* \"#utility.yul\":577:599   */\n      add\n        /* \"#utility.yul\":556:609   */\n      tag_68\n      jump\t// in\n    tag_80:\n        /* \"#utility.yul\":546:609   */\n      swap2\n      pop\n        /* \"#utility.yul\":502:619   */\n      pop\n        /* \"#utility.yul\":297:626   */\n      swap3\n      swap2\n      pop\n      pop\n      jump\t// out\n        /* \"#utility.yul\":632:1106   */\n    tag_27:\n        /* \"#utility.yul\":700:706   */\n      0x00\n        /* \"#utility.yul\":708:714   */\n      dup1\n        /* \"#utility.yul\":757:759   */\n      0x40\n        /* \"#utility.yul\":745:754   */\n      dup4\n        /* \"#utility.yul\":736:743   */\n      dup6\n        /* \"#utility.yul\":732:755   */\n      sub\n        /* \"#utility.yul\":728:760   */\n      slt\n        /* \"#utility.yul\":725:844   */\n      iszero\n      tag_82\n      jumpi\n        /* \"#utility.yul\":763:842   */\n      tag_83\n      tag_79\n      jump\t// in\n    tag_83:\n        /* \"#utility.yul\":725:844   */\n    tag_82:\n        /* \"#utility.yul\":883:884   */\n      0x00\n        /* \"#utility.yul\":908:961   */\n      tag_84\n        /* \"#utility.yul\":953:960   */\n      dup6\n        /* \"#utility.yul\":944:950   */\n      dup3\n        /* \"#utility.yul\":933:942   */\n      dup7\n        /* \"#utility.yul\":929:951   */\n      add\n        /* \"#utility.yul\":908:961   */\n      tag_68\n      jump\t// in\n    tag_84:\n        /* \"#utility.yul\":898:961   */\n      swap3\n      pop\n        /* \"#utility.yul\":854:971   */\n      pop\n        /* \"#utility.yul\":1010:1012   */\n      0x20\n        /* \"#utility.yul\":1036:1089   */\n      tag_85\n        /* \"#utility.yul\":1081:1088   */\n      dup6\n        /* \"#utility.yul\":1072:1078   */\n      dup3\n        /* \"#utility.yul\":1061:1070   */\n      dup7\n        /* \"#utility.yul\":1057:1079   */\n      add\n        /* \"#utility.yul\":1036:1089   */\n      tag_72\n      jump\t// in\n    tag_85:\n        /* \"#utility.yul\":1026:1089   */\n      swap2\n      pop\n        /* \"#utility.yul\":981:1099   */\n      pop\n        /* \"#utility.yul\":632:1106   */\n      swap3\n      pop\n      swap3\n      swap1\n      pop\n      jump\t// out\n        /* \"#utility.yul\":1112:1230   */\n    tag_86:\n        /* \"#utility.yul\":1199:1223   */\n      tag_88\n        /* \"#utility.yul\":1217:1222   */\n      dup2\n        /* \"#utility.yul\":1199:1223   */\n      tag_89\n      jump\t// in\n    tag_88:\n        /* \"#utility.yul\":1194:1197   */\n      dup3\n        /* \"#utility.yul\":1187:1224   */\n      mstore\n        /* \"#utility.yul\":1112:1230   */\n      pop\n      pop\n      jump\t// out\n        /* \"#utility.yul\":1236:1354   */\n    tag_90:\n        /* \"#utility.yul\":1323:1347   */\n      tag_92\n        /* \"#utility.yul\":1341:1346   */\n      dup2\n        /* \"#utility.yul\":1323:1347   */\n      tag_93\n      jump\t// in\n    tag_92:\n        /* \"#utility.yul\":1318:1321   */\n      dup3\n        /* \"#utility.yul\":1311:1348   */\n      mstore\n        /* \"#utility.yul\":1236:1354   */\n      pop\n      pop\n      jump\t// out\n        /* \"#utility.yul\":1360:1726   */\n    tag_94:\n        /* \"#utility.yul\":1502:1505   */\n      0x00\n        /* \"#utility.yul\":1523:1590   */\n      tag_96\n        /* \"#utility.yul\":1587:1589   */\n      0x33\n        /* \"#utility.yul\":1582:1585   */\n      dup4\n        /* \"#utility.yul\":1523:1590   */\n      tag_97\n      jump\t// in\n    tag_96:\n        /* \"#utility.yul\":1516:1590   */\n      swap2\n      pop\n        /* \"#utility.yul\":1599:1692   */\n      tag_98\n        /* \"#utility.yul\":1688:1691   */\n      dup3\n        /* \"#utility.yul\":1599:1692   */\n      tag_99\n      jump\t// in\n    tag_98:\n        /* \"#utility.yul\":1717:1719   */\n      0x40\n        /* \"#utility.yul\":1712:1715   */\n      dup3\n        /* \"#utility.yul\":1708:1720   */\n      add\n        /* \"#utility.yul\":1701:1720   */\n      swap1\n      pop\n        /* \"#utility.yul\":1360:1726   */\n      swap2\n      swap1\n      pop\n      jump\t// out\n        /* \"#utility.yul\":1732:2098   */\n    tag_100:\n        /* \"#utility.yul\":1874:1877   */\n      0x00\n        /* \"#utility.yul\":1895:1962   */\n      tag_102\n        /* \"#utility.yul\":1959:1961   */\n      0x1d\n        /* \"#utility.yul\":1954:1957   */\n      dup4\n        /* \"#utility.yul\":1895:1962   */\n      tag_97\n      jump\t// in\n    tag_102:\n        /* \"#utility.yul\":1888:1962   */\n      swap2\n      pop\n        /* \"#utility.yul\":1971:2064   */\n      tag_103\n        /* \"#utility.yul\":2060:2063   */\n      dup3\n        /* \"#utility.yul\":1971:2064   */\n      tag_104\n      jump\t// in\n    tag_103:\n        /* \"#utility.yul\":2089:2091   */\n      0x20\n        /* \"#utility.yul\":2084:2087   */\n      dup3\n        /* \"#utility.yul\":2080:2092   */\n      add\n        /* \"#utility.yul\":2073:2092   */\n      swap1\n      pop\n        /* \"#utility.yul\":1732:2098   */\n      swap2\n      swap1\n      pop\n      jump\t// out\n        /* \"#utility.yul\":2104:2470   */\n    tag_105:\n        /* \"#utility.yul\":2246:2249   */\n      0x00\n        /* \"#utility.yul\":2267:2334   */\n      tag_107\n        /* \"#utility.yul\":2331:2333   */\n      0x20\n        /* \"#utility.yul\":2326:2329   */\n      dup4\n        /* \"#utility.yul\":2267:2334   */\n      tag_97\n      jump\t// in\n    tag_107:\n        /* \"#utility.yul\":2260:2334   */\n      swap2\n      pop\n        /* \"#utility.yul\":2343:2436   */\n      tag_108\n        /* \"#utility.yul\":2432:2435   */\n      dup3\n        /* \"#utility.yul\":2343:2436   */\n      tag_109\n      jump\t// in\n    tag_108:\n        /* \"#utility.yul\":2461:2463   */\n      0x20\n        /* \"#utility.yul\":2456:2459   */\n      dup3\n        /* \"#utility.yul\":2452:2464   */\n      add\n        /* \"#utility.yul\":2445:2464   */\n      swap1\n      pop\n        /* \"#utility.yul\":2104:2470   */\n      swap2\n      swap1\n      pop\n      jump\t// out\n        /* \"#utility.yul\":2476:2842   */\n    tag_110:\n        /* \"#utility.yul\":2618:2621   */\n      0x00\n        /* \"#utility.yul\":2639:2706   */\n      tag_112\n        /* \"#utility.yul\":2703:2705   */\n      0x25\n        /* \"#utility.yul\":2698:2701   */\n      dup4\n        /* \"#utility.yul\":2639:2706   */\n      tag_97\n      jump\t// in\n    tag_112:\n        /* \"#utility.yul\":2632:2706   */\n      swap2\n      pop\n        /* \"#utility.yul\":2715:2808   */\n      tag_113\n        /* \"#utility.yul\":2804:2807   */\n      dup3\n        /* \"#utility.yul\":2715:2808   */\n      tag_114\n      jump\t// in\n    tag_113:\n        /* \"#utility.yul\":2833:2835   */\n      0x40\n        /* \"#utility.yul\":2828:2831   */\n      dup3\n        /* \"#utility.yul\":2824:2836   */\n      add\n        /* \"#utility.yul\":2817:2836   */\n      swap1\n      pop\n        /* \"#utility.yul\":2476:2842   */\n      swap2\n      swap1\n      pop\n      jump\t// out\n        /* \"#utility.yul\":2848:3214   */\n    tag_115:\n        /* \"#utility.yul\":2990:2993   */\n      0x00\n        /* \"#utility.yul\":3011:3078   */\n      tag_117\n        /* \"#utility.yul\":3075:3077   */\n      0x26\n        /* \"#utility.yul\":3070:3073   */\n      dup4\n        /* \"#utility.yul\":3011:3078   */\n      tag_97\n      jump\t// in\n    tag_117:\n        /* \"#utility.yul\":3004:3078   */\n      swap2\n      pop\n        /* \"#utility.yul\":3087:3180   */\n      tag_118\n        /* \"#utility.yul\":3176:3179   */\n      dup3\n        /* \"#utility.yul\":3087:3180   */\n      tag_119\n      jump\t// in\n    tag_118:\n        /* \"#utility.yul\":3205:3207   */\n      0x40\n        /* \"#utility.yul\":3200:3203   */\n      dup3\n        /* \"#utility.yul\":3196:3208   */\n      add\n        /* \"#utility.yul\":3189:3208   */\n      swap1\n      pop\n        /* \"#utility.yul\":2848:3214   */\n      swap2\n      swap1\n      pop\n      jump\t// out\n        /* \"#utility.yul\":3220:3442   */\n    tag_14:\n        /* \"#utility.yul\":3313:3317   */\n      0x00\n        /* \"#utility.yul\":3351:3353   */\n      0x20\n        /* \"#utility.yul\":3340:3349   */\n      dup3\n        /* \"#utility.yul\":3336:3354   */\n      add\n        /* \"#utility.yul\":3328:3354   */\n      swap1\n      pop\n        /* \"#utility.yul\":3364:3435   */\n      tag_121\n        /* \"#utility.yul\":3432:3433   */\n      0x00\n        /* \"#utility.yul\":3421:3430   */\n      dup4\n        /* \"#utility.yul\":3417:3434   */\n      add\n        /* \"#utility.yul\":3408:3414   */\n      dup5\n        /* \"#utility.yul\":3364:3435   */\n      tag_86\n      jump\t// in\n    tag_121:\n        /* \"#utility.yul\":3220:3442   */\n      swap3\n      swap2\n      pop\n      pop\n      jump\t// out\n        /* \"#utility.yul\":3448:3890   */\n    tag_60:\n        /* \"#utility.yul\":3597:3601   */\n      0x00\n        /* \"#utility.yul\":3635:3637   */\n      0x60\n        /* \"#utility.yul\":3624:3633   */\n      dup3\n        /* \"#utility.yul\":3620:3638   */\n      add\n        /* \"#utility.yul\":3612:3638   */\n      swap1\n      pop\n        /* \"#utility.yul\":3648:3719   */\n      tag_123\n        /* \"#utility.yul\":3716:3717   */\n      0x00\n        /* \"#utility.yul\":3705:3714   */\n      dup4\n        /* \"#utility.yul\":3701:3718   */\n      add\n        /* \"#utility.yul\":3692:3698   */\n      dup7\n        /* \"#utility.yul\":3648:3719   */\n      tag_86\n      jump\t// in\n    tag_123:\n        /* \"#utility.yul\":3729:3801   */\n      tag_124\n        /* \"#utility.yul\":3797:3799   */\n      0x20\n        /* \"#utility.yul\":3786:3795   */\n      dup4\n        /* \"#utility.yul\":3782:3800   */\n      add\n        /* \"#utility.yul\":3773:3779   */\n      dup6\n        /* \"#utility.yul\":3729:3801   */\n      tag_86\n      jump\t// in\n    tag_124:\n        /* \"#utility.yul\":3811:3883   */\n      tag_125\n        /* \"#utility.yul\":3879:3881   */\n      0x40\n        /* \"#utility.yul\":3868:3877   */\n      dup4\n        /* \"#utility.yul\":3864:3882   */\n      add\n        /* \"#utility.yul\":3855:3861   */\n      dup5\n        /* \"#utility.yul\":3811:3883   */\n      tag_90\n      jump\t// in\n    tag_125:\n        /* \"#utility.yul\":3448:3890   */\n      swap5\n      swap4\n      pop\n      pop\n      pop\n      pop\n      jump\t// out\n        /* \"#utility.yul\":3896:4315   */\n    tag_53:\n        /* \"#utility.yul\":4062:4066   */\n      0x00\n        /* \"#utility.yul\":4100:4102   */\n      0x20\n        /* \"#utility.yul\":4089:4098   */\n      dup3\n        /* \"#utility.yul\":4085:4103   */\n      add\n        /* \"#utility.yul\":4077:4103   */\n      swap1\n      pop\n        /* \"#utility.yul\":4149:4158   */\n      dup2\n        /* \"#utility.yul\":4143:4147   */\n      dup2\n        /* \"#utility.yul\":4139:4159   */\n      sub\n        /* \"#utility.yul\":4135:4136   */\n      0x00\n        /* \"#utility.yul\":4124:4133   */\n      dup4\n        /* \"#utility.yul\":4120:4137   */\n      add\n        /* \"#utility.yul\":4113:4160   */\n      mstore\n        /* \"#utility.yul\":4177:4308   */\n      tag_127\n        /* \"#utility.yul\":4303:4307   */\n      dup2\n        /* \"#utility.yul\":4177:4308   */\n      tag_94\n      jump\t// in\n    tag_127:\n        /* \"#utility.yul\":4169:4308   */\n      swap1\n      pop\n        /* \"#utility.yul\":3896:4315   */\n      swap2\n      swap1\n      pop\n      jump\t// out\n        /* \"#utility.yul\":4321:4740   */\n    tag_56:\n        /* \"#utility.yul\":4487:4491   */\n      0x00\n        /* \"#utility.yul\":4525:4527   */\n      0x20\n        /* \"#utility.yul\":4514:4523   */\n      dup3\n        /* \"#utility.yul\":4510:4528   */\n      add\n        /* \"#utility.yul\":4502:4528   */\n      swap1\n      pop\n        /* \"#utility.yul\":4574:4583   */\n      dup2\n        /* \"#utility.yul\":4568:4572   */\n      dup2\n        /* \"#utility.yul\":4564:4584   */\n      sub\n        /* \"#utility.yul\":4560:4561   */\n      0x00\n        /* \"#utility.yul\":4549:4558   */\n      dup4\n        /* \"#utility.yul\":4545:4562   */\n      add\n        /* \"#utility.yul\":4538:4585   */\n      mstore\n        /* \"#utility.yul\":4602:4733   */\n      tag_129\n        /* \"#utility.yul\":4728:4732   */\n      dup2\n        /* \"#utility.yul\":4602:4733   */\n      tag_100\n      jump\t// in\n    tag_129:\n        /* \"#utility.yul\":4594:4733   */\n      swap1\n      pop\n        /* \"#utility.yul\":4321:4740   */\n      swap2\n      swap1\n      pop\n      jump\t// out\n        /* \"#utility.yul\":4746:5165   */\n    tag_35:\n        /* \"#utility.yul\":4912:4916   */\n      0x00\n        /* \"#utility.yul\":4950:4952   */\n      0x20\n        /* \"#utility.yul\":4939:4948   */\n      dup3\n        /* \"#utility.yul\":4935:4953   */\n      add\n        /* \"#utility.yul\":4927:4953   */\n      swap1\n      pop\n        /* \"#utility.yul\":4999:5008   */\n      dup2\n        /* \"#utility.yul\":4993:4997   */\n      dup2\n        /* \"#utility.yul\":4989:5009   */\n      sub\n        /* \"#utility.yul\":4985:4986   */\n      0x00\n        /* \"#utility.yul\":4974:4983   */\n      dup4\n        /* \"#utility.yul\":4970:4987   */\n      add\n        /* \"#utility.yul\":4963:5010   */\n      mstore\n        /* \"#utility.yul\":5027:5158   */\n      tag_131\n        /* \"#utility.yul\":5153:5157   */\n      dup2\n        /* \"#utility.yul\":5027:5158   */\n      tag_105\n      jump\t// in\n    tag_131:\n        /* \"#utility.yul\":5019:5158   */\n      swap1\n      pop\n        /* \"#utility.yul\":4746:5165   */\n      swap2\n      swap1\n      pop\n      jump\t// out\n        /* \"#utility.yul\":5171:5590   */\n    tag_49:\n        /* \"#utility.yul\":5337:5341   */\n      0x00\n        /* \"#utility.yul\":5375:5377   */\n      0x20\n        /* \"#utility.yul\":5364:5373   */\n      dup3\n        /* \"#utility.yul\":5360:5378   */\n      add\n        /* \"#utility.yul\":5352:5378   */\n      swap1\n      pop\n        /* \"#utility.yul\":5424:5433   */\n      dup2\n        /* \"#utility.yul\":5418:5422   */\n      dup2\n        /* \"#utility.yul\":5414:5434   */\n      sub\n        /* \"#utility.yul\":5410:5411   */\n      0x00\n        /* \"#utility.yul\":5399:5408   */\n      dup4\n        /* \"#utility.yul\":5395:5412   */\n      add\n        /* \"#utility.yul\":5388:5435   */\n      mstore\n        /* \"#utility.yul\":5452:5583   */\n      tag_133\n        /* \"#utility.yul\":5578:5582   */\n      dup2\n        /* \"#utility.yul\":5452:5583   */\n      tag_110\n      jump\t// in\n    tag_133:\n        /* \"#utility.yul\":5444:5583   */\n      swap1\n      pop\n        /* \"#utility.yul\":5171:5590   */\n      swap2\n      swap1\n      pop\n      jump\t// out\n        /* \"#utility.yul\":5596:6015   */\n    tag_39:\n        /* \"#utility.yul\":5762:5766   */\n      0x00\n        /* \"#utility.yul\":5800:5802   */\n      0x20\n        /* \"#utility.yul\":5789:5798   */\n      dup3\n        /* \"#utility.yul\":5785:5803   */\n      add\n        /* \"#utility.yul\":5777:5803   */\n      swap1\n      pop\n        /* \"#utility.yul\":5849:5858   */\n      dup2\n        /* \"#utility.yul\":5843:5847   */\n      dup2\n        /* \"#utility.yul\":5839:5859   */\n      sub\n        /* \"#utility.yul\":5835:5836   */\n      0x00\n        /* \"#utility.yul\":5824:5833   */\n      dup4\n        /* \"#utility.yul\":5820:5837   */\n      add\n        /* \"#utility.yul\":5813:5860   */\n      mstore\n        /* \"#utility.yul\":5877:6008   */\n      tag_135\n        /* \"#utility.yul\":6003:6007   */\n      dup2\n        /* \"#utility.yul\":5877:6008   */\n      tag_115\n      jump\t// in\n    tag_135:\n        /* \"#utility.yul\":5869:6008   */\n      swap1\n      pop\n        /* \"#utility.yul\":5596:6015   */\n      swap2\n      swap1\n      pop\n      jump\t// out\n        /* \"#utility.yul\":6102:6271   */\n    tag_97:\n        /* \"#utility.yul\":6186:6197   */\n      0x00\n        /* \"#utility.yul\":6220:6226   */\n      dup3\n        /* \"#utility.yul\":6215:6218   */\n      dup3\n        /* \"#utility.yul\":6208:6227   */\n      mstore\n        /* \"#utility.yul\":6260:6264   */\n      0x20\n        /* \"#utility.yul\":6255:6258   */\n      dup3\n        /* \"#utility.yul\":6251:6265   */\n      add\n        /* \"#utility.yul\":6236:6265   */\n      swap1\n      pop\n        /* \"#utility.yul\":6102:6271   */\n      swap3\n      swap2\n      pop\n      pop\n      jump\t// out\n        /* \"#utility.yul\":6277:6373   */\n    tag_89:\n        /* \"#utility.yul\":6314:6321   */\n      0x00\n        /* \"#utility.yul\":6343:6367   */\n      tag_140\n        /* \"#utility.yul\":6361:6366   */\n      dup3\n        /* \"#utility.yul\":6343:6367   */\n      tag_141\n      jump\t// in\n    tag_140:\n        /* \"#utility.yul\":6332:6367   */\n      swap1\n      pop\n        /* \"#utility.yul\":6277:6373   */\n      swap2\n      swap1\n      pop\n      jump\t// out\n        /* \"#utility.yul\":6379:6456   */\n    tag_93:\n        /* \"#utility.yul\":6416:6423   */\n      0x00\n        /* \"#utility.yul\":6445:6450   */\n      dup2\n        /* \"#utility.yul\":6434:6450   */\n      swap1\n      pop\n        /* \"#utility.yul\":6379:6456   */\n      swap2\n      swap1\n      pop\n      jump\t// out\n        /* \"#utility.yul\":6462:6588   */\n    tag_141:\n        /* \"#utility.yul\":6499:6506   */\n      0x00\n        /* \"#utility.yul\":6539:6581   */\n      0xffffffffffffffffffffffffffffffffffffffff\n        /* \"#utility.yul\":6532:6537   */\n      dup3\n        /* \"#utility.yul\":6528:6582   */\n      and\n        /* \"#utility.yul\":6517:6582   */\n      swap1\n      pop\n        /* \"#utility.yul\":6462:6588   */\n      swap2\n      swap1\n      pop\n      jump\t// out\n        /* \"#utility.yul\":6717:6834   */\n    tag_79:\n        /* \"#utility.yul\":6826:6827   */\n      0x00\n        /* \"#utility.yul\":6823:6824   */\n      dup1\n        /* \"#utility.yul\":6816:6828   */\n      revert\n        /* \"#utility.yul\":6840:7078   */\n    tag_99:\n        /* \"#utility.yul\":6980:7014   */\n      0x4372656174696e672054776f466163746f72207661756c747320686173206265\n        /* \"#utility.yul\":6976:6977   */\n      0x00\n        /* \"#utility.yul\":6968:6974   */\n      dup3\n        /* \"#utility.yul\":6964:6978   */\n      add\n        /* \"#utility.yul\":6957:7015   */\n      mstore\n        /* \"#utility.yul\":7049:7070   */\n      0x656e2064697361626c656420666f72206e6f7700000000000000000000000000\n        /* \"#utility.yul\":7044:7046   */\n      0x20\n        /* \"#utility.yul\":7036:7042   */\n      dup3\n        /* \"#utility.yul\":7032:7047   */\n      add\n        /* \"#utility.yul\":7025:7071   */\n      mstore\n        /* \"#utility.yul\":6840:7078   */\n      pop\n      jump\t// out\n        /* \"#utility.yul\":7084:7263   */\n    tag_104:\n        /* \"#utility.yul\":7224:7255   */\n      0x5661756c7420616c72656164792065786973747320666f722075736572000000\n        /* \"#utility.yul\":7220:7221   */\n      0x00\n        /* \"#utility.yul\":7212:7218   */\n      dup3\n        /* \"#utility.yul\":7208:7222   */\n      add\n        /* \"#utility.yul\":7201:7256   */\n      mstore\n        /* \"#utility.yul\":7084:7263   */\n      pop\n      jump\t// out\n        /* \"#utility.yul\":7269:7451   */\n    tag_109:\n        /* \"#utility.yul\":7409:7443   */\n      0x4f776e61626c653a2063616c6c6572206973206e6f7420746865206f776e6572\n        /* \"#utility.yul\":7405:7406   */\n      0x00\n        /* \"#utility.yul\":7397:7403   */\n      dup3\n        /* \"#utility.yul\":7393:7407   */\n      add\n        /* \"#utility.yul\":7386:7444   */\n      mstore\n        /* \"#utility.yul\":7269:7451   */\n      pop\n      jump\t// out\n        /* \"#utility.yul\":7457:7681   */\n    tag_114:\n        /* \"#utility.yul\":7597:7631   */\n      0x54776f466163746f722070726f64756374696f6e20616c726561647920676f69\n        /* \"#utility.yul\":7593:7594   */\n      0x00\n        /* \"#utility.yul\":7585:7591   */\n      dup3\n        /* \"#utility.yul\":7581:7595   */\n      add\n        /* \"#utility.yul\":7574:7632   */\n      mstore\n        /* \"#utility.yul\":7666:7673   */\n      0x6e67206f6e000000000000000000000000000000000000000000000000000000\n        /* \"#utility.yul\":7661:7663   */\n      0x20\n        /* \"#utility.yul\":7653:7659   */\n      dup3\n        /* \"#utility.yul\":7649:7664   */\n      add\n        /* \"#utility.yul\":7642:7674   */\n      mstore\n        /* \"#utility.yul\":7457:7681   */\n      pop\n      jump\t// out\n        /* \"#utility.yul\":7687:7912   */\n    tag_119:\n        /* \"#utility.yul\":7827:7861   */\n      0x54776f466163746f722070726f64756374696f6e20697320616c726561647920\n        /* \"#utility.yul\":7823:7824   */\n      0x00\n        /* \"#utility.yul\":7815:7821   */\n      dup3\n        /* \"#utility.yul\":7811:7825   */\n      add\n        /* \"#utility.yul\":7804:7862   */\n      mstore\n        /* \"#utility.yul\":7896:7904   */\n      0x7061757365640000000000000000000000000000000000000000000000000000\n        /* \"#utility.yul\":7891:7893   */\n      0x20\n        /* \"#utility.yul\":7883:7889   */\n      dup3\n        /* \"#utility.yul\":7879:7894   */\n      add\n        /* \"#utility.yul\":7872:7905   */\n      mstore\n        /* \"#utility.yul\":7687:7912   */\n      pop\n      jump\t// out\n        /* \"#utility.yul\":7918:8040   */\n    tag_71:\n        /* \"#utility.yul\":7991:8015   */\n      tag_153\n        /* \"#utility.yul\":8009:8014   */\n      dup2\n        /* \"#utility.yul\":7991:8015   */\n      tag_89\n      jump\t// in\n    tag_153:\n        /* \"#utility.yul\":7984:7989   */\n      dup2\n        /* \"#utility.yul\":7981:8016   */\n      eq\n        /* \"#utility.yul\":7971:8034   */\n      tag_154\n      jumpi\n        /* \"#utility.yul\":8030:8031   */\n      0x00\n        /* \"#utility.yul\":8027:8028   */\n      dup1\n        /* \"#utility.yul\":8020:8032   */\n      revert\n        /* \"#utility.yul\":7971:8034   */\n    tag_154:\n        /* \"#utility.yul\":7918:8040   */\n      pop\n      jump\t// out\n        /* \"#utility.yul\":8046:8168   */\n    tag_75:\n        /* \"#utility.yul\":8119:8143   */\n      tag_156\n        /* \"#utility.yul\":8137:8142   */\n      dup2\n        /* \"#utility.yul\":8119:8143   */\n      tag_93\n      jump\t// in\n    tag_156:\n        /* \"#utility.yul\":8112:8117   */\n      dup2\n        /* \"#utility.yul\":8109:8144   */\n      eq\n        /* \"#utility.yul\":8099:8162   */\n      tag_157\n      jumpi\n        /* \"#utility.yul\":8158:8159   */\n      0x00\n        /* \"#utility.yul\":8155:8156   */\n      dup1\n        /* \"#utility.yul\":8148:8160   */\n      revert\n        /* \"#utility.yul\":8099:8162   */\n    tag_157:\n        /* \"#utility.yul\":8046:8168   */\n      pop\n      jump\t// out\n\n    auxdata: 0xa2646970667358221220ac417c8c0badb668eac9fc3645e187e6808626343b15e58e426cc1c156e1313564736f6c63430008070033\n}\n",
				"bytecode": {
					"linkReferences": {},
					"object": "608060405260018060146101000a81548160ff0219169083151502179055503480156200002b57600080fd5b5060405162000dc238038062000dc283398181016040528101906200005191906200020f565b62000071620000656200012c60201b60201c565b6200013460201b60201c565b600073ffffffffffffffffffffffffffffffffffffffff168173ffffffffffffffffffffffffffffffffffffffff161415620000e4576040517f08c379a0000000000000000000000000000000000000000000000000000000008152600401620000db9062000268565b60405180910390fd5b80600160006101000a81548173ffffffffffffffffffffffffffffffffffffffff021916908373ffffffffffffffffffffffffffffffffffffffff1602179055505062000317565b600033905090565b60008060009054906101000a900473ffffffffffffffffffffffffffffffffffffffff169050816000806101000a81548173ffffffffffffffffffffffffffffffffffffffff021916908373ffffffffffffffffffffffffffffffffffffffff1602179055508173ffffffffffffffffffffffffffffffffffffffff168173ffffffffffffffffffffffffffffffffffffffff167f8be0079c531659141344cd1fd0a4f28419497f9722a3daafe3b4186f6b6457e060405160405180910390a35050565b6000815190506200020981620002fd565b92915050565b600060208284031215620002285762000227620002cf565b5b60006200023884828501620001f8565b91505092915050565b6000620002506017836200028a565b91506200025d82620002d4565b602082019050919050565b60006020820190508181036000830152620002838162000241565b9050919050565b600082825260208201905092915050565b6000620002a882620002af565b9050919050565b600073ffffffffffffffffffffffffffffffffffffffff82169050919050565b600080fd5b7f416464726573732063616e206e6f74206265207a65726f000000000000000000600082015250565b62000308816200029b565b81146200031457600080fd5b50565b610a9b80620003276000396000f3fe608060405234801561001057600080fd5b50600436106100625760003560e01c806323eaf1391461006757806358a259c1146100975780637210868e146100a15780638da5cb5b146100bf578063906b0603146100dd57806391b10cfc146100e7575b600080fd5b610081600480360381019061007c919061067a565b610103565b60405161008e91906107b4565b60405180910390f35b61009f610136565b005b6100a9610225565b6040516100b691906107b4565b60405180910390f35b6100c761024b565b6040516100d491906107b4565b60405180910390f35b6100e5610274565b005b61010160048036038101906100fc91906106a7565b610362565b005b60026020528060005260406000206000915054906101000a900473ffffffffffffffffffffffffffffffffffffffff1681565b61013e6105de565b73ffffffffffffffffffffffffffffffffffffffff1661015c61024b565b73ffffffffffffffffffffffffffffffffffffffff16146101b2576040517f08c379a00000000000000000000000000000000000000000000000000000000081526004016101a990610846565b60405180910390fd5b60011515600160149054906101000a900460ff16151514610208576040517f08c379a00000000000000000000000000000000000000000000000000000000081526004016101ff90610886565b60405180910390fd5b6000600160146101000a81548160ff021916908315150217905550565b600160009054906101000a900473ffffffffffffffffffffffffffffffffffffffff1681565b60008060009054906101000a900473ffffffffffffffffffffffffffffffffffffffff16905090565b61027c6105de565b73ffffffffffffffffffffffffffffffffffffffff1661029a61024b565b73ffffffffffffffffffffffffffffffffffffffff16146102f0576040517f08c379a00000000000000000000000000000000000000000000000000000000081526004016102e790610846565b60405180910390fd5b60001515600160149054906101000a900460ff16151514610346576040517f08c379a000000000000000000000000000000000000000000000000000000000815260040161033d90610866565b60405180910390fd5b60018060146101000a81548160ff021916908315150217905550565b60011515600160149054906101000a900460ff161515146103b8576040517f08c379a00000000000000000000000000000000000000000000000000000000081526004016103af90610806565b60405180910390fd5b600073ffffffffffffffffffffffffffffffffffffffff16600260003373ffffffffffffffffffffffffffffffffffffffff1673ffffffffffffffffffffffffffffffffffffffff16815260200190815260200160002060009054906101000a900473ffffffffffffffffffffffffffffffffffffffff1673ffffffffffffffffffffffffffffffffffffffff1614610486576040517f08c379a000000000000000000000000000000000000000000000000000000000815260040161047d90610826565b60405180910390fd5b60006104b3600160009054906101000a900473ffffffffffffffffffffffffffffffffffffffff166105e6565b90508073ffffffffffffffffffffffffffffffffffffffff1663347258aa3385856040518463ffffffff1660e01b81526004016104f2939291906107cf565b600060405180830381600087803b15801561050c57600080fd5b505af1158015610520573d6000803e3d6000fd5b5050505080600260003373ffffffffffffffffffffffffffffffffffffffff1673ffffffffffffffffffffffffffffffffffffffff16815260200190815260200160002060006101000a81548173ffffffffffffffffffffffffffffffffffffffff021916908373ffffffffffffffffffffffffffffffffffffffff1602179055507fecbdf26f66662df01408fec00cac8301b9178bed8605838f8ff36e3d65c61b9f816040516105d191906107b4565b60405180910390a1505050565b600033905090565b6000808260601b90506040517f3d602d80600a3d3981f3363d3d373d3d3d363d7300000000000000000000000081528160148201527f5af43d82803e903d91602b57fd5bf3000000000000000000000000000000000060288201526037816000f092505050919050565b60008135905061065f81610a37565b92915050565b60008135905061067481610a4e565b92915050565b6000602082840312156106905761068f6108f3565b5b600061069e84828501610650565b91505092915050565b600080604083850312156106be576106bd6108f3565b5b60006106cc85828601610650565b92505060206106dd85828601610665565b9150509250929050565b6106f0816108b7565b82525050565b6106ff816108c9565b82525050565b60006107126033836108a6565b915061071d826108f8565b604082019050919050565b6000610735601d836108a6565b915061074082610947565b602082019050919050565b60006107586020836108a6565b915061076382610970565b602082019050919050565b600061077b6025836108a6565b915061078682610999565b604082019050919050565b600061079e6026836108a6565b91506107a9826109e8565b604082019050919050565b60006020820190506107c960008301846106e7565b92915050565b60006060820190506107e460008301866106e7565b6107f160208301856106e7565b6107fe60408301846106f6565b949350505050565b6000602082019050818103600083015261081f81610705565b9050919050565b6000602082019050818103600083015261083f81610728565b9050919050565b6000602082019050818103600083015261085f8161074b565b9050919050565b6000602082019050818103600083015261087f8161076e565b9050919050565b6000602082019050818103600083015261089f81610791565b9050919050565b600082825260208201905092915050565b60006108c2826108d3565b9050919050565b6000819050919050565b600073ffffffffffffffffffffffffffffffffffffffff82169050919050565b600080fd5b7f4372656174696e672054776f466163746f72207661756c74732068617320626560008201527f656e2064697361626c656420666f72206e6f7700000000000000000000000000602082015250565b7f5661756c7420616c72656164792065786973747320666f722075736572000000600082015250565b7f4f776e61626c653a2063616c6c6572206973206e6f7420746865206f776e6572600082015250565b7f54776f466163746f722070726f64756374696f6e20616c726561647920676f6960008201527f6e67206f6e000000000000000000000000000000000000000000000000000000602082015250565b7f54776f466163746f722070726f64756374696f6e20697320616c72656164792060008201527f7061757365640000000000000000000000000000000000000000000000000000602082015250565b610a40816108b7565b8114610a4b57600080fd5b50565b610a57816108c9565b8114610a6257600080fd5b5056fea2646970667358221220ac417c8c0badb668eac9fc3645e187e6808626343b15e58e426cc1c156e1313564736f6c63430008070033",
					"opcodes": "PUSH1 0x80 PUSH1 0x40 MSTORE PUSH1 0x1 DUP1 PUSH1 0x14 PUSH2 0x100 EXP DUP2 SLOAD DUP2 PUSH1 0xFF MUL NOT AND SWAP1 DUP4 ISZERO ISZERO MUL OR SWAP1 SSTORE POP CALLVALUE DUP1 ISZERO PUSH3 0x2B JUMPI PUSH1 0x0 DUP1 REVERT JUMPDEST POP PUSH1 0x40 MLOAD PUSH3 0xDC2 CODESIZE SUB DUP1 PUSH3 0xDC2 DUP4 CODECOPY DUP2 DUP2 ADD PUSH1 0x40 MSTORE DUP2 ADD SWAP1 PUSH3 0x51 SWAP2 SWAP1 PUSH3 0x20F JUMP JUMPDEST PUSH3 0x71 PUSH3 0x65 PUSH3 0x12C PUSH1 0x20 SHL PUSH1 0x20 SHR JUMP JUMPDEST PUSH3 0x134 PUSH1 0x20 SHL PUSH1 0x20 SHR JUMP JUMPDEST PUSH1 0x0 PUSH20 0xFFFFFFFFFFFFFFFFFFFFFFFFFFFFFFFFFFFFFFFF AND DUP2 PUSH20 0xFFFFFFFFFFFFFFFFFFFFFFFFFFFFFFFFFFFFFFFF AND EQ ISZERO PUSH3 0xE4 JUMPI PUSH1 0x40 MLOAD PUSH32 0x8C379A000000000000000000000000000000000000000000000000000000000 DUP2 MSTORE PUSH1 0x4 ADD PUSH3 0xDB SWAP1 PUSH3 0x268 JUMP JUMPDEST PUSH1 0x40 MLOAD DUP1 SWAP2 SUB SWAP1 REVERT JUMPDEST DUP1 PUSH1 0x1 PUSH1 0x0 PUSH2 0x100 EXP DUP2 SLOAD DUP2 PUSH20 0xFFFFFFFFFFFFFFFFFFFFFFFFFFFFFFFFFFFFFFFF MUL NOT AND SWAP1 DUP4 PUSH20 0xFFFFFFFFFFFFFFFFFFFFFFFFFFFFFFFFFFFFFFFF AND MUL OR SWAP1 SSTORE POP POP PUSH3 0x317 JUMP JUMPDEST PUSH1 0x0 CALLER SWAP1 POP SWAP1 JUMP JUMPDEST PUSH1 0x0 DUP1 PUSH1 0x0 SWAP1 SLOAD SWAP1 PUSH2 0x100 EXP SWAP1 DIV PUSH20 0xFFFFFFFFFFFFFFFFFFFFFFFFFFFFFFFFFFFFFFFF AND SWAP1 POP DUP2 PUSH1 0x0 DUP1 PUSH2 0x100 EXP DUP2 SLOAD DUP2 PUSH20 0xFFFFFFFFFFFFFFFFFFFFFFFFFFFFFFFFFFFFFFFF MUL NOT AND SWAP1 DUP4 PUSH20 0xFFFFFFFFFFFFFFFFFFFFFFFFFFFFFFFFFFFFFFFF AND MUL OR SWAP1 SSTORE POP DUP2 PUSH20 0xFFFFFFFFFFFFFFFFFFFFFFFFFFFFFFFFFFFFFFFF AND DUP2 PUSH20 0xFFFFFFFFFFFFFFFFFFFFFFFFFFFFFFFFFFFFFFFF AND PUSH32 0x8BE0079C531659141344CD1FD0A4F28419497F9722A3DAAFE3B4186F6B6457E0 PUSH1 0x40 MLOAD PUSH1 0x40 MLOAD DUP1 SWAP2 SUB SWAP1 LOG3 POP POP JUMP JUMPDEST PUSH1 0x0 DUP2 MLOAD SWAP1 POP PUSH3 0x209 DUP2 PUSH3 0x2FD JUMP JUMPDEST SWAP3 SWAP2 POP POP JUMP JUMPDEST PUSH1 0x0 PUSH1 0x20 DUP3 DUP5 SUB SLT ISZERO PUSH3 0x228 JUMPI PUSH3 0x227 PUSH3 0x2CF JUMP JUMPDEST JUMPDEST PUSH1 0x0 PUSH3 0x238 DUP5 DUP3 DUP6 ADD PUSH3 0x1F8 JUMP JUMPDEST SWAP2 POP POP SWAP3 SWAP2 POP POP JUMP JUMPDEST PUSH1 0x0 PUSH3 0x250 PUSH1 0x17 DUP4 PUSH3 0x28A JUMP JUMPDEST SWAP2 POP PUSH3 0x25D DUP3 PUSH3 0x2D4 JUMP JUMPDEST PUSH1 0x20 DUP3 ADD SWAP1 POP SWAP2 SWAP1 POP JUMP JUMPDEST PUSH1 0x0 PUSH1 0x20 DUP3 ADD SWAP1 POP DUP2 DUP2 SUB PUSH1 0x0 DUP4 ADD MSTORE PUSH3 0x283 DUP2 PUSH3 0x241 JUMP JUMPDEST SWAP1 POP SWAP2 SWAP1 POP JUMP JUMPDEST PUSH1 0x0 DUP3 DUP3 MSTORE PUSH1 0x20 DUP3 ADD SWAP1 POP SWAP3 SWAP2 POP POP JUMP JUMPDEST PUSH1 0x0 PUSH3 0x2A8 DUP3 PUSH3 0x2AF JUMP JUMPDEST SWAP1 POP SWAP2 SWAP1 POP JUMP JUMPDEST PUSH1 0x0 PUSH20 0xFFFFFFFFFFFFFFFFFFFFFFFFFFFFFFFFFFFFFFFF DUP3 AND SWAP1 POP SWAP2 SWAP1 POP JUMP JUMPDEST PUSH1 0x0 DUP1 REVERT JUMPDEST PUSH32 0x416464726573732063616E206E6F74206265207A65726F000000000000000000 PUSH1 0x0 DUP3 ADD MSTORE POP JUMP JUMPDEST PUSH3 0x308 DUP2 PUSH3 0x29B JUMP JUMPDEST DUP2 EQ PUSH3 0x314 JUMPI PUSH1 0x0 DUP1 REVERT JUMPDEST POP JUMP JUMPDEST PUSH2 0xA9B DUP1 PUSH3 0x327 PUSH1 0x0 CODECOPY PUSH1 0x0 RETURN INVALID PUSH1 0x80 PUSH1 0x40 MSTORE CALLVALUE DUP1 ISZERO PUSH2 0x10 JUMPI PUSH1 0x0 DUP1 REVERT JUMPDEST POP PUSH1 0x4 CALLDATASIZE LT PUSH2 0x62 JUMPI PUSH1 0x0 CALLDATALOAD PUSH1 0xE0 SHR DUP1 PUSH4 0x23EAF139 EQ PUSH2 0x67 JUMPI DUP1 PUSH4 0x58A259C1 EQ PUSH2 0x97 JUMPI DUP1 PUSH4 0x7210868E EQ PUSH2 0xA1 JUMPI DUP1 PUSH4 0x8DA5CB5B EQ PUSH2 0xBF JUMPI DUP1 PUSH4 0x906B0603 EQ PUSH2 0xDD JUMPI DUP1 PUSH4 0x91B10CFC EQ PUSH2 0xE7 JUMPI JUMPDEST PUSH1 0x0 DUP1 REVERT JUMPDEST PUSH2 0x81 PUSH1 0x4 DUP1 CALLDATASIZE SUB DUP2 ADD SWAP1 PUSH2 0x7C SWAP2 SWAP1 PUSH2 0x67A JUMP JUMPDEST PUSH2 0x103 JUMP JUMPDEST PUSH1 0x40 MLOAD PUSH2 0x8E SWAP2 SWAP1 PUSH2 0x7B4 JUMP JUMPDEST PUSH1 0x40 MLOAD DUP1 SWAP2 SUB SWAP1 RETURN JUMPDEST PUSH2 0x9F PUSH2 0x136 JUMP JUMPDEST STOP JUMPDEST PUSH2 0xA9 PUSH2 0x225 JUMP JUMPDEST PUSH1 0x40 MLOAD PUSH2 0xB6 SWAP2 SWAP1 PUSH2 0x7B4 JUMP JUMPDEST PUSH1 0x40 MLOAD DUP1 SWAP2 SUB SWAP1 RETURN JUMPDEST PUSH2 0xC7 PUSH2 0x24B JUMP JUMPDEST PUSH1 0x40 MLOAD PUSH2 0xD4 SWAP2 SWAP1 PUSH2 0x7B4 JUMP JUMPDEST PUSH1 0x40 MLOAD DUP1 SWAP2 SUB SWAP1 RETURN JUMPDEST PUSH2 0xE5 PUSH2 0x274 JUMP JUMPDEST STOP JUMPDEST PUSH2 0x101 PUSH1 0x4 DUP1 CALLDATASIZE SUB DUP2 ADD SWAP1 PUSH2 0xFC SWAP2 SWAP1 PUSH2 0x6A7 JUMP JUMPDEST PUSH2 0x362 JUMP JUMPDEST STOP JUMPDEST PUSH1 0x2 PUSH1 0x20 MSTORE DUP1 PUSH1 0x0 MSTORE PUSH1 0x40 PUSH1 0x0 KECCAK256 PUSH1 0x0 SWAP2 POP SLOAD SWAP1 PUSH2 0x100 EXP SWAP1 DIV PUSH20 0xFFFFFFFFFFFFFFFFFFFFFFFFFFFFFFFFFFFFFFFF AND DUP2 JUMP JUMPDEST PUSH2 0x13E PUSH2 0x5DE JUMP JUMPDEST PUSH20 0xFFFFFFFFFFFFFFFFFFFFFFFFFFFFFFFFFFFFFFFF AND PUSH2 0x15C PUSH2 0x24B JUMP JUMPDEST PUSH20 0xFFFFFFFFFFFFFFFFFFFFFFFFFFFFFFFFFFFFFFFF AND EQ PUSH2 0x1B2 JUMPI PUSH1 0x40 MLOAD PUSH32 0x8C379A000000000000000000000000000000000000000000000000000000000 DUP2 MSTORE PUSH1 0x4 ADD PUSH2 0x1A9 SWAP1 PUSH2 0x846 JUMP JUMPDEST PUSH1 0x40 MLOAD DUP1 SWAP2 SUB SWAP1 REVERT JUMPDEST PUSH1 0x1 ISZERO ISZERO PUSH1 0x1 PUSH1 0x14 SWAP1 SLOAD SWAP1 PUSH2 0x100 EXP SWAP1 DIV PUSH1 0xFF AND ISZERO ISZERO EQ PUSH2 0x208 JUMPI PUSH1 0x40 MLOAD PUSH32 0x8C379A000000000000000000000000000000000000000000000000000000000 DUP2 MSTORE PUSH1 0x4 ADD PUSH2 0x1FF SWAP1 PUSH2 0x886 JUMP JUMPDEST PUSH1 0x40 MLOAD DUP1 SWAP2 SUB SWAP1 REVERT JUMPDEST PUSH1 0x0 PUSH1 0x1 PUSH1 0x14 PUSH2 0x100 EXP DUP2 SLOAD DUP2 PUSH1 0xFF MUL NOT AND SWAP1 DUP4 ISZERO ISZERO MUL OR SWAP1 SSTORE POP JUMP JUMPDEST PUSH1 0x1 PUSH1 0x0 SWAP1 SLOAD SWAP1 PUSH2 0x100 EXP SWAP1 DIV PUSH20 0xFFFFFFFFFFFFFFFFFFFFFFFFFFFFFFFFFFFFFFFF AND DUP2 JUMP JUMPDEST PUSH1 0x0 DUP1 PUSH1 0x0 SWAP1 SLOAD SWAP1 PUSH2 0x100 EXP SWAP1 DIV PUSH20 0xFFFFFFFFFFFFFFFFFFFFFFFFFFFFFFFFFFFFFFFF AND SWAP1 POP SWAP1 JUMP JUMPDEST PUSH2 0x27C PUSH2 0x5DE JUMP JUMPDEST PUSH20 0xFFFFFFFFFFFFFFFFFFFFFFFFFFFFFFFFFFFFFFFF AND PUSH2 0x29A PUSH2 0x24B JUMP JUMPDEST PUSH20 0xFFFFFFFFFFFFFFFFFFFFFFFFFFFFFFFFFFFFFFFF AND EQ PUSH2 0x2F0 JUMPI PUSH1 0x40 MLOAD PUSH32 0x8C379A000000000000000000000000000000000000000000000000000000000 DUP2 MSTORE PUSH1 0x4 ADD PUSH2 0x2E7 SWAP1 PUSH2 0x846 JUMP JUMPDEST PUSH1 0x40 MLOAD DUP1 SWAP2 SUB SWAP1 REVERT JUMPDEST PUSH1 0x0 ISZERO ISZERO PUSH1 0x1 PUSH1 0x14 SWAP1 SLOAD SWAP1 PUSH2 0x100 EXP SWAP1 DIV PUSH1 0xFF AND ISZERO ISZERO EQ PUSH2 0x346 JUMPI PUSH1 0x40 MLOAD PUSH32 0x8C379A000000000000000000000000000000000000000000000000000000000 DUP2 MSTORE PUSH1 0x4 ADD PUSH2 0x33D SWAP1 PUSH2 0x866 JUMP JUMPDEST PUSH1 0x40 MLOAD DUP1 SWAP2 SUB SWAP1 REVERT JUMPDEST PUSH1 0x1 DUP1 PUSH1 0x14 PUSH2 0x100 EXP DUP2 SLOAD DUP2 PUSH1 0xFF MUL NOT AND SWAP1 DUP4 ISZERO ISZERO MUL OR SWAP1 SSTORE POP JUMP JUMPDEST PUSH1 0x1 ISZERO ISZERO PUSH1 0x1 PUSH1 0x14 SWAP1 SLOAD SWAP1 PUSH2 0x100 EXP SWAP1 DIV PUSH1 0xFF AND ISZERO ISZERO EQ PUSH2 0x3B8 JUMPI PUSH1 0x40 MLOAD PUSH32 0x8C379A000000000000000000000000000000000000000000000000000000000 DUP2 MSTORE PUSH1 0x4 ADD PUSH2 0x3AF SWAP1 PUSH2 0x806 JUMP JUMPDEST PUSH1 0x40 MLOAD DUP1 SWAP2 SUB SWAP1 REVERT JUMPDEST PUSH1 0x0 PUSH20 0xFFFFFFFFFFFFFFFFFFFFFFFFFFFFFFFFFFFFFFFF AND PUSH1 0x2 PUSH1 0x0 CALLER PUSH20 0xFFFFFFFFFFFFFFFFFFFFFFFFFFFFFFFFFFFFFFFF AND PUSH20 0xFFFFFFFFFFFFFFFFFFFFFFFFFFFFFFFFFFFFFFFF AND DUP2 MSTORE PUSH1 0x20 ADD SWAP1 DUP2 MSTORE PUSH1 0x20 ADD PUSH1 0x0 KECCAK256 PUSH1 0x0 SWAP1 SLOAD SWAP1 PUSH2 0x100 EXP SWAP1 DIV PUSH20 0xFFFFFFFFFFFFFFFFFFFFFFFFFFFFFFFFFFFFFFFF AND PUSH20 0xFFFFFFFFFFFFFFFFFFFFFFFFFFFFFFFFFFFFFFFF AND EQ PUSH2 0x486 JUMPI PUSH1 0x40 MLOAD PUSH32 0x8C379A000000000000000000000000000000000000000000000000000000000 DUP2 MSTORE PUSH1 0x4 ADD PUSH2 0x47D SWAP1 PUSH2 0x826 JUMP JUMPDEST PUSH1 0x40 MLOAD DUP1 SWAP2 SUB SWAP1 REVERT JUMPDEST PUSH1 0x0 PUSH2 0x4B3 PUSH1 0x1 PUSH1 0x0 SWAP1 SLOAD SWAP1 PUSH2 0x100 EXP SWAP1 DIV PUSH20 0xFFFFFFFFFFFFFFFFFFFFFFFFFFFFFFFFFFFFFFFF AND PUSH2 0x5E6 JUMP JUMPDEST SWAP1 POP DUP1 PUSH20 0xFFFFFFFFFFFFFFFFFFFFFFFFFFFFFFFFFFFFFFFF AND PUSH4 0x347258AA CALLER DUP6 DUP6 PUSH1 0x40 MLOAD DUP5 PUSH4 0xFFFFFFFF AND PUSH1 0xE0 SHL DUP2 MSTORE PUSH1 0x4 ADD PUSH2 0x4F2 SWAP4 SWAP3 SWAP2 SWAP1 PUSH2 0x7CF JUMP JUMPDEST PUSH1 0x0 PUSH1 0x40 MLOAD DUP1 DUP4 SUB DUP2 PUSH1 0x0 DUP8 DUP1 EXTCODESIZE ISZERO DUP1 ISZERO PUSH2 0x50C JUMPI PUSH1 0x0 DUP1 REVERT JUMPDEST POP GAS CALL ISZERO DUP1 ISZERO PUSH2 0x520 JUMPI RETURNDATASIZE PUSH1 0x0 DUP1 RETURNDATACOPY RETURNDATASIZE PUSH1 0x0 REVERT JUMPDEST POP POP POP POP DUP1 PUSH1 0x2 PUSH1 0x0 CALLER PUSH20 0xFFFFFFFFFFFFFFFFFFFFFFFFFFFFFFFFFFFFFFFF AND PUSH20 0xFFFFFFFFFFFFFFFFFFFFFFFFFFFFFFFFFFFFFFFF AND DUP2 MSTORE PUSH1 0x20 ADD SWAP1 DUP2 MSTORE PUSH1 0x20 ADD PUSH1 0x0 KECCAK256 PUSH1 0x0 PUSH2 0x100 EXP DUP2 SLOAD DUP2 PUSH20 0xFFFFFFFFFFFFFFFFFFFFFFFFFFFFFFFFFFFFFFFF MUL NOT AND SWAP1 DUP4 PUSH20 0xFFFFFFFFFFFFFFFFFFFFFFFFFFFFFFFFFFFFFFFF AND MUL OR SWAP1 SSTORE POP PUSH32 0xECBDF26F66662DF01408FEC00CAC8301B9178BED8605838F8FF36E3D65C61B9F DUP2 PUSH1 0x40 MLOAD PUSH2 0x5D1 SWAP2 SWAP1 PUSH2 0x7B4 JUMP JUMPDEST PUSH1 0x40 MLOAD DUP1 SWAP2 SUB SWAP1 LOG1 POP POP POP JUMP JUMPDEST PUSH1 0x0 CALLER SWAP1 POP SWAP1 JUMP JUMPDEST PUSH1 0x0 DUP1 DUP3 PUSH1 0x60 SHL SWAP1 POP PUSH1 0x40 MLOAD PUSH32 0x3D602D80600A3D3981F3363D3D373D3D3D363D73000000000000000000000000 DUP2 MSTORE DUP2 PUSH1 0x14 DUP3 ADD MSTORE PUSH32 0x5AF43D82803E903D91602B57FD5BF30000000000000000000000000000000000 PUSH1 0x28 DUP3 ADD MSTORE PUSH1 0x37 DUP2 PUSH1 0x0 CREATE SWAP3 POP POP POP SWAP2 SWAP1 POP JUMP JUMPDEST PUSH1 0x0 DUP2 CALLDATALOAD SWAP1 POP PUSH2 0x65F DUP2 PUSH2 0xA37 JUMP JUMPDEST SWAP3 SWAP2 POP POP JUMP JUMPDEST PUSH1 0x0 DUP2 CALLDATALOAD SWAP1 POP PUSH2 0x674 DUP2 PUSH2 0xA4E JUMP JUMPDEST SWAP3 SWAP2 POP POP JUMP JUMPDEST PUSH1 0x0 PUSH1 0x20 DUP3 DUP5 SUB SLT ISZERO PUSH2 0x690 JUMPI PUSH2 0x68F PUSH2 0x8F3 JUMP JUMPDEST JUMPDEST PUSH1 0x0 PUSH2 0x69E DUP5 DUP3 DUP6 ADD PUSH2 0x650 JUMP JUMPDEST SWAP2 POP POP SWAP3 SWAP2 POP POP JUMP JUMPDEST PUSH1 0x0 DUP1 PUSH1 0x40 DUP4 DUP6 SUB SLT ISZERO PUSH2 0x6BE JUMPI PUSH2 0x6BD PUSH2 0x8F3 JUMP JUMPDEST JUMPDEST PUSH1 0x0 PUSH2 0x6CC DUP6 DUP3 DUP7 ADD PUSH2 0x650 JUMP JUMPDEST SWAP3 POP POP PUSH1 0x20 PUSH2 0x6DD DUP6 DUP3 DUP7 ADD PUSH2 0x665 JUMP JUMPDEST SWAP2 POP POP SWAP3 POP SWAP3 SWAP1 POP JUMP JUMPDEST PUSH2 0x6F0 DUP2 PUSH2 0x8B7 JUMP JUMPDEST DUP3 MSTORE POP POP JUMP JUMPDEST PUSH2 0x6FF DUP2 PUSH2 0x8C9 JUMP JUMPDEST DUP3 MSTORE POP POP JUMP JUMPDEST PUSH1 0x0 PUSH2 0x712 PUSH1 0x33 DUP4 PUSH2 0x8A6 JUMP JUMPDEST SWAP2 POP PUSH2 0x71D DUP3 PUSH2 0x8F8 JUMP JUMPDEST PUSH1 0x40 DUP3 ADD SWAP1 POP SWAP2 SWAP1 POP JUMP JUMPDEST PUSH1 0x0 PUSH2 0x735 PUSH1 0x1D DUP4 PUSH2 0x8A6 JUMP JUMPDEST SWAP2 POP PUSH2 0x740 DUP3 PUSH2 0x947 JUMP JUMPDEST PUSH1 0x20 DUP3 ADD SWAP1 POP SWAP2 SWAP1 POP JUMP JUMPDEST PUSH1 0x0 PUSH2 0x758 PUSH1 0x20 DUP4 PUSH2 0x8A6 JUMP JUMPDEST SWAP2 POP PUSH2 0x763 DUP3 PUSH2 0x970 JUMP JUMPDEST PUSH1 0x20 DUP3 ADD SWAP1 POP SWAP2 SWAP1 POP JUMP JUMPDEST PUSH1 0x0 PUSH2 0x77B PUSH1 0x25 DUP4 PUSH2 0x8A6 JUMP JUMPDEST SWAP2 POP PUSH2 0x786 DUP3 PUSH2 0x999 JUMP JUMPDEST PUSH1 0x40 DUP3 ADD SWAP1 POP SWAP2 SWAP1 POP JUMP JUMPDEST PUSH1 0x0 PUSH2 0x79E PUSH1 0x26 DUP4 PUSH2 0x8A6 JUMP JUMPDEST SWAP2 POP PUSH2 0x7A9 DUP3 PUSH2 0x9E8 JUMP JUMPDEST PUSH1 0x40 DUP3 ADD SWAP1 POP SWAP2 SWAP1 POP JUMP JUMPDEST PUSH1 0x0 PUSH1 0x20 DUP3 ADD SWAP1 POP PUSH2 0x7C9 PUSH1 0x0 DUP4 ADD DUP5 PUSH2 0x6E7 JUMP JUMPDEST SWAP3 SWAP2 POP POP JUMP JUMPDEST PUSH1 0x0 PUSH1 0x60 DUP3 ADD SWAP1 POP PUSH2 0x7E4 PUSH1 0x0 DUP4 ADD DUP7 PUSH2 0x6E7 JUMP JUMPDEST PUSH2 0x7F1 PUSH1 0x20 DUP4 ADD DUP6 PUSH2 0x6E7 JUMP JUMPDEST PUSH2 0x7FE PUSH1 0x40 DUP4 ADD DUP5 PUSH2 0x6F6 JUMP JUMPDEST SWAP5 SWAP4 POP POP POP POP JUMP JUMPDEST PUSH1 0x0 PUSH1 0x20 DUP3 ADD SWAP1 POP DUP2 DUP2 SUB PUSH1 0x0 DUP4 ADD MSTORE PUSH2 0x81F DUP2 PUSH2 0x705 JUMP JUMPDEST SWAP1 POP SWAP2 SWAP1 POP JUMP JUMPDEST PUSH1 0x0 PUSH1 0x20 DUP3 ADD SWAP1 POP DUP2 DUP2 SUB PUSH1 0x0 DUP4 ADD MSTORE PUSH2 0x83F DUP2 PUSH2 0x728 JUMP JUMPDEST SWAP1 POP SWAP2 SWAP1 POP JUMP JUMPDEST PUSH1 0x0 PUSH1 0x20 DUP3 ADD SWAP1 POP DUP2 DUP2 SUB PUSH1 0x0 DUP4 ADD MSTORE PUSH2 0x85F DUP2 PUSH2 0x74B JUMP JUMPDEST SWAP1 POP SWAP2 SWAP1 POP JUMP JUMPDEST PUSH1 0x0 PUSH1 0x20 DUP3 ADD SWAP1 POP DUP2 DUP2 SUB PUSH1 0x0 DUP4 ADD MSTORE PUSH2 0x87F DUP2 PUSH2 0x76E JUMP JUMPDEST SWAP1 POP SWAP2 SWAP1 POP JUMP JUMPDEST PUSH1 0x0 PUSH1 0x20 DUP3 ADD SWAP1 POP DUP2 DUP2 SUB PUSH1 0x0 DUP4 ADD MSTORE PUSH2 0x89F DUP2 PUSH2 0x791 JUMP JUMPDEST SWAP1 POP SWAP2 SWAP1 POP JUMP JUMPDEST PUSH1 0x0 DUP3 DUP3 MSTORE PUSH1 0x20 DUP3 ADD SWAP1 POP SWAP3 SWAP2 POP POP JUMP JUMPDEST PUSH1 0x0 PUSH2 0x8C2 DUP3 PUSH2 0x8D3 JUMP JUMPDEST SWAP1 POP SWAP2 SWAP1 POP JUMP JUMPDEST PUSH1 0x0 DUP2 SWAP1 POP SWAP2 SWAP1 POP JUMP JUMPDEST PUSH1 0x0 PUSH20 0xFFFFFFFFFFFFFFFFFFFFFFFFFFFFFFFFFFFFFFFF DUP3 AND SWAP1 POP SWAP2 SWAP1 POP JUMP JUMPDEST PUSH1 0x0 DUP1 REVERT JUMPDEST PUSH32 0x4372656174696E672054776F466163746F72207661756C747320686173206265 PUSH1 0x0 DUP3 ADD MSTORE PUSH32 0x656E2064697361626C656420666F72206E6F7700000000000000000000000000 PUSH1 0x20 DUP3 ADD MSTORE POP JUMP JUMPDEST PUSH32 0x5661756C7420616C72656164792065786973747320666F722075736572000000 PUSH1 0x0 DUP3 ADD MSTORE POP JUMP JUMPDEST PUSH32 0x4F776E61626C653A2063616C6C6572206973206E6F7420746865206F776E6572 PUSH1 0x0 DUP3 ADD MSTORE POP JUMP JUMPDEST PUSH32 0x54776F466163746F722070726F64756374696F6E20616C726561647920676F69 PUSH1 0x0 DUP3 ADD MSTORE PUSH32 0x6E67206F6E000000000000000000000000000000000000000000000000000000 PUSH1 0x20 DUP3 ADD MSTORE POP JUMP JUMPDEST PUSH32 0x54776F466163746F722070726F64756374696F6E20697320616C726561647920 PUSH1 0x0 DUP3 ADD MSTORE PUSH32 0x7061757365640000000000000000000000000000000000000000000000000000 PUSH1 0x20 DUP3 ADD MSTORE POP JUMP JUMPDEST PUSH2 0xA40 DUP2 PUSH2 0x8B7 JUMP JUMPDEST DUP2 EQ PUSH2 0xA4B JUMPI PUSH1 0x0 DUP1 REVERT JUMPDEST POP JUMP JUMPDEST PUSH2 0xA57 DUP2 PUSH2 0x8C9 JUMP JUMPDEST DUP2 EQ PUSH2 0xA62 JUMPI PUSH1 0x0 DUP1 REVERT JUMPDEST POP JUMP INVALID LOG2 PUSH5 0x6970667358 0x22 SLT KECCAK256 0xAC COINBASE PUSH29 0x8C0BADB668EAC9FC3645E187E6808626343B15E58E426CC1C156E13135 PUSH5 0x736F6C6343 STOP ADDMOD SMOD STOP CALLER "
				},
				"gasEstimates": {
					"creation": {
						"codeDepositCost": "543000",
						"executionCost": "infinite",
						"totalCost": "infinite"
					},
					"external": {
						"createTwoFactor(address,bytes32)": "infinite",
						"eoaToVaultMap(address)": "infinite",
						"firstChildAddress()": "2536",
						"owner()": "2566",
						"pauseTwoFactorProduction()": "28922",
						"resumeTwoFactorProduction()": "28988"
					}
				},
				"methodIdentifiers": {
					"createTwoFactor(address,bytes32)": "91b10cfc",
					"eoaToVaultMap(address)": "23eaf139",
					"firstChildAddress()": "7210868e",
					"owner()": "8da5cb5b",
					"pauseTwoFactorProduction()": "58a259c1",
					"resumeTwoFactorProduction()": "906b0603"
				}
			},
			"storageLayout": {
				"storage": [
					{
						"astId": 29,
						"contract": "TwoFactorFactory.sol:TwoFactorFactory",
						"label": "_owner",
						"offset": 0,
						"slot": "0",
						"type": "t_address"
					},
					{
						"astId": 143,
						"contract": "TwoFactorFactory.sol:TwoFactorFactory",
						"label": "firstChildAddress",
						"offset": 0,
						"slot": "1",
						"type": "t_address"
					},
					{
						"astId": 146,
						"contract": "TwoFactorFactory.sol:TwoFactorFactory",
						"label": "isCreationEnabled",
						"offset": 20,
						"slot": "1",
						"type": "t_bool"
					},
					{
						"astId": 150,
						"contract": "TwoFactorFactory.sol:TwoFactorFactory",
						"label": "eoaToVaultMap",
						"offset": 0,
						"slot": "2",
						"type": "t_mapping(t_address,t_address)"
					}
				],
				"types": {
					"t_address": {
						"encoding": "inplace",
						"label": "address",
						"numberOfBytes": "20"
					},
					"t_bool": {
						"encoding": "inplace",
						"label": "bool",
						"numberOfBytes": "1"
					},
					"t_mapping(t_address,t_address)": {
						"encoding": "mapping",
						"key": "t_address",
						"label": "mapping(address => address)",
						"numberOfBytes": "32",
						"value": "t_address"
					}
				}
			},
			"userdoc": {
				"kind": "user",
				"methods": {},
				"version": 1
			}
		}
	}
}