{
	"Pratice2nd.sol": {
		"ManiTransfer": {
			"abi": [
				{
					"inputs": [],
					"name": "_owner",
					"outputs": [
						{
							"internalType": "address",
							"name": "",
							"type": "address"
						}
					],
					"stateMutability": "view",
					"type": "function"
				},
				{
					"inputs": [
						{
							"internalType": "address",
							"name": "toAddress",
							"type": "address"
						},
						{
							"internalType": "address",
							"name": "tokenAddress",
							"type": "address"
						},
						{
							"internalType": "uint256",
							"name": "tokenId",
							"type": "uint256"
						}
					],
					"name": "_transferERC721FundsToAddress",
					"outputs": [],
					"stateMutability": "nonpayable",
					"type": "function"
				}
			],
			"devdoc": {
				"kind": "dev",
				"methods": {},
				"version": 1
			},
			"evm": {
				"assembly": "    /* \"Pratice2nd.sol\":121:1030  contract ManiTransfer {... */\n  mstore(0x40, 0x80)\n    /* \"Pratice2nd.sol\":174:184  msg.sender */\n  caller\n    /* \"Pratice2nd.sol\":150:184  address public _owner = msg.sender */\n  0x00\n  dup1\n  0x0100\n  exp\n  dup2\n  sload\n  dup2\n  0xffffffffffffffffffffffffffffffffffffffff\n  mul\n  not\n  and\n  swap1\n  dup4\n  0xffffffffffffffffffffffffffffffffffffffff\n  and\n  mul\n  or\n  swap1\n  sstore\n  pop\n    /* \"Pratice2nd.sol\":121:1030  contract ManiTransfer {... */\n  callvalue\n  dup1\n  iszero\n  tag_1\n  jumpi\n  0x00\n  dup1\n  revert\ntag_1:\n  pop\n  dataSize(sub_0)\n  dup1\n  dataOffset(sub_0)\n  0x00\n  codecopy\n  0x00\n  return\nstop\n\nsub_0: assembly {\n        /* \"Pratice2nd.sol\":121:1030  contract ManiTransfer {... */\n      mstore(0x40, 0x80)\n      callvalue\n      dup1\n      iszero\n      tag_1\n      jumpi\n      0x00\n      dup1\n      revert\n    tag_1:\n      pop\n      jumpi(tag_2, lt(calldatasize, 0x04))\n      shr(0xe0, calldataload(0x00))\n      dup1\n      0xb2bdfa7b\n      eq\n      tag_3\n      jumpi\n      dup1\n      0xcb9354cd\n      eq\n      tag_4\n      jumpi\n    tag_2:\n      0x00\n      dup1\n      revert\n        /* \"Pratice2nd.sol\":150:184  address public _owner = msg.sender */\n    tag_3:\n      tag_5\n      tag_6\n      jump\t// in\n    tag_5:\n      mload(0x40)\n      tag_7\n      swap2\n      swap1\n      tag_8\n      jump\t// in\n    tag_7:\n      mload(0x40)\n      dup1\n      swap2\n      sub\n      swap1\n      return\n        /* \"Pratice2nd.sol\":195:419  function _transferERC721FundsToAddress(... */\n    tag_4:\n      tag_9\n      0x04\n      dup1\n      calldatasize\n      sub\n      dup2\n      add\n      swap1\n      tag_10\n      swap2\n      swap1\n      tag_11\n      jump\t// in\n    tag_10:\n      tag_12\n      jump\t// in\n    tag_9:\n      stop\n        /* \"Pratice2nd.sol\":150:184  address public _owner = msg.sender */\n    tag_6:\n      0x00\n      dup1\n      sload\n      swap1\n      0x0100\n      exp\n      swap1\n      div\n      0xffffffffffffffffffffffffffffffffffffffff\n      and\n      dup2\n      jump\t// out\n        /* \"Pratice2nd.sol\":195:419  function _transferERC721FundsToAddress(... */\n    tag_12:\n        /* \"Pratice2nd.sol\":347:359  tokenAddress */\n      dup2\n        /* \"Pratice2nd.sol\":339:377  IERC721(tokenAddress).safeTransferFrom */\n      0xffffffffffffffffffffffffffffffffffffffff\n      and\n      0x42842e0e\n        /* \"Pratice2nd.sol\":386:390  this */\n      address\n        /* \"Pratice2nd.sol\":393:402  toAddress */\n      dup6\n        /* \"Pratice2nd.sol\":404:411  tokenId */\n      dup5\n        /* \"Pratice2nd.sol\":339:412  IERC721(tokenAddress).safeTransferFrom(address(this), toAddress, tokenId) */\n      mload(0x40)\n      dup5\n      0xffffffff\n      and\n      0xe0\n      shl\n      dup2\n      mstore\n      0x04\n      add\n      tag_14\n      swap4\n      swap3\n      swap2\n      swap1\n      tag_15\n      jump\t// in\n    tag_14:\n      0x00\n      mload(0x40)\n      dup1\n      dup4\n      sub\n      dup2\n      0x00\n      dup8\n      dup1\n      extcodesize\n      iszero\n      dup1\n      iszero\n      tag_16\n      jumpi\n      0x00\n      dup1\n      revert\n    tag_16:\n      pop\n      gas\n      call\n      iszero\n      dup1\n      iszero\n      tag_18\n      jumpi\n      returndatasize\n      0x00\n      dup1\n      returndatacopy\n      revert(0x00, returndatasize)\n    tag_18:\n      pop\n      pop\n      pop\n      pop\n        /* \"Pratice2nd.sol\":195:419  function _transferERC721FundsToAddress(... */\n      pop\n      pop\n      pop\n      jump\t// out\n        /* \"#utility.yul\":7:146   */\n    tag_20:\n        /* \"#utility.yul\":53:58   */\n      0x00\n        /* \"#utility.yul\":91:97   */\n      dup2\n        /* \"#utility.yul\":78:98   */\n      calldataload\n        /* \"#utility.yul\":69:98   */\n      swap1\n      pop\n        /* \"#utility.yul\":107:140   */\n      tag_22\n        /* \"#utility.yul\":134:139   */\n      dup2\n        /* \"#utility.yul\":107:140   */\n      tag_23\n      jump\t// in\n    tag_22:\n        /* \"#utility.yul\":7:146   */\n      swap3\n      swap2\n      pop\n      pop\n      jump\t// out\n        /* \"#utility.yul\":152:291   */\n    tag_24:\n        /* \"#utility.yul\":198:203   */\n      0x00\n        /* \"#utility.yul\":236:242   */\n      dup2\n        /* \"#utility.yul\":223:243   */\n      calldataload\n        /* \"#utility.yul\":214:243   */\n      swap1\n      pop\n        /* \"#utility.yul\":252:285   */\n      tag_26\n        /* \"#utility.yul\":279:284   */\n      dup2\n        /* \"#utility.yul\":252:285   */\n      tag_27\n      jump\t// in\n    tag_26:\n        /* \"#utility.yul\":152:291   */\n      swap3\n      swap2\n      pop\n      pop\n      jump\t// out\n        /* \"#utility.yul\":297:916   */\n    tag_11:\n        /* \"#utility.yul\":374:380   */\n      0x00\n        /* \"#utility.yul\":382:388   */\n      dup1\n        /* \"#utility.yul\":390:396   */\n      0x00\n        /* \"#utility.yul\":439:441   */\n      0x60\n        /* \"#utility.yul\":427:436   */\n      dup5\n        /* \"#utility.yul\":418:425   */\n      dup7\n        /* \"#utility.yul\":414:437   */\n      sub\n        /* \"#utility.yul\":410:442   */\n      slt\n        /* \"#utility.yul\":407:526   */\n      iszero\n      tag_29\n      jumpi\n        /* \"#utility.yul\":445:524   */\n      tag_30\n      tag_31\n      jump\t// in\n    tag_30:\n        /* \"#utility.yul\":407:526   */\n    tag_29:\n        /* \"#utility.yul\":565:566   */\n      0x00\n        /* \"#utility.yul\":590:643   */\n      tag_32\n        /* \"#utility.yul\":635:642   */\n      dup7\n        /* \"#utility.yul\":626:632   */\n      dup3\n        /* \"#utility.yul\":615:624   */\n      dup8\n        /* \"#utility.yul\":611:633   */\n      add\n        /* \"#utility.yul\":590:643   */\n      tag_20\n      jump\t// in\n    tag_32:\n        /* \"#utility.yul\":580:643   */\n      swap4\n      pop\n        /* \"#utility.yul\":536:653   */\n      pop\n        /* \"#utility.yul\":692:694   */\n      0x20\n        /* \"#utility.yul\":718:771   */\n      tag_33\n        /* \"#utility.yul\":763:770   */\n      dup7\n        /* \"#utility.yul\":754:760   */\n      dup3\n        /* \"#utility.yul\":743:752   */\n      dup8\n        /* \"#utility.yul\":739:761   */\n      add\n        /* \"#utility.yul\":718:771   */\n      tag_20\n      jump\t// in\n    tag_33:\n        /* \"#utility.yul\":708:771   */\n      swap3\n      pop\n        /* \"#utility.yul\":663:781   */\n      pop\n        /* \"#utility.yul\":820:822   */\n      0x40\n        /* \"#utility.yul\":846:899   */\n      tag_34\n        /* \"#utility.yul\":891:898   */\n      dup7\n        /* \"#utility.yul\":882:888   */\n      dup3\n        /* \"#utility.yul\":871:880   */\n      dup8\n        /* \"#utility.yul\":867:889   */\n      add\n        /* \"#utility.yul\":846:899   */\n      tag_24\n      jump\t// in\n    tag_34:\n        /* \"#utility.yul\":836:899   */\n      swap2\n      pop\n        /* \"#utility.yul\":791:909   */\n      pop\n        /* \"#utility.yul\":297:916   */\n      swap3\n      pop\n      swap3\n      pop\n      swap3\n      jump\t// out\n        /* \"#utility.yul\":922:1040   */\n    tag_35:\n        /* \"#utility.yul\":1009:1033   */\n      tag_37\n        /* \"#utility.yul\":1027:1032   */\n      dup2\n        /* \"#utility.yul\":1009:1033   */\n      tag_38\n      jump\t// in\n    tag_37:\n        /* \"#utility.yul\":1004:1007   */\n      dup3\n        /* \"#utility.yul\":997:1034   */\n      mstore\n        /* \"#utility.yul\":922:1040   */\n      pop\n      pop\n      jump\t// out\n        /* \"#utility.yul\":1046:1164   */\n    tag_39:\n        /* \"#utility.yul\":1133:1157   */\n      tag_41\n        /* \"#utility.yul\":1151:1156   */\n      dup2\n        /* \"#utility.yul\":1133:1157   */\n      tag_42\n      jump\t// in\n    tag_41:\n        /* \"#utility.yul\":1128:1131   */\n      dup3\n        /* \"#utility.yul\":1121:1158   */\n      mstore\n        /* \"#utility.yul\":1046:1164   */\n      pop\n      pop\n      jump\t// out\n        /* \"#utility.yul\":1170:1392   */\n    tag_8:\n        /* \"#utility.yul\":1263:1267   */\n      0x00\n        /* \"#utility.yul\":1301:1303   */\n      0x20\n        /* \"#utility.yul\":1290:1299   */\n      dup3\n        /* \"#utility.yul\":1286:1304   */\n      add\n        /* \"#utility.yul\":1278:1304   */\n      swap1\n      pop\n        /* \"#utility.yul\":1314:1385   */\n      tag_44\n        /* \"#utility.yul\":1382:1383   */\n      0x00\n        /* \"#utility.yul\":1371:1380   */\n      dup4\n        /* \"#utility.yul\":1367:1384   */\n      add\n        /* \"#utility.yul\":1358:1364   */\n      dup5\n        /* \"#utility.yul\":1314:1385   */\n      tag_35\n      jump\t// in\n    tag_44:\n        /* \"#utility.yul\":1170:1392   */\n      swap3\n      swap2\n      pop\n      pop\n      jump\t// out\n        /* \"#utility.yul\":1398:1840   */\n    tag_15:\n        /* \"#utility.yul\":1547:1551   */\n      0x00\n        /* \"#utility.yul\":1585:1587   */\n      0x60\n        /* \"#utility.yul\":1574:1583   */\n      dup3\n        /* \"#utility.yul\":1570:1588   */\n      add\n        /* \"#utility.yul\":1562:1588   */\n      swap1\n      pop\n        /* \"#utility.yul\":1598:1669   */\n      tag_46\n        /* \"#utility.yul\":1666:1667   */\n      0x00\n        /* \"#utility.yul\":1655:1664   */\n      dup4\n        /* \"#utility.yul\":1651:1668   */\n      add\n        /* \"#utility.yul\":1642:1648   */\n      dup7\n        /* \"#utility.yul\":1598:1669   */\n      tag_35\n      jump\t// in\n    tag_46:\n        /* \"#utility.yul\":1679:1751   */\n      tag_47\n        /* \"#utility.yul\":1747:1749   */\n      0x20\n        /* \"#utility.yul\":1736:1745   */\n      dup4\n        /* \"#utility.yul\":1732:1750   */\n      add\n        /* \"#utility.yul\":1723:1729   */\n      dup6\n        /* \"#utility.yul\":1679:1751   */\n      tag_35\n      jump\t// in\n    tag_47:\n        /* \"#utility.yul\":1761:1833   */\n      tag_48\n        /* \"#utility.yul\":1829:1831   */\n      0x40\n        /* \"#utility.yul\":1818:1827   */\n      dup4\n        /* \"#utility.yul\":1814:1832   */\n      add\n        /* \"#utility.yul\":1805:1811   */\n      dup5\n        /* \"#utility.yul\":1761:1833   */\n      tag_39\n      jump\t// in\n    tag_48:\n        /* \"#utility.yul\":1398:1840   */\n      swap5\n      swap4\n      pop\n      pop\n      pop\n      pop\n      jump\t// out\n        /* \"#utility.yul\":1927:2023   */\n    tag_38:\n        /* \"#utility.yul\":1964:1971   */\n      0x00\n        /* \"#utility.yul\":1993:2017   */\n      tag_52\n        /* \"#utility.yul\":2011:2016   */\n      dup3\n        /* \"#utility.yul\":1993:2017   */\n      tag_53\n      jump\t// in\n    tag_52:\n        /* \"#utility.yul\":1982:2017   */\n      swap1\n      pop\n        /* \"#utility.yul\":1927:2023   */\n      swap2\n      swap1\n      pop\n      jump\t// out\n        /* \"#utility.yul\":2029:2155   */\n    tag_53:\n        /* \"#utility.yul\":2066:2073   */\n      0x00\n        /* \"#utility.yul\":2106:2148   */\n      0xffffffffffffffffffffffffffffffffffffffff\n        /* \"#utility.yul\":2099:2104   */\n      dup3\n        /* \"#utility.yul\":2095:2149   */\n      and\n        /* \"#utility.yul\":2084:2149   */\n      swap1\n      pop\n        /* \"#utility.yul\":2029:2155   */\n      swap2\n      swap1\n      pop\n      jump\t// out\n        /* \"#utility.yul\":2161:2238   */\n    tag_42:\n        /* \"#utility.yul\":2198:2205   */\n      0x00\n        /* \"#utility.yul\":2227:2232   */\n      dup2\n        /* \"#utility.yul\":2216:2232   */\n      swap1\n      pop\n        /* \"#utility.yul\":2161:2238   */\n      swap2\n      swap1\n      pop\n      jump\t// out\n        /* \"#utility.yul\":2367:2484   */\n    tag_31:\n        /* \"#utility.yul\":2476:2477   */\n      0x00\n        /* \"#utility.yul\":2473:2474   */\n      dup1\n        /* \"#utility.yul\":2466:2478   */\n      revert\n        /* \"#utility.yul\":2490:2612   */\n    tag_23:\n        /* \"#utility.yul\":2563:2587   */\n      tag_60\n        /* \"#utility.yul\":2581:2586   */\n      dup2\n        /* \"#utility.yul\":2563:2587   */\n      tag_38\n      jump\t// in\n    tag_60:\n        /* \"#utility.yul\":2556:2561   */\n      dup2\n        /* \"#utility.yul\":2553:2588   */\n      eq\n        /* \"#utility.yul\":2543:2606   */\n      tag_61\n      jumpi\n        /* \"#utility.yul\":2602:2603   */\n      0x00\n        /* \"#utility.yul\":2599:2600   */\n      dup1\n        /* \"#utility.yul\":2592:2604   */\n      revert\n        /* \"#utility.yul\":2543:2606   */\n    tag_61:\n        /* \"#utility.yul\":2490:2612   */\n      pop\n      jump\t// out\n        /* \"#utility.yul\":2618:2740   */\n    tag_27:\n        /* \"#utility.yul\":2691:2715   */\n      tag_63\n        /* \"#utility.yul\":2709:2714   */\n      dup2\n        /* \"#utility.yul\":2691:2715   */\n      tag_42\n      jump\t// in\n    tag_63:\n        /* \"#utility.yul\":2684:2689   */\n      dup2\n        /* \"#utility.yul\":2681:2716   */\n      eq\n        /* \"#utility.yul\":2671:2734   */\n      tag_64\n      jumpi\n        /* \"#utility.yul\":2730:2731   */\n      0x00\n        /* \"#utility.yul\":2727:2728   */\n      dup1\n        /* \"#utility.yul\":2720:2732   */\n      revert\n        /* \"#utility.yul\":2671:2734   */\n    tag_64:\n        /* \"#utility.yul\":2618:2740   */\n      pop\n      jump\t// out\n\n    auxdata: 0xa264697066735822122090aa275362abdc15acb4922b3967fac1a21bcc3c40a7aaf81348d1b1baec809864736f6c63430008070033\n}\n",
				"bytecode": {
					"linkReferences": {},
					"object": "6080604052336000806101000a81548173ffffffffffffffffffffffffffffffffffffffff021916908373ffffffffffffffffffffffffffffffffffffffff16021790555034801561005057600080fd5b5061029f806100606000396000f3fe608060405234801561001057600080fd5b50600436106100365760003560e01c8063b2bdfa7b1461003b578063cb9354cd14610059575b600080fd5b610043610075565b60405161005091906101a8565b60405180910390f35b610073600480360381019061006e9190610137565b610099565b005b60008054906101000a900473ffffffffffffffffffffffffffffffffffffffff1681565b8173ffffffffffffffffffffffffffffffffffffffff166342842e0e3085846040518463ffffffff1660e01b81526004016100d6939291906101c3565b600060405180830381600087803b1580156100f057600080fd5b505af1158015610104573d6000803e3d6000fd5b50505050505050565b60008135905061011c8161023b565b92915050565b60008135905061013181610252565b92915050565b6000806000606084860312156101505761014f610236565b5b600061015e8682870161010d565b935050602061016f8682870161010d565b925050604061018086828701610122565b9150509250925092565b610193816101fa565b82525050565b6101a28161022c565b82525050565b60006020820190506101bd600083018461018a565b92915050565b60006060820190506101d8600083018661018a565b6101e5602083018561018a565b6101f26040830184610199565b949350505050565b60006102058261020c565b9050919050565b600073ffffffffffffffffffffffffffffffffffffffff82169050919050565b6000819050919050565b600080fd5b610244816101fa565b811461024f57600080fd5b50565b61025b8161022c565b811461026657600080fd5b5056fea264697066735822122090aa275362abdc15acb4922b3967fac1a21bcc3c40a7aaf81348d1b1baec809864736f6c63430008070033",
					"opcodes": "PUSH1 0x80 PUSH1 0x40 MSTORE CALLER PUSH1 0x0 DUP1 PUSH2 0x100 EXP DUP2 SLOAD DUP2 PUSH20 0xFFFFFFFFFFFFFFFFFFFFFFFFFFFFFFFFFFFFFFFF MUL NOT AND SWAP1 DUP4 PUSH20 0xFFFFFFFFFFFFFFFFFFFFFFFFFFFFFFFFFFFFFFFF AND MUL OR SWAP1 SSTORE POP CALLVALUE DUP1 ISZERO PUSH2 0x50 JUMPI PUSH1 0x0 DUP1 REVERT JUMPDEST POP PUSH2 0x29F DUP1 PUSH2 0x60 PUSH1 0x0 CODECOPY PUSH1 0x0 RETURN INVALID PUSH1 0x80 PUSH1 0x40 MSTORE CALLVALUE DUP1 ISZERO PUSH2 0x10 JUMPI PUSH1 0x0 DUP1 REVERT JUMPDEST POP PUSH1 0x4 CALLDATASIZE LT PUSH2 0x36 JUMPI PUSH1 0x0 CALLDATALOAD PUSH1 0xE0 SHR DUP1 PUSH4 0xB2BDFA7B EQ PUSH2 0x3B JUMPI DUP1 PUSH4 0xCB9354CD EQ PUSH2 0x59 JUMPI JUMPDEST PUSH1 0x0 DUP1 REVERT JUMPDEST PUSH2 0x43 PUSH2 0x75 JUMP JUMPDEST PUSH1 0x40 MLOAD PUSH2 0x50 SWAP2 SWAP1 PUSH2 0x1A8 JUMP JUMPDEST PUSH1 0x40 MLOAD DUP1 SWAP2 SUB SWAP1 RETURN JUMPDEST PUSH2 0x73 PUSH1 0x4 DUP1 CALLDATASIZE SUB DUP2 ADD SWAP1 PUSH2 0x6E SWAP2 SWAP1 PUSH2 0x137 JUMP JUMPDEST PUSH2 0x99 JUMP JUMPDEST STOP JUMPDEST PUSH1 0x0 DUP1 SLOAD SWAP1 PUSH2 0x100 EXP SWAP1 DIV PUSH20 0xFFFFFFFFFFFFFFFFFFFFFFFFFFFFFFFFFFFFFFFF AND DUP2 JUMP JUMPDEST DUP2 PUSH20 0xFFFFFFFFFFFFFFFFFFFFFFFFFFFFFFFFFFFFFFFF AND PUSH4 0x42842E0E ADDRESS DUP6 DUP5 PUSH1 0x40 MLOAD DUP5 PUSH4 0xFFFFFFFF AND PUSH1 0xE0 SHL DUP2 MSTORE PUSH1 0x4 ADD PUSH2 0xD6 SWAP4 SWAP3 SWAP2 SWAP1 PUSH2 0x1C3 JUMP JUMPDEST PUSH1 0x0 PUSH1 0x40 MLOAD DUP1 DUP4 SUB DUP2 PUSH1 0x0 DUP8 DUP1 EXTCODESIZE ISZERO DUP1 ISZERO PUSH2 0xF0 JUMPI PUSH1 0x0 DUP1 REVERT JUMPDEST POP GAS CALL ISZERO DUP1 ISZERO PUSH2 0x104 JUMPI RETURNDATASIZE PUSH1 0x0 DUP1 RETURNDATACOPY RETURNDATASIZE PUSH1 0x0 REVERT JUMPDEST POP POP POP POP POP POP POP JUMP JUMPDEST PUSH1 0x0 DUP2 CALLDATALOAD SWAP1 POP PUSH2 0x11C DUP2 PUSH2 0x23B JUMP JUMPDEST SWAP3 SWAP2 POP POP JUMP JUMPDEST PUSH1 0x0 DUP2 CALLDATALOAD SWAP1 POP PUSH2 0x131 DUP2 PUSH2 0x252 JUMP JUMPDEST SWAP3 SWAP2 POP POP JUMP JUMPDEST PUSH1 0x0 DUP1 PUSH1 0x0 PUSH1 0x60 DUP5 DUP7 SUB SLT ISZERO PUSH2 0x150 JUMPI PUSH2 0x14F PUSH2 0x236 JUMP JUMPDEST JUMPDEST PUSH1 0x0 PUSH2 0x15E DUP7 DUP3 DUP8 ADD PUSH2 0x10D JUMP JUMPDEST SWAP4 POP POP PUSH1 0x20 PUSH2 0x16F DUP7 DUP3 DUP8 ADD PUSH2 0x10D JUMP JUMPDEST SWAP3 POP POP PUSH1 0x40 PUSH2 0x180 DUP7 DUP3 DUP8 ADD PUSH2 0x122 JUMP JUMPDEST SWAP2 POP POP SWAP3 POP SWAP3 POP SWAP3 JUMP JUMPDEST PUSH2 0x193 DUP2 PUSH2 0x1FA JUMP JUMPDEST DUP3 MSTORE POP POP JUMP JUMPDEST PUSH2 0x1A2 DUP2 PUSH2 0x22C JUMP JUMPDEST DUP3 MSTORE POP POP JUMP JUMPDEST PUSH1 0x0 PUSH1 0x20 DUP3 ADD SWAP1 POP PUSH2 0x1BD PUSH1 0x0 DUP4 ADD DUP5 PUSH2 0x18A JUMP JUMPDEST SWAP3 SWAP2 POP POP JUMP JUMPDEST PUSH1 0x0 PUSH1 0x60 DUP3 ADD SWAP1 POP PUSH2 0x1D8 PUSH1 0x0 DUP4 ADD DUP7 PUSH2 0x18A JUMP JUMPDEST PUSH2 0x1E5 PUSH1 0x20 DUP4 ADD DUP6 PUSH2 0x18A JUMP JUMPDEST PUSH2 0x1F2 PUSH1 0x40 DUP4 ADD DUP5 PUSH2 0x199 JUMP JUMPDEST SWAP5 SWAP4 POP POP POP POP JUMP JUMPDEST PUSH1 0x0 PUSH2 0x205 DUP3 PUSH2 0x20C JUMP JUMPDEST SWAP1 POP SWAP2 SWAP1 POP JUMP JUMPDEST PUSH1 0x0 PUSH20 0xFFFFFFFFFFFFFFFFFFFFFFFFFFFFFFFFFFFFFFFF DUP3 AND SWAP1 POP SWAP2 SWAP1 POP JUMP JUMPDEST PUSH1 0x0 DUP2 SWAP1 POP SWAP2 SWAP1 POP JUMP JUMPDEST PUSH1 0x0 DUP1 REVERT JUMPDEST PUSH2 0x244 DUP2 PUSH2 0x1FA JUMP JUMPDEST DUP2 EQ PUSH2 0x24F JUMPI PUSH1 0x0 DUP1 REVERT JUMPDEST POP JUMP JUMPDEST PUSH2 0x25B DUP2 PUSH2 0x22C JUMP JUMPDEST DUP2 EQ PUSH2 0x266 JUMPI PUSH1 0x0 DUP1 REVERT JUMPDEST POP JUMP INVALID LOG2 PUSH5 0x6970667358 0x22 SLT KECCAK256 SWAP1 0xAA 0x27 MSTORE8 PUSH3 0xABDC15 0xAC 0xB4 SWAP3 0x2B CODECOPY PUSH8 0xFAC1A21BCC3C40A7 0xAA 0xF8 SGT BASEFEE 0xD1 0xB1 0xBA 0xEC DUP1 SWAP9 PUSH5 0x736F6C6343 STOP ADDMOD SMOD STOP CALLER "
				},
				"gasEstimates": {
					"creation": {
						"codeDepositCost": "134200",
						"executionCost": "24443",
						"totalCost": "158643"
					},
					"external": {
						"_owner()": "2489",
						"_transferERC721FundsToAddress(address,address,uint256)": "infinite"
					}
				},
				"methodIdentifiers": {
					"_owner()": "b2bdfa7b",
					"_transferERC721FundsToAddress(address,address,uint256)": "cb9354cd"
				}
			},
			"storageLayout": {
				"storage": [
					{
						"astId": 134,
						"contract": "Pratice2nd.sol:ManiTransfer",
						"label": "_owner",
						"offset": 0,
						"slot": "0",
						"type": "t_address"
					}
				],
				"types": {
					"t_address": {
						"encoding": "inplace",
						"label": "address",
						"numberOfBytes": "20"
					}
				}
			},
			"userdoc": {
				"kind": "user",
				"methods": {},
				"version": 1
			}
		}
	}
}