{
	"Pratice2nd.sol": {
		"ManiTransfer": {
			"abi": [
				{
					"inputs": [
						{
							"internalType": "address",
							"name": "toAddress",
							"type": "address"
						},
						{
							"internalType": "address",
							"name": "tokenAddress",
							"type": "address"
						},
						{
							"internalType": "uint256",
							"name": "tokenId",
							"type": "uint256"
						}
					],
					"name": "_transferERC721FundsToAddress",
					"outputs": [],
					"stateMutability": "nonpayable",
					"type": "function"
				},
				{
					"inputs": [
						{
							"internalType": "address",
							"name": "",
							"type": "address"
						},
						{
							"internalType": "address",
							"name": "",
							"type": "address"
						},
						{
							"internalType": "uint256",
							"name": "",
							"type": "uint256"
						},
						{
							"internalType": "bytes",
							"name": "",
							"type": "bytes"
						}
					],
					"name": "onERC721Received",
					"outputs": [
						{
							"internalType": "bytes4",
							"name": "",
							"type": "bytes4"
						}
					],
					"stateMutability": "nonpayable",
					"type": "function"
				}
			],
			"devdoc": {
				"kind": "dev",
				"methods": {
					"onERC721Received(address,address,uint256,bytes)": {
						"details": "See {IERC721Receiver-onERC721Received}. Always returns `IERC721Receiver.onERC721Received.selector`."
					}
				},
				"version": 1
			},
			"evm": {
				"assembly": "    /* \"Pratice2nd.sol\":188:463  contract ManiTransfer is ERC721Holder {... */\n  mstore(0x40, 0x80)\n  callvalue\n  dup1\n  iszero\n  tag_1\n  jumpi\n  0x00\n  dup1\n  revert\ntag_1:\n  pop\n  dataSize(sub_0)\n  dup1\n  dataOffset(sub_0)\n  0x00\n  codecopy\n  0x00\n  return\nstop\n\nsub_0: assembly {\n        /* \"Pratice2nd.sol\":188:463  contract ManiTransfer is ERC721Holder {... */\n      mstore(0x40, 0x80)\n      callvalue\n      dup1\n      iszero\n      tag_1\n      jumpi\n      0x00\n      dup1\n      revert\n    tag_1:\n      pop\n      jumpi(tag_2, lt(calldatasize, 0x04))\n      shr(0xe0, calldataload(0x00))\n      dup1\n      0x150b7a02\n      eq\n      tag_3\n      jumpi\n      dup1\n      0xcb9354cd\n      eq\n      tag_4\n      jumpi\n    tag_2:\n      0x00\n      dup1\n      revert\n        /* \"@openzeppelin/contracts/token/ERC721/utils/ERC721Holder.sol\":588:788  function onERC721Received(... */\n    tag_3:\n      tag_5\n      0x04\n      dup1\n      calldatasize\n      sub\n      dup2\n      add\n      swap1\n      tag_6\n      swap2\n      swap1\n      tag_7\n      jump\t// in\n    tag_6:\n      tag_8\n      jump\t// in\n    tag_5:\n      mload(0x40)\n      tag_9\n      swap2\n      swap1\n      tag_10\n      jump\t// in\n    tag_9:\n      mload(0x40)\n      dup1\n      swap2\n      sub\n      swap1\n      return\n        /* \"Pratice2nd.sol\":237:461  function _transferERC721FundsToAddress(... */\n    tag_4:\n      tag_11\n      0x04\n      dup1\n      calldatasize\n      sub\n      dup2\n      add\n      swap1\n      tag_12\n      swap2\n      swap1\n      tag_13\n      jump\t// in\n    tag_12:\n      tag_14\n      jump\t// in\n    tag_11:\n      stop\n        /* \"@openzeppelin/contracts/token/ERC721/utils/ERC721Holder.sol\":588:788  function onERC721Received(... */\n    tag_8:\n        /* \"@openzeppelin/contracts/token/ERC721/utils/ERC721Holder.sol\":726:732  bytes4 */\n      0x00\n        /* \"@openzeppelin/contracts/token/ERC721/utils/ERC721Holder.sol\":751:781  this.onERC721Received.selector */\n      shl(0xe0, 0x150b7a02)\n        /* \"@openzeppelin/contracts/token/ERC721/utils/ERC721Holder.sol\":744:781  return this.onERC721Received.selector */\n      swap1\n      pop\n        /* \"@openzeppelin/contracts/token/ERC721/utils/ERC721Holder.sol\":588:788  function onERC721Received(... */\n      swap5\n      swap4\n      pop\n      pop\n      pop\n      pop\n      jump\t// out\n        /* \"Pratice2nd.sol\":237:461  function _transferERC721FundsToAddress(... */\n    tag_14:\n        /* \"Pratice2nd.sol\":389:401  tokenAddress */\n      dup2\n        /* \"Pratice2nd.sol\":381:419  IERC721(tokenAddress).safeTransferFrom */\n      0xffffffffffffffffffffffffffffffffffffffff\n      and\n      0x42842e0e\n        /* \"Pratice2nd.sol\":428:432  this */\n      address\n        /* \"Pratice2nd.sol\":435:444  toAddress */\n      dup6\n        /* \"Pratice2nd.sol\":446:453  tokenId */\n      dup5\n        /* \"Pratice2nd.sol\":381:454  IERC721(tokenAddress).safeTransferFrom(address(this), toAddress, tokenId) */\n      mload(0x40)\n      dup5\n      0xffffffff\n      and\n      0xe0\n      shl\n      dup2\n      mstore\n      0x04\n      add\n      tag_17\n      swap4\n      swap3\n      swap2\n      swap1\n      tag_18\n      jump\t// in\n    tag_17:\n      0x00\n      mload(0x40)\n      dup1\n      dup4\n      sub\n      dup2\n      0x00\n      dup8\n      dup1\n      extcodesize\n      iszero\n      dup1\n      iszero\n      tag_19\n      jumpi\n      0x00\n      dup1\n      revert\n    tag_19:\n      pop\n      gas\n      call\n      iszero\n      dup1\n      iszero\n      tag_21\n      jumpi\n      returndatasize\n      0x00\n      dup1\n      returndatacopy\n      revert(0x00, returndatasize)\n    tag_21:\n      pop\n      pop\n      pop\n      pop\n        /* \"Pratice2nd.sol\":237:461  function _transferERC721FundsToAddress(... */\n      pop\n      pop\n      pop\n      jump\t// out\n        /* \"#utility.yul\":7:417   */\n    tag_23:\n        /* \"#utility.yul\":84:89   */\n      0x00\n        /* \"#utility.yul\":109:174   */\n      tag_25\n        /* \"#utility.yul\":125:173   */\n      tag_26\n        /* \"#utility.yul\":166:172   */\n      dup5\n        /* \"#utility.yul\":125:173   */\n      tag_27\n      jump\t// in\n    tag_26:\n        /* \"#utility.yul\":109:174   */\n      tag_28\n      jump\t// in\n    tag_25:\n        /* \"#utility.yul\":100:174   */\n      swap1\n      pop\n        /* \"#utility.yul\":197:203   */\n      dup3\n        /* \"#utility.yul\":190:195   */\n      dup2\n        /* \"#utility.yul\":183:204   */\n      mstore\n        /* \"#utility.yul\":235:239   */\n      0x20\n        /* \"#utility.yul\":228:233   */\n      dup2\n        /* \"#utility.yul\":224:240   */\n      add\n        /* \"#utility.yul\":273:276   */\n      dup5\n        /* \"#utility.yul\":264:270   */\n      dup5\n        /* \"#utility.yul\":259:262   */\n      dup5\n        /* \"#utility.yul\":255:271   */\n      add\n        /* \"#utility.yul\":252:277   */\n      gt\n        /* \"#utility.yul\":249:361   */\n      iszero\n      tag_29\n      jumpi\n        /* \"#utility.yul\":280:359   */\n      tag_30\n      tag_31\n      jump\t// in\n    tag_30:\n        /* \"#utility.yul\":249:361   */\n    tag_29:\n        /* \"#utility.yul\":370:411   */\n      tag_32\n        /* \"#utility.yul\":404:410   */\n      dup5\n        /* \"#utility.yul\":399:402   */\n      dup3\n        /* \"#utility.yul\":394:397   */\n      dup6\n        /* \"#utility.yul\":370:411   */\n      tag_33\n      jump\t// in\n    tag_32:\n        /* \"#utility.yul\":90:417   */\n      pop\n        /* \"#utility.yul\":7:417   */\n      swap4\n      swap3\n      pop\n      pop\n      pop\n      jump\t// out\n        /* \"#utility.yul\":423:562   */\n    tag_34:\n        /* \"#utility.yul\":469:474   */\n      0x00\n        /* \"#utility.yul\":507:513   */\n      dup2\n        /* \"#utility.yul\":494:514   */\n      calldataload\n        /* \"#utility.yul\":485:514   */\n      swap1\n      pop\n        /* \"#utility.yul\":523:556   */\n      tag_36\n        /* \"#utility.yul\":550:555   */\n      dup2\n        /* \"#utility.yul\":523:556   */\n      tag_37\n      jump\t// in\n    tag_36:\n        /* \"#utility.yul\":423:562   */\n      swap3\n      swap2\n      pop\n      pop\n      jump\t// out\n        /* \"#utility.yul\":581:919   */\n    tag_38:\n        /* \"#utility.yul\":636:641   */\n      0x00\n        /* \"#utility.yul\":685:688   */\n      dup3\n        /* \"#utility.yul\":678:682   */\n      0x1f\n        /* \"#utility.yul\":670:676   */\n      dup4\n        /* \"#utility.yul\":666:683   */\n      add\n        /* \"#utility.yul\":662:689   */\n      slt\n        /* \"#utility.yul\":652:774   */\n      tag_40\n      jumpi\n        /* \"#utility.yul\":693:772   */\n      tag_41\n      tag_42\n      jump\t// in\n    tag_41:\n        /* \"#utility.yul\":652:774   */\n    tag_40:\n        /* \"#utility.yul\":810:816   */\n      dup2\n        /* \"#utility.yul\":797:817   */\n      calldataload\n        /* \"#utility.yul\":835:913   */\n      tag_43\n        /* \"#utility.yul\":909:912   */\n      dup5\n        /* \"#utility.yul\":901:907   */\n      dup3\n        /* \"#utility.yul\":894:898   */\n      0x20\n        /* \"#utility.yul\":886:892   */\n      dup7\n        /* \"#utility.yul\":882:899   */\n      add\n        /* \"#utility.yul\":835:913   */\n      tag_23\n      jump\t// in\n    tag_43:\n        /* \"#utility.yul\":826:913   */\n      swap2\n      pop\n        /* \"#utility.yul\":642:919   */\n      pop\n        /* \"#utility.yul\":581:919   */\n      swap3\n      swap2\n      pop\n      pop\n      jump\t// out\n        /* \"#utility.yul\":925:1064   */\n    tag_44:\n        /* \"#utility.yul\":971:976   */\n      0x00\n        /* \"#utility.yul\":1009:1015   */\n      dup2\n        /* \"#utility.yul\":996:1016   */\n      calldataload\n        /* \"#utility.yul\":987:1016   */\n      swap1\n      pop\n        /* \"#utility.yul\":1025:1058   */\n      tag_46\n        /* \"#utility.yul\":1052:1057   */\n      dup2\n        /* \"#utility.yul\":1025:1058   */\n      tag_47\n      jump\t// in\n    tag_46:\n        /* \"#utility.yul\":925:1064   */\n      swap3\n      swap2\n      pop\n      pop\n      jump\t// out\n        /* \"#utility.yul\":1070:1689   */\n    tag_13:\n        /* \"#utility.yul\":1147:1153   */\n      0x00\n        /* \"#utility.yul\":1155:1161   */\n      dup1\n        /* \"#utility.yul\":1163:1169   */\n      0x00\n        /* \"#utility.yul\":1212:1214   */\n      0x60\n        /* \"#utility.yul\":1200:1209   */\n      dup5\n        /* \"#utility.yul\":1191:1198   */\n      dup7\n        /* \"#utility.yul\":1187:1210   */\n      sub\n        /* \"#utility.yul\":1183:1215   */\n      slt\n        /* \"#utility.yul\":1180:1299   */\n      iszero\n      tag_49\n      jumpi\n        /* \"#utility.yul\":1218:1297   */\n      tag_50\n      tag_51\n      jump\t// in\n    tag_50:\n        /* \"#utility.yul\":1180:1299   */\n    tag_49:\n        /* \"#utility.yul\":1338:1339   */\n      0x00\n        /* \"#utility.yul\":1363:1416   */\n      tag_52\n        /* \"#utility.yul\":1408:1415   */\n      dup7\n        /* \"#utility.yul\":1399:1405   */\n      dup3\n        /* \"#utility.yul\":1388:1397   */\n      dup8\n        /* \"#utility.yul\":1384:1406   */\n      add\n        /* \"#utility.yul\":1363:1416   */\n      tag_34\n      jump\t// in\n    tag_52:\n        /* \"#utility.yul\":1353:1416   */\n      swap4\n      pop\n        /* \"#utility.yul\":1309:1426   */\n      pop\n        /* \"#utility.yul\":1465:1467   */\n      0x20\n        /* \"#utility.yul\":1491:1544   */\n      tag_53\n        /* \"#utility.yul\":1536:1543   */\n      dup7\n        /* \"#utility.yul\":1527:1533   */\n      dup3\n        /* \"#utility.yul\":1516:1525   */\n      dup8\n        /* \"#utility.yul\":1512:1534   */\n      add\n        /* \"#utility.yul\":1491:1544   */\n      tag_34\n      jump\t// in\n    tag_53:\n        /* \"#utility.yul\":1481:1544   */\n      swap3\n      pop\n        /* \"#utility.yul\":1436:1554   */\n      pop\n        /* \"#utility.yul\":1593:1595   */\n      0x40\n        /* \"#utility.yul\":1619:1672   */\n      tag_54\n        /* \"#utility.yul\":1664:1671   */\n      dup7\n        /* \"#utility.yul\":1655:1661   */\n      dup3\n        /* \"#utility.yul\":1644:1653   */\n      dup8\n        /* \"#utility.yul\":1640:1662   */\n      add\n        /* \"#utility.yul\":1619:1672   */\n      tag_44\n      jump\t// in\n    tag_54:\n        /* \"#utility.yul\":1609:1672   */\n      swap2\n      pop\n        /* \"#utility.yul\":1564:1682   */\n      pop\n        /* \"#utility.yul\":1070:1689   */\n      swap3\n      pop\n      swap3\n      pop\n      swap3\n      jump\t// out\n        /* \"#utility.yul\":1695:2638   */\n    tag_7:\n        /* \"#utility.yul\":1790:1796   */\n      0x00\n        /* \"#utility.yul\":1798:1804   */\n      dup1\n        /* \"#utility.yul\":1806:1812   */\n      0x00\n        /* \"#utility.yul\":1814:1820   */\n      dup1\n        /* \"#utility.yul\":1863:1866   */\n      0x80\n        /* \"#utility.yul\":1851:1860   */\n      dup6\n        /* \"#utility.yul\":1842:1849   */\n      dup8\n        /* \"#utility.yul\":1838:1861   */\n      sub\n        /* \"#utility.yul\":1834:1867   */\n      slt\n        /* \"#utility.yul\":1831:1951   */\n      iszero\n      tag_56\n      jumpi\n        /* \"#utility.yul\":1870:1949   */\n      tag_57\n      tag_51\n      jump\t// in\n    tag_57:\n        /* \"#utility.yul\":1831:1951   */\n    tag_56:\n        /* \"#utility.yul\":1990:1991   */\n      0x00\n        /* \"#utility.yul\":2015:2068   */\n      tag_58\n        /* \"#utility.yul\":2060:2067   */\n      dup8\n        /* \"#utility.yul\":2051:2057   */\n      dup3\n        /* \"#utility.yul\":2040:2049   */\n      dup9\n        /* \"#utility.yul\":2036:2058   */\n      add\n        /* \"#utility.yul\":2015:2068   */\n      tag_34\n      jump\t// in\n    tag_58:\n        /* \"#utility.yul\":2005:2068   */\n      swap5\n      pop\n        /* \"#utility.yul\":1961:2078   */\n      pop\n        /* \"#utility.yul\":2117:2119   */\n      0x20\n        /* \"#utility.yul\":2143:2196   */\n      tag_59\n        /* \"#utility.yul\":2188:2195   */\n      dup8\n        /* \"#utility.yul\":2179:2185   */\n      dup3\n        /* \"#utility.yul\":2168:2177   */\n      dup9\n        /* \"#utility.yul\":2164:2186   */\n      add\n        /* \"#utility.yul\":2143:2196   */\n      tag_34\n      jump\t// in\n    tag_59:\n        /* \"#utility.yul\":2133:2196   */\n      swap4\n      pop\n        /* \"#utility.yul\":2088:2206   */\n      pop\n        /* \"#utility.yul\":2245:2247   */\n      0x40\n        /* \"#utility.yul\":2271:2324   */\n      tag_60\n        /* \"#utility.yul\":2316:2323   */\n      dup8\n        /* \"#utility.yul\":2307:2313   */\n      dup3\n        /* \"#utility.yul\":2296:2305   */\n      dup9\n        /* \"#utility.yul\":2292:2314   */\n      add\n        /* \"#utility.yul\":2271:2324   */\n      tag_44\n      jump\t// in\n    tag_60:\n        /* \"#utility.yul\":2261:2324   */\n      swap3\n      pop\n        /* \"#utility.yul\":2216:2334   */\n      pop\n        /* \"#utility.yul\":2401:2403   */\n      0x60\n        /* \"#utility.yul\":2390:2399   */\n      dup6\n        /* \"#utility.yul\":2386:2404   */\n      add\n        /* \"#utility.yul\":2373:2405   */\n      calldataload\n        /* \"#utility.yul\":2432:2450   */\n      0xffffffffffffffff\n        /* \"#utility.yul\":2424:2430   */\n      dup2\n        /* \"#utility.yul\":2421:2451   */\n      gt\n        /* \"#utility.yul\":2418:2535   */\n      iszero\n      tag_61\n      jumpi\n        /* \"#utility.yul\":2454:2533   */\n      tag_62\n      tag_63\n      jump\t// in\n    tag_62:\n        /* \"#utility.yul\":2418:2535   */\n    tag_61:\n        /* \"#utility.yul\":2559:2621   */\n      tag_64\n        /* \"#utility.yul\":2613:2620   */\n      dup8\n        /* \"#utility.yul\":2604:2610   */\n      dup3\n        /* \"#utility.yul\":2593:2602   */\n      dup9\n        /* \"#utility.yul\":2589:2611   */\n      add\n        /* \"#utility.yul\":2559:2621   */\n      tag_38\n      jump\t// in\n    tag_64:\n        /* \"#utility.yul\":2549:2621   */\n      swap2\n      pop\n        /* \"#utility.yul\":2344:2631   */\n      pop\n        /* \"#utility.yul\":1695:2638   */\n      swap3\n      swap6\n      swap2\n      swap5\n      pop\n      swap3\n      pop\n      jump\t// out\n        /* \"#utility.yul\":2644:2762   */\n    tag_65:\n        /* \"#utility.yul\":2731:2755   */\n      tag_67\n        /* \"#utility.yul\":2749:2754   */\n      dup2\n        /* \"#utility.yul\":2731:2755   */\n      tag_68\n      jump\t// in\n    tag_67:\n        /* \"#utility.yul\":2726:2729   */\n      dup3\n        /* \"#utility.yul\":2719:2756   */\n      mstore\n        /* \"#utility.yul\":2644:2762   */\n      pop\n      pop\n      jump\t// out\n        /* \"#utility.yul\":2768:2883   */\n    tag_69:\n        /* \"#utility.yul\":2853:2876   */\n      tag_71\n        /* \"#utility.yul\":2870:2875   */\n      dup2\n        /* \"#utility.yul\":2853:2876   */\n      tag_72\n      jump\t// in\n    tag_71:\n        /* \"#utility.yul\":2848:2851   */\n      dup3\n        /* \"#utility.yul\":2841:2877   */\n      mstore\n        /* \"#utility.yul\":2768:2883   */\n      pop\n      pop\n      jump\t// out\n        /* \"#utility.yul\":2889:3007   */\n    tag_73:\n        /* \"#utility.yul\":2976:3000   */\n      tag_75\n        /* \"#utility.yul\":2994:2999   */\n      dup2\n        /* \"#utility.yul\":2976:3000   */\n      tag_76\n      jump\t// in\n    tag_75:\n        /* \"#utility.yul\":2971:2974   */\n      dup3\n        /* \"#utility.yul\":2964:3001   */\n      mstore\n        /* \"#utility.yul\":2889:3007   */\n      pop\n      pop\n      jump\t// out\n        /* \"#utility.yul\":3013:3455   */\n    tag_18:\n        /* \"#utility.yul\":3162:3166   */\n      0x00\n        /* \"#utility.yul\":3200:3202   */\n      0x60\n        /* \"#utility.yul\":3189:3198   */\n      dup3\n        /* \"#utility.yul\":3185:3203   */\n      add\n        /* \"#utility.yul\":3177:3203   */\n      swap1\n      pop\n        /* \"#utility.yul\":3213:3284   */\n      tag_78\n        /* \"#utility.yul\":3281:3282   */\n      0x00\n        /* \"#utility.yul\":3270:3279   */\n      dup4\n        /* \"#utility.yul\":3266:3283   */\n      add\n        /* \"#utility.yul\":3257:3263   */\n      dup7\n        /* \"#utility.yul\":3213:3284   */\n      tag_65\n      jump\t// in\n    tag_78:\n        /* \"#utility.yul\":3294:3366   */\n      tag_79\n        /* \"#utility.yul\":3362:3364   */\n      0x20\n        /* \"#utility.yul\":3351:3360   */\n      dup4\n        /* \"#utility.yul\":3347:3365   */\n      add\n        /* \"#utility.yul\":3338:3344   */\n      dup6\n        /* \"#utility.yul\":3294:3366   */\n      tag_65\n      jump\t// in\n    tag_79:\n        /* \"#utility.yul\":3376:3448   */\n      tag_80\n        /* \"#utility.yul\":3444:3446   */\n      0x40\n        /* \"#utility.yul\":3433:3442   */\n      dup4\n        /* \"#utility.yul\":3429:3447   */\n      add\n        /* \"#utility.yul\":3420:3426   */\n      dup5\n        /* \"#utility.yul\":3376:3448   */\n      tag_73\n      jump\t// in\n    tag_80:\n        /* \"#utility.yul\":3013:3455   */\n      swap5\n      swap4\n      pop\n      pop\n      pop\n      pop\n      jump\t// out\n        /* \"#utility.yul\":3461:3679   */\n    tag_10:\n        /* \"#utility.yul\":3552:3556   */\n      0x00\n        /* \"#utility.yul\":3590:3592   */\n      0x20\n        /* \"#utility.yul\":3579:3588   */\n      dup3\n        /* \"#utility.yul\":3575:3593   */\n      add\n        /* \"#utility.yul\":3567:3593   */\n      swap1\n      pop\n        /* \"#utility.yul\":3603:3672   */\n      tag_82\n        /* \"#utility.yul\":3669:3670   */\n      0x00\n        /* \"#utility.yul\":3658:3667   */\n      dup4\n        /* \"#utility.yul\":3654:3671   */\n      add\n        /* \"#utility.yul\":3645:3651   */\n      dup5\n        /* \"#utility.yul\":3603:3672   */\n      tag_69\n      jump\t// in\n    tag_82:\n        /* \"#utility.yul\":3461:3679   */\n      swap3\n      swap2\n      pop\n      pop\n      jump\t// out\n        /* \"#utility.yul\":3685:3814   */\n    tag_28:\n        /* \"#utility.yul\":3719:3725   */\n      0x00\n        /* \"#utility.yul\":3746:3766   */\n      tag_84\n      tag_85\n      jump\t// in\n    tag_84:\n        /* \"#utility.yul\":3736:3766   */\n      swap1\n      pop\n        /* \"#utility.yul\":3775:3808   */\n      tag_86\n        /* \"#utility.yul\":3803:3807   */\n      dup3\n        /* \"#utility.yul\":3795:3801   */\n      dup3\n        /* \"#utility.yul\":3775:3808   */\n      tag_87\n      jump\t// in\n    tag_86:\n        /* \"#utility.yul\":3685:3814   */\n      swap2\n      swap1\n      pop\n      jump\t// out\n        /* \"#utility.yul\":3820:3895   */\n    tag_85:\n        /* \"#utility.yul\":3853:3859   */\n      0x00\n        /* \"#utility.yul\":3886:3888   */\n      0x40\n        /* \"#utility.yul\":3880:3889   */\n      mload\n        /* \"#utility.yul\":3870:3889   */\n      swap1\n      pop\n        /* \"#utility.yul\":3820:3895   */\n      swap1\n      jump\t// out\n        /* \"#utility.yul\":3901:4208   */\n    tag_27:\n        /* \"#utility.yul\":3962:3966   */\n      0x00\n        /* \"#utility.yul\":4052:4070   */\n      0xffffffffffffffff\n        /* \"#utility.yul\":4044:4050   */\n      dup3\n        /* \"#utility.yul\":4041:4071   */\n      gt\n        /* \"#utility.yul\":4038:4094   */\n      iszero\n      tag_90\n      jumpi\n        /* \"#utility.yul\":4074:4092   */\n      tag_91\n      tag_92\n      jump\t// in\n    tag_91:\n        /* \"#utility.yul\":4038:4094   */\n    tag_90:\n        /* \"#utility.yul\":4112:4141   */\n      tag_93\n        /* \"#utility.yul\":4134:4140   */\n      dup3\n        /* \"#utility.yul\":4112:4141   */\n      tag_94\n      jump\t// in\n    tag_93:\n        /* \"#utility.yul\":4104:4141   */\n      swap1\n      pop\n        /* \"#utility.yul\":4196:4200   */\n      0x20\n        /* \"#utility.yul\":4190:4194   */\n      dup2\n        /* \"#utility.yul\":4186:4201   */\n      add\n        /* \"#utility.yul\":4178:4201   */\n      swap1\n      pop\n        /* \"#utility.yul\":3901:4208   */\n      swap2\n      swap1\n      pop\n      jump\t// out\n        /* \"#utility.yul\":4214:4310   */\n    tag_68:\n        /* \"#utility.yul\":4251:4258   */\n      0x00\n        /* \"#utility.yul\":4280:4304   */\n      tag_96\n        /* \"#utility.yul\":4298:4303   */\n      dup3\n        /* \"#utility.yul\":4280:4304   */\n      tag_97\n      jump\t// in\n    tag_96:\n        /* \"#utility.yul\":4269:4304   */\n      swap1\n      pop\n        /* \"#utility.yul\":4214:4310   */\n      swap2\n      swap1\n      pop\n      jump\t// out\n        /* \"#utility.yul\":4316:4465   */\n    tag_72:\n        /* \"#utility.yul\":4352:4359   */\n      0x00\n        /* \"#utility.yul\":4392:4458   */\n      0xffffffff00000000000000000000000000000000000000000000000000000000\n        /* \"#utility.yul\":4385:4390   */\n      dup3\n        /* \"#utility.yul\":4381:4459   */\n      and\n        /* \"#utility.yul\":4370:4459   */\n      swap1\n      pop\n        /* \"#utility.yul\":4316:4465   */\n      swap2\n      swap1\n      pop\n      jump\t// out\n        /* \"#utility.yul\":4471:4597   */\n    tag_97:\n        /* \"#utility.yul\":4508:4515   */\n      0x00\n        /* \"#utility.yul\":4548:4590   */\n      0xffffffffffffffffffffffffffffffffffffffff\n        /* \"#utility.yul\":4541:4546   */\n      dup3\n        /* \"#utility.yul\":4537:4591   */\n      and\n        /* \"#utility.yul\":4526:4591   */\n      swap1\n      pop\n        /* \"#utility.yul\":4471:4597   */\n      swap2\n      swap1\n      pop\n      jump\t// out\n        /* \"#utility.yul\":4603:4680   */\n    tag_76:\n        /* \"#utility.yul\":4640:4647   */\n      0x00\n        /* \"#utility.yul\":4669:4674   */\n      dup2\n        /* \"#utility.yul\":4658:4674   */\n      swap1\n      pop\n        /* \"#utility.yul\":4603:4680   */\n      swap2\n      swap1\n      pop\n      jump\t// out\n        /* \"#utility.yul\":4686:4840   */\n    tag_33:\n        /* \"#utility.yul\":4770:4776   */\n      dup3\n        /* \"#utility.yul\":4765:4768   */\n      dup2\n        /* \"#utility.yul\":4760:4763   */\n      dup4\n        /* \"#utility.yul\":4747:4777   */\n      calldatacopy\n        /* \"#utility.yul\":4832:4833   */\n      0x00\n        /* \"#utility.yul\":4823:4829   */\n      dup4\n        /* \"#utility.yul\":4818:4821   */\n      dup4\n        /* \"#utility.yul\":4814:4830   */\n      add\n        /* \"#utility.yul\":4807:4834   */\n      mstore\n        /* \"#utility.yul\":4686:4840   */\n      pop\n      pop\n      pop\n      jump\t// out\n        /* \"#utility.yul\":4846:5127   */\n    tag_87:\n        /* \"#utility.yul\":4929:4956   */\n      tag_103\n        /* \"#utility.yul\":4951:4955   */\n      dup3\n        /* \"#utility.yul\":4929:4956   */\n      tag_94\n      jump\t// in\n    tag_103:\n        /* \"#utility.yul\":4921:4927   */\n      dup2\n        /* \"#utility.yul\":4917:4957   */\n      add\n        /* \"#utility.yul\":5059:5065   */\n      dup2\n        /* \"#utility.yul\":5047:5057   */\n      dup2\n        /* \"#utility.yul\":5044:5066   */\n      lt\n        /* \"#utility.yul\":5023:5041   */\n      0xffffffffffffffff\n        /* \"#utility.yul\":5011:5021   */\n      dup3\n        /* \"#utility.yul\":5008:5042   */\n      gt\n        /* \"#utility.yul\":5005:5067   */\n      or\n        /* \"#utility.yul\":5002:5090   */\n      iszero\n      tag_104\n      jumpi\n        /* \"#utility.yul\":5070:5088   */\n      tag_105\n      tag_92\n      jump\t// in\n    tag_105:\n        /* \"#utility.yul\":5002:5090   */\n    tag_104:\n        /* \"#utility.yul\":5110:5120   */\n      dup1\n        /* \"#utility.yul\":5106:5108   */\n      0x40\n        /* \"#utility.yul\":5099:5121   */\n      mstore\n        /* \"#utility.yul\":4889:5127   */\n      pop\n        /* \"#utility.yul\":4846:5127   */\n      pop\n      pop\n      jump\t// out\n        /* \"#utility.yul\":5133:5313   */\n    tag_92:\n        /* \"#utility.yul\":5181:5258   */\n      0x4e487b7100000000000000000000000000000000000000000000000000000000\n        /* \"#utility.yul\":5178:5179   */\n      0x00\n        /* \"#utility.yul\":5171:5259   */\n      mstore\n        /* \"#utility.yul\":5278:5282   */\n      0x41\n        /* \"#utility.yul\":5275:5276   */\n      0x04\n        /* \"#utility.yul\":5268:5283   */\n      mstore\n        /* \"#utility.yul\":5302:5306   */\n      0x24\n        /* \"#utility.yul\":5299:5300   */\n      0x00\n        /* \"#utility.yul\":5292:5307   */\n      revert\n        /* \"#utility.yul\":5319:5436   */\n    tag_42:\n        /* \"#utility.yul\":5428:5429   */\n      0x00\n        /* \"#utility.yul\":5425:5426   */\n      dup1\n        /* \"#utility.yul\":5418:5430   */\n      revert\n        /* \"#utility.yul\":5442:5559   */\n    tag_31:\n        /* \"#utility.yul\":5551:5552   */\n      0x00\n        /* \"#utility.yul\":5548:5549   */\n      dup1\n        /* \"#utility.yul\":5541:5553   */\n      revert\n        /* \"#utility.yul\":5565:5682   */\n    tag_63:\n        /* \"#utility.yul\":5674:5675   */\n      0x00\n        /* \"#utility.yul\":5671:5672   */\n      dup1\n        /* \"#utility.yul\":5664:5676   */\n      revert\n        /* \"#utility.yul\":5688:5805   */\n    tag_51:\n        /* \"#utility.yul\":5797:5798   */\n      0x00\n        /* \"#utility.yul\":5794:5795   */\n      dup1\n        /* \"#utility.yul\":5787:5799   */\n      revert\n        /* \"#utility.yul\":5811:5913   */\n    tag_94:\n        /* \"#utility.yul\":5852:5858   */\n      0x00\n        /* \"#utility.yul\":5903:5905   */\n      0x1f\n        /* \"#utility.yul\":5899:5906   */\n      not\n        /* \"#utility.yul\":5894:5896   */\n      0x1f\n        /* \"#utility.yul\":5887:5892   */\n      dup4\n        /* \"#utility.yul\":5883:5897   */\n      add\n        /* \"#utility.yul\":5879:5907   */\n      and\n        /* \"#utility.yul\":5869:5907   */\n      swap1\n      pop\n        /* \"#utility.yul\":5811:5913   */\n      swap2\n      swap1\n      pop\n      jump\t// out\n        /* \"#utility.yul\":5919:6041   */\n    tag_37:\n        /* \"#utility.yul\":5992:6016   */\n      tag_113\n        /* \"#utility.yul\":6010:6015   */\n      dup2\n        /* \"#utility.yul\":5992:6016   */\n      tag_68\n      jump\t// in\n    tag_113:\n        /* \"#utility.yul\":5985:5990   */\n      dup2\n        /* \"#utility.yul\":5982:6017   */\n      eq\n        /* \"#utility.yul\":5972:6035   */\n      tag_114\n      jumpi\n        /* \"#utility.yul\":6031:6032   */\n      0x00\n        /* \"#utility.yul\":6028:6029   */\n      dup1\n        /* \"#utility.yul\":6021:6033   */\n      revert\n        /* \"#utility.yul\":5972:6035   */\n    tag_114:\n        /* \"#utility.yul\":5919:6041   */\n      pop\n      jump\t// out\n        /* \"#utility.yul\":6047:6169   */\n    tag_47:\n        /* \"#utility.yul\":6120:6144   */\n      tag_116\n        /* \"#utility.yul\":6138:6143   */\n      dup2\n        /* \"#utility.yul\":6120:6144   */\n      tag_76\n      jump\t// in\n    tag_116:\n        /* \"#utility.yul\":6113:6118   */\n      dup2\n        /* \"#utility.yul\":6110:6145   */\n      eq\n        /* \"#utility.yul\":6100:6163   */\n      tag_117\n      jumpi\n        /* \"#utility.yul\":6159:6160   */\n      0x00\n        /* \"#utility.yul\":6156:6157   */\n      dup1\n        /* \"#utility.yul\":6149:6161   */\n      revert\n        /* \"#utility.yul\":6100:6163   */\n    tag_117:\n        /* \"#utility.yul\":6047:6169   */\n      pop\n      jump\t// out\n\n    auxdata: 0xa26469706673582212206fba8ac8ee9ec1d101d4a292007d84e69c2fa09a04743c8d4ceaf029f82c476164736f6c63430008070033\n}\n",
				"bytecode": {
					"linkReferences": {},
					"object": "608060405234801561001057600080fd5b506104b4806100206000396000f3fe608060405234801561001057600080fd5b50600436106100365760003560e01c8063150b7a021461003b578063cb9354cd1461006b575b600080fd5b610055600480360381019061005091906101fc565b610087565b60405161006291906102e3565b60405180910390f35b610085600480360381019061008091906101a9565b61009b565b005b600063150b7a0260e01b9050949350505050565b8173ffffffffffffffffffffffffffffffffffffffff166342842e0e3085846040518463ffffffff1660e01b81526004016100d8939291906102ac565b600060405180830381600087803b1580156100f257600080fd5b505af1158015610106573d6000803e3d6000fd5b50505050505050565b600061012261011d84610323565b6102fe565b90508281526020810184848401111561013e5761013d610430565b5b6101498482856103bc565b509392505050565b60008135905061016081610450565b92915050565b600082601f83011261017b5761017a61042b565b5b813561018b84826020860161010f565b91505092915050565b6000813590506101a381610467565b92915050565b6000806000606084860312156101c2576101c161043a565b5b60006101d086828701610151565b93505060206101e186828701610151565b92505060406101f286828701610194565b9150509250925092565b600080600080608085870312156102165761021561043a565b5b600061022487828801610151565b945050602061023587828801610151565b935050604061024687828801610194565b925050606085013567ffffffffffffffff81111561026757610266610435565b5b61027387828801610166565b91505092959194509250565b61028881610354565b82525050565b61029781610366565b82525050565b6102a6816103b2565b82525050565b60006060820190506102c1600083018661027f565b6102ce602083018561027f565b6102db604083018461029d565b949350505050565b60006020820190506102f8600083018461028e565b92915050565b6000610308610319565b905061031482826103cb565b919050565b6000604051905090565b600067ffffffffffffffff82111561033e5761033d6103fc565b5b6103478261043f565b9050602081019050919050565b600061035f82610392565b9050919050565b60007fffffffff0000000000000000000000000000000000000000000000000000000082169050919050565b600073ffffffffffffffffffffffffffffffffffffffff82169050919050565b6000819050919050565b82818337600083830152505050565b6103d48261043f565b810181811067ffffffffffffffff821117156103f3576103f26103fc565b5b80604052505050565b7f4e487b7100000000000000000000000000000000000000000000000000000000600052604160045260246000fd5b600080fd5b600080fd5b600080fd5b600080fd5b6000601f19601f8301169050919050565b61045981610354565b811461046457600080fd5b50565b610470816103b2565b811461047b57600080fd5b5056fea26469706673582212206fba8ac8ee9ec1d101d4a292007d84e69c2fa09a04743c8d4ceaf029f82c476164736f6c63430008070033",
					"opcodes": "PUSH1 0x80 PUSH1 0x40 MSTORE CALLVALUE DUP1 ISZERO PUSH2 0x10 JUMPI PUSH1 0x0 DUP1 REVERT JUMPDEST POP PUSH2 0x4B4 DUP1 PUSH2 0x20 PUSH1 0x0 CODECOPY PUSH1 0x0 RETURN INVALID PUSH1 0x80 PUSH1 0x40 MSTORE CALLVALUE DUP1 ISZERO PUSH2 0x10 JUMPI PUSH1 0x0 DUP1 REVERT JUMPDEST POP PUSH1 0x4 CALLDATASIZE LT PUSH2 0x36 JUMPI PUSH1 0x0 CALLDATALOAD PUSH1 0xE0 SHR DUP1 PUSH4 0x150B7A02 EQ PUSH2 0x3B JUMPI DUP1 PUSH4 0xCB9354CD EQ PUSH2 0x6B JUMPI JUMPDEST PUSH1 0x0 DUP1 REVERT JUMPDEST PUSH2 0x55 PUSH1 0x4 DUP1 CALLDATASIZE SUB DUP2 ADD SWAP1 PUSH2 0x50 SWAP2 SWAP1 PUSH2 0x1FC JUMP JUMPDEST PUSH2 0x87 JUMP JUMPDEST PUSH1 0x40 MLOAD PUSH2 0x62 SWAP2 SWAP1 PUSH2 0x2E3 JUMP JUMPDEST PUSH1 0x40 MLOAD DUP1 SWAP2 SUB SWAP1 RETURN JUMPDEST PUSH2 0x85 PUSH1 0x4 DUP1 CALLDATASIZE SUB DUP2 ADD SWAP1 PUSH2 0x80 SWAP2 SWAP1 PUSH2 0x1A9 JUMP JUMPDEST PUSH2 0x9B JUMP JUMPDEST STOP JUMPDEST PUSH1 0x0 PUSH4 0x150B7A02 PUSH1 0xE0 SHL SWAP1 POP SWAP5 SWAP4 POP POP POP POP JUMP JUMPDEST DUP2 PUSH20 0xFFFFFFFFFFFFFFFFFFFFFFFFFFFFFFFFFFFFFFFF AND PUSH4 0x42842E0E ADDRESS DUP6 DUP5 PUSH1 0x40 MLOAD DUP5 PUSH4 0xFFFFFFFF AND PUSH1 0xE0 SHL DUP2 MSTORE PUSH1 0x4 ADD PUSH2 0xD8 SWAP4 SWAP3 SWAP2 SWAP1 PUSH2 0x2AC JUMP JUMPDEST PUSH1 0x0 PUSH1 0x40 MLOAD DUP1 DUP4 SUB DUP2 PUSH1 0x0 DUP8 DUP1 EXTCODESIZE ISZERO DUP1 ISZERO PUSH2 0xF2 JUMPI PUSH1 0x0 DUP1 REVERT JUMPDEST POP GAS CALL ISZERO DUP1 ISZERO PUSH2 0x106 JUMPI RETURNDATASIZE PUSH1 0x0 DUP1 RETURNDATACOPY RETURNDATASIZE PUSH1 0x0 REVERT JUMPDEST POP POP POP POP POP POP POP JUMP JUMPDEST PUSH1 0x0 PUSH2 0x122 PUSH2 0x11D DUP5 PUSH2 0x323 JUMP JUMPDEST PUSH2 0x2FE JUMP JUMPDEST SWAP1 POP DUP3 DUP2 MSTORE PUSH1 0x20 DUP2 ADD DUP5 DUP5 DUP5 ADD GT ISZERO PUSH2 0x13E JUMPI PUSH2 0x13D PUSH2 0x430 JUMP JUMPDEST JUMPDEST PUSH2 0x149 DUP5 DUP3 DUP6 PUSH2 0x3BC JUMP JUMPDEST POP SWAP4 SWAP3 POP POP POP JUMP JUMPDEST PUSH1 0x0 DUP2 CALLDATALOAD SWAP1 POP PUSH2 0x160 DUP2 PUSH2 0x450 JUMP JUMPDEST SWAP3 SWAP2 POP POP JUMP JUMPDEST PUSH1 0x0 DUP3 PUSH1 0x1F DUP4 ADD SLT PUSH2 0x17B JUMPI PUSH2 0x17A PUSH2 0x42B JUMP JUMPDEST JUMPDEST DUP2 CALLDATALOAD PUSH2 0x18B DUP5 DUP3 PUSH1 0x20 DUP7 ADD PUSH2 0x10F JUMP JUMPDEST SWAP2 POP POP SWAP3 SWAP2 POP POP JUMP JUMPDEST PUSH1 0x0 DUP2 CALLDATALOAD SWAP1 POP PUSH2 0x1A3 DUP2 PUSH2 0x467 JUMP JUMPDEST SWAP3 SWAP2 POP POP JUMP JUMPDEST PUSH1 0x0 DUP1 PUSH1 0x0 PUSH1 0x60 DUP5 DUP7 SUB SLT ISZERO PUSH2 0x1C2 JUMPI PUSH2 0x1C1 PUSH2 0x43A JUMP JUMPDEST JUMPDEST PUSH1 0x0 PUSH2 0x1D0 DUP7 DUP3 DUP8 ADD PUSH2 0x151 JUMP JUMPDEST SWAP4 POP POP PUSH1 0x20 PUSH2 0x1E1 DUP7 DUP3 DUP8 ADD PUSH2 0x151 JUMP JUMPDEST SWAP3 POP POP PUSH1 0x40 PUSH2 0x1F2 DUP7 DUP3 DUP8 ADD PUSH2 0x194 JUMP JUMPDEST SWAP2 POP POP SWAP3 POP SWAP3 POP SWAP3 JUMP JUMPDEST PUSH1 0x0 DUP1 PUSH1 0x0 DUP1 PUSH1 0x80 DUP6 DUP8 SUB SLT ISZERO PUSH2 0x216 JUMPI PUSH2 0x215 PUSH2 0x43A JUMP JUMPDEST JUMPDEST PUSH1 0x0 PUSH2 0x224 DUP8 DUP3 DUP9 ADD PUSH2 0x151 JUMP JUMPDEST SWAP5 POP POP PUSH1 0x20 PUSH2 0x235 DUP8 DUP3 DUP9 ADD PUSH2 0x151 JUMP JUMPDEST SWAP4 POP POP PUSH1 0x40 PUSH2 0x246 DUP8 DUP3 DUP9 ADD PUSH2 0x194 JUMP JUMPDEST SWAP3 POP POP PUSH1 0x60 DUP6 ADD CALLDATALOAD PUSH8 0xFFFFFFFFFFFFFFFF DUP2 GT ISZERO PUSH2 0x267 JUMPI PUSH2 0x266 PUSH2 0x435 JUMP JUMPDEST JUMPDEST PUSH2 0x273 DUP8 DUP3 DUP9 ADD PUSH2 0x166 JUMP JUMPDEST SWAP2 POP POP SWAP3 SWAP6 SWAP2 SWAP5 POP SWAP3 POP JUMP JUMPDEST PUSH2 0x288 DUP2 PUSH2 0x354 JUMP JUMPDEST DUP3 MSTORE POP POP JUMP JUMPDEST PUSH2 0x297 DUP2 PUSH2 0x366 JUMP JUMPDEST DUP3 MSTORE POP POP JUMP JUMPDEST PUSH2 0x2A6 DUP2 PUSH2 0x3B2 JUMP JUMPDEST DUP3 MSTORE POP POP JUMP JUMPDEST PUSH1 0x0 PUSH1 0x60 DUP3 ADD SWAP1 POP PUSH2 0x2C1 PUSH1 0x0 DUP4 ADD DUP7 PUSH2 0x27F JUMP JUMPDEST PUSH2 0x2CE PUSH1 0x20 DUP4 ADD DUP6 PUSH2 0x27F JUMP JUMPDEST PUSH2 0x2DB PUSH1 0x40 DUP4 ADD DUP5 PUSH2 0x29D JUMP JUMPDEST SWAP5 SWAP4 POP POP POP POP JUMP JUMPDEST PUSH1 0x0 PUSH1 0x20 DUP3 ADD SWAP1 POP PUSH2 0x2F8 PUSH1 0x0 DUP4 ADD DUP5 PUSH2 0x28E JUMP JUMPDEST SWAP3 SWAP2 POP POP JUMP JUMPDEST PUSH1 0x0 PUSH2 0x308 PUSH2 0x319 JUMP JUMPDEST SWAP1 POP PUSH2 0x314 DUP3 DUP3 PUSH2 0x3CB JUMP JUMPDEST SWAP2 SWAP1 POP JUMP JUMPDEST PUSH1 0x0 PUSH1 0x40 MLOAD SWAP1 POP SWAP1 JUMP JUMPDEST PUSH1 0x0 PUSH8 0xFFFFFFFFFFFFFFFF DUP3 GT ISZERO PUSH2 0x33E JUMPI PUSH2 0x33D PUSH2 0x3FC JUMP JUMPDEST JUMPDEST PUSH2 0x347 DUP3 PUSH2 0x43F JUMP JUMPDEST SWAP1 POP PUSH1 0x20 DUP2 ADD SWAP1 POP SWAP2 SWAP1 POP JUMP JUMPDEST PUSH1 0x0 PUSH2 0x35F DUP3 PUSH2 0x392 JUMP JUMPDEST SWAP1 POP SWAP2 SWAP1 POP JUMP JUMPDEST PUSH1 0x0 PUSH32 0xFFFFFFFF00000000000000000000000000000000000000000000000000000000 DUP3 AND SWAP1 POP SWAP2 SWAP1 POP JUMP JUMPDEST PUSH1 0x0 PUSH20 0xFFFFFFFFFFFFFFFFFFFFFFFFFFFFFFFFFFFFFFFF DUP3 AND SWAP1 POP SWAP2 SWAP1 POP JUMP JUMPDEST PUSH1 0x0 DUP2 SWAP1 POP SWAP2 SWAP1 POP JUMP JUMPDEST DUP3 DUP2 DUP4 CALLDATACOPY PUSH1 0x0 DUP4 DUP4 ADD MSTORE POP POP POP JUMP JUMPDEST PUSH2 0x3D4 DUP3 PUSH2 0x43F JUMP JUMPDEST DUP2 ADD DUP2 DUP2 LT PUSH8 0xFFFFFFFFFFFFFFFF DUP3 GT OR ISZERO PUSH2 0x3F3 JUMPI PUSH2 0x3F2 PUSH2 0x3FC JUMP JUMPDEST JUMPDEST DUP1 PUSH1 0x40 MSTORE POP POP POP JUMP JUMPDEST PUSH32 0x4E487B7100000000000000000000000000000000000000000000000000000000 PUSH1 0x0 MSTORE PUSH1 0x41 PUSH1 0x4 MSTORE PUSH1 0x24 PUSH1 0x0 REVERT JUMPDEST PUSH1 0x0 DUP1 REVERT JUMPDEST PUSH1 0x0 DUP1 REVERT JUMPDEST PUSH1 0x0 DUP1 REVERT JUMPDEST PUSH1 0x0 DUP1 REVERT JUMPDEST PUSH1 0x0 PUSH1 0x1F NOT PUSH1 0x1F DUP4 ADD AND SWAP1 POP SWAP2 SWAP1 POP JUMP JUMPDEST PUSH2 0x459 DUP2 PUSH2 0x354 JUMP JUMPDEST DUP2 EQ PUSH2 0x464 JUMPI PUSH1 0x0 DUP1 REVERT JUMPDEST POP JUMP JUMPDEST PUSH2 0x470 DUP2 PUSH2 0x3B2 JUMP JUMPDEST DUP2 EQ PUSH2 0x47B JUMPI PUSH1 0x0 DUP1 REVERT JUMPDEST POP JUMP INVALID LOG2 PUSH5 0x6970667358 0x22 SLT KECCAK256 PUSH16 0xBA8AC8EE9EC1D101D4A292007D84E69C 0x2F LOG0 SWAP11 DIV PUSH21 0x3C8D4CEAF029F82C476164736F6C63430008070033 "
				},
				"gasEstimates": {
					"creation": {
						"codeDepositCost": "240800",
						"executionCost": "281",
						"totalCost": "241081"
					},
					"external": {
						"_transferERC721FundsToAddress(address,address,uint256)": "infinite",
						"onERC721Received(address,address,uint256,bytes)": "infinite"
					}
				},
				"methodIdentifiers": {
					"_transferERC721FundsToAddress(address,address,uint256)": "cb9354cd",
					"onERC721Received(address,address,uint256,bytes)": "150b7a02"
				}
			},
			"storageLayout": {
				"storage": [],
				"types": null
			},
			"userdoc": {
				"kind": "user",
				"methods": {},
				"version": 1
			}
		}
	}
}